:100000000C942D060C9474060C9474060C94DE0764
:100010000C9474060C9474060C9474060C94740678
:100020000C9474060C9474060C94992E0C946C2FFA
:100030000C9421290C9474060C9474060C94740688
:100040000C9474060C9474060C9474060C94740648
:100050000C9474060C9489290C9474060C94740600
:100060000C9474060C9474060C9474060C94740628
:100070000C9474060C9474060C9474060C94740618
:100080000C9474060C9474060C9474060C94740608
:100090000C94C7060C9474060C9474060C947406A5
:1000A0000C9474060C9474060C9474060000000002
:1000B00000003E5B4F5B3E003E6B4F6B3E001C3EC4
:1000C0007C3E1C00183C7E3C18001C577D571C00D1
:1000D0001C5E7F5E1C0000183C180000FFE7C3E7B1
:1000E000FF00001824180000FFE7DBE7FF0030489E
:1000F0003A060E00262979292600407F05050700CB
:10010000407F05253F005A3CE73C5A007F3E1C1CBF
:100110000800081C1C3E7F0014227F2214005F5F31
:10012000005F5F0006097F017F00006689956A0015
:1001300060606060600094A2FFA2940008047E04E6
:10014000080010207E20100008082A1C0800081C47
:100150002A0808001E10101010000C1E0C1E0C00A7
:1001600030383E383000060E3E0E0600000000001B
:10017000000000005F000000000700070000147F7F
:10018000147F1400242A7F2A1200231308646200BB
:10019000364956205000000807030000001C224189
:1001A00000000041221C00002A1C7F1C2A000808B5
:1001B0003E080800008070300000080808080800A9
:1001C0000000606000002010080402003E51494514
:1001D0003E0000427F4000007249494946002141EB
:1001E000494D33001814127F10002745454539004A
:1001F0003C4A494931004121110907003649494922
:100200003600464949291E00000014000000004045
:1002100034000000000814224100141414141400C7
:100220000041221408000201590906003E415D59AF
:100230004E007C1211127C007F49494936003E4134
:10024000414122007F4141413E007F4949494100EF
:100250007F09090901003E41415173007F080808E8
:100260007F0000417F4100002040413F01007F08A6
:10027000142241007F40404040007F021C027F006A
:100280007F0408107F003E4141413E007F0909097B
:1002900006003E4151215E007F091929460026498A
:1002A0004949320003017F0103003F4040403F00C5
:1002B0001F2040201F003F4038403F0063140814B7
:1002C00063000304780403006159494D4300007F33
:1002D00041414100020408102000004141417F00DB
:1002E00004020102040040404040400000030708AF
:1002F00000002054547840007F284444380038449B
:1003000044442800384444287F003854545418008A
:1003100000087E0902001824241C78007F080404C9
:10032000780000447D4000002040403D00007F10E8
:100330002844000000417F4000007C0478047800DD
:100340007C08040478003844444438007C18242491
:100350001800182424187C007C0804040800485461
:100360005454240004043F4424003C4040207C00BA
:100370001C2040201C003C4030403C0044281028F9
:1003800044004C9090907C004464544C440000081D
:1003900036410000000077000000004136080000F0
:1003A0000201020402003C2623263C00000000005B
:1003B0000080808080000000000080E070180C1831
:1003C00030E080000010F8901030783010B8FC3821
:1003D00010000000000000F8FCF800000000000021
:1003E000000000000000001C9C1C00000000F8FC45
:1003F000F80000000000001CFCF8C0000000000035
:100400000080E0F87C1C000000F0FCFCFC1C1C1CC4
:100410001C1C1C1C1C000000000000C0F0F8381C54
:100420001C1C1C1C1C3CF8F0E000E0F0F0F0E0ECC0
:10043000EEF7F37020007C7C7C7E007E7E7E7F7FEA
:100440007F000080C0E07E5B4F5BFEC00000C0000C
:10045000DCD7DEDEDED7DC00C000000000000000DC
:10046000000000000000000000000000000000008C
:10047000000FBCE0818181838382870C183060C0CB
:1004800000001FFE90B9FFBB91983C1811133F115B
:1004900000000000000000FFFFFF0000000000005F
:1004A00000000000000000FFFFFF00000000FFFF51
:1004B000FF0000000000000000030F7FF8E080F064
:1004C000FC3F0F0100000000003F3F3F1C1C1C1CB4
:1004D0001C3C78F8F0E08000000000C3E7FF7E3CA1
:1004E0003878787070F8FFDF87000F1F3F7F7F7FBD
:1004F0007F7F3F1E0C001F1F1F3F003F3F3F7F7F3E
:100500007F00307B7F7830202030787F3B000300F5
:100510000F7F0F0F0F7F0F0003000000000000008F
:10052000000000000000000000000000183C2466ED
:100530006341C18180808080808081C14162386C4C
:100540004CC68181808080808081C14362361C18C6
:1005500000000000000000FFFFFFC0C0C0C0C0C01E
:10056000C0C0C0800000007FFF7F000000007FFF50
:10057000FFC080000000E0E0C0C0C0E0F97F1F07BE
:1005800000000000000000000070F0E0E0C0C0C00B
:10059000C0E0F0F87F3F0F0000000F3F7FF9E0E080
:1005A000C0C0C0C0C0E0F97F3F1F000000000000D5
:1005B000000000000000000000000000000000003B
:1005C000000000000000000000000000000000002B
:1005D000000000000000000000000000000000001B
:1005E000000000000000000000000000165C1E007B
:1005F0001F002000210022002B0014001A00080018
:1006000015001700025D04001600070009000A002B
:10061000E1001D001B000600190005000000E000BD
:10062000E200E3002C002F002A002700260025000E
:10063000240023003100130012000C0018001C00DD
:10064000340033000F000E000D000B0028003800AE
:1006500037003600100011000000E700E600035DDF
:100660002800300001003A003B003C003D0022021F
:1006700000001E021F0220022102220201004B0084
:10068000000000000000000001004E000100010019
:1006900001000000000001000100010001002F0224
:1006A000610060005F00410040003F005E005D00AF
:1006B0005C002502240223025B005A00590000005E
:1006C000000000005800630062000000000000000D
:1006D00000000100010001000100300201000100E2
:1006E00001000100010022020000000000000000E3
:1006F00000000000000000000000000000000000FA
:1007000000000000000000000000000000000100E8
:100710000100010001002F027F002E002D000000CB
:100720008000810031022E022D025200BB00BC006D
:10073000270226024F0051005000B0003702360257
:1007400030002F0022022102000001000100010000
:100750000100300200000000000000000000000066
:100760000000000000000000000000000000000089
:100770000000000000000000000000000000000079
:100780000000000000000100010001000100000065
:100790000000BE5CBB5CBF5C0000075CC15CBD5C74
:1007A000BC5CC15C0000105CC95CC75CC55CC25C21
:1007B00000000000CA5CC85CC65CC35C00000000AE
:1007C0000000010001000100010000000000000025
:1007D000000000002A2B280000000000000000009C
:1007E0000000000000000029000000002C1E342042
:1007F000212224342627252E362D3738271E1F2068
:100800002122232425263333362E37381F040506AC
:100810000708090A0B0C0D0E0F10111213141516F0
:100820001718191A1B1C1D2F3130232D35040506EE
:100830000708090A0B0C0D0E0F10111213141516D0
:100840001718191A1B1C1D2F3130354C00000000E1
:100850000000000000000000000000000000000098
:100860000000000000000000000000000000000088
:100870000000000000000000000000000000000078
:100880000000000000000000000000000000000068
:100890000000000000000000000000000000000058
:1008A0000000000000000000000000000000000048
:1008B0000000000000000000000000000000000038
:1008C0000000000000000000000000000000000028
:1008D0000000000000000000000000000000000018
:1008E0000000000000000000000000000001010105
:1008F00001010100010101010000000000000000F1
:1009000000000000000001000100010101010101DF
:1009100001010101010101010101010101010101C7
:1009200001010101010101000000010100000000BE
:1009300000000000000000000000000000000000B7
:1009400000000000000000010101010000047F3FE1
:100950001F643214643214783C1E1E140A052223CC
:10096000252628292A2C2D2F3032333536383A3B8C
:100970003D3E4042434547494A4C4E5051535557DE
:10098000595A5C5E6062646668696B6D6F717375FD
:1009900077797B7D7F81838587898A8C8E909294FD
:1009A00096989A9C9E9FA1A3A5A7A8AAACAEAFB10A
:1009B000B3B4B6B8B9BBBCBEBFC1C2C3C5C6C7C954
:1009C000CACBCCCDCED0D1D2D2D3D4D5D6D7D7D80E
:1009D000D9D9DADADBDBDBDCDCDCDCDCDDDDDDDD60
:1009E000DCDCDCDCDCDBDBDBDADAD9D9D8D7D7D668
:1009F000D5D4D3D2D2D1D0CECDCCCBCAC9C7C6C51F
:100A0000C3C2C1BFBEBCBBB9B8B6B4B3B1AFAEAC64
:100A1000AAA8A7A5A3A19F9E9C9A98969492908E0F
:100A20008C8A89878583817F7D7B79777573716FE8
:100A30006D6B6968666462605E5C5A5957555351C4
:100A4000504E4C4A4947454342403E3D3B3A38367A
:100A5000353332302F2D2C2A292826252322FFAA90
:100A60007F55400001010101010101010102020263
:100A7000020202020202030303030303030304044A
:100A80000404040404050505050506060606060714
:100A90000707070708080808090909090A0A0A0BCD
:100AA0000B0B0C0C0C0D0D0D0E0E0E0F0F0F10106E
:100AB00011111112121313141415151616171718F5
:100AC0001819191A1A1B1B1C1D1D1E1E1F20202160
:100AD0002222232424252626272829292A2B2C2DA7
:100AE0002D2E2F30313232333435363738393A3BC8
:100AF0003C3D3E3F404142434445464748494A4CBD
:100B00004D4E4F50515354555658595A5B5D5E5F88
:100B1000616264656668696B6C6D6F70727375771E
:100B2000787A7B7D7E8082838587888A8C8E8F9180
:100B3000939596989A9C9EA0A2A3A5A7A9ABADAFAA
:100B4000B1B3B5B7BABCBEC0C2C4C6C9CBCDCFD194
:100B5000D4D6D8DBDDDFE2E4E7E9EBEEF0F3F5F83D
:100B6000FAFDFF0403300000000E034C0069006C26
:100B7000007900350038000000120346005F00597C
:100B800000550055004300480049000000040309D7
:100B90000409023B00020100A0FA0904000001035D
:100BA0000101000921110100012240000705810314
:100BB00008000A09040100010300000009211101D5
:100BC0000001223B000705820320000A12011001E8
:100BD0000000000851FC580000010102030105015A
:100BE0000906A1018505050719E029E7150025017A
:100BF0009508750181020507190029EF15002501E7
:100C000095F0750181020508190129059505750101
:100C10009102950175039101C005010906A1010525
:100C20000719E029E715002501950875018102954E
:100C300001750881010507190029FF150026FF002D
:100C400095067508810005081901290595057501A6
:100C50009102950175039101C00011241FBECFEFD1
:100C6000DAE0DEBFCDBF04B603FE27C08091760474
:100C700090917704A0917804B09179048730904BDB
:100C8000A740B04BD1F410927604109277041092E2
:100C900078041092790414BE84B7877F84BF0FB69E
:100CA000F894A8958091600088618093600010920C
:100CB00060000FBEE0E0F8E3099512E0A0E0B1E0CB
:100CC000E0E8F9E602C005900D92A035B107D9F72A
:100CD00024E0A0E5B2E001C01D92A637B207E1F71B
:100CE0000E94C62B0C94BE340C94000083E390E069
:100CF0002091BC0027FD02C00197D1F70895109202
:100D0000B9008CE08093B8000895CF93C82F84EA8F
:100D10008093BC000E9476068091B900887F88305D
:100D200041F08091B900887F803119F081E0CF9146
:100D30000895C093BB0084E88093BC000E947606AF
:100D40008091B900887F883129F08091B900887F2F
:100D5000803461F780E0EBCF84E98093BC0083E3CB
:100D600090E02091BC0024FD02C00197D1F70895C6
:100D70008093BB0084E88093BC000E94760690912B
:100D8000B900987F81E0983209F480E008951F92BD
:100D90000F920FB60F9211248F939F93EF93FF93AF
:100DA0008091B900887F8038C1F038F4882309F435
:100DB0004CC0803679F081E022C0883A11F0883B3F
:100DC000D1F7E0915102F0E0EB57FC4F8081809326
:100DD000BB0032C010925002EECF809150028111C0
:100DE00023C08091BB0080935102809151028031D9
:100DF000C8F01092510280E091E0909350029091DF
:100E0000BC008295880F880F807C9568892B809321
:100E1000BC00FF91EF919F918F910F900FBE0F90AB
:100E20001F90189581E0E8CFE0915102F0E08091A9
:100E3000BB00EB57FC4F80838091510290E00196FC
:100E40008F70992780935102B6CF1092BC00B3CF18
:100E50008EE14A9B02C08150E1F74A9BFECF089584
:100E60005A9880E28A95F1F75A9A0895FC013BE07E
:100E70003A95F1F720E090E080E031E040E14A95DA
:100E8000F1F7880F4A9B02C08160232742E04A9510
:100E9000F1F7000040E14A95F1F79F5F6913EECF4B
:100EA00090E19A95F1F799B132E03A95F1F70000A7
:100EB00040E14A95F1F792FB992790F9922720811A
:100EC000920F90830895EF92FF920F931F93CF9309
:100ED000DF931F92CDB7DEB719828C017C01E60E3D
:100EE000F11C0E151F0561F481E09981911180E0DC
:100EF0000F90DF91CF911F910F91FF90EF90089588
:100F00000E94280768E0CE0101960E943607F8018A
:100F100081938F01E6CF90935402809353026093A4
:100F20005202529A5A9A089590935402809353020F
:100F30006093520252985A9AEA9AE9E6F0E0808168
:100F40008F7C808308956150770B91E001C0990FE9
:100F50006A95EAF720E031E0911108C0222391F070
:100F60005A9A80E28A95F1F75A980895492F4823B2
:100F700039F05A9A232740E24A95F1F79695ECCF3B
:100F80005A98F9CF5A98EDCFFF920F931F93CF93B2
:100F9000DF93EC018C01060F111DC017D10731F44E
:100FA000DF91CF911F910F91FF900895F9900E94CA
:100FB000300768E08F2D0E94A307EFCF1F920F929A
:100FC0000FB60F9211240F931F932F933F934F93BC
:100FD0005F936F937F938F939F93AF93BF93EF93A1
:100FE000FF93CF93DF931F92CDB7DEB719820E9494
:100FF000280767E0CE0101960E943607082F069564
:1010000006950695982F92959570202F2570920F32
:10101000292F2370969596958770920F891344C057
:101020008981811141C0809152028017E8F120E14D
:101030002A95F1F75A9A529A82E08A95F1F700C000
:10104000A8E00A9FC001112400915302109154029C
:10105000080F191F5A98F8016581662321F08681CF
:1010600097810E94C4070E943007F0E1FA95F1F7DA
:101070005A9852985A9A20E12A95F1F7D801129677
:101080006C911297662331F113968D919C910E9479
:101090006307D801ED91FC91882311F088E001C02D
:1010A00082E080830E9428070F90DF91CF91FF910B
:1010B000EF91BF91AF919F918F917F916F915F91D0
:1010C0004F913F912F911F910F910F900FBE0F9055
:1010D0001F901895ED91FC91E1CF0F931F93CF9343
:1010E000DF9320915202281719060CF471C08C016D
:1010F00093E0000F111F9A95E1F7C0915302D09130
:101100005402C00FD11FF894529A5A9825E02A959C
:10111000F1F70000982F969595708570980F892F9C
:10112000837096959695980F092B0E94300700C002
:1011300067E0802F0E94A30780E18A95F1F752981B
:101140005A9A4A9B17C087E090E04A9915C06D8172
:10115000662321F18E819F810E94630781111EC049
:10116000529A5A9AE881F98182E08083789482E0E9
:1011700090E00DC000C0E5CF019771F4529A5A9AE1
:10118000E881F98181E08083789481E090E0DF91CB
:10119000CF911F910F91089500C0D7CF0E942807CB
:1011A00020E22A95F1F75A98529A80E18A95F1F750
:1011B0006A81662321F08B819C810E94C4070E9472
:1011C0003007E881F9811082789490E080E0DFCFE9
:1011D00084E090E0DCCFCF93C82F88E70E9485069B
:1011E000882311F0C0E00BC080E00E94B806811196
:1011F000F9CF8C2F0E94B806C1E08111F3CF0E9475
:10120000AC068C2FCF910895CF93C62F0E94EB0888
:10121000882321F08C2FCF910C94EB0880E0CF91A4
:101220000895CF93C62F0E94EB08882349F080E0F1
:101230000E94EB08882321F08C2FCF910C94EB08AF
:1012400080E0CF9108958EEA0C94EB088FEA0C941D
:10125000EB080F931F93CF93DF93EC018C010C5A93
:101260001F4FD801ED91FC91119760838D919C9156
:10127000119701968D939C938C1B9D0B8435910542
:10128000B9F4BE016B5E7F4F4FE350E0CE010E9488
:101290006831CE01CF96F8019183808345E150E01B
:1012A00060E270E0DF91CF911F910F910C947A3141
:1012B000DF91CF911F910F9108951F93CF93DF93EB
:1012C000EC01FC01EA5AFF4F81E080836A30B1F4FF
:1012D0003297808191818C1B9D0B65E170E00E94AB
:1012E0003431182F153120F0DF91CF911F910895DF
:1012F00060E2CE010E9429091F5FF4CFCE01DF9189
:10130000CF911F910C942909EF92FF920F931F9395
:10131000CF93DF937C01EB01FB0101900020E9F703
:101320008F0101501109C017D10738F0DF91CF911B
:101330001F910F91FF90EF9008956991C7010E944E
:101340005D09F1CFCF92DF92EF92FF920F931F933F
:10135000CF93DF93CDB7DEB77C010DB71EB7DB01AE
:101360000D900020E9F7CD01861B970B01962DB754
:101370003EB7281B390B0FB6F8943EBF0FBE2DBFEA
:10138000ADB7BEB711966D017F936F932DE731E036
:101390003F932F939F938F93DF92AF930E94883157
:1013A000B601C7010E9484092DB73EB7285F3F4FA1
:1013B0000FB6F8943EBF0FBE2DBF0FB6F8941EBFF8
:1013C0000FBE0DBFDF91CF911F910F91FF90EF9056
:1013D000DF90CF900895CF93DF93EC0144E550E088
:1013E00060E270E00E947A31FE01EC5AFF4FD18337
:1013F000C083CA5ADF4F81E08883DF91CF9108957F
:101400008F929F92AF92BF92CF92DF92EF92FF9214
:101410000F931F93CF93DF938C010E9453299093D6
:101420005602809355020E94260963E082E20E94E0
:101430001109882309F440C06DE781E20E94110977
:101440008823D1F188E70E948506811135C080E4A8
:101450000E94B806811130C0580184E0982E96E0B1
:10146000892EF12CE12CF501EE0DFF1DC081C89DE8
:10147000E0011124D12CC12CC455DF4FFE01EC0D2D
:10148000FD1D84910E94B8068FEFC81AD80A86E025
:10149000C816D10499F78FEFE81AF80A85E1E81623
:1014A000F10409F79A9485E1A80EB11C9110D9CFE7
:1014B000F801EA5AFF4F1082DF91CF911F910F91EF
:1014C000FF90EF90DF90CF90BF90AF909F908F9064
:1014D0000C94AC0685E993E00C94000A1F93CF931B
:1014E000DF93C82F0E947F068EEA0E94EB088111CD
:1014F00006C0C0E08C2FDF91CF911F91089560E866
:1015000085ED0E9404098823A1F36FE188EA0E9417
:101510000409882371F360E083ED0E9404098823A5
:1015200041F380E40E94EB08882319F364E18DE81D
:101530000E9404098823E9F260E080E20E94040925
:101540008823B9F2CC2309F465C080EA0E94EB0835
:10155000882379F280EC0E94EB08882351F262E044
:101560008AED0E940409882321F26FE881E80E9435
:101570000409882309F4BDCF61EF89ED0E940409B5
:10158000882309F4B6CF60E48BED0E940409882318
:1015900009F4AFCF84EA0E94EB08882309F4A9CFAD
:1015A00086EA0E94EB08882309F4A3CF8EE20E940A
:1015B000EB08882309F49DCF8FEA0E94EB0888236B
:1015C00009F497CF60E081E80E940409C82F8823BE
:1015D00009F48FCF85E993E00E94EB0963E082E292
:1015E0000E941109882389F06FE781E20E941109A6
:1015F000882359F088E70E948506811106C080E49F
:101600000E94B80614E08823A9F00E94AC060E944C
:101610006A0A70CF81EA0E94EB08882309F469CF37
:1016200088EC99CF80E00E94B806DF5FD038D1F710
:10163000115011F0D0E0F6CF1092EB03E6CF0E94EC
:101640008F0E8091EB03811104C0809100018823EB
:1016500021F00E946A0A1092000180915502909137
:1016600056020E945F2981369A4E10F00C9423098D
:10167000089581E0809300010895CF93DF93A7E858
:10168000B1E04CE851E0C1E0D0E08D91E82FE29567
:10169000EF70F0E061A18F709E0101C0220F8A956A
:1016A000EAF7922F9095962391A382A1822B82A391
:1016B0004A175B0751F7DF91CF9108950C94400EC4
:1016C0000C944E0E80916003836088608093600369
:1016D0000E943D0BA1E8B1E061E070E08D91E82F40
:1016E000E295EF70F0E041A18F709B0101C0220FE5
:1016F0008A95EAF7922F9095942391A382A1822B49
:1017000082A381E0A738B80749F7559A209A5D9AD5
:10171000289AE1E6F2E0A7E5B2E011921D9282E09C
:10172000EB36F807D1F70E94D20C80936B020C9431
:10173000B60F9F92AF92BF92CF92DF92EF92FF923D
:101740000F931F93CF93DF9380910201D0E0C0E00D
:10175000811102C0C5E0D0E087E8E82E81E0F82ED4
:101760008E01095A1D4F6801AA24A394B12C25E0CB
:10177000922EF70181917F01E82FE295EF70F0E062
:1017800021A18F70A50102C0440F551F8A95E2F771
:10179000CA01922F982B91A392A18095892382A3AD
:1017A00050EA5A95F1F7E1E8F1E020E050E040E03E
:1017B0003191A32FA295AF70B0E090968C9190E0FC
:1017C0003F7002C0959587953A95E2F780FD39C044
:1017D000C501042E01C0880F0A94EAF7282B4F5F39
:1017E0005F4F4630510521F7F60181916F01821755
:1017F00021F031972083909201010E943D0BFCE87B
:10180000EF16F1E0FF0609F0B4CF809101018823C3
:1018100059F08150809301018823A9F08FE99FE05E
:101820000197F1F700C0000081E0DF91CF911F9197
:101830000F91FF90EF90DF90CF90BF90AF909F906F
:10184000089580E0CBCFCF59DD4F85E0F80191912D
:101850008F0199938150D1F7E7CFCF93DF932091F8
:101860000201D0E0C0E0222311F0C5E0D0E00E94E8
:10187000FA0C009731F0029709F4289881E090E083
:101880000BC0289ADE01AF59BD4F25E0E7E7F2E033
:1018900001900D922A95E1F7DF91CF9108950E9472
:1018A000990B80910201F0E0E0E0811102C0E5E0D7
:1018B000F0E0EF59FD4F90E080E020E0DC01A95816
:1018C000BD4F4C913191431321E03C9301968530FB
:1018D0009105A1F780916F02820F80936F020895A6
:1018E000CF93DF9380916B02882309F440C00E945C
:1018F000990B80910201D0E0C0E0811102C0C5E0E7
:10190000D0E0CF59DD4F45E050E0BE0182E792E0E4
:101910000E945B3125E0FE01A2E7B2E001900D924A
:101920002A95E1F70E942D0C892BE9F05D988091B2
:101930006C028F5F80936C02863078F08091020198
:10194000F0E0E0E0882311F0E5E0F0E0EF59FD4F32
:10195000108211821282138214820E94B30F81E0DE
:10196000DF91CF9108955D9A10926C02F6CF0E949C
:101970004F0C80910201B0E0A0E0882311F0A5E0B7
:10198000B0E0AF59BD4F85E0E2E7F2E001900D9283
:101990008A95E1F7E2CFE82FF0E0EF59FD4F808123
:1019A00008950895E8EDF0E08081806180838AE108
:1019B0008A95F1F700C08091D900817008950E9446
:1019C000D20C809302010E94D20C81110E94EE0C75
:1019D0000E94F40C789408950C94DF0C63E070E09E
:1019E00083E091E00C948B0763E070E083E091E08A
:1019F0000C9494070F931F93CF93DF938C019091D6
:101A00001C0180911B01D0E0C0E0981759F082E0E2
:101A100090E00E946D08EC01892B21F480911B015C
:101A200080931C01012BD1F480916D0290916E0284
:101A3000892BA1F490E080E00E946D08892B89F445
:101A400080916F0280931B0110926E0210926D02C2
:101A5000CE01DF91CF911F910F91089581E090E029
:101A6000EBCF81E090E090936E0280936D02F0CF17
:101A70008091330390913403A0913503B0913603E4
:101A800084309105A105B105E1F128F50097A10584
:101A9000B10571F16DEA71E082309105A105B105E2
:101AA00049F1BF93AF939F938F9388EC91E09F93FD
:101AB0008F931F9288E18F938CEE93E09F938F9387
:101AC0000E9488318DB79EB70A960FB6F8949EBFD4
:101AD0000FBE8DBF13C088309105A105B10529F057
:101AE0008E309105A105B105E1F66AEB71E002C007
:101AF00061E971E08CEE93E00E9481318CEE93E01D
:101B0000089560EA71E0F6CF8DE191E00895CF93FA
:101B1000C0E28C33910520F4FC01E651FE4FC081F8
:101B20001F92CF939F938F93FB0180811F928F937E
:101B300081811F928F9389ED91E09F938F931F92E4
:101B400088E18F9383E992E09F938F930E9488317D
:101B50008DB79EB70E960FB6F8949EBF0FBE8DBF81
:101B600080917C0290917D02449779F080917C0273
:101B700090917D02FC01E258FD4FC0830196909345
:101B80007D0280937C02CF91089510927D02109285
:101B90007C02EEE7F2E080E292E0E239F90731F30D
:101BA0008193FACF83E992E008958EE792E0089559
:101BB0000F931F93CF93DF93EC018B010E94390B9E
:101BC000882351F0B801CE010E94B30E8170DF91DD
:101BD000CF911F910F91089580E0F8CF08958F92D3
:101BE0009F92AF92BF92CF92DF92EF92FF920F93AC
:101BF0001F93C12CD12C7601C3949701860104C098
:101C0000000F111F221F331F6A95D2F7460157019B
:101C100004C0880C991CAA1CBB1C8A95D2F7D5015C
:101C2000C401802B912BA22BB32B00913303109175
:101C300034032091350330913603082319232A23D6
:101C40003B2380179107A207B30769F4842F1F91E4
:101C50000F91FF90EF90DF90CF90BF90AF909F904B
:101C60008F900C945E25842F1F910F91FF90EF9021
:101C7000DF90CF90BF90AF909F908F900C947F2576
:101C800080910604869590E0909305048093040467
:101C90000E94D20C91E089270C946E0A0C941F0BC1
:101CA000CF93DF93EC0180916B028823A1F00E9417
:101CB000380DBC01CE010E94A2090E94D20DBC01C8
:101CC000CE010E94A2090E94D50DBC01CE01DF9178
:101CD000CF910C94A2090E94840DBC01CE01DF912A
:101CE000CF910C9484090F931F93CF93DF93EC0152
:101CF0008B0144E550E00E945B31892B59F084E56B
:101D0000F801DE0101900D928A95E1F7CA5ADF4F82
:101D100081E08883DF91CF911F910F910895CF9338
:101D2000DF93CDB7DEB7C755D1090FB6F894DEBF44
:101D30000FBECDBFCE0101960E94EB09CE010196E8
:101D40000E94500EBE016F5F7F4F85E993E00E94B5
:101D5000730EC95ADF4F0FB6F894DEBF0FBECDBF6A
:101D6000DF91CF9108950F931F93CF93DF938C0151
:101D7000EB018A81882319F0C8010E94870D023087
:101D80008DE51807E1F028F401301D4581F0C1E030
:101D90002CC003308DE51807F1F004301D45B9F76C
:101DA000CA8183E0CC2339F10E945E2506C0CA8136
:101DB000CC23D9F080E00E94A00FC0E016C0CA81F9
:101DC00081E0CC2359F00E945E2543E062E081E08F
:101DD0000E94EF0DF2CFCA8182E0F3CF0E947F25EF
:101DE00043E062E081E00E94EF0D8C2FDF91CF9104
:101DF0001F910F9108950E947F25F7CF81E00895EC
:101E00001F93CF93DF9300D000D01F92CDB7DEB7E2
:101E100049835A836B832091D20289819A8121114F
:101E20001BC06623A9F00E945626182F682F8981AF
:101E30009A810E94FA2569817A81812F0F900F90F3
:101E40000F900F900F90DF91CF911F910C94821201
:101E50000E942A26182FEFCF0E94562669817A8188
:101E6000EDCFFC01408151816281738184810C94AA
:101E7000000F1F93CF93DF9390E0FC01E453F84FE2
:101E80001491FC01E453F74FD491845B974FFC010C
:101E9000C491DD2319F081EE0E943F1ECC2319F07E
:101EA00086EE0E943F1E812F0E94261FCC2319F030
:101EB00086EE0E94FE1EDD2331F081EEDF91CF9190
:101EC0001F910C94FE1EDF91CF911F910895FF92F8
:101ED0000F931F93CF93DF93EC01F62E8881882315
:101EE00031F18E010F5F1F4F813041F4C9818C2F7A
:101EF0000E943F1E8C2F0E94FE1E05C0823079F486
:101F000089810E943F1EE80121968F2D815030F378
:101F1000EFE9FFE03197F1F700C00000F7CF833021
:101F200011F48981E8CF0E94390F8E01ECCFDF9147
:101F3000CF911F910F91FF90089560E00C94670F6F
:101F4000CF93DF93C1E0D0E002C0CC0FDD1F8A95B4
:101F5000E2F78C2F0E94A227BE0190E080E0DF9183
:101F6000CF910C94FC240C94600B08950E948F2751
:101F7000811102C00E943A280E94B50F0C945E0B9A
:101F800008950C94EE0D08950E949A210E94C30FAB
:101F90002FEF84E39CE0215080409040E1F700C0A7
:101FA000000087E797E790930108809300080C945E
:101FB000AF290F931F93CF93DF938C010E94310FB2
:101FC000EC01B8010E94D80D882309F403C1B801BF
:101FD000CE010E94D71B882309F4FCC0B801CE01B2
:101FE0000E94AF1C882309F4F5C0CB3C8CE5D807D0
:101FF00009F433C108F051C0C33CECE5DE0709F435
:1020000003C148F5C6318CE5D807A8F4C2309CE579
:10201000D90708F09FC0C115ECE5DE0709F4D5C06B
:10202000C130DC4509F4DCC0C801DF91CF911F91BC
:102030000F910C94FE0EC6318CE5D80709F442C20C
:10204000C23CDC4589F7F8018281882309F4C2C0CB
:102050000E943C1ABFC0F8018281C73CFCE5DF0743
:1020600009F4EBC068F4C53CECE5DE0709F4E0C018
:1020700008F4D5C0882309F4ADC00E94D517AAC0C2
:10208000C93C9CE5D90709F4E2C008F4DBC0882309
:1020900009F4A0C00E9411189DC0C33DFCE5DF07F4
:1020A00009F419C190F5F8018281CF3CFCE5DF0706
:1020B00009F4E8C0A8F4CD3CECE5DE0709F4DBC088
:1020C00008F4D3C0882309F485C00E9449168230E1
:1020D00028F00E944916853008F4A7C082E0CFC0DE
:1020E000C13D9CE5D90709F4E8C008F4D8C08823AD
:1020F00009F470C00E944916853128F00E944916E3
:10210000873108F492C085E1BAC0CD3DFCE5DF0718
:1021100009F4FFC0A0F4C53D9CE5D90709F4F2C05D
:1021200008F4E0C0CC3DDC4509F07ECFF8018281A7
:10213000882309F44FC080E00E94612C4BC0CE3D43
:102140008CE5D80709F459C0CE018A5F9C450797F2
:1021500008F06ACFF8018281882309F465CF0E94D4
:102160008F27811102C00E943A280E94A7279093CE
:10217000670480936604CF30FCE5DF0709F487C16C
:1021800008F0FFC0C8309CE5D90709F468C108F021
:10219000D5C0C430FCE5DF0709F44FC108F0C0C06A
:1021A000C2309CE5D90709F442C18091660482607F
:1021B000C330DC4509F43EC1809166049091670408
:1021C0000E94B5270E949A2105C0F80182818111E1
:1021D0000E94C40F80E0DF91CF911F910F9108956D
:1021E000F80182818823B1F390916003892F8E7F5B
:1021F00090FF816080936003EDCFF8018281882396
:1022000049F30E943A28E6CFF8018281882311F32E
:102210000E94EB26827249F00E942E1ADBCF88239F
:10222000C9F20E94EB268272B9F30E94211AD2CF22
:10223000882381F20E94C817CDCF882359F20E94CB
:10224000E417C8CF882331F20E94F317C3CF882345
:1022500009F4C0CF0E940218BDCFF8018281882303
:1022600009F4B8CF0E945116B5CF882309F4B2CF34
:102270000E946216AFCF882309F4ACCF81E00E94A0
:10228000311AA8CF882309F4A5CF0E9449168630B9
:1022900020F00E944916883040F286E0F0CF882373
:1022A00009F498CF0E944916893028F00E944916F7
:1022B0008E3008F4BACF89E0E2CF882309F48ACFC0
:1022C0000E9449168F3028F00E944916843108F484
:1022D000ACCF8FE0D4CFF8018281882309F47ACF84
:1022E00088E1CDCFF8018281882309F473CF0E9461
:1022F0004916893128F00E944916823208F495CF98
:1023000089E1BDCFF8018281882309F463CF83E29C
:10231000B6CFF8018281882309F45CCF82E00CCF2C
:10232000809166048061C630FCE5DF0709F482C055
:1023300008F487C08091660480627CC0CB309CE545
:10234000D90709F498C068F4C930FCE5DF0709F43F
:102350008AC0CA30DC4509F02FCF809166048860BE
:102360006EC0CD309CE5D90709F489C08091660420
:102370008D7FCE30DC4508F45DC080916604877F98
:1023800059C0CA3FFCE5DF0709F45FC050F5C23110
:102390009CE5D90709F483C068F4C031FCE5DF0788
:1023A00009F479C0C131DC4509F006CF809166049B
:1023B0008F7B40C0C4319CE5D90709F47CC008F488
:1023C00072C0C531DC4509F0F7CE8091660482FB0E
:1023D000992790F921E0922790FB82F990FB83F9ED
:1023E00029C0CD3F8CE5D80709F44DC060F4CB3F40
:1023F000ECE5DE0771F180916704CC3FDC4509F024
:10240000DBCE8E7F29C0CF3F8CE5D80709F44FC0C3
:1024100070F1C115DD4509F0CFCE80916704982F8A
:10242000909591708E7F892B90FB81F915C08091DA
:102430006604816080936604BFCE809166048460E8
:10244000F9CF809166048860F5CF80916704816040
:1024500003C080916704826080936704ADCE809151
:1024600066048064E7CF809166048068E3CF809142
:1024700067048260ECCF809166048E7FDBCF809111
:1024800066048B7FD7CF809167048D7FE5CF8091E5
:1024900066048F7ECFCF809166048F7DCBCF8091F5
:1024A00066048F77C7CF80916604877FEACF8091DB
:1024B00067048D7FA6CF90916604892F97FB87F9DB
:1024C0008058B8CF0E94EB26F8019281992381F0C1
:1024D0008A7A91E009F490E09093AB02811106C0F2
:1024E00089E20E94C6260E942C2774CE85E3F9CF8C
:1024F0008091AB02811104C089E20E94CD26F3CF06
:1025000085E3FBCF972F70E026E0929F600D711D51
:102510001124FB019CE3899FE00DF11D1124EE0FB6
:10252000FF1FE451FA4F859194910895FC01EE0F3D
:10253000FF1FE45BF64F859194910895CF93DF934D
:102540000E9482120E948A14EC018115914508F0C4
:102550004BC0C11580E5D80708F034C1C83ED1058D
:1025600010F5C03ED10580F5C83AD10570F4C53AE2
:10257000D10508F0B2C0C130D10531F118F0C43036
:10258000D10510F5D0E0C0E01FC0CF3BD10508F465
:10259000AFC0CE01805C9109C03CD10598F30E9488
:1025A0009612EC0111C0C11520E3D20788F4C115C1
:1025B00080E2D80708F0FDC0C03FD10518F3CF3F37
:1025C000D10509F008F4F3C0CE01DF91CF91089551
:1025D000C11520E4D20708F0F2C0CE019927D3FF3D
:1025E000EBC0EC01D86CF0CFC11589E5D80768F5D0
:1025F000C11528E5D20708F02EC1C11584E5D8071A
:1026000078F4C11523E5D20708F00CC1C11582E5A5
:10261000D80708F0F3C0DC2FCC27C16FD06AD4CF25
:10262000C11525E5D20708F411C1C11586E5D80703
:1026300008F0A8CF8C2F0E942515C82FD0E0DC2FE2
:10264000CC27CC27DF71D062BFCFCD3B2CE5D207A2
:1026500009F40CC1E0F4CB3B2CE5D20709F400C12E
:1026600008F001C1C1152AE5D20708F08BCF8C2FE5
:102670008F700E94251534E0D695C7953A95E1F7FD
:10268000CF70D0E0DC2FCC27D069C82B9DCFC03CC9
:102690008CE5D80709F4F0C060F4CE3B8CE5D80790
:1026A00009F4E7C0CF3BDC4509F06CCFC0E0D2EDC8
:1026B0008BCFCE0190568115904208F063CF8D2FBD
:1026C0008F710E942515DD27D06290E0982F882712
:1026D00088279F71C82BD92B77CFC53AD10509F42C
:1026E000CEC0C63AD10509F4CDC0C3E8D0E46CCF62
:1026F000C83AD10509F4C9C0C93AD10509F4C8C01E
:10270000CA3AD10509F4C7C0CB3AD10509F4C6C00D
:10271000CC3AD10509F4C5C0CB3BD10509F4C4C0FE
:10272000CC3BD10509F4C3C0CD3AD10509F4C2C0F0
:10273000C03BD10509F4C1C0CE3AD10509F4C0C0EF
:10274000CF3AD10509F4BFC0C13BD10509F4BEC0E1
:10275000C23BD10509F4BDC0C33BD10509F4BCC0DF
:10276000C43BD10509F4BBC0C53BD10509F4BAC0CF
:10277000C63BD10509F4B9C0C73BD10509F4B8C0BF
:10278000C83BD10509F4B7C0C93BD10509F4B6C0AF
:10279000CD3BD10509F4B5C0CE3BD10509F4B4C099
:1027A000CA3BD10509F0B3C0CAE2D6E40DCFD0656B
:1027B0000BCFCE019F70F3CEEC01D06C05CFDF7054
:1027C000D06A02CFCE01F4E096958795FA95E1F7AD
:1027D00083709C2F937021E030E002C0220F331FE2
:1027E0009A95E2F73C68382BC695C695C37080E28F
:1027F000C89FE0011124C22BD32BE6CECE018370FB
:10280000992721E030E002C0220F331F8A95E2F7BA
:10281000C695C69580E2C89FE0011124C22BD32B38
:10282000DC68D2CECE018370992721E030E002C06F
:10283000220F331F8A95E2F7C695C69580E2C89F9E
:10284000E0011124C22BD32BDA68BECEDC2FCC27BB
:10285000C46FD06AB9CEDC2FCC27C06FD06AB4CE9B
:10286000C0E0D4EDB1CEC0E0D5EDAECEC0E0D1ED4C
:10287000ABCEC0E0D0EDA8CEC0E0D3EDA5CEC1E890
:10288000D0E4A2CEC2E8D0E49FCEC2EED4E49CCE87
:10289000C9EED4E499CECAEED4E496CEC5EBD4E426
:1028A00093CEC6EBD4E490CEC3EBD4E48DCEC4EB90
:1028B000D4E48ACEC7EBD4E487CECCECD4E484CE87
:1028C000CDECD4E481CEC3E8D5E47ECECAE8D5E42D
:1028D0007BCEC2E9D5E478CEC4E9D5E475CEC1E2B9
:1028E000D6E472CEC3E2D6E46FCEC4E2D6E46CCEB8
:1028F000C5E2D6E469CEC6E2D6E466CEC7E2D6E447
:1029000063CECFE6D4E460CEC0E7D4E45DCEC0E0D1
:10291000D4E45ACE82389105B1F1B0F481339105F7
:1029200009F471C048F48932910509F467C08A320C
:10293000910509F46DC008958533910509F459C0D6
:102940008933910501F10895833E9105A9F138F489
:10295000803E9105F9F0823E910549F10895863E49
:102960009105A9F1873E9105C9F1843E910519F5BC
:102970002091670421FF1FC08091660484FD14C06C
:1029800087EE90E00895209166042370A1F080EE18
:1029900090E008952091660420FD3FC030916704C7
:1029A00030FF09C024FF3CC090E080E008952091F2
:1029B000660422FDF7CF08952091660422FD33C0FE
:1029C0003091670430FDE3CF24FDEECFF4CF2091AA
:1029D000660423FFF0CF24FDE7CFD2CF2091660419
:1029E00023FD24C03091670431FFEECF84EE90E0E8
:1029F00008952091660425FD1CC008952091660469
:102A000025FD1AC008952091660426FD18C008957A
:102A10002091660426FD16C0089589E390E008958C
:102A200083EE90E0089582EE90E0089586EE90E0C7
:102A3000089589E290E0089585E390E008958AE2A0
:102A400090E0089581E390E0B6CF9091660492FF04
:102A500006C0282F28712830F9F4877F846093FFFF
:102A600006C0282F28712831F1F4877E84612091D7
:102A7000670420FF06C0382F38713830D9F4877FBB
:102A8000816021FF06C0282F28712831D1F4877E6C
:102A9000816194FD877E0895282F24712430F9F6F2
:102AA0008B7F8860DCCF282F2471243101F78B7E47
:102AB0008861DDCF382F3171313019F78E7F886012
:102AC000E0CF282F2171213121F78E7E8861E1CF5F
:102AD000AF92BF92CF92DF92EF92FF920F931F932C
:102AE000CF93DF939B01E82FF0E0ED59F54F3111C3
:102AF0000EC06491762F862FDF91CF911F910F9199
:102B0000FF90EF90DF90CF90BF90AF900895C32FCC
:102B1000D0E0E491FE2FEE2EF12C46E0649FC00140
:102B200011240FEF10E0B8010E942031AB01822F79
:102B300090E0880F991F25E5249FB001259F700D17
:102B40001124861B970B982F990F980FB8016C1BB7
:102B50007D0B6E9DD0016F9DB00D7E9DB00D11243B
:102B60008B2F939F90011124232F3327B801621BD1
:102B7000730B6E9D90016F9D300D7E9D300D112465
:102B8000732F5801A91AB108AC9E6001AD9ED00CFC
:102B9000BC9ED00C1124CD2CDD240C191D090E9DDA
:102BA000E0010F9DD00D1E9DD00D11244230510526
:102BB000B1F050F44115510571F04130510569F003
:102BC0007E2FEB2F832F09C04430510579F050F050
:102BD00046305105A9F77E2FED2F6E2F8DCF7B2F1D
:102BE0008D2FFBCFE32F7B2F8F2FF7CF7D2FEB2F59
:102BF000FBCF0895CF93DF93762FE901682F842FC1
:102C00000E946815798368838A83DF91CF91089544
:102C1000493708F048E70C94FA1580910604982F7C
:102C20009E7F61F481708260809306048091090424
:102C3000893718F088E78093090408958A34B0F33F
:102C400081708864F1CF88E090E00C944734CF9293
:102C5000DF92EF92FF926B017C010E940D16B7018B
:102C6000A60188E090E0FF90EF90DF90CF900C9469
:102C70006534E6E0F4E083E0808311828FEF8283A5
:102C800088E78383148260817181828193810C94AF
:102C900027168091060480FF02C08695089580E083
:102CA000089580910A04833018F48F5F80930A049A
:102CB00060910604709107048091080490910904C2
:102CC0000C94271680910A04882319F08150809370
:102CD0000A046091060470910704809108049091A1
:102CE00009040C9427166091610170E0809106043C
:102CF00080FF0AC08091B00223E0829FC0011124AE
:102D0000855F9B4F0C944B1B8091AF0290916001AB
:102D100023E0829FF0011124E55FFB4F891750F7F4
:102D20001182108212828F5F3396F8CF9091060441
:102D300090FF14C09091AF022091600133E0939F07
:102D4000F0011124E55FFB4F921710F00C947316FD
:102D50008183608342839F5F3396F6CF0895CF933C
:102D6000DF9300D01F92CDB7DEB79091060490FF9D
:102D70000AC09E012F5F3F4F0E9408164B81698158
:102D80008A810E9496160F900F900F90DF91CF913D
:102D90000895CF93DF93EC01EC81F0E0E25AF64F17
:102DA0004491E6E0F4E0628181810E94AF168C815B
:102DB0008F5F8C83DF91CF910895CF93DF93EC01E8
:102DC000E6E0F4E0438162818C810E94AF168C8141
:102DD0008F5F8C83DF91CF9108950F931F93CF93D3
:102DE000DF9300D01F92CDB7DEB78C018091AC028B
:102DF00081110AC09E012F5F3F4F48E76FEF0E948D
:102E000008168A818093AC02F8018481813069F0D0
:102E100038F04091AC02823009F040E080E003C01D
:102E20008091AC0240E060E004C06091AC0240E000
:102E300080E00E949616F801848190E0019663E09C
:102E400070E00E94343184830F900F900F90DF91D7
:102E5000CF911F910F910895AF92BF92CF92DF92C1
:102E6000EF92FF920F931F93CF93DF9300D01F92A7
:102E7000CDB7DEB7182FF62E042FE22E9091060460
:102E800090FF29C0E92FE695AE2FB0E0AA5DBD4FB7
:102E90008C918093B8029E7F923059F59E012F5FEE
:102EA0003F4F812F0E9408164B8169818A810E94C1
:102EB000961610930704F092080400930904EE207C
:102EC00051F060910604709107048091080490917C
:102ED00009040E9427160F900F900F90DF91CF9159
:102EE0001F910F91FF90EF90DF90CF90BF90AF9028
:102EF0000895823019F400910904DBCF863019F46B
:102F000010910704D6CF8930D9F3893191F6E95170
:102F10008E2F8170D82EE695F0E0E25AF54FA590FD
:102F2000B490C12CBB2460915F01C61618F00E94BA
:102F30007316BFCF2C2D30E0A29EC001A39E900D32
:102F4000B29E900D112470E00E942031812FD1108B
:102F500013C0860F4091AF02420F532F511D9A01AB
:102F6000220F331F240F351F255F3B4F402F6F2D3E
:102F70000E940816C394D7CF861BECCFE6E0F4E09E
:102F80009181282F438162818AE0890F0C942C174C
:102F900081E00C94BE17E6E0F4E09181282F438194
:102FA000628186EF890F0C942C1781E00C94CB176B
:102FB000E6E0F4E0628121E1620F08F46FEF282F70
:102FC000438181810C942C1781E00C94D817E6E0A2
:102FD000F4E0628121E1621B08F460E0282F438164
:102FE00081810C942C1781E00C94E717E6E0F4E063
:102FF000438121E1420F08F44FEF282F6281818144
:103000000C942C1781E00C94F617E6E0F4E0438171
:1030100021E1421B08F440E0282F628181810C9459
:103020002C1781E00C94051820E00C942C17EF92DB
:10303000FF921F93CF93DF93EC0110E0EE24EA940C
:10304000F12C60915F01161770F00E9473169A813F
:103050008C8190FF27C08F5F8C83DF91CF911F9170
:10306000FF90EF9008952091AF02422F410F552716
:10307000551FCA019A01220F331F280F391F255FE0
:103080003B4F70E0C7010E943431962F8C814091F4
:10309000090460910804199F800D11240E940816EC
:1030A0001F5FCFCF8150D8CFBF92CF92DF92EF92E8
:1030B000FF920F931F93CF93DF93FC0182810FEF59
:1030C00080FF01E010E080915F011817C0F00E94BE
:1030D00073168091AE02013009F04DC0811102C01B
:1030E00080915F0181508093AE02DF91CF911F915B
:1030F0000F91FF90EF90DF90CF90BF900895C09117
:10310000AF02C12ED12CCC0DDD2DD11DCE01880FEB
:10311000991FC80FD91FC55FDB4F198218821A8209
:1031200034E0E32EF12CB12C8091AE028B0D87FFA1
:1031300003C090915F01890F082E000C990BC816EF
:10314000D90691F4809109048E9DA0018F9D500DA8
:10315000112455954795559547959E016091080412
:10316000809107040E940816B00EF1E0EF1AF108F2
:10317000D9F61F5FA8CF90E0019660915F0170E0E3
:103180000E943431B0CF0F931F93CF93DF93809180
:10319000AF029091600123E0829FF0011124E55F6E
:1031A000FB4F891740F1C0E0D3E060915F01C61783
:1031B00040F10E94731620915D018091AD02820F53
:1031C0008093AD0290915E01920F90935E0119166B
:1031D00054F4082E000C990B40915F014150550B9F
:1031E000841795071CF0219520935D01DF91CF9105
:1031F0001F910F9108951182108212828F5F339672
:10320000D0CF0C2F10E070E0C8010E943431209123
:10321000AF02820F482F50E02091AD02022E000C29
:10322000330B02171307BCF020915E01022E000C35
:10323000330B201731077CF08D9F90011124255FFF
:103240003B4F4091090460910804809107040E945B
:103250000816CF5FAACFFA01EE0FFF1FE40FF51F8C
:10326000E55FFB4F118210821282F3CF0F931F9301
:10327000CF93DF938C01FC0184819581019681704D
:10328000992795838483C0E0D5E580915F01C817B5
:1032900030F0DF91CF911F910F910C947316209114
:1032A000AF02422F4C0F5527551FCA019A01220F1A
:1032B000331F280F391F255F3B4F8C2F8695F80150
:1032C00044815581840F952F911D8170409109048F
:1032D000609108048D9F802D11240E940816CF5FF5
:1032E000D4CF0F931F93CF93DF93EC0110E000E056
:1032F00090915F019017110609F06CF40E9473160B
:103300008C8190E00196817099278C83DF91CF9119
:103310001F910F9108952091AF02A801420F511DF6
:103320009A01220F331F240F351F255F3B4F4C811D
:10333000609108048091070496959017110651F04A
:103340004CF0442349F0409109040E9408160F5F95
:103350001F4FCECF4423B9F340E0F7CFE6E0F4E0CF
:1033600080818E7F808360817181828193810E94C0
:1033700027161092B9022FEF80E792E0215080408B
:103380009040E1F700C000000C94731660910604B1
:10339000669570E04BE050E082E691E00E944E318D
:1033A000892B19F481E08093B9020E9453299093EC
:1033B000B2028093B10208959091060490FF35C047
:1033C0009170811128C0926090930604662351F099
:1033D000609106047091070480910804909109049B
:1033E0000E94271660910604669570E04BE050E05D
:1033F00082E691E00E944E31892BA1F01092B90231
:1034000081E08093B40240910904609108048091A6
:1034100007040C941418853210F09864D5CF880FE7
:10342000982BD2CF0E94C619EBCF0895682F9091A8
:103430000604969581E0890F853208F081E00C94AE
:10344000DC1981E00C94161A682F90910604969569
:103450008FEF890F09F484E20C94DC1981E00C945D
:10346000241A61E00C94DC19E6E0F4E080818160CC
:10347000808386950C94311A8091060480FD0C940B
:10348000AE190C94341A60E00C94DC198091B702E8
:10349000811133C0809160038160809360030E943A
:1034A0008F27811104C00E943A280E9439160E9479
:1034B0002316609306047093070480930804909386
:1034C00009046E7F61F40E9439160E9423166093EE
:1034D00006047093070480930804909309040E94E3
:1034E0000D161092B9028091060480FF03C08695E4
:1034F0000E94431A81E08093B70208950F931F93AF
:10350000CF93DF938091B902882309F48DC0809115
:10351000B802E0910604E695E81BE093B30282301E
:10352000C9F5F0E0E65AF64FE491CE2FD0E009EC71
:1035300016E18091B402882389F01092B4020E94AF
:1035400053299E0120953095820F931F9093B202CC
:103550008093B1021092B6021092B5028091B1022E
:103560009091B2020E945F298C179D0708F45CC0FD
:10357000E091B102F091B202CE0FDF1FD093B20200
:10358000C093B10281EB92E0F801DF91CF911F91DE
:103590000F910994863049F4F0E0E95AF64FE4912E
:1035A000CE2FD0E00DED16E1C4CF893051F4E69571
:1035B000F0E0EC5AF64FE491CE2FD0E007E118E1AD
:1035C000B8CF8F3051F4E695F0E0EF5AF64FE49122
:1035D000CE2FD0E004E518E1ACCF853149F4F0E01E
:1035E000E25BF64FE491CE2FD0E003EC18E1A1CFDF
:1035F000C8EED3E006E319E1883109F49ACF8332AB
:1036000039F4ECE4F9E0C591D4910DEE16E191CFD7
:10361000C4EFD1E001E719E1843209F48ACFC0EDAB
:10362000D7E009EF15E185CFDF91CF911F910F9181
:1036300008953BB1242F209523233BB1432B3FB763
:10364000F894FC01680F791FE617F70711F43FBFE4
:103650000895819198E04BB9000000C087FF2BB915
:10366000880F000000C000C000C02BB900C09A95B0
:1036700091F7EACF2AB1242B2AB99B01220F331FDD
:10368000620F731F0E94191B87EC90E00197F1F7FE
:1036900000C00000089548E00C943A1B0F931F935C
:1036A000CF93DF93CDB7DEB728970FB6F894DEBF80
:1036B0000FBECDBF80916F018F9380916E018F936C
:1036C0008BE492E09F938F931F9288E08F938E01FB
:1036D0000F5F1F4F1F930F930E948831C8010E94F4
:1036E0009D0F0FB6F894DEBF0FBECDBF28960FB664
:1036F000F894DEBF0FBECDBFDF91CF911F910F9128
:103700000895CF93DF93EC010E9453299093BD025B
:103710008093BC02D093BB02C093BA02DF91CF91D9
:103720000895CF93DF938091BA029091BB02892BC9
:1037300059F18091BC029091BD020E945F29EC0179
:1037400080916E0190916F018C179D0718F481EEA6
:103750000E943F1E8091BA020E943F1E8091BA02D1
:103760000E94FE1E80916E0190916F018C179D0743
:1037700018F481EE0E94FE1E1092BD021092BC024F
:103780001092BB021092BA02DF91CF91089510926D
:103790006D010C94911B80916D01882321F0109292
:1037A0006D010C94911B81E080936D0108951F932E
:1037B000CF93DF93EC01FB011281112309F457C071
:1037C0008436910541F0D8F48B32910521F088F4CC
:1037D0000497849788F40E94911B80916D0188233F
:1037E00031F10E94EB26811122C0CE010E94811B83
:1037F0001DC08D970C9778F30E94911B18C08931DA
:103800009C4559F1CA318CE5D807B0F4C731ECE5D5
:10381000DE07E9F080916E0190916F010597C83144
:10382000DC4551F790936F0180936E0110E0812F7A
:10383000DF91CF911F910895CB318CE5D80799F096
:1038400078F0CC31DC45C1F60E94C71BEFCF8091E8
:103850006E0190916F010596E5CF0E944E1BE6CF59
:103860000E94CB1BE3CF81E080936D01DFCF0E94EC
:10387000911B11E0DCCF0F931F93CF93DF93C62FE3
:10388000D42F022FFC0182818823C9F06093C002EB
:103890000E9453299093BF028093BE0280E28C0F56
:1038A000883008F057C0C77081E001C0880FCA9502
:1038B000EAF7DF91CF911F910F910C94391F10916E
:1038C000C002161335C08091BE029091BF020E94C3
:1038D0005F298436910560F5C0E2CD0F1D17B9F060
:1038E00080E2810F883040F4177081E001C0880FBA
:1038F0001A95EAF70E94401FC83028F581E09D2FF5
:10390000977001C0880F9A95EAF70E94391F802F9F
:103910000E94261FC830F0F4D77081E001C0880FE4
:10392000DA95EAF7DF91CF911F910F910C94401F28
:1039300080E28C0F883070F4C77081E001C0880F7E
:10394000CA95EAF7EFCF802FDF91CF911F910F91AA
:103950000C94261FDF91CF911F910F9108959C0128
:10396000CB01233F4CE5340731F190F4283DFCE5D1
:103970003F07E9F0293D4CE5340769F1273D3C4517
:1039800079F426E241EE61EE0E943B1C80E008954E
:10399000253FFCE53F07B9F090F0263F3C45B9F0E4
:1039A000FC0182818823D1F01092C002089527E2A1
:1039B00045EE65EEE9CF26E241EE60EEE5CF27E287
:1039C00045EE64EEE1CF26E241EE62EEDDCF27E286
:1039D00045EE66EED9CF28E241E0EBCF81E00895D5
:1039E0009093C6028093C5020895E091C502F091BC
:1039F000C602309721F00190F081E02D099480E01B
:103A00000895E091C502F091C602309799F0209197
:103A10007C01222359F02091660427FF07C0DC01B6
:103A20002C9111962C93119725E02C930280F38111
:103A3000E02D099408952091C3023091C402281703
:103A4000390771F09093C4028093C302E091C502DC
:103A5000F091C602309721F00680F781E02D09949D
:103A600008952091C1023091C2022817390771F0E0
:103A70009093C2028093C102E091C502F091C60208
:103A8000309721F00084F185E02D0994089585B7E1
:103A9000806885BF85B7806885BF089508950C94B8
:103AA0004E1D08950C94511D0E94471D0E94EC0C60
:103AB0000C944F1D81E008950E944A290E94620BD8
:103AC0000E94C0290E94D8290E94461A0C94521DB7
:103AD000BF92CF92DF92EF92FF920F931F93CF93FB
:103AE000DF93CDB7DEB72A970FB6F894DEBF0FBECF
:103AF000CDBF0E94700C0E945A1D882309F46FC02C
:103B000088ECC82E82E0D82E10E000E0B02E802F86
:103B10000E94CB0CE82EF601F1906F01F81609F423
:103B200058C08091600381FD0E94D10C90E080E03C
:103B3000FE242F2D30E0482FB901082E02C07595C4
:103B400067950A94E2F760FF3FC08E83BF8281E0F1
:103B500090E06C0102C0CC0CDD1C4A95E2F72E2DE2
:103B600030E02C213D21232B09F480E088870E943E
:103B700053298160782F9A8789874E815F81688574
:103B80008A850E94101EF801E853FD4F80818C2524
:103B900080830E94F51C9091C702891789F10E94C9
:103BA000F51C8093C7022A960FB6F894DEBF0FBEAD
:103BB000CDBFDF91CF911F910F91FF90EF90DF90DC
:103BC000CF90BF900C94C10F01968630910509F0FB
:103BD000B2CF0F5F1F4F0A30110509F097CF8FEF5B
:103BE00089838A831B820E9453298160782F9D8359
:103BF0008C8349815A816B818D810E94101EC9CFAF
:103C00002A960FB6F894DEBF0FBECDBFDF91CF91DD
:103C10001F910F91FF90EF90DF90CF90BF9008958C
:103C2000CF93DF93CDB7DEB72B970FB6F894DEBFF7
:103C30000FBECDBF4F83588769877A878B871E82D7
:103C40001D8285E0FE013796DE01119601900D92EE
:103C50008A95E1F749815A816B817C818D819E81B2
:103C60002B960FB6F894DEBF0FBECDBFDF91CF917C
:103C70000C944324FC01808191810C949826882324
:103C800009F4BBC09CEF980F913A20F40E94C6261D
:103C90000C942C2790E2980F983050F4877091E0A4
:103CA00001C0990F8A95EAF7892F0E94EE26F0CF7E
:103CB0009BE5980F933070F4853A31F0863A39F0ED
:103CC00083E890E00C941B1D81E890E0FBCF82E834
:103CD00090E0F8CF98E5980F973108F08EC0883AB9
:103CE00009F446C0893A09F446C08A3A09F446C044
:103CF0008B3A09F446C08C3A09F446C08B3B09F470
:103D000046C08C3B09F446C08D3A09F446C0803B5E
:103D100009F446C08E3A09F446C08F3A09F446C009
:103D2000813B09F446C0823B09F446C0833B09F459
:103D300046C0843B09F446C0853B09F446C0863B37
:103D400009F446C0873B09F446C0883B09F446C0E5
:103D5000893B09F446C08D3B09F446C08E3B09F40B
:103D600046C08A3B09F446C090E080E00C94311DC7
:103D700082EE90E0FBCF89EE90E0F8CF8AEE90E003
:103D8000F5CF85EB90E0F2CF86EB90E0EFCF83EBC1
:103D900090E0ECCF84EB90E0E9CF87EB90E0E6CFCA
:103DA0008CEC90E0E3CF8DEC90E0E0CF83E891E005
:103DB000DDCF8AE891E0DACF82E991E0D7CF84E9DC
:103DC00091E0D4CF81E292E0D1CF83E292E0CECFF6
:103DD00084E292E0CBCF85E292E0C8CF86E292E027
:103DE000C5CF87E292E0C2CF8FE690E0BFCF80E7F9
:103DF00090E0BCCF8AE292E0B9CF0895882329F100
:103E00009CEF980F913A20F40E94CD260C942C2719
:103E100090E2980F983050F4877091E001C0990FAC
:103E20008A95EAF7892F0E94F426F0CF9BE5980F38
:103E3000933020F490E080E00C941B1D885A873169
:103E400020F490E080E00C94311D0895CF93C82FAA
:103E50000E943F1EC93349F42FEF87EE93E02150B3
:103E600080409040E1F700C000008C2FCF910C946F
:103E7000FE1E882321F00E94EE260C942C27089524
:103E8000882321F00E94F4260C942C270895CF92C9
:103E9000DF92EF92FF920F931F93CF93DF936C010A
:103EA000D62FC72FFC01058102950F7012811111C9
:103EB0000E940D270E94E426E82E882371F011232A
:103EC00041F180E28D0F883020F182E00E94772757
:103ED0000E94E42691E0E82EE926FC2EF2949FE071
:103EE000F922FDE0FF1508F47DC1EF2DF0E0E55863
:103EF000F04E0C9448318B1F8B1FD81FD81FF22017
:103F0000F220F220F2202A20B920CA20CA20F22072
:103F10003321E12CE2CF0C2F0F70C07F11F00295FE
:103F2000007F1123A9F0002359F080E28D0F883023
:103F300010F0D11109C0802F0E94EE260E942C277C
:103F40008D2F0E943F1E14C0802F0E94FF26F6CFA7
:103F50008D2F0E94FE1E002359F080E28D0F8830C5
:103F600010F0D11121C0802F0E94F4260E942C272E
:103F7000EE2009F49BC10E94E02680FD97C1F60166
:103F800012820E94DA260E945E25C6010E945F21ED
:103F90000E94DA26DF91CF911F910F91FF90EF9051
:103FA000DF90CF900C947F25802F0E940527DECFD5
:103FB0002C2F2F70F22EC07FC03219F0F29480EFB8
:103FC000F822DD2369F0D13049F1112391F100236A
:103FD00051F1F601858180FFB3CF8F70858323C0B7
:103FE000112381F0011106C00E9413278F290E941E
:103FF000391FBECF0130C1F70E9413278F290E94BD
:104000001927B6CF011106C00E9422278F2D0E94CA
:10401000401FAECF013009F4ABCFF6CF112329F00A
:10402000063008F0A5CF8F2DE2CF053008F0A0CFE5
:10403000EDCF002359F3D93349F4FFEF27EE83E0A6
:10404000F15020408040E1F700C000008D2F0E9419
:10405000FE1E8ECF8C2F837009F045C0111135C024
:104060004D2F429546954770440F440F0D2F0F700A
:1040700010E030E020E0042E04C0000F111F221FCA
:10408000331F0A94D2F760E070E0CB01D4FF0FC079
:104090006FE070E080E090E004C0660F771F881F3B
:1040A000991F4A95D2F76095709580959095602BF1
:1040B000712B822B932BC695C695C370C23069F0C5
:1040C00078F4C13039F00E9410250E94F51C0E943E
:1040D000C10F4ECF0E94FE24F8CF0E942225F5CFBB
:1040E0000E94FC24F2CF8695112311F08C2F817051
:1040F000882359F34D2F429546954770440F440F3E
:104100000D2F0F7010E030E020E0042E04C0000FEF
:10411000111F221F331F0A94D2F760E070E0CB0119
:10412000D4FF0FC06FE070E080E090E004C0660F45
:10413000771F881F991F4A95D2F7609570958095D3
:104140009095602B712B822B932BC695C695C370CF
:10415000C23049F058F4C13019F00E94D525B5CFCE
:104160000E94C325B2CF0E94E725AFCF0E94382519
:10417000ACCFCF70112339F08C2F0E945E258D2F8C
:104180000E94391FA2CF8D2F0E94401F8C2F0E94AA
:104190007F259BCFD23FB1F170F4D03FD9F0D13F12
:1041A00051F1112309F44BC0002309F445C08D2FB0
:1041B0000E943F1E17C0D33F61F1D43F91F71123F6
:1041C00091F1CF718C2F0E945E2563E08C2F0E94AD
:1041D000622708C0112361F0053020F48C2F8F7105
:1041E0000E94A22588EF8F0D843008F0C1CE6DCFDC
:1041F0000630C0F7F3CF8C2F8F71112339F00E9456
:104200005E25F0CF8C2F8F711123C9F30E947F257B
:10421000E9CF112329F08C2F8F710E944925E2CF1D
:104220000E944425DFCF81E00E9477270230D0F240
:1042300082E00E947727D6CF8C2F8F71E0CF0023AA
:1042400079F0D93349F49FEFE7EEF3E09150E04085
:10425000F040E1F700C000008D2F0E94FE1EC2CF8B
:104260008C2F8F71D3CF111183CECF70C230B1F0AC
:1042700040F4CC2381F0C13009F0B4CF0E94112A60
:1042800077CEC43089F068F080E0C53009F0AACF5D
:104290000E94812A6DCE0E94F3296ACE0E94512A83
:1042A00067CE0E94582A64CE83E0F2CFDF91CF918F
:1042B0001F910F91FF90EF90DF90CF9008950F9393
:1042C0001F93CF93DF93EC01988189812B813C81EF
:1042D000232B39F08F3F19F481E09F3F19F080E0E4
:1042E00001C081E080FD17C0CE010E94D90F882354
:1042F00091F0688179818A810E94A2268C010E94B6
:10430000F9250E94FB24B801CE01DF91CF911F91C6
:104310000F910C94471FDF91CF911F910F9108953A
:104320000E940D270E9410270C942C270E94D4264F
:104330000C9490210E94FC260C949621E92FE29582
:10434000EF70E250EE30E0F4F0E0E755FE4D0C94F3
:104350004831B721B721C021C021C221C021C021CD
:10436000C021B721B721C721C021C021C721803F6B
:1043700019F020F4883E20F481E00895843FE1F3B1
:1043800080E00895883EC0F3813FD1F7F5CF93FBDD
:10439000882780F908950E9498260C949E21CF9337
:1043A000DF9300D000D01F92CDB7DEB70F900F90F3
:1043B0000F900F900F90DF91CF910895CF93DF93DF
:1043C00000D000D000D0CDB7DEB726960FB6F89457
:1043D000DEBF0FBECDBFDF91CF9108951F93CF9366
:1043E000DF93C091D30216E08091D4028C1304C0F5
:1043F000DF91CF911F910895D0E01C9FF0011D9F88
:10440000F00D1124EB52FD4F408151816281738187
:10441000848195810E94DE212196C770E5CF40916D
:104420000503509106036091070370910803809182
:10443000090390910A030C94DE211F93CF93DF931D
:1044400080910A03807FD1F4809107038823B1F023
:104450008091D302D091D402B0910503C09106039C
:104460004091080350910903A1E0BF3F09F0A0E08B
:10447000BA016095709516E0D81304C0DF91CF9112
:104480001F91089521E04115510521F02A2FCF3FBA
:1044900009F020E090E020FD38C0189FF001199F3E
:1044A000F00D1124EB52FD4F21812C132EC02081E1
:1044B0002B132BC02281211128C023813481241782
:1044C000350700F1241B350B24363105F0F420911B
:1044D0000A032F70206120930A0326E0289FF00131
:1044E000299FF00D1124E652FD4F80818F7080616D
:1044F000808385E093E00E945F21DF91CF911F913F
:104500000C94EE21260F371FDFCF01968770B4CFB2
:10451000AF92BF92CF92DF92EF92FF920F931F93D1
:10452000CF93DF93CDB7DEB761970FB6F894DEBFB8
:104530000FBECDBF7C0185E0F701DE011D96019025
:104540000D928A95E1F7D7014C9111965C911197E4
:1045500012960C9130910503609106038091080337
:104560009091090321E0009731F06F3F19F421E0A9
:104570003F3F09F020E0B22FB170BB2E20FD67C194
:10458000F701C380D480A0900703AA2009F425C1B5
:10459000C816D906C8F1D601A81BB90BCD0111E088
:1045A0008436910508F010E080910A03982F907FDF
:1045B000112309F4CDC0911187C0102F651329C0B4
:1045C000341327C0011125C08F70806180930A03C6
:1045D0000E940F2285E093E00E945F2180910A03F0
:1045E000F7018583812F61960FB6F894DEBF0FBE69
:1045F000CDBFDF91CF911F910F91FF90EF90DF9092
:10460000CF90BF90AF900895809590958C0D9D1D93
:10461000C6CF81E0CD2831F05F3F19F481E04F3FF4
:1046200009F080E080FD24C081E08027F82FF17040
:10463000DF2E80FF3FC08091D3022091D40236E06C
:10464000821318C04D875E878D859E850E949826AF
:10465000292F22952F70223008F1243030F59F70D9
:1046600009F1D70115969C91907FE1F41B2DBACFEB
:1046700080E0DCCF90E0389FF001399FF00D1124ED
:10468000EB52FD4F6181651306C06081461303C084
:10469000628160130FC001968770D2CF9F7011F0B6
:1046A000882321F3805E883008F3C7010E945F21D0
:1046B000BD2CDCCF002309F495CF80910A038160E3
:1046C00080930A0310E08ECF651314C0341312C018
:1046D000011110C0F7018583C7010E945F2186E0A8
:1046E000F701A5E0B3E001900D928A95E1F70E94F1
:1046F0000F2278CF4D875E878D859E850E94CB21C6
:10470000882311F1002301F180910A03803270F0B7
:10471000209105033091060338872F831986DB86A5
:10472000CA868C87CE0107960E945F2186E0F7013A
:10473000A5E0B3E001900D928A95E1F70E941D2259
:104740000E940F2211E04ECFC7010E945F21FACFD5
:10475000911113C07C2DD98AC88A602F89890E9443
:10476000CF2185E093E00E945F2186E0E5E0F3E061
:10477000DF011D928A95E9F7BACF651312C0341391
:1047800010C001110EC0F7018583C7010E945F218F
:10479000E5E0F3E086E0DF011D928A95E9F71A2D46
:1047A00021CF4D875E878D859E850E94CB218823F2
:1047B00059F2002349F280910A03803208F4B6CFFF
:1047C00020910503309106033A8329831B82DD8201
:1047D000CC828E83CE010196A7CFC816D906C8F029
:1047E000F601E81BF90BCF0110E08436910538F58E
:1047F000102F002309F4A8CF651310C034130EC086
:1048000086E0F701A5E0B3E001900D928A95E1F70B
:10481000E9CE809590958C0D9D1DE6CF4D875E87E6
:104820008D859E850E94CB21811180CF80910A03C6
:10483000816080930A03C7010E945F21D3CE7C2D43
:10484000D98AC88A602F89890E94CF218ECF002300
:1048500009F47ACF4D875E878D859E850E94CB2196
:10486000182F882309F470CF86E0F701A5E0B3E0A4
:1048700001900D928A95E1F785E093E00E943A1E3F
:104880000E941D2234CF1F93CF93DF93CDB7DEB7A5
:104890002C970FB6F894DEBF0FBECDBF4F8358875D
:1048A00069877A878B879C87CE0107960E9488222A
:1048B000882309F442C09F8188852A853B85232B64
:1048C00039F08F3F19F481E09F3F19F080E001C07B
:1048D00081E080FD08C04F81588569857A858B8588
:1048E0009C850E94DE2116E08091D3029091D40233
:1048F000891709F467C0819FC00111248B529D4F15
:104900000E948822882309F45DC0E091D3021E9F93
:10491000F0011124EB52FD4F40815181628173817E
:10492000848195810E94DE218091D30290E00196DE
:10493000877099278093D302D7CF86E0FE01379600
:10494000DE01119601900D928A95E1F79F8188858D
:104950002A853B85232B39F08F3F19F481E09F3F57
:1049600019F080E001C081E080FDBDCF2091D4022C
:1049700030E0C9010196877099274091D30248170A
:10498000190699F096E0929FD001939FB00D1124E3
:10499000AB52BD4FFE01319601900D929A95E1F711
:1049A0008093D4020E94EE219ECF0E949A21109201
:1049B000D4021092D30286E0E5E0F3E0DF011D921D
:1049C0008A95E9F72C960FB6F894DEBF0FBECDBFDF
:1049D000DF91CF911F91089508950C94EC240E94CB
:1049E000ED246093370370933803809339039093D9
:1049F0003A030C94902108950C94EF240F931F9385
:104A000000913703109138032091390330913A0314
:104A1000602B712B822B932B1F910F910C94EF2401
:104A20000F931F930091370310913803209139039E
:104A300030913A0360237123822393231F910F91B6
:104A40000C94EF240F931F930091370310913803B8
:104A50002091390330913A036027712782279327E9
:104A60001F910F910C94EF240C94EC240C9434259A
:104A70000E9436256093330370933403809335038B
:104A8000909336030C94902160E070E0CB010C947D
:104A900038250F931F9341E050E060E070E08A01F9
:104AA0009B0104C0000F111F221F331F8A95D2F7EC
:104AB000C901B8011F910F910C9438250F931F93D2
:104AC00041E050E060E070E004C0440F551F661FF5
:104AD000771F8A95D2F78091330390913403A09188
:104AE0003503B09136038A019B01082B192B2A2B21
:104AF0003B2BC901B8011F910F910C9438250F93DE
:104B00001F9341E050E060E070E004C0440F551F87
:104B1000661F771F8A95D2F7CB01BA016095709511
:104B200080959095009133031091340320913503C3
:104B30003091360360237123822393231F910F91B9
:104B40000C9438250F931F9341E050E060E070E033
:104B500004C0440F551F661F771F8A95D2F78091B6
:104B6000330390913403A0913503B09136038A0149
:104B70009B01082719272A273B27C901B8011F9144
:104B80000F910C9438250F931F93009133031091CC
:104B900034032091350330913603602B712B822B27
:104BA000932B1F910F910C9438250F931F93009115
:104BB0003303109134032091350330913603602381
:104BC0007123822393231F910F910C9438250F9307
:104BD0001F930091330310913403209135033091DA
:104BE000360360277127822793271F910F910C941A
:104BF00038250895292F220F920F990F890F982F8A
:104C0000977071E001C0770F9A95EAF786958695BF
:104C1000869525E0829FC001112450E040E0A62F38
:104C2000B0E0FC01E40FF51FE55FFC4F60819D01E2
:104C3000042E02C0369527950A94E2F7217021953B
:104C400026272723262720834F5F5F4F45305105B6
:104C500041F70895292F220F290F220F820F982F35
:104C6000977086958695869545E0849F90011124DE
:104C700070E060E080E0F901E60FF71FE55FFC4FB0
:104C8000408150E0092E02C0569547950A94E2F7FC
:104C900041705527062E01C0440F0A94EAF7842B71
:104CA0006F5F7F4F6530710531F70895BF92CF92E6
:104CB000DF92EF92FF920F931F93CF93DF938C01BC
:104CC000C0903303D0903403E0903503F090360366
:104CD0008091370390913803A0913903B0913A0342
:104CE000C82AD92AEA2AFB2ACFE1D0E0BC2ED70174
:104CF000C6010C2E04C0B695A795979587950A9482
:104D0000D2F780FD0EC0219788F7B12C8B2DDF9153
:104D1000CF911F910F91FF90EF90DF90CF90BF90B8
:104D20000895B8018C2F0E949E12019761F3EECF77
:104D3000CF93DF93EC010E945626BE01DF91CF9105
:104D40000C949E121F93CF93DF93EB019091D202AC
:104D5000992331F0CB01DF91CF911F910C949826CC
:104D6000882379F0CB010E945626182F682FCE0198
:104D70000E94FA25BE01812FDF91CF911F910C94E3
:104D80009E12CB010E942A26182FF4CF682F809103
:104D90007001909171010C94A028682F809170018E
:104DA000909171010C94AB288091700190917101E8
:104DB0000C94B62880913B0385958595859508953B
:104DC00080913B038770089590913B03977081E039
:104DD00009F480E0089580915F03089590915F0346
:104DE000892B80935F030895982F909580915F039E
:104DF000892380935F03089510925F030895909133
:104E00005E03892B80935E030895982F909580917F
:104E10005E03892380935E03089510925E030895D4
:104E200010925D03089580913C03089508950C94B9
:104E3000162790913C03981721F080933C030C9423
:104E40001727089580913C03882329F010923C0392
:104E500080E00C9417270895E0917001F0917101A2
:104E600080915F038083E0917001F09171018081F6
:104E700090915E03892B8083E0917001F091710124
:104E8000808190915D03892B808390913C039923CD
:104E900081F0E0917001F09171018081892B808314
:104EA00080917001909171010E943C2881110E94B3
:104EB000222780917001909171010C94011D089539
:104EC0000C945F2798E0899F90011124622B6093D6
:104ED0003B030E945E2580913B03859585958595D2
:104EE0000C94602710923B0380E00C946027909113
:104EF0003B038095892380933B03282F277071F40F
:104F0000282F082E000C330B9217130639F08595C5
:104F1000859585950E947F250C947227089590E0D1
:104F200080E00E944D3421E08C3E9E4F09F020E04D
:104F3000822F089582E090E00C943F3483E090E06B
:104F40000C943F34682F83E090E00C945334CF935B
:104F500084E090E00E943F34C82F81E290E00E94FC
:104F60003F34982F8C2FCF910895CF93C92F682F5E
:104F700084E090E00E9453346C2F81E290E0CF9166
:104F80000C94533486E090E00C943F34682F86E014
:104F900090E00C945334AB01BC018FE090E00C9492
:104FA0006534AB01BC0183E190E00C94653460E0B2
:104FB00070E0CB010C94D12760E070E0CB010E943F
:104FC000CB270C94D7276CEE7EEF90E080E00E9418
:104FD000713460E082E090E00E94533460E083E04E
:104FE00090E00E94533410923703109238031092CD
:104FF000390310923A0360E084E090E00E94533459
:1050000060E081E290E00E94533460E085E090E04F
:105010000E94533460E086E090E00E9453346FEFCA
:1050200087E090E00E94533440E050E0BA0188E00D
:1050300090E00E94653460E08DE090E00E9453347F
:1050400040E050E0BA0188E190E00E94653460E001
:1050500087E190E00E94533440E050E0BA018CE1D7
:1050600090E00E94653460E080E290E00E9453345A
:105070000C94DC270C94E327FC01329680917C0190
:10508000882321F0809166049EE187FF96E080E00E
:10509000915008F4089521912223D1F38F5FF8CF26
:1050A0009C01FC0132969FEF80E04191461751F040
:1050B0009F3F19F4411101C0982F8F5F8630A9F7E7
:1050C0009F3F09F40895290F311D97FD3A95F90185
:1050D00062830895FC01329608962191261303C03D
:1050E000DF0111971C92E817F907B9F70895E62F29
:1050F000E695E695E695EE3168F4E80FF92FF11D97
:10510000677021E030E001C0220F6A95EAF78281E2
:10511000822B82830895E62FE695E695E695EE319B
:1051200070F4E80FF92FF11D677021E030E001C045
:10513000220F6A95EAF72095828128232283089519
:1051400020917C01222329F02091660427FD0C94F4
:1051500077280C94502820917C01222329F020915B
:10516000660427FD0C948B280C946A28FC01329667
:1051700080917C01882351F08091660487FF06C0EE
:105180008EE1DF011D928A95E9F7089586E0F9CF57
:10519000089508950C94C9280E94CA2880916D042E
:1051A000843061F11092610388E190E020E40FB651
:1051B000F894A895809360000FBE2093600080E073
:1051C0000E94C00F80E00E94C10F0E94CA2883B7CE
:1051D000817F846083BF83B7816083BF7894889523
:1051E00083B78E7F83BF0FB6F894A8958091600037
:1051F000886180936000109260000FBE089508954A
:10520000CF930E94C8280E94700C0E94FF28C0E023
:105210008C2F0E94CB0C811105C0CF5FCA30C1F723
:10522000CF91089581E0FCCF08950C9414290E9439
:105230009A210E94D8290E94F51C0E94C10F0C944B
:1052400015291F920F920FB60F9211248F939F93DF
:10525000AF93BF9380916103811113C08091620469
:1052600090916304A0916404B09165044196A11DDE
:10527000B11D8093620490936304A0936404B0937F
:105280006504BF91AF919F918F910F900FBE0F90CA
:105290001F90189582E084BD93E095BD9AEF97BD6D
:1052A00080936E0008952FB7F894809162049091D6
:1052B0006304A0916404B09165042FBF0895CF9258
:1052C000DF92EF92FF920F931F932FB7F8944091C4
:1052D00062045091630460916404709165042FBF6F
:1052E0006A017B01EE24FF248C0130E020E0C0162F
:1052F000D106E206F30650F0481B590BCA011F9174
:105300000F91FF90EF90DF90CF9008954150510999
:10531000F3CF78941F920F920FB60F9211248F93B0
:105320009F93AF93BF938091620490916304A09187
:105330006404B09165040196A11DB11D80936204BF
:1053400090936304A0936404B0936504BF91AF91FC
:105350009F918F910F900FBE0F901F90189587E728
:1053600097E7909301088093000888E19AE00FB6D0
:10537000F894A895809360000FBE90936000FFCFD3
:105380000E948F27811102C00E943A280E949A270A
:10539000809360030E94A72790936704809366041C
:1053A0000E949E27682F70E090E080E00C94FC241F
:1053B0000E948F27811102C00E943A280E94C227B2
:1053C00080936804803220F087708861809368043D
:1053D0008091680480FF05C08695869586950C941B
:1053E000C00F80E0FCCF80916804982F9695969529
:1053F0009695933040F49F5F990F990F990F87709E
:10540000892B80936804809168048160809368048C
:105410000E94C627809168048695869586950C948F
:10542000C00F80916804982F987F79F088508093FE
:105430006804887F91E009F490E08091680490FB13
:1054400080F9809368040E94C6278091680486953D
:10545000869586950C94C00F8091680480FD13C0DA
:10546000816080936804813019F489E08093680436
:10547000809168040E94C62780916804869586956D
:1054800086950C94C00F08958091680480FF08C031
:105490008E7F809368040E94C62780E00C94C00F22
:1054A00008958091680480FD0C94442A0C942C2A61
:1054B00090916804892F8695869586958F5F8F7168
:1054C00097708430D8F4880F880F880F892B8093C9
:1054D000680480916804887F91E009F490E08091ED
:1054E000680490FB80F9809368040E94C62780912D
:1054F00068048695869586950C94C00F90936804F1
:10550000E8CF843008F083E0982F990F990F990F16
:10551000809168048770892B80936804887F91E06C
:1055200009F490E08091680490FB80F9809368040E
:105530000E94C627809168048695869586950C946E
:10554000C00F80918203089508950895CF93DF934B
:10555000EC010E94712C823011F08430B9F58091F9
:105560007C018823B1F18091660487FF32C060E23C
:1055700082E08093E9008FEF9091E800815095FDE3
:1055800006C095ED9A95F1F700008111F5CF809155
:10559000E80085FF1BC080917C0170E050E040E096
:1055A000811104C050E040E068E070E0CE010E944C
:1055B0008E2C8091E8008E778093E80080E2FE01D7
:1055C000A2E6B3E001900D928A95E1F7DF91CF91C9
:1055D000089568E081E0CDCF089580916C04811139
:1055E00009C00E941E2E0E947B2E8091E2008460E2
:1055F0008093E200089510926C0408950895089530
:105600000C94172942E061EC81E00E949C2D42E25B
:1056100061EC82E00C949C2D80916F04833009F43E
:1056200062C030F48130D9F1823009F49EC008950F
:105630008A3009F48AC08B3009F470C0893009F0CF
:1056400051C080916E04813209F04CC08091720487
:1056500090917304029708F045C08091E800877F1D
:105660008093E8008091E80082FF38C08091F300C9
:105670009091F200892798278927029729F4809131
:10568000F1008B7F813021F48091F10080938203BF
:105690008091E8008B778093E8000C94D02D809166
:1056A0006E04813AF9F48091E800877F8093E800E6
:1056B0008091720490917304892B61F460E282E618
:1056C00093E070E00E94DD2C8091E8008B7780935E
:1056D000E800089560E090E080E0F3CF80916D04F1
:1056E0008111C0CF089580916E04813AD9F78091DD
:1056F000720490917304892BA9F78091E800877F49
:105700008093E8008091E80080FFFCCF80917C01CD
:105710008093F1008091E8008E77BDCF80916E0478
:10572000813201F78091720490917304892BD1F634
:105730008091E800877F8093E8000E94D02D8091BF
:10574000700480937C010C949A2180916E048132C4
:1057500049F68091E800877F8093E8000E94D02D71
:105760008091710480938303089580916E04813A3F
:1057700009F0B8CF8091E800877F8093E80080919E
:10578000E80080FFFCCF80918303C2CF84B7877F7E
:1057900084BF0FB6F894A8958091600088618093CB
:1057A0006000109260000FBE80E88093610010924C
:1057B00061000E94541D0E941E2E0E947B2E80912B
:1057C000E20084608093E20078940E9404310E9499
:1057D0005C1D82E791E00E94F01C80916D04853091
:1057E00029F00E94681D0E947E1AF7CF0E94CC28E3
:1057F00080916B04882389F30E940029882369F330
:105800000E94782CEACF0C94052C292F33272330C3
:10581000310571F158F421303105E9F022303105BC
:1058200011F190E080E030E020E019C02132310534
:10583000C1F122323105A9F780E490E029E13CE092
:105840006115710561F08BE390E02EED3BE0613076
:10585000710529F0E6CF82E190E02CEC3BE0FA0103
:105860003183208308958BE390E021E93BE0F7CF7B
:1058700099278130910579F040F08230910571F0DF
:10588000039779F6E3E6FBE002C0EDE8FBE08491E4
:1058900090E09F01E4CFE9E7FBE0F9CFE9E6FBE028
:1058A000F6CF89E090E023EA3BE061157105B9F29B
:1058B00089E090E02CEB3BE06130710581F2B1CFE3
:1058C0000895CF93C82F0E94602CC0938403CF917A
:1058D000089580916D04843011F081E0089582E094
:1058E000089580918403811102C00C94692C08955D
:1058F00080E189BD82E189BD09B400FEFDCF8091C0
:10590000D8008F7D8093D8008091E00082608093E2
:10591000E0008091E00081FDFCCF0895AF92BF923E
:10592000CF92DF92FF920F931F93CF93DF936C017F
:10593000EB018A010E94EF2DF82E811123C0011581
:10594000110539F0F80180819181C81BD90BC80E6F
:10595000D91EB12CA12C2097A9F08091E80085FDDB
:1059600022C08091E8008E778093E8000115110530
:10597000A1F0F80180819181A80EB91EB182A082A8
:1059800085E0F82E8F2DDF91CF911F910F91FF9021
:10599000DF90CF90BF90AF9008950E94EF2D8823A5
:1059A000D1F2F82EEFCFF60181916F018093F100D3
:1059B0002197FFEFAF1ABF0ACECFFC01809174048C
:1059C0009091750486179707A0F06115710529F469
:1059D0009091E8009E779093E80090E06115710542
:1059E00051F4911108C08091E80082FF35C080E039
:1059F0000895BC01F2CF80916D048823C9F18530F0
:105A0000C9F18091E80083FD31C08091E80082FDFA
:105A1000EACF8091E80080FFE1CF2091F3008091F0
:105A2000F200322F282F6115710519F02830310549
:105A300058F091E02830310509F090E02091E8001D
:105A40002E772093E800CACF81918093F1006150B6
:105A500071092F5F3F4FE7CF80916D04882341F09C
:105A6000853041F08091E80083FFBDCF81E008954B
:105A700082E0089583E00895FC0180917404909180
:105A8000750486179707A0F06115710529F48091B8
:105A9000E8008E778093E80090E06115710551F47D
:105AA000911108C08091E80082FF36C080E008951F
:105AB000BC01F2CF80916D048823D1F18530D1F102
:105AC0008091E80083FD32C08091E80082FDEACF3A
:105AD0008091E80080FFE1CF2091F3008091F200F7
