:100000000C9443050C948A050C948A050C94F40610
:100010000C948A050C948A050C948A050C948A0524
:100020000C948A050C948A050C949C2A0C946F2BD2
:100030000C9414260C948A050C948A050C948A0559
:100040000C948A050C948A050C948A050C948A05F4
:100050000C948A050C947C260C948A050C948A05D1
:100060000C948A050C948A050C948A050C948A05D4
:100070000C948A050C948A050C948A050C948A05C4
:100080000C948A050C948A050C948A050C948A05B4
:100090000C94DD050C948A050C948A050C948A0551
:1000A0000C948A050C948A050C948A0500000000C3
:1000B00000003E5B4F5B3E003E6B4F6B3E001C3EC4
:1000C0007C3E1C00183C7E3C18001C577D571C00D1
:1000D0001C5E7F5E1C0000183C180000FFE7C3E7B1
:1000E000FF00001824180000FFE7DBE7FF0030489E
:1000F0003A060E00262979292600407F05050700CB
:10010000407F05253F005A3CE73C5A007F3E1C1CBF
:100110000800081C1C3E7F0014227F2214005F5F31
:10012000005F5F0006097F017F00006689956A0015
:1001300060606060600094A2FFA2940008047E04E6
:10014000080010207E20100008082A1C0800081C47
:100150002A0808001E10101010000C1E0C1E0C00A7
:1001600030383E383000060E3E0E0600000000001B
:10017000000000005F000000000700070000147F7F
:10018000147F1400242A7F2A1200231308646200BB
:10019000364956205000000807030000001C224189
:1001A00000000041221C00002A1C7F1C2A000808B5
:1001B0003E080800008070300000080808080800A9
:1001C0000000606000002010080402003E51494514
:1001D0003E0000427F4000007249494946002141EB
:1001E000494D33001814127F10002745454539004A
:1001F0003C4A494931004121110907003649494922
:100200003600464949291E00000014000000004045
:1002100034000000000814224100141414141400C7
:100220000041221408000201590906003E415D59AF
:100230004E007C1211127C007F49494936003E4134
:10024000414122007F4141413E007F4949494100EF
:100250007F09090901003E41415173007F080808E8
:100260007F0000417F4100002040413F01007F08A6
:10027000142241007F40404040007F021C027F006A
:100280007F0408107F003E4141413E007F0909097B
:1002900006003E4151215E007F091929460026498A
:1002A0004949320003017F0103003F4040403F00C5
:1002B0001F2040201F003F4038403F0063140814B7
:1002C00063000304780403006159494D4300007F33
:1002D00041414100020408102000004141417F00DB
:1002E00004020102040040404040400000030708AF
:1002F00000002054547840007F284444380038449B
:1003000044442800384444287F003854545418008A
:1003100000087E0902001824241C78007F080404C9
:10032000780000447D4000002040403D00007F10E8
:100330002844000000417F4000007C0478047800DD
:100340007C08040478003844444438007C18242491
:100350001800182424187C007C0804040800485461
:100360005454240004043F4424003C4040207C00BA
:100370001C2040201C003C4030403C0044281028F9
:1003800044004C9090907C004464544C440000081D
:1003900036410000000077000000004136080000F0
:1003A0000201020402003C2623263C00000000005B
:1003B0000080808080000000000080E070180C1831
:1003C00030E080000010F8901030783010B8FC3821
:1003D00010000000000000F8FCF800000000000021
:1003E000000000000000001C9C1C00000000F8FC45
:1003F000F80000000000001CFCF8C0000000000035
:100400000080E0F87C1C000000F0FCFCFC1C1C1CC4
:100410001C1C1C1C1C000000000000C0F0F8381C54
:100420001C1C1C1C1C3CF8F0E000E0F0F0F0E0ECC0
:10043000EEF7F37020007C7C7C7E007E7E7E7F7FEA
:100440007F000080C0E07E5B4F5BFEC00000C0000C
:10045000DCD7DEDEDED7DC00C000000000000000DC
:10046000000000000000000000000000000000008C
:10047000000FBCE0818181838382870C183060C0CB
:1004800000001FFE90B9FFBB91983C1811133F115B
:1004900000000000000000FFFFFF0000000000005F
:1004A00000000000000000FFFFFF00000000FFFF51
:1004B000FF0000000000000000030F7FF8E080F064
:1004C000FC3F0F0100000000003F3F3F1C1C1C1CB4
:1004D0001C3C78F8F0E08000000000C3E7FF7E3CA1
:1004E0003878787070F8FFDF87000F1F3F7F7F7FBD
:1004F0007F7F3F1E0C001F1F1F3F003F3F3F7F7F3E
:100500007F00307B7F7830202030787F3B000300F5
:100510000F7F0F0F0F7F0F0003000000000000008F
:10052000000000000000000000000000183C2466ED
:100530006341C18180808080808081C14162386C4C
:100540004CC68181808080808081C14362361C18C6
:1005500000000000000000FFFFFFC0C0C0C0C0C01E
:10056000C0C0C0800000007FFF7F000000007FFF50
:10057000FFC080000000E0E0C0C0C0E0F97F1F07BE
:1005800000000000000000000070F0E0E0C0C0C00B
:10059000C0E0F0F87F3F0F0000000F3F7FF9E0E080
:1005A000C0C0C0C0C0E0F97F3F1F000000000000D5
:1005B000000000000000000000000000000000003B
:1005C000000000000000000000000000000000002B
:1005D000000000000000000000000000000000001B
:1005E00000000000000000000000000029001E00C4
:1005F0001F002000210022002B0014001A00080018
:1006000015001700E00004001600070009000A00AA
:10061000E1001D001B000600190005000000E200BB
:10062000E300025D2C002F00350027002600250086
:10063000240023002D00130012000C0018001C00E1
:10064000340033000F000E000D000B00E5003800F1
:1006500037003600100011000000E7002A00035D9B
:10066000280030000100010001000100010001002C
:100670003A003B003C003D003E003F0035001E02BA
:100680001F022002210222020100010001000100DC
:100690000100010000000100010001000100010053
:1006A00001000100010001000100010045004400BB
:1006B0004300420041004000350227022602250285
:1006C00024022302310230022F022E022D020000EA
:1006D0000000010001000100010001000100010013
:1006E000010001000100010035001E001F00200074
:1006F000210022003A003B003C003D003E003F004C
:100700004000410042004300440045000000010059
:1007100001000100010001000100010001000100D1
:10072000010001000100270026002500240023000D
:1007300000004F0052005100500000003100300016
:100740002F002E002D002E020000010001000100EC
:100750000100010000000000000000000000000097
:100760000000000000000000000000000000000089
:100770000000000000000000000000000000000079
:100780000000000000000100010001000100000065
:100790000000000000000000000000000000000059
:1007A0000000000000000000C95CC75CC55CC25CC2
:1007B00000000000CA5CC85CC65CC35C00000000AE
:1007C00000000100010001000100000000047F3F63
:1007D0001F643214643214783C1E1E140A0522234E
:1007E000252628292A2C2D2F3032333536383A3B0E
:1007F0003D3E4042434547494A4C4E505153555760
:10080000595A5C5E6062646668696B6D6F7173757E
:1008100077797B7D7F81838587898A8C8E9092947E
:1008200096989A9C9E9FA1A3A5A7A8AAACAEAFB18B
:10083000B3B4B6B8B9BBBCBEBFC1C2C3C5C6C7C9D5
:10084000CACBCCCDCED0D1D2D2D3D4D5D6D7D7D88F
:10085000D9D9DADADBDBDBDCDCDCDCDCDDDDDDDDE1
:10086000DCDCDCDCDCDBDBDBDADAD9D9D8D7D7D6E9
:10087000D5D4D3D2D2D1D0CECDCCCBCAC9C7C6C5A0
:10088000C3C2C1BFBEBCBBB9B8B6B4B3B1AFAEACE6
:10089000AAA8A7A5A3A19F9E9C9A98969492908E91
:1008A0008C8A89878583817F7D7B79777573716F6A
:1008B0006D6B6968666462605E5C5A595755535146
:1008C000504E4C4A4947454342403E3D3B3A3836FC
:1008D000353332302F2D2C2A292826252322FFAA12
:1008E0007F554000010101010101010101020202E5
:1008F00002020202020203030303030303030404CC
:100900000404040404050505050506060606060795
:100910000707070708080808090909090A0A0A0B4E
:100920000B0B0C0C0C0D0D0D0E0E0E0F0F0F1010EF
:100930001111111212131314141515161617171876
:100940001819191A1A1B1B1C1D1D1E1E1F202021E1
:100950002222232424252626272829292A2B2C2D28
:100960002D2E2F30313232333435363738393A3B49
:100970003C3D3E3F404142434445464748494A4C3E
:100980004D4E4F50515354555658595A5B5D5E5F0A
:10099000616264656668696B6C6D6F7072737577A0
:1009A000787A7B7D7E8082838587888A8C8E8F9102
:1009B000939596989A9C9EA0A2A3A5A7A9ABADAF2C
:1009C000B1B3B5B7BABCBEC0C2C4C6C9CBCDCFD116
:1009D000D4D6D8DBDDDFE2E4E7E9EBEEF0F3F5F8BF
:1009E000FAFDFF0403300000000E034C0069006CA8
:1009F000007900350038000000120346005F0059FE
:100A00000055005500430048004900000004030958
:100A10000409022200010100A0FA090400000103F8
:100A20000101000921110100012240000705810395
:100A300008000A120110010000000851FC580000D3
:100A4000010102030105010906A101050719E029B9
:100A5000E71500250195087501810295017508814A
:100A6000010507190029FF150026FF0095067508E6
:100A70008100050819012905950575019102950167
:100A800075039101C00011241FBECFEFDAE0DEBF75
:100A9000CDBF04B603FE27C0809133049091340487
:100AA000A0913504B09136048730904BA740B04BED
:100AB000D1F4109233041092340410923504109241
:100AC000360414BE84B7877F84BF0FB6F894A89508
:100AD00080916000886180936000109260000FBE7A
:100AE000E0E0F8E3099512E0A0E0B1E0E6E8F1E625
:100AF00002C005900D92A834B107D9F724E0A8E40C
:100B0000B2E001C01D92A333B207E1F70E94D827DB
:100B10000C94C1300C94000083E390E02091BC0061
:100B200027FD02C00197D1F708951092B9008CE01B
:100B30008093B8000895CF93C82F84EA8093BC00B7
:100B40000E948C058091B900887F883041F08091A7
:100B5000B900887F803119F081E0CF910895C0936A
:100B6000BB0084E88093BC000E948C058091B90092
:100B7000887F883129F08091B900887F803461F7BF
:100B800080E0EBCF84E98093BC0083E390E0209188
:100B9000BC0024FD02C00197D1F708958093BB00EB
:100BA00084E88093BC000E948C059091B900987FE6
:100BB00081E0983209F480E008951F920F920FB6F9
:100BC0000F9211248F939F93EF93FF938091B9001D
:100BD000887F8038C1F038F4882309F44CC080360F
:100BE00079F081E022C0883A11F0883BD1F7E0919A
:100BF0004902F0E0E75BFC4F80818093BB0032C08C
:100C000010924802EECF80914802811123C080915A
:100C1000BB0080934902809149028031C8F0109254
:100C2000490280E091E0909348029091BC00829547
:100C3000880F880F807C9568892B8093BC00FF917A
:100C4000EF919F918F910F900FBE0F901F9018956D
:100C500081E0E8CFE0914902F0E08091BB00E75BE2
:100C6000FC4F80838091490290E001968F70992714
:100C700080934902B6CF1092BC00B3CF8EE14A9B5D
:100C800002C08150E1F74A9BFECF08955A9880E256
:100C90008A95F1F75A9A0895FC013BE03A95F1F7ED
:100CA00020E090E080E031E040E14A95F1F7880FE4
:100CB0004A9B02C08160232742E04A95F1F7000079
:100CC00040E14A95F1F79F5F6913EECF90E19A9565
:100CD000F1F799B132E03A95F1F7000040E14A9519
:100CE000F1F792FB992790F992272081920F908338
:100CF0000895EF92FF920F931F93CF93DF931F926C
:100D0000CDB7DEB719828C017C01E60EF11C0E1501
:100D10001F0561F481E09981911180E00F90DF91CE
:100D2000CF911F910F91FF90EF9008950E943E0682
:100D300068E0CE0101960E944C06F80181938F0174
:100D4000E6CF90934C0280934B0260934A02529AF2
:100D50005A9A089590934C0280934B0260934A02F2
:100D600052985A9AEA9AE9E6F0E080818F7C808373
:100D700008956150770B91E001C0990F6A95EAF7E9
:100D800020E031E0911108C0222391F05A9A80E2CC
:100D90008A95F1F75A980895492F482339F05A9ABD
:100DA000232740E24A95F1F79695ECCF5A98F9CF70
:100DB0005A98EDCFFF920F931F93CF93DF93EC01DF
:100DC0008C01060F111DC017D10731F4DF91CF91AF
:100DD0001F910F91FF900895F9900E94460668E0D8
:100DE0008F2D0E94B906EFCF1F920F920FB60F9270
:100DF00011240F931F932F933F934F935F936F9300
:100E00007F938F939F93AF93BF93EF93FF93CF9372
:100E1000DF931F92CDB7DEB719820E943E0667E0CE
:100E2000CE0101960E944C06082F06950695069560
:100E3000982F92959570202F2570920F292F23704F
:100E4000969596958770920F891344C08981811178
:100E500041C080914A028017E8F120E12A95F1F71C
:100E60005A9A529A82E08A95F1F700C0A8E00A9F48
:100E7000C001112400914B0210914C02080F191F60
:100E80005A98F8016581662321F0868197810E9436
:100E9000DA060E944606F0E1FA95F1F75A98529860
:100EA0005A9A20E12A95F1F7D80112966C9112977F
:100EB000662331F113968D919C910E947906D80199
:100EC000ED91FC91882311F088E001C082E08083DD
:100ED0000E943E060F90DF91CF91FF91EF91BF915D
:100EE000AF919F918F917F916F915F914F913F91C2
:100EF0002F911F910F910F900FBE0F901F9018957B
:100F0000ED91FC91E1CF0F931F93CF93DF9320914D
:100F10004A02281719060CF471C08C0193E0000FE7
:100F2000111F9A95E1F7C0914B02D0914C02C00F6E
:100F3000D11FF894529A5A9825E02A95F1F70000AB
:100F4000982F969595708570980F892F8370969538
:100F50009695980F092B0E94460600C067E0802FE7
:100F60000E94B90680E18A95F1F752985A9A4A9BF5
:100F700017C087E090E04A9915C06D81662321F182
:100F80008E819F810E94790681111EC0529A5A9AC1
:100F9000E881F98182E08083789482E090E00DC05E
:100FA00000C0E5CF019771F4529A5A9AE881F9810D
:100FB00081E08083789481E090E0DF91CF911F9170
:100FC0000F91089500C0D7CF0E943E0620E22A95D7
:100FD000F1F75A98529A80E18A95F1F76A8166236F
:100FE00021F08B819C810E94DA060E944606E881EE
:100FF000F9811082789490E080E0DFCF84E090E087
:10100000DCCFCF93C82F88E70E949B05882311F07F
:10101000C0E00BC080E00E94CE058111F9CF8C2F7B
:101020000E94CE05C1E08111F3CF0E94C2058C2F32
:10103000CF910895CF93C62F0E940108882321F0F5
:101040008C2FCF910C94010880E0CF910895CF931D
:10105000C62F0E940108882349F080E00E94010801
:10106000882321F08C2FCF910C94010880E0CF9140
:1010700008958EEA0C9401088FEA0C9401080F93EE
:101080001F93CF93DF93EC018C010C5A1F4FD801B3
:10109000ED91FC91119760838D919C911197019630
:1010A0008D939C938C1B9D0B84359105B9F4BE01E7
:1010B0006B5E7F4F4FE350E0CE010E946B2DCE015F
:1010C000CF96F8019183808345E150E060E270E0C3
:1010D000DF91CF911F910F910C947D2DDF91CF91D6
:1010E0001F910F9108951F93CF93DF93EC01FC01A3
:1010F000EA5AFF4F81E080836A30B1F432978081F1
:1011000091818C1B9D0B65E170E00E94372D182F9B
:10111000153120F0DF91CF911F91089560E2CE014B
:101120000E943F081F5FF4CFCE01DF91CF911F9146
:101130000C943F08EF92FF920F931F93CF93DF938E
:101140007C01EB01FB0101900020E9F78F010150C8
:101150001109C017D10738F0DF91CF911F910F917E
:10116000FF90EF9008956991C7010E947308F1CF35
:10117000CF92DF92EF92FF920F931F93CF93DF9363
:10118000CDB7DEB77C010DB71EB7DB010D90002097
:10119000E9F7CD01861B970B01962DB73EB7281BAB
:1011A000390B0FB6F8943EBF0FBE2DBFADB7BEB71B
:1011B00011966D017F936F932AE731E03F932F9350
:1011C0009F938F93DF92AF930E948B2DB601C7013F
:1011D0000E949A082DB73EB7285F3F4F0FB6F8948C
:1011E0003EBF0FBE2DBF0FB6F8941EBF0FBE0DBF82
:1011F000DF91CF911F910F91FF90EF90DF90CF90F3
:101200000895CF93DF93EC0144E550E060E270E095
:101210000E947D2DFE01EC5AFF4FD183C083CA5A34
:10122000DF4F81E08883DF91CF9108958F929F9265
:10123000AF92BF92CF92DF92EF92FF920F931F93E4
:10124000CF93DF938C010E94462690934E028093A9
:101250004D020E943C0863E082E20E942708882336
:1012600009F440C06DE781E20E9427088823D1F18C
:1012700088E70E949B05811135C080E40E94CE055D
:10128000811130C0580184E0982E96E0892EF12C0F
:10129000E12CF501EE0DFF1DC081C89DE001112478
:1012A000D12CC12CC455DF4FFE01EC0DFD1D8491E6
:1012B0000E94CE058FEFC81AD80A86E0C816D1045E
:1012C00099F78FEFE81AF80A85E1E816F10409F7B3
:1012D0009A9485E1A80EB11C9110D9CFF801EA5A71
:1012E000FF4F1082DF91CF911F910F91FF90EF90F0
:1012F000DF90CF90BF90AF909F908F900C94C205DD
:1013000089E593E00C9416091F93CF93DF93C82FC0
:101310000E9495058EEA0E940108811106C0C0E076
:101320008C2FDF91CF911F91089560E885ED0E9489
:101330001A088823A1F36FE188EA0E941A0888231B
:1013400071F360E083ED0E941A08882341F380E482
:101350000E940108882319F364E18DE80E941A08AD
:101360008823E9F260E080E20E941A088823B9F23B
:10137000CC2309F465C080EA0E940108882379F231
:1013800080EC0E940108882351F262E08AED0E94FD
:101390001A08882321F26FE881E80E941A0888233E
:1013A00009F4BDCF61EF89ED0E941A08882309F482
:1013B000B6CF60E48BED0E941A08882309F4AFCF02
:1013C00084EA0E940108882309F4A9CF86EA0E94D2
:1013D0000108882309F4A3CF8EE20E940108882324
:1013E00009F49DCF8FEA0E940108882309F497CF62
:1013F00060E081E80E941A08C82F882309F48FCF83
:1014000089E593E00E94010963E082E20E942708D7
:10141000882389F06FE781E20E942708882359F02A
:1014200088E70E949B05811106C080E40E94CE05DA
:1014300014E08823A9F00E94C2050E94800970CFA1
:1014400081EA0E940108882309F469CF88EC99CFCA
:1014500080E00E94CE05DF5FD038D1F7115011F047
:10146000D0E0F6CF1092AF03E6CF0E94A50D809199
:10147000AF03811104C080910001882321F00E94F4
:1014800080091092000180914D0290914E020E94BD
:10149000522681369A4E10F00C943908089581E056
:1014A000809300010895CF93DF93A4E8B1E049E869
:1014B00051E0C1E0D0E08D91E82FE295EF70F0E0CF
:1014C00061A18F709E0101C0220F8A95EAF7922FC9
:1014D0009095962391A382A1822B82A34A175B0742
:1014E00051F7DF91CF9108950C94560D0C94640D33
:1014F00080913C038360886080933C030E94530A80
:10150000AEE7B1E061E070E08D91E82FE295EF7019
:10151000F0E041A18F709B0101C0220F8A95EAF78C
:10152000922F9095942391A382A1822B82A381E094
:10153000A438B80749F7559A209A5D9A289AE9E5A0
:10154000F2E0AFE4B2E011921D9282E0E336F807D8
:10155000D1F70E94E80B809363020C94620E9F9275
:10156000AF92BF92CF92DF92EF92FF920F931F93B1
:10157000CF93DF9380910201D0E0C0E0811102C0DF
:10158000C5E0D0E084E8E82E81E0F82E8E01015B12
:101590001D4F6801AA24A394B12C25E0922EF701D7
:1015A00081917F01E82FE295EF70F0E021A18F702B
:1015B000A50102C0440F551F8A95E2F7CA01922F78
:1015C000982B91A392A18095892382A350EA5A95E2
:1015D000F1F7EEE7F1E020E050E040E03191A32F99
:1015E000A295AF70B0E090968C9190E03F7002C0F1
:1015F000959587953A95E2F780FD39C0C501042E8F
:1016000001C0880F0A94EAF7282B4F5F5F4F4630DE
:10161000510521F7F60181916F01821721F0319771
:101620002083909201010E94530AF9E8EF16F1E03D
:10163000FF0609F0B4CF80910101882359F0815051
:10164000809301018823A9F08FE99FE00197F1F7CA
:1016500000C0000081E0DF91CF911F910F91FF90BA
:10166000EF90DF90CF90BF90AF909F90089580E073
:10167000CBCFC75ADD4F85E0F80191918F01999347
:101680008150D1F7E7CFCF93DF9320910201D0E0D3
:10169000C0E0222311F0C5E0D0E00E94100C0097BA
:1016A00031F0029709F4289881E090E00BC0289A65
:1016B000DE01A75ABD4F25E0EFE6F2E001900D9262
:1016C0002A95E1F7DF91CF9108950E94AF0A8091AA
:1016D0000201F0E0E0E0811102C0E5E0F0E0E75A4D
:1016E000FD4F90E080E020E0DC01A159BD4F4C911E
:1016F0003191431321E03C93019685309105A1F788
:1017000080916702820F809367020895CF93DF93E1
:1017100080916302882309F440C00E94AF0A80913F
:101720000201D0E0C0E0811102C0C5E0D0E0C75A9C
:10173000DD4F45E050E0BE018AE692E00E945E2D5A
:1017400025E0FE01AAE6B2E001900D922A95E1F7AC
:101750000E94430B892BE9F05D98809164028F5FB2
:1017600080936402863078F080910201F0E0E0E03E
:10177000882311F0E5E0F0E0E75AFD4F1082118276
:101780001282138214820E946A0E81E0DF91CF914F
:1017900008955D9A10926402F6CF0E94650B8091C5
:1017A0000201B0E0A0E0882311F0A5E0B0E0A75A64
:1017B000BD4F85E0EAE6F2E001900D928A95E1F7EF
:1017C000E2CFE82FF0E0E75AFD4F808108950895B9
:1017D000E8EDF0E08081806180838AE18A95F1F70D
:1017E00000C08091D900817008950E94E80B809319
:1017F00002010E94E80B81110E94040C0E940A0C55
:10180000789408950C94F50B63E070E083E091E028
:101810000C94A10663E070E083E091E00C94AA06CA
:101820000F931F93CF93DF938C0190911C018091B4
:101830001B01D0E0C0E0981759F082E090E00E94D0
:101840008307EC01892B21F480911B0180931C01FB
:10185000012BD1F48091650290916602892BA1F44D
:1018600090E080E00E948307892B89F480916702D1
:1018700080931B011092660210926502CE01DF91E7
:10188000CF911F910F91089581E090E0EBCF81E01F
:1018900090E09093660280936502F0CF80912703D9
:1018A00090912803A0912903B0912A0384309105D7
:1018B000A105B105E1F128F50097A105B10571F188
:1018C0006AEA71E082309105A105B10549F1BF9343
:1018D000AF939F938F9385EC91E09F938F931F928B
:1018E00088E18F9380EB93E09F938F930E948B2DE1
:1018F0008DB79EB70A960FB6F8949EBF0FBE8DBFE8
:1019000013C088309105A105B10529F08E309105ED
:10191000A105B105E1F667EB71E002C06EE871E088
:1019200080EB93E00E94842D80EB93E008956DE9B5
:1019300071E0F6CF8DE191E00895CF93C0E28C3352
:10194000910520F4FC01E951FE4FC0811F92CF9315
:101950009F938F93FB0180811F928F9381811F92B0
:101960008F9386ED91E09F938F931F9288E18F93E1
:101970008BE892E09F938F930E948B2D8DB79EB73B
:101980000E960FB6F8949EBF0FBE8DBF8091740265
:1019900090917502449779F080917402909175024C
:1019A000FC01EA58FD4FC083019690937502809325
:1019B0007402CF9108951092750210927402E6E7B6
:1019C000F2E080E292E0EA38F90731F38193FACF4E
:1019D0008BE892E0089586E792E008950F931F93B5
:1019E000CF93DF93EC018B010E944F0A882351F0C3
:1019F000B801CE010E94C90D8170DF91CF911F9176
:101A00000F91089580E0F8CF08958F929F92AF9242
:101A1000BF92CF92DF92EF92FF920F931F93C12C50
:101A2000D12C7601C3949701860104C0000F111FC9
:101A3000221F331F6A95D2F74601570104C0880C54
:101A4000991CAA1CBB1C8A95D2F7D501C401802B16
:101A5000912BA22BB32B00912703109128032091E7
:101A6000290330912A03082319232A233B238017B3
:101A70009107A207B30769F4842F1F910F91FF907C
:101A8000EF90DF90CF90BF90AF909F908F900C948D
:101A9000AD22842F1F910F91FF90EF90DF90CF9098
:101AA000BF90AF909F908F900C94CE228091CA03EC
:101AB000869590E09093C9038093C8030E94E80B39
:101AC00091E089270C9484090C94350ACF93DF9315
:101AD000EC01809163028823A1F00E944E0CBC01AE
:101AE000CE010E94B8080E94E80CBC01CE010E9401
:101AF000B8080E94EB0CBC01CE01DF91CF910C9491
:101B0000B8080E949A0CBC01CE01DF91CF910C94D1
:101B10009A080F931F93CF93DF93EC018B0144E559
:101B200050E00E945E2D892B59F084E5F801DE011A
:101B300001900D928A95E1F7CA5ADF4F81E08883C0
:101B4000DF91CF911F910F910895CF93DF93CDB780
:101B5000DEB7C755D1090FB6F894DEBF0FBECDBFB3
:101B6000CE0101960E940109CE0101960E94660DE8
:101B7000BE016F5F7F4F89E593E00E94890DC95ACE
:101B8000DF4F0FB6F894DEBF0FBECDBFDF91CF9110
:101B900008950F931F93CF93DF938C01EB018A81FC
:101BA000882319F0C8010E949D0C02308DE51807AA
:101BB000E1F028F401301D4581F0C1E02CC0033074
:101BC0008DE51807F1F004301D45B9F7CA8183E0AF
:101BD000CC2339F10E94AD2206C0CA81CC23D9F0B2
:101BE00080E00E944F0EC0E016C0CA8181E0CC2385
:101BF00059F00E94AD2243E062E081E00E94050DB1
:101C0000F2CFCA8182E0F3CF0E94CE2243E062E0AD
:101C100081E00E94050D8C2FDF91CF911F910F91D4
:101C200008950E94CE22F7CF81E008951F93CF93AD
:101C3000DF9300D000D01F92CDB7DEB749835A831F
:101C40006B832091C60289819A8121111BC0662372
:101C5000A9F00E94A523182F682F89819A810E94DC
:101C6000492369817A81812F0F900F900F900F90F7
:101C70000F90DF91CF911F910C9426110E94792330
:101C8000182FEFCF0E94A52369817A81EDCFFC0147
:101C9000408151816281738184810C94160ECF93AF
:101CA000DF93C1E0D0E002C0CC0FDD1F8A95E2F7E0
:101CB0008C2F0E94F124BE0190E080E0DF91CF9153
:101CC0000C944B220E94DE24811102C00E948025C8
:101CD0000C94740A0C94760A0C94040D08950E94D6
:101CE000E91E0E946E0E2FEF84E39CE0215080409D
:101CF0009040E1F700C0000087E797E79093010864
:101D0000809300080C94A2260F931F93CF93DF9328
:101D10008C010E94470EEC01B8010E94EE0C882352
:101D200009F4FCC0B801CE010E94341A882309F4DA
:101D3000F5C0CB3C8CE5D80709F433C108F051C09D
:101D4000C33CECE5DE0709F403C148F5C6318CE578
:101D5000D807A8F4C2309CE5D90708F09FC0C11588
:101D6000ECE5DE0709F4D5C0C130DC4509F4DCC080
:101D7000C801DF91CF911F910F910C94140EC631C1
:101D80008CE5D80709F442C2C23CDC4589F7F8016A
:101D90008281882309F4C2C00E94AE18BFC0F80136
:101DA0008281C73CFCE5DF0709F4EBC068F4C53C61
:101DB000ECE5DE0709F4E0C008F4D5C0882309F497
:101DC000ADC00E944716AAC0C93C9CE5D90709F4DA
:101DD000E2C008F4DBC0882309F4A0C00E94831687
:101DE0009DC0C33DFCE5DF0709F419C190F5F8017A
:101DF0008281CF3CFCE5DF0709F4E8C0A8F4CD3CC4
:101E0000ECE5DE0709F4DBC008F4D3C0882309F44D
:101E100085C00E94BB14823028F00E94BB1485301C
:101E200008F4A7C082E0CFC0C13D9CE5D90709F402
:101E3000E8C008F4D8C0882309F470C00E94BB141D
:101E4000853128F00E94BB14873108F492C085E1E7
:101E5000BAC0CD3DFCE5DF0709F4FFC0A0F4C53DE5
:101E60009CE5D90709F4F2C008F4E0C0CC3DDC459C
:101E700009F07ECFF8018281882309F44FC080E009
:101E80000E9464284BC0CE3D8CE5D80709F459C0A8
:101E9000CE018A5F9C45079708F06ACFF8018281DE
:101EA000882309F465CF0E94DE24811102C00E94BC
:101EB00080250E94F6249093250480932404CF303B
:101EC000FCE5DF0709F487C108F0FFC0C8309CE5D6
:101ED000D90709F468C108F0D5C0C430FCE5DF07B4
:101EE00009F44FC108F0C0C0C2309CE5D90709F41D
:101EF00042C1809124048260C330DC4509F43EC1B4
:101F000080912404909125040E9404250E94E91EDA
:101F100005C0F801828181110E946F0E80E0DF917F
:101F2000CF911F910F910895F80182818823B1F319
:101F300090913C03892F8E7F90FF816080933C03BA
:101F4000EDCFF8018281882349F30E948025E6CFF6
:101F5000F8018281882311F30E943A24827249F0A9
:101F60000E94A018DBCF8823C9F20E943A24827213
:101F7000B9F30E949318D2CF882381F20E943A16B7
:101F8000CDCF882359F20E945616C8CF882331F24C
:101F90000E946516C3CF882309F4C0CF0E9474162F
:101FA000BDCFF8018281882309F4B8CF0E94C31401
:101FB000B5CF882309F4B2CF0E94D414AFCF8823C1
:101FC00009F4ACCF81E00E94A318A8CF882309F4BC
:101FD000A5CF0E94BB14863020F00E94BB1488302D
:101FE00040F286E0F0CF882309F498CF0E94BB141A
:101FF000893028F00E94BB148E3008F4BACF89E0F3
:10200000E2CF882309F48ACF0E94BB148F3028F0D6
:102010000E94BB14843108F4ACCF8FE0D4CFF80118
:102020008281882309F47ACF88E1CDCFF8018281BB
:10203000882309F473CF0E94BB14893128F00E94D1
:10204000BB14823208F495CF89E1BDCFF8018281BB
:10205000882309F463CF83E2B6CFF8018281882315
:1020600009F45CCF82E00CCF809124048061C630FB
:10207000FCE5DF0709F482C008F487C080912404DE
:1020800080627CC0CB309CE5D90709F498C068F425
:10209000C930FCE5DF0709F48AC0CA30DC4509F025
:1020A0002FCF8091240488606EC0CD309CE5D90785
:1020B00009F489C0809124048D7FCE30DC4508F47A
:1020C0005DC080912404877F59C0CA3FFCE5DF07CB
:1020D00009F45FC050F5C2319CE5D90709F483C00B
:1020E00068F4C031FCE5DF0709F479C0C131DC4593
:1020F00009F006CF809124048F7B40C0C4319CE559
:10210000D90709F47CC008F472C0C531DC4509F078
:10211000F7CE8091240482FB992790F921E0922741
:1021200090FB82F990FB83F929C0CD3F8CE5D8075D
:1021300009F44DC060F4CB3FECE5DE0771F180910E
:102140002504CC3FDC4509F0DBCE8E7F29C0CF3F94
:102150008CE5D80709F44FC070F1C115DD4509F0D1
:10216000CFCE80912504982F909591708E7F892BEA
:1021700090FB81F915C08091240481608093240430
:10218000BFCE809124048460F9CF809124048860BC
:10219000F5CF80912504816003C080912504826081
:1021A00080932504ADCE809124048064E7CF809194
:1021B00024048068E3CF809125048260ECCF809175
:1021C00024048E7FDBCF809124048B7FD7CF809136
:1021D00025048D7FE5CF809124048F7ECFCF809121
:1021E00024048F7DCBCF809124048F77C7CF80913B
:1021F0002404877FEACF809125048D7FA6CF90911C
:102200002404892F97FB87F98058B8CF0E943A247D
:10221000F8019281992381F08A7A91E009F490E0A3
:102220009093A302811106C089E20E9415240E94A6
:102230007B2474CE85E3F9CF8091A302811104C081
:1022400089E20E941C24F3CF85E3FBCF972F70E037
:1022500026E0929F600D711D1124FB019CE3899F74
:10226000E00DF11D1124EE0FFF1FE451FA4F85918F
:1022700094910895FC01EE0FFF1FE453F84F8591F0
:1022800094910895CF93DF930E9426110E94FC122F
:10229000EC018115904508F043C0C11580E4D807D2
:1022A00008F017C1C83ED10528F5C03ED10508F099
:1022B000A3C0C83AD10580F4C53AD10508F092C050
:1022C000C130D10509F498C020F0C430D10508F020
:1022D00093C0D0E0C0E090C0CF3BD10508F490C0DF
:1022E000CE01805C9109C03CD10598F30E943A115F
:1022F000EC0182C0C11520E2D20750F4C11581E083
:10230000D80708F079C0C03FD10518F3D06574C074
:10231000C11520E3D20708F0D2C0CE019F70E6CFEE
:10232000C11585E5D80760F5C11524E5D20708F089
:10233000FEC0C11582E5D80750F4C11521E5D207CA
:1023400008F4CAC0DC2FCC27C16FD06A55C09C2FBF
:10235000969596959E0123703327C115D34508F0B5
:10236000D7C0C1E0D0E002C0CC0FDD1F2A95E2F754
:1023700020E2929FC0011124C82BD92BDC683CC0FD
:10238000C11529E5D207A8F4C11588E5D80708F0DA
:10239000D3C0C11526E5D20708F09BCF8C2F0E9431
:1023A0009713C82FD0E0DC2FCC27CC27DF71D06269
:1023B00023C0C1158AE5D80708F4C3C0CE019056E2
:1023C0008115904208F085CF8D2F8F710E94971351
:1023D000DD27D06290E0982F882788279F71C82B2F
:1023E000D92B0AC0C53AD10509F4BBC0C63AD105FC
:1023F00009F4BAC0C3E8D0E4CE01DF91CF910895CB
:10240000C83AD10509F4B3C0C93AD10509F4B2C03C
:10241000CA3AD10509F4B1C0CB3AD10509F4B0C02C
:10242000CC3AD10509F4AFC0CB3BD10509F4AEC01D
:10243000CC3BD10509F4ADC0CD3AD10509F4ACC00F
:10244000C03BD10509F4ABC0CE3AD10509F4AAC00E
:10245000CF3AD10509F4A9C0C13BD10509F4A8C000
:10246000C23BD10509F4A7C0C33BD10509F4A6C0FE
:10247000C43BD10509F4A5C0C53BD10509F4A4C0EE
:10248000C63BD10509F4A3C0C73BD10509F4A2C0DE
:10249000C83BD10509F4A1C0C93BD10509F4A0C0CE
:1024A000CD3BD10509F49FC0CE3BD10509F49EC0B8
:1024B000CA3BD10509F09DC0CAE2D6E49DCFCE014A
:1024C0009927D3FF03C0EC01D86C96CFEC01D06CF8
:1024D00093CFDF70D06A90CFCE01F4E096958795C8
:1024E000FA95E1F783709C2F937021E030E002C0F1
:1024F000220F331F9A95E2F73C68382BC695C69594
:10250000C37080E2C89FE0011124C22BD32B74CF8B
:10251000C1E0D0E002C0CC0FDD1F2A95E2F720E237
:10252000929FC0011124C82BD92BDA6865CFDC2F0C
:10253000CC27C46FD06A60CFDC2FCC27C06FD06AA5
:102540005BCF8C2F8F700E94971334E0D695C79580
:102550003A95E1F7CF70D0E0DC2FCC27D069C82BBB
:102560004BCFC1E8D0E448CFC2E8D0E445CFC2EEBB
:10257000D4E442CFC9EED4E43FCFCAEED4E43CCF9A
:10258000C5EBD4E439CFC6EBD4E436CFC3EBD4E407
:1025900033CFC4EBD4E430CFC7EBD4E42DCFCCECB5
:1025A000D4E42ACFCDECD4E427CFC3E8D5E424CFBC
:1025B000CAE8D5E421CFC2E9D5E41ECFC4E9D5E409
:1025C0001BCFC1E2D6E418CFC3E2D6E415CFC4E2F4
:1025D000D6E412CFC5E2D6E40FCFC6E2D6E40CCFE4
:1025E000C7E2D6E409CFCFE6D4E406CFC0E7D4E40F
:1025F00003CFC0E0D4E400CF82389105B1F1B0F44C
:102600008133910509F471C048F48932910509F4C8
:1026100067C08A32910509F46DC00895853391052C
:1026200009F459C08933910501F10895833E91055C
:10263000A9F138F4803E9105F9F0823E910549F107
:102640000895863E9105A9F1873E9105C9F1843E22
:10265000910519F52091250421FF1FC080912404C4
:1026600084FD14C087EE90E0089520912404237027
:10267000A1F080EE90E008952091240420FD3FC059
:102680003091250430FF09C024FF3CC090E080E079
:1026900008952091240422FDF7CF08952091240469
:1026A00022FD33C03091250430FDE3CF24FDEECF71
:1026B000F4CF2091240423FFF0CF24FDE7CFD2CF25
:1026C0002091240423FD24C03091250431FFEECF56
:1026D00084EE90E008952091240425FD1CC0089507
:1026E0002091240425FD1AC008952091240426FD7C
:1026F00018C008952091240426FD16C0089589E38A
:1027000090E0089583EE90E0089582EE90E00895C1
:1027100086EE90E0089589E290E0089585E390E0E8
:1027200008958AE290E0089581E390E0B6CF909119
:10273000240492FF06C0282F28712830F9F4877FDF
:10274000846093FF06C0282F28712831F1F4877E1A
:1027500084612091250420FF06C0382F387138305D
:10276000D9F4877F816021FF06C0282F2871283186
:10277000D1F4877E816194FD877E0895282F24718E
:102780002430F9F68B7F8860DCCF282F2471243128
:1027900001F78B7E8861DDCF382F3171313019F729
:1027A0008E7F8860E0CF282F2171213121F78E7E26
:1027B0008861E1CFAF92BF92CF92DF92EF92FF920A
:1027C0000F931F93CF93DF939B01E82FF0E0ED5120
:1027D000F74F31110EC06491762F862FDF91CF9184
:1027E0001F910F91FF90EF90DF90CF90BF90AF902F
:1027F0000895C32FD0E0E491FE2FEE2EF12C46E099
:10280000649FC00111240FEF10E0B8010E94232D36
:10281000AB01822F90E0880F991F25E5249FB0011E
:10282000259F700D1124861B970B982F990F980FD9
:10283000B8016C1B7D0B6E9DD0016F9DB00D7E9D10
:10284000B00D11248B2F939F90011124232F332738
:10285000B801621B730B6E9D90016F9D300D7E9DC4
:10286000300D1124732F5801A91AB108AC9E6001D4
:10287000AD9ED00CBC9ED00C1124CD2CDD240C19A7
:102880001D090E9DE0010F9DD00D1E9DD00D112440
:1028900042305105B1F050F44115510571F041300D
:1028A000510569F07E2FEB2F832F09C0443051056D
:1028B00079F050F046305105A9F77E2FED2F6E2F9D
:1028C0008DCF7B2F8D2FFBCFE32F7B2F8F2FF7CF3C
:1028D0007D2FEB2FFBCF0895CF93DF93762FE90168
:1028E000682F842F0E94DA13798368838A83DF91AB
:1028F000CF910895493708F048E70C946C14809103
:10290000CA03982F9E7F61F4817082608093CA030E
:102910008091CD03893718F088E78093CD0308951F
:102920008A34B0F381708864F1CF88E090E00C9431
:102930004A30CF92DF92EF92FF926B017C010E94AE
:102940007F14B701A60188E090E0FF90EF90DF9040
:10295000CF900C946830EAECF3E083E0808311823E
:102960008FEF828388E78383148260817181828103
:1029700093810C9499148091CA0380FF02C08695BC
:10298000089580E008958091CE03833018F48F5F1E
:102990008093CE036091CA037091CB038091CC03E6
:1029A0009091CD030C9499148091CE03882319F053
:1029B00081508093CE036091CA037091CB038091C4
:1029C000CC039091CD030C9499146091610170E057
:1029D0008091CA0380FF0AC08091A80223E0829FF1
:1029E000C001112481539C4F0C94BD198091A70202
:1029F0009091600123E0829FF0011124E153FC4F8C
:102A0000891750F71182108212828F5F3396F8CFA8
:102A10009091CA0390FF14C09091A7022091600189
:102A200033E0939FF0011124E153FC4F921710F013
:102A30000C94E5148183608342839F5F3396F6CFC5
:102A40000895CF93DF9300D01F92CDB7DEB790915A
:102A5000CA0390FF0AC09E012F5F3F4F0E947A1465
:102A60004B8169818A810E9408150F900F900F9009
:102A7000DF91CF910895CF93DF93EC01EC81F0E0EB
:102A8000E252F84F4491EAECF3E0628181810E94C6
:102A900021158C818F5F8C83DF91CF910895CF9327
:102AA000DF93EC01EAECF3E0438162818C810E94C8
:102AB00021158C818F5F8C83DF91CF9108950F93C7
:102AC0001F93CF93DF9300D01F92CDB7DEB78C0159
:102AD0008091A40281110AC09E012F5F3F4F48E7F9
:102AE0006FEF0E947A148A818093A402F801848196
:102AF000813069F038F04091A402823009F040E062
:102B000080E003C08091A40240E060E004C06091D6
:102B1000A40240E080E00E940815F801848190E062
:102B2000019663E070E00E94372D84830F900F9030
:102B30000F90DF91CF911F910F910895AF92BF92A7
:102B4000CF92DF92EF92FF920F931F93CF93DF9379
:102B500000D01F92CDB7DEB7182FF62E042FE22E2D
:102B60009091CA0390FF29C0E92FE695AE2FB0E0FF
:102B7000AD5DBD4F8C918093B0029E7F923059F530
:102B80009E012F5F3F4F812F0E947A144B816981F4
:102B90008A810E9408151093CB03F092CC03009316
:102BA000CD03EE2051F06091CA037091CB03809168
:102BB000CC039091CD030E9499140F900F900F9029
:102BC000DF91CF911F910F91FF90EF90DF90CF9009
:102BD000BF90AF900895823019F40091CD03DBCF00
:102BE000863019F41091CB03D6CF8930D9F38931CF
:102BF00091F6E9518E2F8170D82EE695F0E0E252E1
:102C0000F74FA590B490C12CBB2460915F01C6160C
:102C100018F00E94E514BFCF2C2D30E0A29EC00119
:102C2000A39E900DB29E900D112470E00E94232D62
:102C3000812FD11013C0860F4091A702420F532F4E
:102C4000511D9A01220F331F240F351F21533C4F72
:102C5000402F6F2D0E947A14C394D7CF861BECCFE0
:102C6000EAECF3E09181282F438162818AE0890FA9
:102C70000C949E1581E00C943016EAECF3E09181FF
:102C8000282F4381628186EF890F0C949E1581E085
:102C90000C943D16EAECF3E0628121E1620F08F446
:102CA0006FEF282F438181810C949E1581E00C9455
:102CB0004A16EAECF3E0628121E1621B08F460E06D
:102CC000282F438181810C949E1581E00C94591624
:102CD000EAECF3E0438121E1420F08F44FEF282FA3
:102CE000628181810C949E1581E00C946816EAEC57
:102CF000F3E0438121E1421B08F440E0282F628188
:102D000081810C949E1581E00C94771620E00C9440
:102D10009E15EF92FF921F93CF93DF93EC0110E08B
:102D2000EE24EA94F12C60915F01161770F00E9476
:102D3000E5149A818C8190FF27C08F5F8C83DF918F
:102D4000CF911F91FF90EF9008952091A702422FFD
:102D5000410F5527551FCA019A01220F331F280F13
:102D6000391F21533C4F70E0C7010E94372D962F29
:102D70008C814091CD036091CC03199F800D11246B
:102D80000E947A141F5FCFCF8150D8CFBF92CF92CD
:102D9000DF92EF92FF920F931F93CF93DF93FC018B
:102DA00082810FEF80FF01E010E080915F01181732
:102DB000C0F00E94E5148091A602013009F04DC0D8
:102DC000811102C080915F0181508093A602DF9142
:102DD000CF911F910F91FF90EF90DF90CF90BF9018
:102DE0000895C091A702C12ED12CCC0DDD2DD11D8F
:102DF000CE01880F991FC80FD91FC153DC4F19820C
:102E000018821A8234E0E32EF12CB12C8091A602B4
:102E10008B0D87FF03C090915F01890F082E000C76
:102E2000990BC816D90691F48091CD038E9DA0010F
:102E30008F9D500D112455954795559547959E01A9
:102E40006091CC038091CB030E947A14B00EF1E024
:102E5000EF1AF108D9F61F5FA8CF90E001966091B4
:102E60005F0170E00E94372DB0CF0F931F93CF9377
:102E7000DF938091A7029091600123E0829FF0018F
:102E80001124E153FC4F891740F1C0E0D3E0609179
:102E90005F01C61740F10E94E51420915D01809109
:102EA000A502820F8093A50290915E01920F9093EC
:102EB0005E01191654F4082E000C990B40915F0125
:102EC0004150550B841795071CF0219520935D0107
:102ED000DF91CF911F910F9108951182108212827C
:102EE0008F5F3396D0CF0C2F10E070E0C8010E94A6
:102EF000372D2091A702820F482F50E02091A50284
:102F0000022E000C330B02171307BCF020915E0158
:102F1000022E000C330B201731077CF08D9F90019F
:102F2000112421533C4F4091CD036091CC038091FB
:102F3000CB030E947A14CF5FAACFFA01EE0FFF1FD6
:102F4000E40FF51FE153FC4F118210821282F3CF80
:102F50000F931F93CF93DF938C01FC0184819581A4
:102F600001968170992795838483C0E0D5E580918F
:102F70005F01C81730F0DF91CF911F910F910C9432
:102F8000E5142091A702422F4C0F5527551FCA0167
:102F90009A01220F331F280F391F21533C4F8C2FCA
:102FA0008695F80144815581840F952F911D81707C
:102FB0004091CD036091CC038D9F802D11240E9400
:102FC0007A14CF5FD4CF0F931F93CF93DF93EC018D
:102FD00010E000E090915F019017110609F06CF489
:102FE0000E94E5148C8190E00196817099278C8372
:102FF000DF91CF911F910F9108952091A702A80111
:10300000420F511D9A01220F331F240F351F2153E8
:103010003C4F4C816091CC038091CB0396959017E7
:10302000110651F04CF0442349F04091CD030E9429
:103030007A140F5F1F4FCECF4423B9F340E0F7CF90
:10304000EAECF3E080818E7F8083608171818281F0
:1030500093810E9499141092B1022FEF80E792E0C1
:10306000215080409040E1F700C000000C94E5142E
:103070006091CA03669570E04BE050E082E691E013
:103080000E94512D892B19F481E08093B1020E9496
:1030900046269093AA028093A90208959091CA03AC
:1030A00090FF35C09170811128C092609093CA033F
:1030B000662351F06091CA037091CB038091CC03D9
:1030C0009091CD030E9499146091CA03669570E0B7
:1030D0004BE050E082E691E00E94512D892BA1F057
:1030E0001092B10281E08093AC024091CD036091D7
:1030F000CC038091CB030C948616853210F0986433
:10310000D5CF880F982BD2CF0E943818EBCF0895D7
:10311000682F9091CA03969581E0890F853208F057
:1031200081E00C944E1881E00C948818682F9091DF
:10313000CA0396958FEF890F09F484E20C944E1818
:1031400081E00C94961861E00C944E18EAECF3E0E0
:1031500080818160808386950C94A3188091CA0336
:1031600080FD0C9420180C94A61860E00C944E1866
:103170008091AF02811133C080913C0381608093C4
:103180003C030E94DE24811104C00E9480250E941D
:10319000AB140E9495146093CA037093CB03809381
:1031A000CC039093CD036E7F61F40E94AB140E9418
:1031B00095146093CA037093CB038093CC039093D0
:1031C000CD030E947F141092B1028091CA0380FF48
:1031D00003C086950E94B51881E08093AF020895E0
:1031E0000F931F93CF93DF938091B102882309F44B
:1031F0008DC08091B002E091CA03E695E81BE09390
:10320000AB028230C9F5F0E0E652F84FE491CE2FE0
:10321000D0E00BE315E18091AC02882389F0109295
:10322000AC020E9446269E0120953095820F931F86
:103230009093AA028093A9021092AE021092AD025E
:103240008091A9029091AA020E9452268C179D0794
:1032500008F45CC0E091A902F091AA02CE0FDF1F32
:10326000D093AA02C093A90289EA92E0F801DF9103
:10327000CF911F910F910994863049F4F0E0E95203
:10328000F84FE491CE2FD0E00FE415E1C4CF8930A0
:1032900051F4E695F0E0EC52F84FE491CE2FD0E0F7
:1032A00009E816E1B8CF8F3051F4E695F0E0EF521F
:1032B000F84FE491CE2FD0E006EC16E1ACCF85318B
:1032C00049F4F0E0E253F84FE491CE2FD0E005E36B
:1032D00017E1A1CFC8EED3E008EA17E1883109F47D
:1032E0009ACF833239F4ECECF7E0C591D4910FE535
:1032F00015E191CFC4EFD1E003EE17E1843209F478
:103300008ACFC0EDD7E00BE614E185CFDF91CF91F6
:103310001F910F9108953BB1242F209523233BB19A
:10332000432B3FB7F894FC01680F791FE617F707A6
:1033300011F43FBF0895819198E04BB9000000C09F
:1033400087FF2BB9880F000000C000C000C02BB958
:1033500000C09A9591F7EACF2AB1242B2AB99B0194
:10336000220F331F620F731F0E948B1987EC90E0AE
:103370000197F1F700C00000089548E00C94AC19E3
:103380000F931F93CF93DF93C62FD42F022FFC01EF
:1033900082818823C9F06093B4020E9446269093EC
:1033A000B3028093B20280E28C0F883008F057C0DD
:1033B000C77081E001C0880FCA95EAF7DF91CF910D
:1033C0001F910F910C94AD1C1091B402161335C0CF
:1033D0008091B2029091B3020E94522684369105E8
:1033E00060F5C0E2CD0F1D17B9F080E2810F883083
:1033F00040F4177081E001C0880F1A95EAF70E9427
:10340000B41CC83028F581E09D2F977001C0880F4B
:103410009A95EAF70E94AD1C802F0E949A1CC83032
:10342000F0F4D77081E001C0880FDA95EAF7DF91F8
:10343000CF911F910F910C94B41C80E28C0F8830B7
:1034400070F4C77081E001C0880FCA95EAF7EFCF2A
:10345000802FDF91CF911F910F910C949A1CDF91D7
:10346000CF911F910F9108959C01CB01233F4CE513
:10347000340731F190F4283DFCE53F07E9F0293DA0
:103480004CE5340769F1273D3C4579F426E241EEED
:1034900061EE0E94C01980E00895253FFCE53F07DA
:1034A000B9F090F0263F3C45B9F0FC0182818823B9
:1034B000D1F01092B402089527E245EE65EEE9CF0F
:1034C00026E241EE60EEE5CF27E245EE64EEE1CF85
:1034D00026E241EE62EEDDCF27E245EE66EED9CF81
:1034E00028E241E0EBCF81E008959093BA02809307
:1034F000B9020895E091B902F091BA02309721F033
:103500000190F081E02D099480E00895E091B902E6
:10351000F091BA02309721F00280F381E02D0994F6
:1035200008952091B7023091B8022817390771F039
:103530009093B8028093B702E091B902F091BA0279
:10354000309721F00680F781E02D099408952091AD
:10355000B5023091B6022817390771F09093B60280
:103560008093B502E091B902F091BA02309721F050
:103570000084F185E02D0994089585B7806885BFA2
:1035800085B7806885BF089508950C94C41A08957E
:103590000C94C71A0E94BD1A0E94020C0C94C51A02
:1035A00081E008950E943D260E94780A0E94B32679
:1035B0000E94B8180C94C81ABF92CF92DF92EF9273
:1035C000FF920F931F93CF93DF93CDB7DEB72A9768
:1035D0000FB6F894DEBF0FBECDBF0E94860B0E94CF
:1035E000D01A882309F46FC08CEBC82E82E0D82E45
:1035F00010E000E0B02E802F0E94E10BE82EF601D3
:10360000F1906F01F81609F458C080913C0381FDD8
:103610000E94E70B90E080E0FE242F2D30E0482F41
:10362000B901082E02C0759567950A94E2F760FF0C
:103630003FC08E83BF8281E090E06C0102C0CC0C61
:10364000DD1C4A95E2F72E2D30E02C213D21232B65
:1036500009F480E088870E9446268160782F9A8747
:1036600089874E815F8168858A850E94841BF80165
:10367000E454FD4F80818C2580830E947A1A9091BA
:10368000BB02891789F10E947A1A8093BB022A969D
:103690000FB6F894DEBF0FBECDBFDF91CF911F9163
:1036A0000F91FF90EF90DF90CF90BF900C946C0E35
:1036B00001968630910509F0B2CF0F5F1F4F0A3097
:1036C000110509F097CF8FEF89838A831B820E94AF
:1036D00046268160782F9D838C8349815A816B8136
:1036E0008D810E94841BC9CF2A960FB6F894DEBF45
:1036F0000FBECDBFDF91CF911F910F91FF90EF9043
:10370000DF90CF90BF900895CF93DF93CDB7DEB712
:103710002B970FB6F894DEBF0FBECDBF4F835887EF
:1037200069877A878B871E821D8285E0FE01379626
:10373000DE01119601900D928A95E1F749815A8137
:103740006B817C818D819E812B960FB6F894DEBFB4
:103750000FBECDBFDF91CF910C949221FC018081EF
:1037600091810C94E723882309F4BBC09CEF980F48
:10377000913A20F40E9415240C947B2490E2980F37
:10378000983050F4877091E001C0990F8A95EAF75C
:10379000892F0E943D24F0CF9BE5980F933070F461
:1037A000853A31F0863A39F083E890E00C94911A2A
:1037B00081E890E0FBCF82E890E0F8CF98E5980FA1
:1037C000973108F08EC0883A09F446C0893A09F466
:1037D00046C08A3A09F446C08B3A09F446C08C3A8E
:1037E00009F446C08B3B09F446C08C3B09F446C043
:1037F0008D3A09F446C0803B09F446C08E3A09F47C
:1038000046C08F3A09F446C0813B09F446C0823B6A
:1038100009F446C0833B09F446C0843B09F446C022
:10382000853B09F446C0863B09F446C0873B09F452
:1038300046C0883B09F446C0893B09F446C08D3B2D
:1038400009F446C08E3B09F446C08A3B09F446C0E1
:1038500090E080E00C94A71A82EE90E0FBCF89EE16
:1038600090E0F8CF8AEE90E0F5CF85EB90E0F2CFD4
:1038700086EB90E0EFCF83EB90E0ECCF84EB90E031
:10388000E9CF87EB90E0E6CF8CEC90E0E3CF8DECD6
:1038900090E0E0CF83E891E0DDCF8AE891E0DACFF5
:1038A00082E991E0D7CF84E991E0D4CF81E292E040
:1038B000D1CF83E292E0CECF84E292E0CBCF85E21B
:1038C00092E0C8CF86E292E0C5CF87E292E0C2CF15
:1038D0008FE690E0BFCF80E790E0BCCF8AE292E035
:1038E000B9CF0895882329F19CEF980F913A20F4DD
:1038F0000E941C240C947B2490E2980F983050F482
:10390000877091E001C0990F8A95EAF7892F0E948C
:103910004324F0CF9BE5980F933020F490E080E0B3
:103920000C94911A885A873120F490E080E00C942E
:10393000A71A0895CF93C82F0E94B31BC93349F427
:103940002FEF87EE93E0215080409040E1F700C0D8
:1039500000008C2FCF910C94721C882321F00E94C0
:103960003D240C947B240895882321F00E94432455
:103970000C947B240895CF92DF92EF92FF920F93E5
:103980001F93CF93DF936C01D62FC72FFC011581B6
:1039900012951F70028101110E945C240E94332441
:1039A000E82E882371F0002331F180E28D0F8830FA
:1039B00010F182E00E94C6240E94332491E0E82E98
:1039C000E926FC2EF2949FE0F922FBE0FF1508F4B3
:1039D0007BC1EF2DF0E0E151F34E0C944B2DFD1C1B
:1039E000FD1C4A1D4A1D641E641E641E641E9C1D2F
:1039F0002B1E3C1E3C1EE12CE4CF1C2F1F70C07FF1
:103A000011F01295107F0023A9F0112359F080E2E4
:103A10008D0F883010F0D11109C0812F0E943D24F4
:103A20000E947B248D2F0E94B31B14C0812F0E9403
:103A30004E24F6CF8D2F0E94721C112359F080E284
:103A40008D0F883010F0D11121C0812F0E944324A6
:103A50000E947B24EE2009F478C10E942F2480FD6F
:103A600074C1F60112820E9429240E94AD22C6016F
:103A70000E94AE1E0E942924DF91CF911F910F91C9
:103A8000FF90EF90DF90CF900C94CE22812F0E9478
:103A90005424DECF2C2F2F70F22EC07FC03219F0AD
:103AA000F29480EFF822DD2369F0D13049F1002350
:103AB00091F1112351F1F601858180FFB3CF8F7011
:103AC000858323C0002381F0111106C00E94622467
:103AD0008F290E94AD1CBECF1130C1F70E94622415
:103AE0008F290E946824B6CF111106C00E9471244C
:103AF0008F2D0E94B41CAECF113009F4ABCFF6CF9E
:103B0000002329F0163008F0A5CF8F2DE2CF153015
:103B100008F0A0CFEDCF112359F3D93349F4FFEFCB
:103B200027EE83E0F15020408040E1F700C0000024
:103B30008D2F0E94721C8ECF8C2F837009F045C090
:103B4000011135C04D2F429546954770440F440FE3
:103B50000D2F0F7010E030E020E0042E04C0000FA5
:103B6000111F221F331F0A94D2F760E070E0CB01CF
:103B7000D4FF0FC06FE070E080E090E004C0660FFB
:103B8000771F881F991F4A95D2F760957095809589
:103B90009095602B712B822B932BC695C695C37085
:103BA000C23069F078F4C13039F00E945F220E947F
:103BB0007A1A0E946C0E4ECF0E944D22F8CF0E94BE
:103BC0007122F5CF0E944B22F2CF8695002311F08F
:103BD0008C2F8170882359F34D2F4295469547705D
:103BE000440F440F0D2F0F7010E030E020E0042E42
:103BF00004C0000F111F221F331F0A94D2F760E088
:103C000070E0CB01D4FF0FC06FE070E080E090E087
:103C100004C0660F771F881F991F4A95D2F76095D9
:103C2000709580959095602B712B822B932BC69568
:103C3000C695C370C23049F058F4C13019F00E94E3
:103C40002423B5CF0E941223B2CF0E943623AFCFD8
:103C50000E948722ACCFCF70002339F08C2F0E94B6
:103C6000AD228D2F0E94AD1CA2CF8D2F0E94B41CBF
:103C70008C2F0E94CE229BCFD23FB1F170F4D03F67
:103C8000D9F0D13F51F1002309F44BC0112309F4BD
:103C900045C08D2F0E94B31B17C0D33F61F1D43FA5
:103CA00091F7002391F1CF718C2F0E94AD2263E038
:103CB0008C2F0E94B12408C0002361F0153020F43D
:103CC0008C2F8F710E94F12288EF8F0D843008F0C5
:103CD000C1CE6DCF1630C0F7F3CF8C2F8F7100237C
:103CE00039F00E94AD22F0CF8C2F8F710023C9F3E1
:103CF0000E94CE22E9CF002329F08C2F8F710E94E1
:103D00009822E2CF0E949322DFCF81E00E94C62456
:103D10001230D0F282E00E94C624D6CF8C2F8F7151
:103D2000E0CF112379F0D93349F49FEFE7EEF3E0C8
:103D30009150E040F040E1F700C000008D2F0E945C
:103D4000721CC2CF8C2F8F71D3CFDF91CF911F9177
:103D50000F91FF90EF90DF90CF9008950F931F93F6
:103D6000CF93DF93EC01988189812B813C81232BB8
:103D700039F08F3F19F481E09F3F19F080E001C0D6
:103D800081E080FD17C0CE010E94840E882391F04F
:103D9000688179818A810E94F1238C010E944823E5
:103DA0000E944A22B801CE01DF91CF911F910F915D
:103DB0000C94BB1CDF91CF911F910F9108950E942D
:103DC0005C240E945F240C947B240E9423240C9486
:103DD000DF1E0E944B240C94E51EE92FE295EF7044
:103DE000E250EE30E0F4F0E0E850F14E0C944B2D50
:103DF000061F061F0F1F0F1F111F0F1F0F1F0F1F63
:103E0000061F061F161F0F1F0F1F161F803F19F0DA
:103E100020F4883E20F481E00895843FE1F380E0BF
:103E20000895883EC0F3813FD1F7F5CF93FB8827F3
:103E300080F908950E94E7230C94ED1ECF93DF9341
:103E400000D000D01F92CDB7DEB70F900F900F902B
:103E50000F900F90DF91CF910895CF93DF9300D013
:103E600000D000D0CDB7DEB726960FB6F894DEBFEF
:103E70000FBECDBFDF91CF9108951F93CF93DF93F6
:103E8000C091C70216E08091C8028C1304C0DF9174
:103E9000CF911F910895D0E01C9FF0011D9FF00D60
:103EA0001124E753FD4F40815181628173818481E8
:103EB00095810E942D1F2196C770E5CF4091F90290
:103EC0005091FA026091FB027091FC028091FD0218
:103ED0009091FE020C942D1F1F93CF93DF9380913E
:103EE000FE02807FD1F48091FB028823B1F08091A3
:103EF000C702D091C802B091F902C091FA02409174
:103F0000FC025091FD02A1E0BF3F09F0A0E0BA0120
:103F10006095709516E0D81304C0DF91CF911F9182
:103F2000089521E04115510521F02A2FCF3F09F0D6
:103F300020E090E020FD38C0189FF001199FF00D9F
:103F40001124E753FD4F21812C132EC020812B1308
:103F50002BC02281211128C02381348124173507E9
:103F600000F1241B350B24363105F0F42091FE02BC
:103F70002F7020612093FE0226E0289FF001299FE8
:103F8000F00D1124E253FD4F80818F70806180839A
:103F900089EF92E00E94AE1EDF91CF911F910C94A9
:103FA0003D1F260F371FDFCF01968770B4CFAF922A
:103FB000BF92CF92DF92EF92FF920F931F93CF9316
:103FC000DF93CDB7DEB761970FB6F894DEBF0FBEB3
:103FD000CDBF7C0185E0F701DE011D9601900D92B9
:103FE0008A95E1F7D7014C9111965C911197129641
:103FF0000C913091F9026091FA028091FC0290914B
:10400000FD0221E0009731F06F3F19F421E03F3FBE
:1040100009F020E0B22FB170BB2E20FD67C1F7017F
:10402000C380D480A090FB02AA2009F425C1C81641
:10403000D906C8F1D601A81BB90BCD0111E0843611
:10404000910508F010E08091FE02982F907F1123D7
:1040500009F4CDC0911187C0102F651329C0341306
:1040600027C0011125C08F7080618093FE020E94DD
:104070005E1F89EF92E00E94AE1E8091FE02F70162
:104080008583812F61960FB6F894DEBF0FBECDBF3A
:10409000DF91CF911F910F91FF90EF90DF90CF9024
:1040A000BF90AF900895809590958C0D9D1DC6CFC3
:1040B00081E0CD2831F05F3F19F481E04F3F09F0F6
:1040C00080E080FD24C081E08027F82FF170DF2E92
:1040D00080FF3FC08091C7022091C80236E0821362
:1040E00018C04D875E878D859E850E94E723292F06
:1040F00022952F70223008F1243030F59F7009F19D
:10410000D70115969C91907FE1F41B2DBACF80E0EA
:10411000DCCF90E0389FF001399FF00D1124E75378
:10412000FD4F6181651306C06081461303C0628143
:1041300060130FC001968770D2CF9F7011F0882353
:1041400021F3805E883008F3C7010E94AE1EBD2CAB
:10415000DCCF002309F495CF8091FE02816080932B
:10416000FE0210E08ECF651314C0341312C001118B
:1041700010C0F7018583C7010E94AE1E86E0F701DB
:10418000A9EFB2E001900D928A95E1F70E945E1FBF
:1041900078CF4D875E878D859E850E941A1F882364
:1041A00011F1002301F18091FE02803270F0209124
:1041B000F9023091FA0238872F831986DB86CA8686
:1041C0008C87CE0107960E94AE1E86E0F701A9EF0C
:1041D000B2E001900D928A95E1F70E946C1F0E9457
:1041E0005E1F11E04ECFC7010E94AE1EFACF9111A3
:1041F00013C07C2DD98AC88A602F89890E941E1F0E
:1042000089EF92E00E94AE1E86E0E9EFF2E0DF0166
:104210001D928A95E9F7BACF651312C0341310C006
:1042200001110EC0F7018583C7010E94AE1EE9EFA0
:10423000F2E086E0DF011D928A95E9F71A2D21CF81
:104240004D875E878D859E850E941A1F882359F2AF
:10425000002349F28091FE02803208F4B6CF20910B
:10426000F9023091FA023A8329831B82DD82CC82E3
:104270008E83CE010196A7CFC816D906C8F0F601E5
:10428000E81BF90BCF0110E08436910538F5102FAB
:10429000002309F4A8CF651310C034130EC086E0C4
:1042A000F701A9EFB2E001900D928A95E1F7E9CE0E
:1042B000809590958C0D9D1DE6CF4D875E878D85F1
:1042C0009E850E941A1F811180CF8091FE0281601D
:1042D0008093FE02C7010E94AE1ED3CE7C2DD98AE8
:1042E000C88A602F89890E941E1F8ECF002309F47F
:1042F0007ACF4D875E878D859E850E941A1F182F65
:10430000882309F470CF86E0F701A9EFB2E00190AD
:104310000D928A95E1F789EF92E00E94AE1B0E9410
:104320006C1F34CF1F93CF93DF93CDB7DEB72C979D
:104330000FB6F894DEBF0FBECDBF4F835887698795
:104340007A878B879C87CE0107960E94D71F882388
:1043500009F442C09F8188852A853B85232B39F04B
:104360008F3F19F481E09F3F19F080E001C081E0A8
:1043700080FD08C04F81588569857A858B859C852D
:104380000E942D1F16E08091C7029091C8028917E4
:1043900009F467C0819FC001112487539D4F0E947B
:1043A000D71F882309F45DC0E091C7021E9FF0016A
:1043B0001124E753FD4F40815181628173818481D3
:1043C00095810E942D1F8091C70290E00196877011
:1043D00099278093C702D7CF86E0FE013796DE018A
:1043E000119601900D928A95E1F79F8188852A8523
:1043F0003B85232B39F08F3F19F481E09F3F19F063
:1044000080E001C081E080FDBDCF2091C80230E096
:10441000C9010196877099274091C702481719066C
:1044200099F096E0929FD001939FB00D1124A7536D
:10443000BD4FFE01319601900D929A95E1F7809360
:10444000C8020E943D1F9ECF0E94E91E1092C80222
:104450001092C70286E0E9EFF2E0DF011D928A9533
:10446000E9F72C960FB6F894DEBF0FBECDBFDF91F3
:10447000CF911F91089508950C943B220E943C22F5
:1044800060932B0370932C0380932D0390932E0342
:104490000C94DF1E08950C943E220F931F930091FD
:1044A0002B0310912C0320912D0330912E03602BB0
:1044B000712B822B932B1F910F910C943E220F9303
:1044C0001F9300912B0310912C0320912D03309109
:1044D0002E0360237123822393231F910F910C9449
:1044E0003E220F931F9300912B0310912C032091D8
:1044F0002D0330912E0360277127822793271F9168
:104500000F910C943E220C943B220C9483220E9427
:104510008522609327037093280380932903909347
:104520002A030C94DF1E60E070E0CB010C9487221C
:104530000F931F9341E050E060E070E08A019B011F
:1045400004C0000F111F221F331F8A95D2F7C90123
:10455000B8011F910F910C9487220F931F9341E094
:1045600050E060E070E004C0440F551F661F771FE5
:104570008A95D2F78091270390912803A09129036F
:10458000B0912A038A019B01082B192B2A2B3B2B64
:10459000C901B8011F910F910C9487220F931F93AB
:1045A00041E050E060E070E004C0440F551F661F1A
:1045B000771F8A95D2F7CB01BA01609570958095E7
:1045C00090950091270310912803209129033091A1
:1045D0002A0360237123822393231F910F910C944C
:1045E00087220F931F9341E050E060E070E004C029
:1045F000440F551F661F771F8A95D2F780912703B6
:1046000090912803A0912903B0912A038A019B016C
:10461000082719272A273B27C901B8011F910F91A5
:104620000C9487220F931F93009127031091280366
:104630002091290330912A03602B712B822B932B1D
:104640001F910F910C9487220F931F9300912703C2
:10465000109128032091290330912A0360237123AC
:10466000822393231F910F910C9487220F931F9302
:1046700000912703109128032091290330912A03E8
:1046800060277127822793271F910F910C9487220F
:104690000895292F220F920F990F890F982F977045
:1046A00071E001C0770F9A95EAF786958695869511
:1046B00025E0829FC001112450E040E0A62FB0E029
:1046C000FC01E40FF51FE150FD4F60819D01042EB8
:1046D00002C0369527950A94E2F721702195262786
:1046E0002723262720834F5F5F4F4530510541F731
:1046F0000895292F220F290F220F820F982F9770CC
:1047000086958695869545E0849F9001112470E0FA
:1047100060E080E0F901E60FF71FE150FD4F4081B6
:1047200050E0092E02C0569547950A94E2F7417071
:104730005527062E01C0440F0A94EAF7842B6F5FB9
:104740007F4F6530710531F70895BF92CF92DF92A8
:10475000EF92FF920F931F93CF93DF938C01C09042
:104760002703D0902803E0902903F0902A0380913A
:104770002B0390912C03A0912D03B0912E03C82AF6
:10478000D92AEA2AFB2ACFE1D0E0BC2ED701C60104
:104790000C2E04C0B695A795979587950A94D2F7E5
:1047A00080FD0EC0219788F7B12C8B2DDF91CF9122
:1047B0001F910F91FF90EF90DF90CF90BF900895E1
:1047C000B8018C2F0E944211019761F3EECFCF9375
:1047D000DF93EC010E94A523BE01DF91CF910C94E1
:1047E00042111F93CF93DF93EB019091C60299235F
:1047F00031F0CB01DF91CF911F910C94E7238823F7
:1048000079F0CB010E94A523182F682FCE010E94BA
:104810004923BE01812FDF91CF911F910C9442114A
:10482000CB010E947923182FF4CF682F80916D015E
:1048300090916E010C94B525682F80916D01909137
:104840006E010C94B72580916D0190916E010C94CE
:10485000B92580912F03859585958595089580913B
:104860002F038770089590912F03977081E009F4CA
:1048700080E0089580913B03089590913B03892B3C
:1048800080933B030895982F909580913B03892353
:1048900080933B03089510923B03089590913A034F
:1048A000892B80933A030895982F909580913A032D
:1048B000892380933A03089510923A030895109241
:1048C0003903089580913003089508950C94652468
:1048D00090913003981721F0809330030C94662454
:1048E000089580913003882329F01092300380E0EE
:1048F0000C9466240895E0916D01F0916E01809111
:104900003B038083E0916D01F0916E018081909175
:104910003A03892B8083E0916D01F0916E018081D3
:1049200090913903892B808390913003992381F0F2
:10493000E0916D01F0916E018081892B80838091DF
:104940006D0190916E010E94822581110E94712457
:1049500080916D0190916E010C94861A08950C94CB
:10496000AE2498E0899F90011124622B60932F035D
:104970000E94AD2280912F038595859585950C9495
:10498000AF2410922F0380E00C94AF2490912F035A
:104990008095892380932F03282F277071F4282F67
:1049A000082E000C330B9217130639F08595859568
:1049B00085950E94CE220C94C124089590E080E059
:1049C0000E94503021E08C3E9E4F09F020E0822F63
:1049D000089582E090E00C94423083E090E00C94E3
:1049E0004230682F83E090E00C945630CF9384E0FF
:1049F00090E00E944230C82F81E290E00E94423055
:104A0000982F8C2FCF910895CF93C92F682F84E0D2
:104A100090E00E9456306C2F81E290E0CF910C9490
:104A20005630AB01BC018FE090E00C946830AB01D4
:104A3000BC0183E190E00C94683060E070E0CB0151
:104A40000C94172560E070E0CB010E9411250C94B6
:104A50001D256CEE7EEF90E080E00E94743060E0F7
:104A600082E090E00E94563060E083E090E00E9497
:104A7000563010922B0310922C0310922D0310929B
:104A80002E0360E084E090E00E94563060E081E216
:104A900090E00E94563060E085E090E00E94563041
:104AA00060E086E090E00E9456306FEF87E090E093
:104AB0000E94563040E050E0BA0188E090E00E9449
:104AC000683060E08DE090E00E94563040E050E0B9
:104AD000BA0188E190E00E94683060E087E190E0F0
:104AE0000E94563040E050E0BA018CE190E00E9414
:104AF000683060E080E290E00E9456300C942225FD
:104B00000C942925FC01329697E080E0915009F43D
:104B1000089521912223D1F38F5FF8CF9C01FC01EE
:104B200032969FEF80E04191461751F09F3F19F474
:104B3000411101C0982F8F5F8630A9F79F3F09F47C
:104B40000895290F311D97FD3A95F9016283089563
:104B5000FC01329608962191261303C0DF011197BC
:104B60001C92E817F907B9F708950C948E250C9458
:104B7000A825029626E0FC0111922A95E9F70895EE
:104B8000089508950C94C1250E94C22580912A049D
:104B9000843049F110923D0388E190E020E40FB6A3
:104BA000F894A895809360000FBE2093600080E089
:104BB0000E946C0E0E94C22583B7817F846083BFF0
:104BC00083B7816083BF7894889583B78E7F83BFD6
:104BD0000FB6F894A895809160008861809360007A
:104BE000109260000FBE08950895CF930E94C025D3
:104BF0000E94860B0E94F425C0E08C2F0E94E10BDE
:104C0000811105C0CF5FCA30C1F7CF91089581E00F
:104C1000FCCF08950C9409260E94E91E0E947A1A7E
:104C20000E946C0E0C940A261F920F920FB60F92E0
:104C300011248F939F93AF93BF9380913D03811174
:104C400013C08091200490912104A0912204B0917E
:104C500023044196A11DB11D80932004909321044B
:104C6000A0932204B0932304BF91AF919F918F91A1
:104C70000F900FBE0F901F90189582E084BD93E0B7
:104C800095BD9AEF97BD80936E0008952FB7F89465
:104C90008091200490912104A0912204B0912304DA
:104CA0002FBF0895CF92DF92EF92FF920F931F9341
:104CB0002FB7F89440912004509121046091220470
:104CC000709123042FBF6A017B01EE24FF248C0125
:104CD00030E020E0C016D106E206F30650F0481B93
:104CE000590BCA011F910F91FF90EF90DF90CF9069
:104CF000089541505109F3CF78941F920F920FB647
:104D00000F9211248F939F93AF93BF9380912004B0
:104D100090912104A0912204B09123040196A11D39
:104D2000B11D8093200490932104A0932204B0939A
:104D30002304BF91AF919F918F910F900FBE0F9061
:104D40001F90189587E797E79093010880930008D4
:104D500088E19AE00FB6F894A895809360000FBEA2
:104D600090936000FFCF0E94DE24811102C00E9458
:104D700080250E94E92480933C030E94F6249093AE
:104D80002504809324040E94ED24682F70E090E0B5
:104D900080E00C944B228091460308950895089575
:104DA000CF93DF93EC010E947428823011F084309D
:104DB00039F581E08093E9008FEF9091E800815010
:104DC00095FD06C095ED9A95F1F700008111F5CF9C
:104DD0008091E80085FF14C050E040E068E070E09A
:104DE000CE010E9491288091E8008E778093E800A0
:104DF00088E0FE01AEE3B3E001900D928A95E1F701
:104E0000DF91CF910895089580912904811109C0FF
:104E10000E94212A0E947E2A8091E2008460809371
:104E2000E2000895109229040895089508950C94BD
:104E30000C2642E061EC81E00C949F2980912C04C7
:104E4000833009F462C030F48130D9F1823009F442
:104E50009EC008958A3009F48AC08B3009F470C06E
:104E6000893009F051C080912B04813209F04CC087
:104E700080912F0490913004892B09F045C08091D6
:104E8000E800877F8093E8008091E80082FF38C0C7
:104E90008091F3009091F200892798278927029743
:104EA00029F48091F1008B7F813021F48091F10011
:104EB000809346038091E8008B778093E8000C9400
:104EC000D32980912B04813AF9F48091E800877FFF
:104ED0008093E80080912F0490913004892B61F435
:104EE00068E08EE393E070E00E94E0288091E800A3
:104EF0008B778093E800089560E090E080E0F3CF46
:104F000080912A048111C0CF089580912B04813AA9
:104F1000D9F780912F0490913004892BA9F78091C3
:104F2000E800877F8093E8008091E80080FFFCCF55
:104F3000809179018093F1008091E8008E77BDCF58
:104F400080912B04813201F780912F0490913004DD
:104F5000892BD1F68091E800877F8093E8000E943A
:104F6000D32980912D04809379010C94E91E8091BE
:104F70002B04813249F68091E800877F8093E80016
:104F80000E94D32980912E04809347030895809135
:104F90002B04813A09F0B8CF8091E800877F809395
:104FA000E8008091E80080FFFCCF80914703C2CFEA
:104FB00084B7877F84BF0FB6F894A895809160006E
:104FC000886180936000109260000FBE80E880933B
:104FD0006100109261000E94CA1A0E94212A0E9458
:104FE0007E2A8091E20084608093E20078940E949F
:104FF000072D0E94D21A8FE691E00E94751A8091C7
:105000002A04853029F00E94DC1A0E94F018F7CF9C
:105010000E94C42580912804882389F30E94F525E5
:10502000882369F30E947B28EACF0C941728292F44
:1050300033272330310531F158F421303105A9F0FF
:1050400022303105D1F090E080E030E020E011C066
:105050002132310581F122323105A9F780E490E057
:1050600025E43AE0672B79F704C082E190E023E37E
:105070003AE0FA0131832083089582E290E021E151
:105080003AE0F7CF99278130910579F040F08230EE
:10509000910571F00397B9F6E3EEF9E002C0EDE097
:1050A000FAE0849190E09F01E4CFE9EFF9E0F9CFD5
:1050B000E9EEF9E0F6CF89E090E023E23AE0672BF1
:1050C00009F0C1CFD6CF0895CF93C82F0E9463288F
:1050D000C0934803CF91089580912A04843011F041
:1050E00081E0089582E0089580914803811102C013
:1050F0000C946C28089580E189BD82E189BD09B4D2
:1051000000FEFDCF8091D8008F7D8093D8008091E4
:10511000E00082608093E0008091E00081FDFCCFA0
:105120000895AF92BF92CF92DF92FF920F931F9399
:10513000CF93DF936C01EB018A010E94F229F82ED4
:10514000811123C00115110539F0F8018081918189
:10515000C81BD90BC80ED91EB12CA12C2097A9F0C1
:105160008091E80085FD22C08091E8008E778093D1
:10517000E80001151105A1F0F80180819181A80EC8
:10518000B91EB182A08285E0F82E8F2DDF91CF91DC
:105190001F910F91FF90DF90CF90BF90AF90089537
:1051A0000E94F2298823D1F2F82EEFCFF6018191E7
:1051B0006F018093F1002197FFEFAF1ABF0ACECFA6
:1051C000FC01809131049091320486179707A0F07A
:1051D0006115710529F49091E8009E779093E8009D
:1051E00090E06115710551F4911108C08091E800BB
:1051F00082FF35C080E00895BC01F2CF80912A047F
:105200008823C9F18530C9F18091E80083FD31C060
:105210008091E80082FDEACF8091E80080FFE1CF35
:105220002091F3008091F200322F282F6115710533
:1052300019F02830310558F091E02830310509F097
:1052400090E02091E8002E772093E800CACF81916A
:105250008093F100615071092F5F3F4FE7CF80913C
:105260002A04882341F0853041F08091E80083FFD3
:10527000BDCF81E0089582E0089583E00895FC01A8
:10528000809131049091320486179707A0F0611540
:10529000710529F48091E8008E778093E80090E012
:1052A0006115710551F4911108C08091E80082FFE9
:1052B00036C080E00895BC01F2CF80912A04882393
:1052C000D1F18530D1F18091E80083FD32C0809129
:1052D000E80082FDEACF8091E80080FFE1CF2091D5
:1052E000F3008091F200322F282F6115710519F01B
:1052F0002830310558F091E02830310509F090E070
:105300008091E8008E778093E800CACF84918093E3
:10531000F1003196615071092F5F3F4FE6CF8091C8
:105320002A04882341F0853041F08091E80083FF12
:10533000BCCF81E0089582E0089583E00895982F1E
:10534000973028F08F708093E90081E00895909362
:10535000E900242F762F50E0981731F07091EC007F
:105360002091ED005091F00021FD02C09F5FE8CF39
:105370003091EB003E7F3093EB003091ED003D7FAC
:105380003093ED003091EB0031603093EB0070937F
:10539000EC002093ED005093F0002091EE0027FDEB
:1053A000E5CF80E0089580912B0487FF13C08091A2
:1053B000E80082FF06C08091E8008B778093E800C8
:1053C00004C080912A048111F2CF089580912A04AB
:1053D0008823D9F38091E80080FFF8CF8091E8001E
:1053E0008E77ECCF2091E4003091E50085E6909136
:1053F000EC0090FF06C09091E80090FF06C080E0AE
:1054000008959091E80092FDFACF90912A04992393
:1054100091F0953091F09091EB0095FD10C0409186
:10542000E4005091E5002417350709F381509A01F3
:10543000F1F684E0089582E0089583E0089581E024
:1054400008950E948F2A0E94972AE0EEF0E0808162
:1054500081608083E8EDF0E080818F77808319BCE4
:10546000A7EDB0E08C918E7F8C9380818F7E8083BE
:105470001092290408950F931F93CF93DF930E94F6
:105480008F2A0E94972AC8EDD0E088818F77888381
:1054900088818068888388818F7D888319BC109279
:1054A0002A0410922604109228041092270400EE79
:1054B00010E0F80180818B7F808388818160888300
:1054C00042E060E080E00E949F29E1EEF0E0808110
:1054D0008E7F8083E2EEF0E0808181608083808136
:1054E00088608083F80180818E7F808388818061DD
:1054F0008883DF91CF911F910F910895E8EDF0E03F
:1055000080818F7E8083E7EDF0E080818160808301
:1055100084E082BF81E0809329040C943B2AE8ED6B
:10552000F0E080818E7F80831092E20008951092D7
:10553000DA001092E10008951F920F920FB60F92B9
:1055400011242F933F934F935F936F937F938F9388
:105550009F93AF93BF93EF93FF938091E10082FFFE
:105560000BC08091E20082FF07C08091E1008B7F39
:105570008093E1000E94062D8091DA0080FF19C01F
:105580008091D80080FF15C08091DA008E7F8093D3
:10559000DA008091D90080FF94C080E189BD82E16A
:1055A00089BD09B400FEFDCF81E080932A040E94EA
:1055B00004278091E10080FF19C08091E20080FF04
:1055C00015C08091E2008E7F8093E2008091E2001E
:1055D00080618093E2008091D80080628093D8003F
:1055E00019BC85E080932A040E9416278091E1006F
:1055F00084FF29C08091E20084FF25C080E189BD3D
:1056000082E189BD09B400FEFDCF8091D8008F7D75
:105610008093D8008091E1008F7E8093E10080919B
:10562000E2008F7E8093E2008091E20081608093AF
:10563000E20080912604882309F449C084E0809325
:105640002A040E9417278091E10083FF29C08091DE
:10565000E20083FF25C08091E100877F8093E10015
:1056600082E080932A04109226048091E1008E7FCC
:105670008093E1008091E2008E7F8093E200809130
:10568000E20080618093E20042E060E080E00E94FE
:105690009F298091F00088608093F0000E94152778
:1056A000FF91EF91BF91AF919F918F917F916F91FA
:1056B0005F914F913F912F910F900FBE0F901F90D0
:1056C000189519BC10922A040E94122772CF80915B
:1056D000E30087FD02C081E0B2CF83E0B0CF1F922C
:1056E0000F920FB60F9211242F933F934F935F9316
:1056F0006F937F938F939F93AF93BF93CF93EF93CA
:10570000FF93C091E900CF708091EC001092E90006
:105710008091F000877F8093F00078940E94AB2BFB
:105720001092E9008091F00088608093F000C093AF
:10573000E900FF91EF91CF91BF91AF919F918F9130
:105740007F916F915F914F913F912F910F900FBE7D
:105750000F901F9018951F93CF93DF93CDB7DEB7AF
:10576000AA970FB6F894DEBF0FBECDBFEBE2F4E010
:105770008091F100819324E0E333F207C9F70E949E
:105780001E278091E80083FF44C080912B049091F4
:105790002C049A3008F03DC0E92FF0E0EE52F44DB1
:1057A0000C944B2DDC2B022C092C022C092C602C88
:1057B000822C092CD92CE62C803889F0823849F5C6
:1057C00080912F048F70873020F58093E9008091BD
:1057D000EB0085FB882780F91092E90006C08091D4
:1057E000270490912804911182609091E800977F9E
:1057F0009093E8008093F1001092F1008091E8000E
:105800008E772DC0282F2D7F21F48823D1F0823070
:1058100059F18091E80083FF0AC08091E800877FFA
:105820008093E8008091EB0080628093EB00AA9661
:105830000FB6F894DEBF0FBECDBFDF91CF911F91A1
:10584000089580912D04813021F7933009F080E094
:10585000809328041092E9008091E800877F80936C
:10586000E8000E94D329D5CF80912D048111F2CF79
:1058700080912F048F702FEF280F263050F68093E1
:10588000E9002091EB0020FFE5CF933031F48091C7
:10589000EB0080628093EB00DDCF9091EB00906194
:1058A0009093EB0021E030E001C0220F8A95EAF7E7
:1058B0002093EA001092EA008091EB008860EACF22
:1058C0008111A7CF10912D041F778091E30080787C
:1058D000812B8093E3008091E800877F8093E8002C
:1058E0000E94D3298091E80080FFFCCF8091E300E3
:1058F00080688093E30083E0111101C082E080930F
:105900002A0487CF8058823008F083CF80912D04FD
:1059100090912E048C3D23E09207A1F583E08A83C9
:105920008AE289834FB7F894DE01139620E03EE0C7
:1059300051E2E32FF0E050935700E49120FF03C0C1
:10594000E295EF703F5FEF708E2F90E0EA30C0F08D
:10595000C7968D939D932F5F243159F74FBF809148
:10596000E800877F8093E8006AE270E0CE0101964C
:105970000E94E0288091E8008B778093E80049CF6F
:10598000C096E7CF60912F0470913004AE014F5F55
:105990005F4F0E941528BC01892B09F43ACF9091E2
:1059A000E800977F9093E80089819A810E943F29BF
:1059B000E1CF803809F02DCF8091E800877F809378
:1059C000E800809126048093F10018CF811121CF47
:1059D00090912D04923008F01CCF8091E800877FD1
:1059E0008093E800909326040E94D3298091260496
:1059F000882331F084E080932A040E94192709CF7C
:105A00008091E30087FDF6CF81E0F5CF0895CF9335
:105A100080912A04882399F0C091E900CF70809189
:105A2000EC0080FD0EC080E0C82B1092E900809150
:105A3000E80083FD0E94AB2BCF70C093E900CF91AB
:105A4000089580E8F1CFAA1BBB1B51E107C0AA1F34
:105A5000BB1FA617B70710F0A61BB70B881F991F0F
:105A60005A95A9F780959095BC01CD01089597FBB3
:105A7000072E16F4009407D077FD09D00E94232D3D
:105A800007FC05D03EF4909581959F4F0895709541
:105A900061957F4F0895EE0FFF1F0590F491E02D63
:105AA0000994FC014150504030F001900616D1F7A6
:105AB0003197CF010895882799270895FB01DC01CC
:105AC00004C08D910190801921F441505040C8F7D5
:105AD000881B990B08956817790768F4FB01DC01AE
