:1040000060B00020A59F0000A19F0000A19F0000BC
:10401000A19F0000A19F0000A19F000000000000E0
:10402000000000000000000000000000A19F000050
:10403000A19F000000000000A19F0000A19F0000C0
:10404000A19F0000A19F0000A19F0000A19F000070
:10405000A19F0000A19F0000A19F0000A19F000060
:10406000A19F0000A19F0000A19F0000A19F000050
:10407000A19F0000A19F0000A19F0000A19F000040
:10408000A19F0000A19F0000A19F0000258D0000BE
:10409000A19F0000A19F0000A19F0000A19F000020
:1040A000A19F0000A19F0000A19F0000A19F000010
:1040B000A19F0000A19F0000A19F00002D9800007B
:1040C000A19F0000A19F0000A19F0000A19F0000F0
:1040D000A19F0000A19F0000A19F0000A19F0000E0
:1040E000A19F0000A19F0000A19F0000A19F0000D0
:1040F00000000000A19F0000A19F0000A19F000000
:10410000A19F0000A19F000019980000A19F00003E
:10411000A19F0000A19F0000A19F0000A19F00009F
:10412000A19F0000A19F0000A19F0000A19F00008F
:10413000A19F0000A19F0000A19F0000A19F00007F
:10414000A19F0000A19F0000A19F0000A19F00006F
:10415000A19F0000A19F00000000000000000000DF
:10416000000000000000000000000000000000004F
:10417000000000000000000000000000000000003F
:1041800075B700008DB7000091B7000095B700002B
:1041900000000000A19F0000A19F0000A19F00005F
:1041A000A19F0000A19F0000A19F0000A19F00000F
:1041B000A19F0000A19F0000A19F0000A19F0000FF
:1041C000A19F0000A19F0000A19F0000A19F0000EF
:1041D000A19F0000A19F0000A19F0000A19F0000DF
:1041E000A19F0000A19F0000A19F0000A19F0000CF
:1041F000A19F0000A19F0000A19F0000498700002F
:10420000A19F00000000000000000000A19F00002E
:10421000A19F0000A19F0000A19F0000A19F00009E
:10422000A19F0000A19F0000A19F0000A19F00008E
:10423000A19F0000A19F0000A19F0000A19F00007E
:10424000A19F0000A19F0000A19F0000A19F00006E
:10425000A19F0000A19F0000A19F0000A19F00005E
:104260000000000010B5054C237833B9044B13B19E
:104270000448AFF300800123237010BDD019002043
:10428000000000008CD4000008B5034B1BB10349AB
:104290000348AFF3008008BD00000000D4190020DF
:1042A0008CD4000008B500F00CF908BD08B500F08A
:1042B00009F908BD2C4A2D490023F0B5136053605D
:1042C00013812B4A2B4D1360536013812A4A2B4EC6
:1042D0001360536013812A4AC2E9003301F1050CCF
:1042E000012715F8013F11F8010F06EBC31307FA78
:1042F00000F0586028780C7806EBC01307FA04FE2B
:10430000C3F814E02344614593F8404044F00204AC
:1043100083F8404093F8404044F0040483F8404060
:1043200052F8203043EA0E0342F82030D9D1154B21
:10433000124C03F10F021646012512F8011F13F863
:10434000010F04EBC11105FA00F0886011781878AC
:1043500004EBC11105FA00F09E424861EDD1BDE8C1
:10436000F04000F0A0B900BFF21D0020FFFFFF1FCA
:10437000FC1D0020EF190020E81D002000800041F6
:10438000E01D0020040000202DE9F74F03F098FE07
:104390003F4BD3E90245A94208BFA04298466AD3E1
:1043A0003C4CDFF804913C4FDFF800B1002525605C
:1043B0006560258109F10F0A01261AF8013F19F8F5
:1043C000012F07EBC31306FA02F29A61012004F0F1
:1043D000CFFA3A6ADBF80030304813400093D7F840
:1043E000A020DBF80430134001939AF8003099F8CC
:1043F000002007EBC31306FA02F25A6106FA05F22F
:1044000012B2002318F803C002A901EB8C0C195C4E
:104410005CF808CC06FA01F111EA0C0F1EBF34F863
:104420001310114324F813100133052BEAD1013581
:104430000F2DC2D100231A491A4634F8130031F85F
:10444000135021F813000133854218BF0122052BB8
:10445000F3D1A2B9134B22881A8062885A80A288AD
:104460009A80E288DA8022891A8100220023C8E932
:10447000022300F024F9012003B0BDE8F08F03F01F
:104480001FFE431D41F10004C8E90234F1E700BFFB
:10449000F0190020F21D00200080004100000020E3
:1044A000FC1D0020E81D002004000020E01D00206D
:1044B000014B33F810007047E81D0020704705F0ED
:1044C000D3BA70477047000038B545F60353984299
:1044D00056D00BD845F6015398421CD038D845F633
:1044E000C243984200F0868001242AE045F6055335
:1044F00098425ED051D345F60653984265D045F6B2
:1045000007539842F0D18C784B4D002C69D003F0C2
:10451000D1FD286001E08B780BB9002411E003F095
:10452000A5FB82070FD503F0A1FBC30703D403F05B
:104530009DFBC406F1D5414B1C780022F4B9012241
:104540001A70204638BD03F091FB8506EBD4E4E7F2
:104550008B78002BE1D003F089FB800709D503F0AD
:1045600085FBC10703D403F081FBC306D5D5344BCB
:10457000E2E703F07BFB8206F1D4CEE71A70CCE7CA
:104580008B78002BC9D02F490B78C3F3000282F03F
:10459000010262F300030B70BFE78B78002BBCD0E5
:1045A00028490B78C3F3400282F0010262F3410311
:1045B000F1E78B78002BB0D022490B78C3F380024F
:1045C00082F0010262F38203E5E78B78002BA4D02E
:1045D0001C490B78C3F3C00282F0010262F3C303EB
:1045E000D9E7286803F086FDB0F5FA7F95D300F08F
:1045F00077F8A6E78B78002B8FD002F001FA042819
:1046000012D0FF2807D0022810D1002002F0FEF9B6
:1046100002F068F981E7042002F0F8F9002211465F
:10462000104601F003FF78E70220F5E7FF2002F0D3
:10463000EDF902F045F970E7001A0020622400202D
:104640003E240020001B00200120704708B5FFF722
:104650003BFF08BD13B502AB03E903000E4B1B780B
:10466000ABB99DF8023000986BB103F081FA0446B3
:104670000146009803F038FA0099204602B0BDE8E0
:10468000104000F051BA03F053FA0446F4E70098E2
:1046900003F06EFA0099F1E7531A00200346006810
:1046A0009988FFF7D7BF08B503F0AAFB08B903F054
:1046B00023FC02F09FF8BDE80840FFF7F3BD08B502
:1046C00001F02AFFBDE80840FFF7F0BD704708B5CC
:1046D000FFF7FCFF08BD08B5FFF7F9FF08BD7047FD
:1046E00008B502F007FEFFF7FAFFFA20002104F0F8
:1046F0004DF9BDE8084003F015BD000038B505468A
:10470000FFF7CCFF2946044601F096FE08B90020C9
:1047100024E029462046FFF799FF0028F7D02946D4
:10472000204602F0E5F90028F1D045F6C7439C4247
:1047300000F0DF803DD845F616439C4200F0CF8163
:104740000DD845F601439C4200F0A3806BD8B4F528
:10475000B84F00F097802846FFF776FF38BD45F642
:10476000C4439C4200F0B18014D845F6C2439C4239
:1047700000F0A48045F6C3439C42ECD1AB78002BFB
:10478000C5D003F073FA10F0220F00F0A88002F0F9
:10479000CFF8BCE745F6C5439C4200F0A38045F640
:1047A000C6439C42D7D1AB78002BB0D002F0DEF8E4
:1047B000ADE745F6CD439C4200F0B78023D845F6DF
:1047C000CA439C4200F0A3800ED845F6C8439C42E1
:1047D00000F0968045F6C9439C42BCD1AB78002BD3
:1047E00095D002F0E1F892E745F6CB439C4200F009
:1047F000958045F6CC439C42ADD1AB78002B86D05A
:1048000002F0F4F883E745F6DE439C424FD005D82A
:1048100045F6D5439C427FF67AAF9CE7A4F5B943B1
:104820007A3B062B97D8AB78002B94D003F0E8FAAC
:1048300008B903F061FB03F0F3FAB64B45F60F42FB
:104840009442188000F02F8100F2A08045F60842C3
:10485000944200F00C817BD845F60442944200F06B
:10486000F1806AD845F60242944200F0E28045F6B3
:104870000342944200F0E280188803F0DDFA02F06F
:1048800039FD44E7AB78002B3FF441AFFFF728FF39
:104890003DE7AB78002B3FF43AAF9F490B78C3F369
:1048A000000282F0010262F300030B702FE7AB7885
:1048B000002B3FF42CAF03F01FFB28E7AB78002B55
:1048C0003FF425AF01F0EEFF21E7AB78002B3FF47A
:1048D0001EAF03F0CBF910F0220F3FF458AF02F0F7
:1048E00011F814E7AB78002B3FF411AF02F036F863
:1048F0000DE7AB78002B3FF40AAF02F03FF806E774
:10490000AB78002B3FF403AF02F044F8FFE6AB783E
:10491000002B3FF4FCAE02F053F8F8E6AB78002B26
:104920003FF4F5AE02F056F8F1E6AB78002B3FF419
:10493000EEAE012002F070F8E9E645F60642944238
:1049400000F0918040F282801A7842F0200273E0F9
:1049500045F60B42944200F096800CD845F6094289
:10496000944200F0888045F60A42944284D11A7835
:1049700042F00C0260E045F60D42944200F08B805C
:1049800040F285801A786FF3C30255E045F6FA428B
:1049900094425FD028D845F61242944200F08B80B2
:1049A0000DD845F61042944200F0818045F6114240
:1049B00094427FF461AF1A786FF386123CE045F6BB
:1049C0001442944200F0838079D345F61542944214
:1049D0007FF452AF1A78C2F3800181F0010161F3D4
:1049E000820261F3C30227E045F6FD42944256D0AD
:1049F0000CD845F6FB42944231D045F6FC42944235
:104A00007FF43AAF5A786FF3000226E045F6FF4292
:104A1000944258D033D3B4F5BA4F7FF42DAF5A78BF
:104A2000C2F3000181F0010161F3000261F3410270
:104A300013E01A7842F001021A701DE71A7842F06A
:104A40000202F9E71A7842F00402F5E71A7842F018
:104A50000802F1E75A7842F001025A700CE75A78DE
:104A600042F00202F9E71A7842F01002E4E71A78FD
:104A700042F04002E0E71A7842F08002DCE75A7820
:104A800042F00302E9E71A786FF30002D4E71A78DC
:104A90006FF34102D0E71A786FF38202CCE75A78BD
:104AA0006FF34102D9E71A786FF30412C4E71A785A
:104AB0006FF34512C0E71A786FF3C712BCE71A7894
:104AC00002F0F702E8E75A7802F0FD029BE71A7855
:104AD000C2F3C01181F0010161F3C712ACE703F02A
:104AE000C5F8AA780D4B6AB100F0AA00002815BFDE
:104AF00001220022352029201A7003F087F803F0E4
:104B000021F904E61B78002B14BF3520292003F07F
:104B100085F8F4E7201E0020001B0020041A002066
:104B20000020704770470000C1F30723C3EB031256
:104B30004B2303FB002050FA81F0034B33F81000A5
:104B400082B002B0704700BFCCD00000014B33F8F8
:104B500010007047F8D1000013B5ADF804100199AA
:104B6000FFF7E2FF00F056F9B0F5A04F04462FD250
:104B7000B0F5804F80F0D480E72816D8E0287BD2AB
:104B8000A72808D8A5286DD2012875D001D30428FC
:104B900072D2002470E0BE2871D9C028F9D3C03881
:104BA00080B2FFF7D3FF044666E0B0F5005F08D29D
:104BB000B0F5807F03D2F028EBD340F4A044A4B238
:104BC0005AE0B0F5405F80F0A380C0F30B00E8E747
:104BD000B0F5AA4F1ED2B0F5A84FC3B280F0BF8087
:104BE000B0F5A44F08D2B0F5A24FC0F09E804AF2B3
:104BF000F10040EA03243FE0B0F5A64F80F0A58025
:104C00009808012403F003039C4044EA401444F450
:104C10000C44D4E7B0F5B24F0FD2B0F5B04F80F0EE
:104C2000A380B0F5AC4FB4D2C0B200F075F9040265
:104C300004F4F85444F400541EE0B0F5B44FC0F04E
:104C40009880A0F5C043B3F5005FA2D2C0F3042062
:104C500000F062F9E4B2000200F4F85044F40054A9
:104C6000044309E000F0908044F2820244F283039E
:104C7000A6280CBF14461C46204602B010BDA8282A
:104C800000F08580A92800F08580AA2800F08580A2
:104C9000AB2800F08580AC2800F08580BB2800F0B0
:104CA0008580BC2800F08580AD2800F08580B02884
:104CB00000F08580AE2800F08580AF2800F0858068
:104CC000B12800F08580B22800F08580B32800F07C
:104CD0008580B42800F08580B52800F08580B6284E
:104CE00000F08580B72800F08580B82800F0858026
:104CF000B92800F08580BD2800F08580BE2800F02E
:104D00008580BA2844F22A6418BF4FF48844B3E778
:104D1000C3B202054CBF43F4484443F44044ABE7FC
:104D2000C0F30B0444F42044A6E703F0030201247B
:104D30009440C0F3011044F40C4444EA0024C3F34B
:104D4000810344EA43139CB296E79808012403F0D8
:104D500003039C4044EA401444F40A442FE74AF217
:104D6000F40444EA032487E74AF2F00040EA04240A
:104D700025E700F00F0000F0CFF8C4F3031440EA79
:104D8000042444F410441AE744F2810474E744F222
:104D9000E24471E744F2E9446EE744F2EA446BE727
:104DA00044F2B54468E744F2B64465E744F2B344DC
:104DB00062E744F2B4445FE744F2B7445CE744F28C
:104DC000CC4459E744F2CD4456E744F2835453E7C8
:104DD00044F28A5450E744F292544DE744F294541A
:104DE0004AE744F2216447E744F2236444E744F28B
:104DF000246441E744F225643EE744F226643BE73D
:104E000044F2276438E744F26F4435E744F27044D3
:104E100032E70000822825D00CD8312863D004D88E
:104E2000292859D02A2865D0704735284DD03928EF
:104E300018D07047E32830D004D8E02819D0E228F1
:104E400026D07047E62832D0E72835D0E42832D182
:104E5000304B5A7891072ED51B7813F0100F08BFEE
:104E6000E72012E02B4B1B7813F0030F18BFE02054
:104E70007047284A1378D90743D4527812F0010FAB
:104E800019D013F0100F08BFE32018BF002070479F
:104E9000204B1B7813F0040FF2E71E4A13785907D2
:104EA00031D45278D20730D413F0100FEDE7194BFC
:104EB0001B781A07D1D47047164A1378190726D4DD
:104EC00052789207F0D5E420F5E7124B1B7813F0E7
:104ED000200F18BF292070470E4B1B7813F0200FAE
:104EE00018BF352070470B4B1B7813F0400F18BFCD
:104EF0002A207047074B1B7813F0400F18BF312052
:104F0000704739207047E2207047E0207047E62064
:104F1000704700BF201E0020294B1A78510707D583
:104F200000F01801082927D100F0F70040F0040034
:104F3000110707D500F01801182926D100F0E70065
:104F400040F014005B78D90707D500F01801082954
:104F500024D100F0F70040F00100990707D500F0D8
:104F60001803182B23D100F0E70040F01100D306FE
:104F700048BF00F0E700704700F01401042904BFA7
:104F800000F0FB0040F00800D2E700F01401142903
:104F900004BF00F0EB0040F01800D3E700F011016F
:104FA000012904BF00F0FE0040F00800D5E700F042
:104FB0001103112B04BF00F0EE0040F01800D6E7FB
:104FC000201E002030B585B0C0F3072201902F4B82
:104FD000C0F30740195CA2B98DF80C108DF80D10C4
:104FE0008DF80E109DF80C30002063F307009DF83B
:104FF0000D3063F30F209DF80E3063F3174005B0BA
:1050000030BD9DF8043003EB4304FF20640094FBA3
:10501000F0F46FF05400604300EB430000EB4000FD
:10502000C0B212FB00F3C0F1FF00C2F1FF05424322
:105030001B121212C3F1FF03C2F1FF024D434B4397
:105040004A43C5F30725C3F30723C2F30722062CFF
:1050500017D8DFE804F004060F0D121604000B4603
:1050600011468DF80C108DF80D308DF80E50B9E703
:105070000A4619462B461546F3E713460A462946C3
:10508000F9E70A4629461D461346EAE705D200001D
:1050900010F040021ABFC343DBB2034610B503F061
:1050A0000F0102B10131094CC3F301135B00E21897
:1050B000E35C527812FB01F203EB2213DBB202062F
:1050C00044BF5B42DBB283F0800010BDF8D100002A
:1050D0001FB5154B019003EB4101C0F3072491F874
:1050E0004B30E42113FB01F3C2EB132202F11C004D
:1050F0000028B8BF4042A4EBC00000B220EAE07034
:1051000010FB04F000128DF80500019B0020DAB2BC
:1051100062F30700C3F3072262F30F20C3F30743D0
:1051200063F3174004B010BD230000201FB5154BDA
:10513000019003EB4101C0F3074491F84B30E421A7
:1051400013FB01F3C2EB132202F11C000028B8BFCD
:105150004042A4EBC00000B220EAE07010FB04F073
:1051600000128DF80600019B0020DAB262F30700FE
:10517000C3F3072262F30F20C3F3074363F317401F
:1051800004B010BD2300002084B001908DF80420ED
:10519000019B0020DAB262F30700C3F3072262F337
:1051A0000F20C3F3074363F3174004B070470000B8
:1051B0000C4B84B003EB4101019091F84B309A1AEB
:1051C0008DF80420019B0020DAB262F30700C3F3DC
:1051D000072262F30F20C3F3074363F3174004B0C1
:1051E000704700BF230000200C4B84B003EB41014B
:1051F000019091F84C309A1A8DF80420019B002000
:10520000DAB262F30700C3F3072262F30F20C3F39D
:10521000074363F3174004B0704700BF230000202A
:1052200030B5134B85B0243103EB4104019025794F
:1052300003EB4103A5F1200464B2002CDB78BCBF72
:10524000C5F1200464B29A1AC0B2224402448DF817
:105250000420019B0020DAB262F30700C3F30722A7
:1052600062F30F20C3F3074363F3174005B030BD6B
:105270002300002084B003EB43039DF8102001902D
:1052800002EB53038DF80430019B0020DAB262F385
:105290000700C3F3072262F30F20C3F3074363F34E
:1052A000174004B0704700001FB503F12404104BF1
:1052B000019003EB44031C79DB78703B5943203C9D
:1052C00002FB0412802492FBF4F252FA80F28DF871
:1052D0000420019B0020DAB262F30700C3F3072227
:1052E00062F30F20C3F3074363F3174004B010BD0C
:1052F000230000201FB503F12404114B019003EBA0
:1053000044031C79DB78703B5B00203C594364000C
:1053100002FB0412802492FBF4F252FA80F28DF820
:105320000420019B0020DAB262F30700C3F30722D6
:1053300062F30F20C3F3074363F3174004B010BDBB
:10534000230000201FB5174C0190243304EB4304C5
:10535000C0B22379E478203B03EB43035A43A4F122
:1053600070035BB2002BBCBFC4F170035BB2C3F12E
:10537000380303EB430301FB0323802293FBF2F387
:1053800003448DF80430019B0020DAB262F3070079
:10539000C3F3072262F30F20C3F3074363F31740FD
:1053A00004B010BD2300002084B0C9430190C9B2ED
:1053B000C0F3074011FB00F109128DF80610019BA4
:1053C0000020DAB262F30700C3F3072262F30F2072
:1053D000C3F3074363F3174004B0704784B0C9B206
:1053E0000190C1F18201C0B20029A8BF40188DF818
:1053F0000400019B0020DAB262F30700C3F3072226
:1054000062F30F20C3F3074363F3174004B0704700
:1054100084B003EB8302BDF81030019013449BB2BB
:10542000FF2B28BFFF23C0F30740DB4350FA83F371
:10543000FF2B28BFFF238DF80630019B0020DAB236
:1054400062F30700C3F3072262F30F20C3F307439D
:1054500063F3174004B070471FB50029B8BF494235
:10546000002AB8BF524209B2090112B21201FF2943
:10547000BDF818400190A8BFFF21FF2AA8BFFF2256
:1054800009B2234414B2A142A8BF214611FA83F302
:105490009BB2FF2B28BFFF23C0F30740DB4350FA2A
:1054A00083F3FF2B28BFFF238DF80630019B0020DC
:1054B000DAB262F30700C3F3072262F30F20C3F3EB
:1054C000074363F3174004B010BD00001FB5482B1D
:1054D0000190C0F307402FD8BDF81840E31A9BB2E3
:1054E000FF2B28BFFF23083189B2102905D902F10B
:1054F000080189B2112928BFFF23042192FBF1F290
:105500000E49DB4350FA83F34978FF2B0A4428BF46
:10551000FF238DF804208DF80630019B0020DAB2BD
:1055200062F30700C3F3072262F30F20C3F30743BC
:1055300063F3174004B010BDFF23D4E7241E0020FE
:1055400084B0C0F30741BDF810200190D31A9BB27C
:10555000FF2B28BFFF23DBB2DA4351FA82F2FF2A86
:1055600053FA80F028BFFF228DF804008DF8062042
:10557000019B0020DAB262F30700C3F3072262F353
:105580000F20C3F3074363F3174004B0704784B0A0
:10559000BDF810200190D21A92B2FF2A28BFFF2234
:1055A000C0F30740D24350FA82F2FF2A28BFFF22FD
:1055B0008DF80620019B0020DAB262F30700C3F3E6
:1055C000072262F30F20C3F3074363F3174004B0CD
:1055D000704730B5B0F5F75F9DBF42090832D2B2CF
:1055E000FF2201218B185B1003FB03F5ADB285424E
:1055F000DCB206D9621ED2B29142F3D9481EC0B2C3
:1056000030BDFF2B02D0611CC9B2F5E71846F7E7A1
:1056100030B54CB2002CB8BF494285B0B8BF4CB2CF
:1056200001905243C4F1380010FB002080B20128E1
:105630001D4614D8C0B200EB400028448DF8040089
:10564000019B0020DAB262F30700C3F3072262F382
:105650000F20C3F3074363F3174005B030BDFFF7D6
:10566000B8FFE8E710B528B90029B4BF80230023AC
:10567000184610BD80EAE073A3EBE0731CB200296A
:10568000A8BF0B1B01EB0402ABBF5B01530193FBF3
:10569000F2F3611AAEBFC3F1200393FBF1F3C3F140
:1056A00060035BB2DBB20028BCBF5B42DBB2DFE76A
:1056B00030B585B0C0F30725EB1A01901046DCB277
:1056C000FFF7D0FFC0EB801300EB83000444E4B28B
:1056D00014FB05F424128DF80540019B0020DAB27A
:1056E00062F30700C3F3072262F30F20C3F30743FB
:1056F00063F3174005B030BD30B585B0C0F3074542
:10570000EB1A01901046DCB2FFF7ACFFC0EB801340
:1057100000EB83000444E4B214FB05F424128DF87A
:105720000640019B0020DAB262F30700C3F30722B0
:1057300062F30F20C3F3074363F3174005B030BD96
:1057400030B585B0C0F307259DF820400190104684
:105750001C1BFFF787FF2C44E4B2201AC0B210FBD9
:1057600005F000128DF80500019B0020DAB262F30B
:105770000700C3F3072262F30F20C3F3074363F369
:10578000174005B030BD30B585B0C0F307459DF872
:105790002040019010461C1BFFF764FF2C44E4B22C
:1057A000201AC0B210FB05F000128DF80600019B14
:1057B0000020DAB262F30700C3F3072262F30F207E
:1057C000C3F3074363F3174005B030BD1FB5019025
:1057D00010461C46FFF746FF20448DF80400019B4D
:1057E0000020DAB262F30700C3F3072262F30F204E
:1057F000C3F3074363F3174004B010BD1FB59DF812
:105800001840019010461C1BFFF72CFFE4B2201A31
:105810008DF80400019B0020DAB262F30700C3F3A5
:10582000072262F30F20C3F3074363F3174004B06A
:1058300010BD000008221C21014802F0ABBC00BFD3
:10584000241E002008221C21014802F0DDBC00BFFC
:10585000241E0020074B1A46312102F8011B06497D
:1058600031F8080FA3F80100897891707F221A712E
:10587000FFF7E8BF241E0020F8D100000020704789
:1058800070B50E4615460446FFF7F8FF054BC4EB0E
:1058900004141C44A35DFF2B1EBF2B540130C0B267
:1058A00070BD00BF23000020014BDB68184700BF1C
:1058B00028D3000010B4034C6468A4465DF8044B80
:1058C000604700BF28D300002DE9F04F344D047825
:1058D0002E79344ADFF8D090C4EB0414E4B2730894
:1058E00004F10F071668FFB2692F06FB03F6BA46EC
:1058F00087B080468B4628BF4FF0690AC6F307265B
:10590000E3B29A4506D8682F8CBF0020012007B06B
:10591000BDE8F08F04EB090393F81D2198F80130DE
:105920001A4234D009EB440393F84B0093F84C30FF
:10593000203B9BB2703880B21AB213FB03F301B262
:1059400010FB003080B2012823D8C0B2AB7895F8A4
:1059500001C095F803E000964CEA032C03464CEA9C
:105960000E40D847C0F307238DF81400C0F307405A
:105970008DF815308DF816000598FFF723FBC0F35E
:105980000743C2B2C0F307212046FFF793FF01345B
:10599000B6E7CDE90212FFF71CFEDDE90212D5E7FA
:1059A000241E0020551E0020230000200149FFF77F
:1059B0008BBF00BF415700000149FFF785BF00BF03
:1059C000875700000149FFF77FBF00BF75520000F5
:1059D0000149FFF779BF00BFFD5700002DE9F74FE0
:1059E00004782A4B2A4D1E682B79DFF8A8B0C4EB47
:1059F0000414E4B204F10F095FFA89F95B08B9F104
:105A0000690F06FB03F6CA460746884628BF4FF0D3
:105A1000690AC6F30726E3B29A4507D8B9F1680FB9
:105A20008CBF0020012003B0BDE8F08F04EB0B0316
:105A300093F81D217B781A4226D00BEB440368783B
:105A400093F84C2093F84B10AB7895F803C040EADC
:105A50000320203A7039334640EA0C40C047C0F377
:105A600007238DF80400C0F307408DF805308DF84A
:105A700006000198FFF7A6FAC0F30743C2B2C0F3CD
:105A800007212046FFF716FF0134C4E7551E00200A
:105A9000241E0020230000200149FFF79FBF00BF04
:105AA000B15600000149FFF799BF00BFF956000049
:105AB0000149FFF793BF00BF115600000149FFF7EE
:105AC0008DBF00BFCD5700002DE9F74F0478264B5E
:105AD000264D1E682B79DFF898B0C4EB0414E4B2AD
:105AE00004F10F095FFA89F99B08B9F1690F06FB08
:105AF00003F6CA460746884628BF4FF0690AC6F330
:105B00000726E1B2514507D3B9F1680F8CBF0020D9
:105B1000012003B0BDE8F08F04EB0B0393F81D21C7
:105B20007B781A421DD0A8786B7843EA0023E87886
:105B3000324643EA0040C047C0F307238DF8040013
:105B4000C0F307408DF805308DF806000198FFF787
:105B500039FAC0F30743C2B2C0F307212046FFF76A
:105B6000A9FE0134CDE700BF551E0020241E0020F1
:105B7000230000200149FFF7A7BF00BFD15000005C
:105B80000149FFF7A1BF00BF2D5100000149FFF7F8
:105B90009BBF00BF895100000149FFF795BF00BFBF
:105BA000B15100000149FFF78FBF00BFE95100006C
:105BB0000149FFF789BF00BF215200002DE9F04FD6
:105BC0002E4E2F4A35790478AB081568C4EB0414BF
:105BD0005D43E4B2C5F3072504F10F0787B0FFB2B8
:105BE000814605F14000692FC0B20391BA4628BF33
:105BF0004FF0690AFFF74CFA80384FFA80FB2846CD
:105C0000FFF746FA80384FFA80F80296E3B2534520
:105C100006D3682F8CBF0020012007B0BDE8F08FAD
:105C2000184AA21892F81D1199F80120114223D0A8
:105C3000029A009550789278039E40EA0220029AD8
:105C400092F803C05946424640EA0C40B047C0F3C0
:105C500007238DF81400C0F307408DF815308DF838
:105C600016000598FFF7AEF9C0F30743C2B2C0F3C0
:105C700007212046FFF71EFE0134C7E7241E00203F
:105C8000551E0020230000200149FFF797BF00BFE9
:105C9000A95200000149FFF791BF00BFF552000073
:105CA0000149FFF78BBF00BF455300002DE9F04FBE
:105CB0000478324DDFF8C8B0DFF8C8802B79C4EB28
:105CC0000414E4B204F10F06F6B285B0692EB246B0
:105CD0008146019128BF4FF0690A4FF6FF7797FB85
:105CE000F3F7E0B2504506D3682E8CBF00200120A8
:105CF00005B0BDE8F08F04EB0B0393F81D2199F874
:105D000001301A4228D098F80030013B5BB21A06E5
:105D100024D539462B79A87859436B7843EA002378
:105D2000E878C1F30F2143EA0040019B9847C0F394
:105D300007238DF80C00C0F307408DF80D308DF867
:105D40000E000398FFF73EF9C0F30743C2B2C0F359
:105D500007212046FFF7AEFD0134C2E708EB03023E
:105D6000527C824207D103F10C0208EB4202B2F8E6
:105D70000110B942CED3013BC9E700BF241E002069
:105D8000230000202C1E00200149FFF78FBF00BF19
:105D9000A95300000149FFF789BF00BFDD53000090
:105DA0002DE9F04F0C78DFF82081454DC4EB041449
:105DB000E4B28DB004F10F07FBB29B46692B03934D
:105DC00098F8003005908A46069228BF4FF0690B7C
:105DD000049305EB4405E3B29B4507D8039B682B6E
:105DE0008CBF002001200DB0BDE8F08F344B234460
:105DF00093F81D219AF801301A421DD0DFF8CC909B
:105E0000059E39F80139ADF8283000230499F2B223
:105E10008A4214D32B4AD07810FB03F31B128DF85F
:105E20002A300A98FFF7CEF8C0F30743C2B2C0F396
:105E300007212046FFF73EFD01340235CBE7224A19
:105E400095F84CC095F84B00B2185178527AACEBEB
:105E5000020C401A1FFA8CFC80B20FFA8CF21CFB69
:105E60000CFC01B210FB00C080B201281ED8C0B2E9
:105E700006F10C0C08EB4C0C069FBCF801E099F8FD
:105E800004C08DF82A300CFB0EFC4FEA1C2C034694
:105E9000CDF800C00A98B847C0F307238DF8293021
:105EA0008DF828000136C0F30743AFE7CDE908239A
:105EB0000791FFF78EFBDDE908230799D8E700BFBC
:105EC00023000020241E00202C1E0020251E002060
:105ED000054B064A1B78013BB3F1FF3F08BF002387
:105EE0000146D8B2FFF75CBF2C1E00201154000001
:105EF0000146024A0020FFF753BF00BF11540000C3
:105F0000054B064A1B78013BB3F1FF3F08BF002356
:105F10000146D8B2FFF744BF2C1E002059540000A0
:105F20000146024A0020FFF73BBF00BF5954000062
:105F3000054B064A1B78013BB3F1FF3F08BF002326
:105F40000146D8B2FFF72CBF2C1E0020CD54000014
:105F50000146024A0020FFF723BF00BFCD540000D6
:105F6000054B064A1B78013BB3F1FF3F08BF0023F6
:105F70000146D8B2FFF714BF2C1E00204155000087
:105F80000146024A0020FFF70BBF00BF4155000049
:105F9000054B064A1B78013BB3F1FF3F08BF0023C6
:105FA0000146D8B2FFF7FCBE2C1E00208F55000022
:105FB0000146024A0020FFF7F3BE00BF8F550000E4
:105FC0002DE9F3411E4A04785378DFF878800646BD
:105FD000C4EB04149078E4B243EA002304F10F0503
:105FE000D078EDB2692D43EA00402F4628BF6927DB
:105FF000FEF7E8FFC0F307238DF80400C0F3074065
:106000008DF805308DF80600E3B29F4206D8682D62
:106010008CBF0020012002B0BDE8F08104EB080332
:1060200093F81D2173781A4208D09DF806309DF828
:1060300004209DF805102046FFF73CFC0134E3E7FF
:10604000241E0020230000202DE9F043DFF8C0903B
:10605000047899F801804B46C4EB041433F8012FFF
:1060600085B0E4B29B78ADF8042004F10F058DF8FB
:1060700006308DF80480EDB2692D064601982F4652
:1060800028BF6927FEF79EFFC0F307238DF809306C
:1060900099F804308DF8080098448DF80480C0F316
:1060A00007408DF80A000198DFF86880FEF78AFF44
:1060B000C0F307238DF80C00C0F307408DF80D30B6
:1060C0008DF80E00E3B29F4206D8682D8CBF0020E9
:1060D000012005B0BDE8F08304EB0803727893F863
:1060E0001D31134211D0DB0743BF9DF80E309DF8E0
:1060F0000C209DF80D109DF80A305CBF9DF808201B
:106100009DF809102046FFF7D5FB0134DAE700BF00
:10611000241E0020230000202DE9F347214D0478A0
:1061200095F80480DFF880A02B46C4EB0414E4B299
:1061300033F8012FADF8002004F10F06F6B2692EF6
:106140009B788DF80230B146074628BF4FF06909A9
:106150004FEA9808E3B2994506D8682E8CBF002014
:10616000012002B0BDE8F08704EB0A0393F81D217B
:106170007B781A4214D00AEB44036A7893F84C30C7
:106180001B0903FB08238DF800300098FEF71AFF67
:10619000C0F30743C2B2C0F307212046FFF78AFBD2
:1061A0000134D7E7241E0020230000202DE9F3410D
:1061B0002B4A04781346064633F8011FADF8001049
:1061C00093F80280274BC4EB041418681379E4B2E7
:1061D000DB0804F10F055843EDB2692DC0F3072029
:1061E0002F4628BF6927FEF753FFA0F180035BB25B
:1061F000002BBCBFC0F1800043B25B00DBB213FBDD
:1062000008F31B128DF802300098DFF85C80FEF76F
:10621000D9FEC0F307238DF80400C0F307408DF8C2
:1062200005308DF80600E3B29F4206D8682D8CBF7A
:106230000020012002B0BDE8F08104EB080393F8D0
:106240001D2173781A4208D09DF806309DF804206D
:106250009DF805102046FFF72DFB0134E3E700BF52
:10626000241E0020551E00202300002037B5194BA6
:106270000344044693F81D31194229D0164B9A78ED
:106280008DF80120DA785D788DF8022006F072FE34
:1062900005F1B4014FF4B47200F0030091FBF2F386
:1062A00002FB13135B1B042293FBF2F303FB00536B
:1062B0008DF800300098FEF785FEC0F30743C2B2A8
:1062C000C0F30721204603B0BDE83040FFF7F2BA23
:1062D00003B030BD23000020241E0020F8B58678CE
:1062E0000546F6B91B4B1C4A1B7912681033FF2B6D
:1062F00092B228BFFF235343C3F30F230A21B3FBFA
:10630000F1F201FB12339BB24BB906F033FE692365
:10631000697890FBF3F202FB1300FFF7A7FF30460A
:10632000F8BD0478C4EB0414E4B204F10F06F6B22D
:10633000692E374628BF6927A74204DC682E8CBF28
:1063400000260126EBE720466978FFF78FFF01342E
:10635000F2E700BF241E0020551E002013B5114B8C
:106360000344044693F81D31194219D006F002FE89
:106370008DF8000006F0FEFD0B4B8DF80100DB7878
:106380008DF802300098FEF71DFEC0F30743C2B23D
:10639000C0F30721204602B0BDE81040FFF78ABADB
:1063A00002B010BD23000020241E0020F8B586781E
:1063B0000546FEB91B4B1C4A1B7912681033FF2B94
:1063C00092B228BFFF235343C3F30F230522B3FB2D
:1063D000F2F202EB82029B1A9BB24BB906F0CAFDA5
:1063E0006923697890FBF3F202FB1300FFF7B6FF15
:1063F0003046F8BD0478C4EB0414E4B204F10F068F
:10640000F6B2692E374628BF6927A74204DC682EFA
:106410008CBF00260126EBE720466978FFF79EFF38
:106420000134F2E7241E0020551E0020014B9B681A
:10643000184700BF28D300002DE9F3418D780B46A3
:106440005DB16A4658780978FFF71AFA2B4B00229B
:1064500005461A715A719A71DA71294C27787B199D
:10646000082B21DDC5F10806691C32462144601C59
:1064700006F09CFC05F109013246214404F10900B3
:1064800006F094FC04EB45017200193104F1190087
:1064900006F08CFC05F111013246214404F1110093
:1064A000013F06F083FC277000222678DFF854C0F5
:1064B00011461746D0B28319A842DBB207D3354440
:1064C000EDB201B12570012002B0BDE8F0811DF8E8
:1064D00002E00EF12401E0180CEB41010C3304EB57
:1064E000430391F803800979417280F8018080F8B4
:1064F00011E001325F709F700121DBE7551E002023
:10650000081A002023000020704708B5FDF7D7FFC8
:10651000FFF7FAFF08BD00002DE9F041A34DE86A3E
:1065200001F0E8FD044686B201F0C4FDA04BE8622C
:1065300059684A1C2A460BD0F743B94289BF4FF02D
:10654000FF3189191971597186BF9971D9715960D3
:1065500092F800800025E4434146AE46A4B2EFB273
:10656000B84513D8BEF1000F00D01170914A924D7A
:10657000117811F0030618BF8E082978032929D84D
:10658000DFE811F017002C0026012E0105F10C07A1
:1065900002EB47070135B7F801C06445B7BF01F109
:1065A000FF31B444C9B24FF0010EA8BFA7F801C033
:1065B000D5E7002218607D4B6A70804A03F12801FC
:1065C00053F8040B42F8040B8B42F9D11B7813707B
:1065D00001232B70BDE8F041FFF797BF2B79B34241
:1065E00030D110786B7900F00300C01A18BF012079
:1065F000E870232E00F2EA80DFE816F02600500053
:10660000540058005C006000640068006C0070007A
:10661000740078007C008000840088008C0090006A
:10662000940098009C00A000A400A800AC00B0005A
:10663000B400B800BC00C000C400C800CC00D0004A
:10664000D400E4000120D3E790B16F78C7EB0717BF
:10665000FFB207F10F00C4B2692CA04628BF4FF06B
:106660006908FBB2984511D8682C8CBF0020012026
:106670006B7801336B700028ACD102232B70EB7860
:10668000002BA7D1002EA5D10323A2E70023384673
:106690001A461946FFF70EF90137E2E74848FFF7B7
:1066A0008FFCE5E74648FFF7CFFCE1E74448FFF7FA
:1066B00033FDDDE74248FFF779FDD9E74048FFF7B2
:1066C00059FAD5E73E48FFF75BFAD1E73C48FFF7B8
:1066D000E3F9CDE73A48FFF7E5F9C9E73848FFF7AE
:1066E00065F9C5E73648FFF767F9C1E73448FFF7B2
:1066F0004DFABDE73248FFF74FFAB9E73048FFF7E8
:1067000051FAB5E72E48FFF753FAB1E72C48FFF7E7
:1067100059F9ADE72A48FFF7CBF9A9E72848FFF771
:10672000CDF9A5E72648FFF753F9A1E72448FFF77D
:10673000ABFA9DE72248FFF7ADFA99E72048FFF74B
:10674000AFFA95E71E48FFF7C9FD91E71C48FFF730
:106750002DFE8DE71A48FFF717FB89E71848FFF76A
:1067600019FB85E71648FFF7B3FB81E71448FFF7ED
:10677000BFFB7DE71248FFF7C3FB79E71048FFF73F
:10678000CFFB75E70E48FFF7D3FB71E70C48FFF727
:10679000DFFB6DE70A48FFF7E3FB69E70848FFF70F
:1067A000EFFB65E70648FFF7F3FB61E7081A0020F7
:1067B000551E0020241E0020A90100202C1E0020B0
:1067C000AA0100200A48FFF7F3FB51E700204FE73A
:1067D00013782E71C3F301036B71FFF765F853E76C
:1067E000186801F087FC09287FF6F4AE0023F0E674
:1067F000AA01002008B5274B1B689847264A4FF08E
:10680000FF330021117053769376D3761377537745
:106810009377D37782F8203082F8213082F82230C3
:1068200082F8233082F8243082F8253082F826302E
:1068300082F8273082F82830184A11705376937600
:10684000D376137753779377D37782F8203082F813
:10685000213082F8223082F8233082F8243082F806
:10686000253082F8263082F8273082F8283001F06F
:10687000C7FA18B901F040FBFEF7ECFFFEF7DAFFAC
:10688000074B1B7813F0FC0F03D1BDE80840FEF75F
:10689000E1BF08BD28D300002C1E0020081A0020EC
:1068A000241E0020044A137883F001031370034B65
:1068B00000221A70FEF7C6BF241E0020A901002086
:1068C000064B1A7812F0030204BF05490A701A78C1
:1068D000012161F301021A70704700BF241E0020DD
:1068E000A9010020054B1A7892071EBF044A002117
:1068F00011701A786FF301021A707047241E00207D
:10690000A901002008490B78C3F38502013202F087
:106910003F02232A88BF012262F387030B70034BD7
:1069200000221A70FEF78EBF241E0020A90100204D
:10693000084A1378FC331370DBB213F0FC0F02BF6C
:10694000232161F387031370034B00221A70FEF7B3
:1069500079BF00BF241E0020A9010020024A5378FD
:1069600008335370FEF76EBF241E0020024A53788E
:10697000083B5370FEF766BF241E0020044A93783C
:106980001033FF2B28BFFF239370FEF75BBF00BFC0
:10699000241E0020034A9378103B23EAE37393708C
:1069A000FEF750BF241E0020044AD3781033FF2B7B
:1069B00028BFFF23D370FEF745BF00BF241E002071
:1069C000034AD378103B23EAE373D370FEF73ABF50
:1069D000241E0020044A13791033FF2B28BFFF2305
:1069E0001371FEF72FBF00BF241E0020034A137946
:1069F000103B23EAE3731371FEF724BF241E00202B
:106A0000014B9878704700BFA9010020014B987096
:106A1000704700BFA9010020044B1A7860F3870279
:106A20001A70034B00221A70FEF70CBF241E0020C0
:106A3000A90100202DE9F041984683782B4F0C46A0
:106A400015468BB1397001F02DFB04F12003DBB248
:106A5000072B788048D804F007040120A040C0B27A
:106A6000BDE8F04100F036BA3E788E422DD17888EC
:106A700001F02CFBC72828D8AE4205F1200415D020
:106A800006F12003DBB2072B06D806F0070601202B
:106A9000B040C0B200F027FAE3B2072B1FD805F0D0
:106AA000070301209840C0B200F014FA4046E4B257
:106AB00000F000FA072C17D805F007050120A840C0
:106AC000C0B2BDE8F04100F00EBA04F12003DBB221
:106AD000072B09D804F007040120A040F0E7404646
:106AE000BDE8F04100F0E6B9BDE8F0813A1A0020B7
:106AF00008B545F6F34203469342084626D012D81D
:106B000045F6D84293421DD045F6D94293422DD046
:106B100045F6D74293420FD1E12226231146FFF7D3
:106B200089FF002008BD45F6F542934216D011D3E7
:106B300045F6F642934215D08078D0B10E4B002234
:106B40001A70EFE72723E522E521E8E72623E12273
:106B5000E021E4E72723E522E421E0E72623E12200
:106B6000E221DCE72723E522E621D8E728230122DA
:106B7000EAE70120D6E700BF3A1A0020014B18606F
:106B8000704700BF401A0020024B186808B1036824
:106B900018477047401A0020024B1B680BB15B6816
:106BA00018477047401A0020044B9988814204D04E
:106BB00098801B680BB1DB6818477047401A0020AB
:106BC000044BD988814204D0D8801B680BB11B6963
:106BD00018477047401A00207047704708B5FFF704
:106BE000FBFF08BD704708B5FFF7FCFF08BD08B5FF
:106BF000FFF7F3FFFFF7F2FF08BD0120704708B56C
:106C000001F08EFAFDF756FB01F000FBFFF7EBFFFA
:106C100008BD00002DE9F04385B0FDF7B5FBFFF797
:106C2000ECFF324E00284AD0DFF8C4800024E7B2DF
:106C30003846FDF73DFC36F81450854281463BD07E
:106C400098F80030980701D5FDF738FC85EA09056A
:106C50000023ADB245FA03F1C907DAB229D50125FF
:106C60009D4019EA050F14BF012300238DF8002071
:106C70008DF802308DF8017001F014FA40F0010037
:106C80006B46ADF8040093E8030000F033F836F8E3
:106C900014306B4026F81430FFF776FFB37A834246
:106CA00020D0FFF771FFB07205B0BDE8F043FDF7EB
:106CB00012BD01330F2BCDD10134052CB7D14FF6C6
:106CC000FF73ADF8083000238DF80A3001F0EAF9BF
:106CD00040F00100ADF80C0004AB13E9030000F034
:106CE00009F8D9E705B0BDE8F08300BF481A0020D5
:106CF000001B002084B06B4683E803000022ADF83F
:106D00000E2093E8030004AB0290ADF80C1013E9D9
:106D1000030004B000F0A2BD008800F047BF08B532
:106D2000002800F09880021FD2B2A02A05D800F0F7
:106D30006DFFBDE8084001F005B800F12002D2B2B5
:106D4000072A07D800F0070301209840C0B200F0DE
:106D500093FFEEE700F15B02D2B2022A0BD8A5281E
:106D600007D0A6280CBF82208320BDE80840FFF78B
:106D70001BBF8120F9E700F15802D2B2162A6AD867
:106D8000A82832D0A92832D0AA2832D0AB2832D0B5
:106D9000AC2832D0BB2832D0BC2832D0AD2832D07B
:106DA000B02832D0AE2832D0AF2832D0B12833D07C
:106DB000B22834D0B32835D0B42836D0B52837D04F
:106DC000B62838D0B72839D0B8283AD0B9283BD01F
:106DD000BD283CD0BE283CD0BA2840F22A2018BF9B
:106DE0000020BDE80840FFF7EBBEE220F9E7E9200C
:106DF000F7E7EA20F5E7B520F3E7B620F1E7B3209F
:106E0000EFE7B420EDE7B720EBE7CC20E9E7CD20B2
:106E1000E7E740F28310E4E74FF4C570E1E74FF491
:106E2000C970DEE74FF4CA70DBE740F22120D8E7F3
:106E300040F22320D5E74FF40970D2E740F2252035
:106E4000CFE740F22620CCE740F22720C9E76F20A9
:106E5000C7E77020C5E708BD08B5034648B3021F61
:106E6000D2B2A02A05D800F0D9FEBDE8084000F053
:106E700069BF00F12002D2B2072A07D800F0070349
:106E800001209840C0B200F0FFFEEEE700F15B0287
:106E9000D2B2022A04D80020BDE80840FFF784BE21
:106EA0005833DBB2162B04D80020BDE80840FFF7AA
:106EB00087BE08BD10B50446FFF731FF392C0CBF63
:106EC00050200020002101F061FD2046BDE8104067
:106ED000FFF7C2BF08B528B100F0CEFEBDE80840FC
:106EE00000F030BF08BD08B528B100F0CDFEBDE808
:106EF000084000F027BF08BD2DE9F04790F8069044
:106F0000857807460C464FEA19190DB100F0DAFEF4
:106F100000F0A2FE804670B11DB304F12003DBB285
:106F2000072B1ED9022000F053FF00F095FE80F0E1
:106F300001005FFA80F8C4F303360F2E40D8DFE873
:106F400016F0130013005A005A00AB003F003F0038
:106F50003F00C4001C012E012E018F013F003F00A5
:106F600098014FF00008E6E7C4F30723C4F30326B3
:106F700013F0F00F18BF3601E4B295B156B104F129
:106F80002003DBB2072B304600D93CB900F074FE79
:106F900000F0D8FE2046FFF7C2FE11E000F082FEAE
:106FA000F6E72046FFF758FF56B104F12003DBB2A5
:106FB000072B304600D9DCB900F066FE00F0C2FEB7
:106FC000B8F1000F00F05C8100F03EFE10F001000F
:106FD00040F05681B87000F02FFE00F04BFD3846AF
:106FE00000F050F900F028FEBDE8F04700F04CBD7D
:106FF00000F060FEE2E7C4F3072303F0F003C4F3FC
:107000000326202BE4B218BF360164B1012C2CD02A
:10701000ADB3B9F1000F2CD0BB79D907BAD56FF356
:107020000713BB7125E09DB1B9F1000F06D100F047
:1070300065FE3043C0B2FFF74DFFC1E7B9F1010F64
:10704000F5D100F05BFE3043C0B200F063FEB7E75D
:10705000B9F1000F05D100F069FE3046FFF743FF9C
:10706000AEE7B9F1010FABD0F5E725B1B9F1050FE6
:10707000A6D83046DFE7B9F1040FA1D8EDE7B9F1A2
:10708000000FEAD0392C03D15020002101F07EFC02
:107090002046FFF7E1FE93E7C4F381232BB1012BD8
:1070A0000BD0083E032E2DD98AE725B1C4F3090081
:1070B000FFF77AFD84E72846FAE725B1C4F3090013
:1070C000FFF77EFD7CE72846FAE714F4407F27D1DE
:1070D000C5B9E206C4F3421048BF0F254FEA80004D
:1070E00048BF854004F00F03C4F3812448BFED433B
:1070F0008340022C45EA03000CD00ED8012C06D0A8
:1071000000F08EFCFFF740FDFDF7E5FA58E700F0D0
:107110007FFCF7E700F08CFCF4E700F076FCF1E789
:10712000C4F30122D3B2EDB102F00103002BE9D088
:10713000C4F34210830004F00F0000FA03F214F0CD
:1071400010001CBF0F209840C4F3812418BFC04317
:10715000022C40EA02000AD00CD8012C04D000F026
:10716000B1FCCFE75B08E1E700F0A4FCCAE700F060
:10717000B1FCC7E700F06AFCC4E7E6B2C4F303243D
:1071800035B1204600F076FC3046FFF7A3FEB9E7A4
:107190003046FFF7A8FE204600F076FCB2E75FFA23
:1071A00084FAAAF1F003042B3DD8DFE803F00310C2
:1071B000161D260045B1B9F1040F3FF672AFC4F3B6
:1071C000042000F06DFC6CE7B9F1050FF5E7C4F39E
:1071D000042035B100F04EFC63E7C4F30420002D19
:1071E000F8D000F051FC5CE725B1C4F3042000F0B6
:1071F0003CFC56E700F036FC53E74DB1C4F30424E1
:10720000204600F037FC0321204600F0C7FD48E788
:10721000012000F0DDFDB9F1010F7FF642AF022041
:1072200000F0D6FD3DE74DB1B9F1000F03D0504657
:10723000FFF775FD35E7C4F30420CBE7B9F1000F84
:107240000BD0BAF1390F0CBF50200020002101F003
:107250009DFB5046FFF700FE23E7C4F30420C0E780
:10726000C4F30322E1B23846FDF75AFC00F062FB9A
:10727000A6E6C4F30322E1B23846FDF753FC9FE6CD
:10728000BDE8F08737B583880288ADF8042004464E
:10729000C3B1BDF804204FF6FF739A4212D0FDF738
:1072A0002DFA78B12188A07800F08CFC054600F01A
:1072B00019FC00F0A9FB2946204603B0BDE8304088
:1072C000FFF71ABE03B030BD08B500F0FBFC00F0BC
:1072D0000FFD00F037FD0020FFF766FC0020BDE841
:1072E0000840FFF76DBC08B500F0A0FCBDE8084001
:1072F000FFF7EABF08B500F0CFFCBDE80840FFF794
:10730000F2BFC0F303330E3303F00F020D2A0CD883
:107310000123934013F4105FC1B217D140F2033040
:10732000184004D113F010030BD100207047F0294E
:1073300002D003D8E729F8D801207047F429F4D106
:10734000FAE7E729F8D9F129F6D07047C0F3C02051
:10735000704707B5ADF80400019800F027FC03B0B2
:107360005DF804EBFFF7CDBF82B002AB03E9030089
:1073700002B0704782B002AB03E9030002B070476D
:1073800038B5094D2C7895F84230A34200D138BD6C
:1073900005EBC4030134D3F80200D3F80610FFF75D
:1073A000E9FF04F00704EEE7541A0020024B586C82
:1073B000996CFFF7DFBF00BF541A0020F7B5284BC8
:1073C00093F84A2012F0F00F09D193F8462032B119
:1073D00019784FF6FF7593F842208A4201D103B025
:1073E000F0BDB3F84820002A35D093F8446093F8F4
:1073F00045708DF804608DF80570BDF80400A84252
:1074000029D0C8001C1894F803C0BC4523D1A77824
:10741000B74220D12679F6B9E488944236BFAA1A39
:10742000A21A1219C72ACCBF002201229AB193F8DE
:107430004A20012161F3071283F84A2003440948D6
:107440001A7A61F307121A72FFF71CFF03B0BDE846
:10745000F040FFF795BF013101F00701BBE700BF26
:10746000541A0020981A00202DE9F047AD4C05462B
:107470008EB0B4F848700068B4F8441008900DF16C
:10748000200C2A786B7895F80280B5F80490ADF856
:10749000041094F844E094F84500002F00F0468171
:1074A0008EB24FF6FF718E4200F0408194F8466034
:1074B000002E00F03B814F458ABFCF1BA9EB070789
:1074C0004F44C72F94F84A10CCBF0027012701F082
:1074D000F00A002F00F0D080BAF1000F7DD18DF8B6
:1074E00009008DF808E0BDF808C04FF6FF7084452C
:1074F00046461BD08DF820208DF82130B4F844008A
:10750000BDF820C0844511D186B9012363F307116A
:1075100084F84A10FFF74AFF8348FFF7B3FE94F858
:107520004A30AB7130460EB0BDE8F087B9F1000FBC
:107530000AD1B8F1000FF5D094F84A3043F00103B6
:1075400084F84A300026EDE78DF81C208DF81D30B8
:10755000BDF81C004FF6FF718842EAD0B8F1000F69
:10756000EAD1217894F842C061450FD18DF82020EE
:107570008DF82130089800F019FBC0F30332C3B234
:10758000032A1DD8DFE802F01313212104EBC10008
:1075900090F803E09E4506D190F802E0964502D1AE
:1075A00000790028BED1013101F00701DCE710F4B9
:1075B000706F01D0002BB5D02033DBB2072BB1D9CF
:1075C0002846FFF75FFE3E46ACE710F4706FF3D03D
:1075D000AA7912F0F00FEFD1A4E78DF80D008DF825
:1075E0000CE0BDF80C604FF6FF70864218D08DF8A5
:1075F00020208DF82130B4F84400BDF82060864288
:107600000ED1B8F1000F0BD1A9712846FFF73AFE51
:107610002B686364444A6B685360FFF7C7FED2E788
:107620008DF820208DF821300898FFF792FEF8B1F0
:10763000B8F1000F1CD094F84A301F2B0DD9B4F8C4
:107640004420ADF8282000228DF82A20ADF82C9097
:107650008DF82E300AA8FFF715FE2B68324A6364B6
:107660006B685360FFF7AAFEFFF7A0FE012659E7FB
:107670002846FFF707FEF9E7BAF1000F14D18DF89D
:1076800020208DF821308DF82280ADF82490264DF1
:107690009CE80300FFF768FE2846FFF7F3FD6764E8
:1076A0006F60FFF783FE4DE78DF811008DF810E055
:1076B000BDF810704FF6FF70874216D08DF820206D
:1076C0008DF82130B4F84400BDF8207087420CD109
:1076D000B8F1000F09D1A9712846FFF7D3FD124B6D
:1076E000C4F84480C3F804801CE78DF820208DF88E
:1076F00021300898FFF72DFE0028B9D0B8F1000F0F
:10770000B6D094F84A301F2BA7D9B4F84420ADF86E
:10771000302000228DF83220ADF834908DF83630CC
:107720000CA898E7541A0020981A0020002F7AD04D
:107730008DF814E08DF81500BDF814104FF6FF76A3
:10774000B14270D094F8461000296CD14F453DD815
:10775000A9EB0707C72FCCBF00260126002E52D069
:107760004646002E84D08DF818E08DF81900BDF83B
:1077700018004FF6FF71884231D08DF820208DF827
:107780002130B4F84410BDF82000884227D194F885
:107790004A30314F13F0010F1CD113F0F00F19D004
:1077A00003F0F002F02A1CBFC3F303120132AB71E5
:1077B0001CBF62F30713AB712846FFF763FD2B680C
:1077C00063646B687B60FFF7F1FDABE6F61B4E442C
:1077D000C72EC0E72B6863646B687B60A2E68DF8F8
:1077E00020208DF821300898FFF7B3FD00287FF4A2
:1077F00034AF94F84A30284643F0010384F84A3005
:10780000FFF740FD8EE68DF821308DF82280ADF82F
:1078100024908DF820209CE80300FFF7A5FD0E4B77
:1078200066645E60CFE7B8F1000F3FF421AF8DF8DA
:1078300020208DF821300898FFF78BFD06460028A0
:107840003FF416AF2B68044863646B684360FFF72E
:1078500063FAFFF7B3FDB6E7981A002070B586B05B
:107860006D4685E803002846FFF7FEFD2F4C0646CF
:1078700088B1BDF80430BDF80020ADF8082043B150
:1078800092B24FF6FF739A4203D095E80300FFF7D8
:1078900071FD274D44E095E8030004AB83E8030045
:1078A000BDF80420BDF81010ADF80C10002AF0D07F
:1078B00089B24FF6FF729142EBD094F842202178C2
:1078C000551C05F007058D420BD003CB04EBC2021B
:1078D00084F84250C2F80200C2F80610FFF750FDCB
:1078E000D7E7FFF707FD234684F8426003F8446BAF
:1078F00066645E6006B070BD05EBC000FFF7B4FDC6
:107900000028F7D0237804EBC303D3F80200D3F8A0
:107910000610FFF72FFD2378013303F007032370D0
:10792000207894F842308342E6D1E3E7541A0020ED
:10793000561A0020F8B5034660B1002501261878D4
:10794000732803F1010406D8042827D201280ED099
:10795000022826D0F8BD75283DD031D3A0F184038C
:107960006F2BF7D800F07F00FFF776FA0EE09C1C33
:107970005B7803F12002D2B2072A0ED803F0070386
:107980009840C0B200F0A4F900F0DCF92F46013FA6
:10799000FFB2FF2F22D12346D1E71846FFF7BFF9E8
:1079A000F4E758789C1C00F12003DBB2072BDBD8EE
:1079B00000F0070006FA00F0C0B200F091F9E3E72A
:1079C0005F789C1C013FFFB2FF2FDFD00120002118
:1079D00000F0DCFFF6E79C1C5D78D7E70120002172
:1079E00000F0D4FFD3E7704708B5FFF7FCFF08BDF0
:1079F00008B5FFF7F9FF034B1860BDE80840FFF733
:107A000063BC00BFA01A00207047FFF7F1BF000061
:107A1000024B1B681843FFF7EBBF00BFA01A002002
:107A2000024B1B681840FFF7E3BF00BFA01A0020FD
:107A3000024B1B685840FFF7DBBF00BFA01A0020B5
:107A4000FFF7D1BF08B5FFF7FBFF08BD08B5FFF78B
:107A5000F9FF034B5860BDE80840FFF735BC00BF95
:107A6000A01A00200020FFF7F1BF012303FA00F065
:107A7000FFF7ECBF012303FA00F0024B5B681843E9
:107A8000FFF7E4BFA01A0020012303FA00F0034B24
:107A90005B6823EA0000FFF7D9BF00BFA01A0020EF
:107AA000012303FA00F0024B5B685840FFF7CEBF9A
:107AB000A01A0020024B5B681843FFF7C7BF00BF46
:107AC000A01A0020024B5B681840FFF7BFBF00BF41
:107AD000A01A0020024B5B685840FFF7B7BF00BFF9
:107AE000A01A002070470000C0F30723C3EB031364
:107AF00053FA80F3DBB237B503F007020120904060
:107B0000DB080A4A03EB8303C0B21344002413F8D2
:107B1000015F21FA04F242F300026A40024001349C
:107B20006A40052C1A70F2D103B030BDA71A0020AC
:107B3000C0F30723C3EB031313B553FA80F0C0B2AD
:107B400000F007040949C00800EB8000002201444E
:107B500010468B5CE34003F001039340013218436D
:107B6000052AC0B2F5D102B010BD00BFA81A00208E
:107B700073B50D4BADF80400D3E900361F241E4346
:107B800026FA04F3DB07E5B206D414F1FF34F7D28A
:107B90000025284602B070BD01992846FCF7DCFF9D
:107BA00080B20128F1D0F4E7A01A002007B5ADF8A3
:107BB00004000198FFF7DCFF019903B05DF804EBC6
:107BC000FCF7CABF13B5104BADF804101B782BB1EE
:107BD000019802B0BDE81040FFF7E8BF70B101980E
:107BE000FFF7C6FF044601460198FFF77DFF0199A4
:107BF000204602B0BDE81040FCF7AEBF0198FFF789
:107C000097FF0446F3E700BF531A0020024B0146DA
:107C1000186800F0D1B900BFB0010020024B014646
:107C2000186800F0E3B900BFB0010020014B1868EC
:107C300000F0F6B9B0010020024B93F90100C0F347
:107C4000C7007047DA1A0020024B587800F007008E
:107C5000704700BFDA1A0020034B587810F0070075
:107C600018BF0120704700BFDA1A0020014B987836
:107C7000704700BFDA1A0020024A937818439070C8
:107C8000704700BFDA1A0020024A937823EA000006
:107C900090707047DA1A0020014B00229A707047EA
:107CA000DA1A0020024AD3781843D070704700BF18
:107CB000DA1A0020024AD37823EA0000D070704715
:107CC000DA1A0020014B0022DA707047DA1A00201D
:107CD000024A137918431071704700BFDA1A002066
:107CE000024A137923EA000010717047DA1A002063
:107CF000014B00221A717047DA1A0020014B5879A3
:107D0000704700BFDA1A0020704708B5FFF7FCFF84
:107D100008BD000008B5044B5979814202D0587162
:107D2000FFF7F3FF08BD00BFDA1A002008B5044BC7
:107D30005A791AB100205871FFF7E7FF08BD00BF5C
:107D4000DA1A002010B5104B104A196890780870A4
:107D50001868D47801782143017018681479017883
:107D60005279214301701C464AB11B6819780A43B5
:107D70001A70206800F0C2F808B1FFF7D7FF20683A
:107D8000BDE81040FEF708BFB0010020DA1A00205D
:107D9000704708B5FFF7FCFF08BD000010B5064CA2
:107DA00041EAC0016170FFF765FE94F90100C0F37C
:107DB000C700FFF7EEFF10BDDA1A002008B5034B2D
:107DC00000205870FFF7E5FF08BD00BFDA1A002059
:107DD00008B50A4A92F9013023EA000040B2507017
:107DE00042070AD1DBB2834207D0C0F3C700FFF7D6
:107DF0004BFEBDE80840FFF7E1BF08BDDA1A0020DE
:107E000008B5002000F0BCF94FF6EC63C31A5842E5
:107E1000584108BD022000F0ADB9032000F0AAB916
:107E200010B5042000F0A6F90446212000F0A2F9C4
:107E300044EA002080B210BD10B5C1B2044604204F
:107E400000F0D8F9210A2120BDE8104000F0D2B995
:107E500001460F2000F0D6B90146132000F0D2B938
:107E60000020FFF7F9BF08B50020FFF7F1FFFFF78B
:107E7000F7FF08BD10B54FF6EC61002000F0C0F927
:107E80000021022000F0B6F900210320002400F0B8
:107E9000B1F9184B214604201C6000F0ABF92146D3
:107EA000212000F0A7F92146052000F0A3F9214682
:107EB000062000F09FF9FF21072000F09BF92146E2
:107EC000082000F09FF921460D2000F093F921468B
:107ED000182000F097F92146172000F08BF9214671
:107EE0001C2000F08FF92146202000F083F9FFF7D5
:107EF000BAFF10BDA01A0020FFF7BCBF0C4B1B78C7
:107F0000821C5BB10B4B93F90030002B06DA421C4C
:107F10001F23134400209A4202D170470623F8E73A
:107F200012F8011B0029F6D00130C0B2F3E700BF00
:107F3000D8130020201E002030B54FF0FF33851CE1
:107F4000002215F8014B8C420ED0B3F1FF3F02D155
:107F5000002C08BF13460132D4B2062C62B2F0D115
:107F60005A1C01D01844817030BD10B5831C00220A
:107F7000083013F8014B8C4208BF03F8012C8342F0
:107F8000F7D110BDCB081F2B07D0184401F0070311
:107F9000012199404378194341707047CB081F2B4A
:107FA00008D0184401F0070101238B40417821EAF1
:107FB000030141707047000010B40A4C2478034656
:107FC0000A4644B1084C94F90040002C03DA5DF8ED
:107FD000044BFFF7D7BF114618465DF8044BFFF777
:107FE000ABBF00BFD8130020201E002010B40A4CE5
:107FF000247803460A4644B1084C94F90040002C0A
:1080000003DA5DF8044BFFF7C9BF114618465DF867
:10801000044BFFF7AABF00BFD8130020201E00208A
:10802000084B1B784BB1084B93F90030002B04DA56
:108030001F220021013004F053BF0023C0F802309A
:10804000C3807047D8130020201E0020704770475F
:1080500008B5FFF7FCFF08BD08B5002001F07AF96C
:10806000FFF7F6FF08BD704710B5FFF7EFFFFCF70D
:108070008BF9FFF7F8FF0024E0B2FCF719FA18B902
:108080000134052CF8D110BD0120FCE7704708B57C
:10809000FFF7FCFF08BD08B5012001F05BF9FFF711
:1080A000F6FF08BD024BD3E9000180B2704700BF64
:1080B000E01E0020014BD3E900017047E01E0020C4
:1080C000014BD3E900017047E01E002030B5084B9A
:1080D000D3E90045A4B2A04204D8D3E90045201A50
:1080E00080B230BDD3E90023013A101AF8E700BF8F
:1080F000E01E002030B5054BD3E90045D3E900234D
:10810000A04288BF02F1FF32101A30BDE01E0020ED
:10811000024B00200021C3E900017047E01E00204F
:10812000FFF7F6BF124B1A786FF341021A709A6884
:108130009007FCD41A78C2F34002002AFAD1597889
:1081400062F307115970597862F3030159709978F5
:1081500062F3030199701A7842F002021A70044B1C
:108160001A4699688907FCD413789B07FCD5FEE76B
:1081700000200040014B185C704700BF011B00202D
:10818000034BC218185C527840EA0220704700BFC7
:10819000011B002010B5054C002321449A4200D158
:1081A00010BDCC5CC4540133F8E700BF011B0020B4
:1081B000024B19541844090A41707047011B0020F2
:1081C000044B195418440B0A43700B0C090E8370AE
:1081D000C1707047011B002010B5054C00232144DD
:1081E0009A4200D110BDC45CCC540133F8E700BF03
:1081F000011B0020014B1954704700BF011B0020D8
:10820000FFF7D6BFFFF7DCBFFFF7E6BF08B5FFF704
:10821000F7FD08B9FFF770FEFFF7FCFD054B18707E
:10822000FFF7FEFD044B1880FFF7F7FDBDE808409F
:10823000FFF7EBBB001B0020201E00200C490D4A5D
:108240004F230B60136A43F0800313620A4BD3F889
:108250002021012060F30302C3F82021D3F820215C
:1082600042F04002C3F8202150230B60704700BF4A
:10827000E81E002000080040001C0040534A10B5D2
:1082800051231360524B01200221C3F88400C3F82C
:1082900084100421C3F8841093F8B01060F3030134
:1082A00083F8B01093F8B01060F3071183F8B010A2
:1082B00093F8B11060F3030183F8B11093F8C01084
:1082C000014383F8C01093F8C110014383F8C11033
:1082D00093F8C210014383F8C2103E4B1988014342
:1082E00019805220196BCC0751D43A4B532019886E
:1082F00011F001014DD1188861F30A201880997A94
:10830000022060F303019972324B5420196B8906E5
:1083100041D4997A11F00F003FD1997A60F3061198
:1083200099722C4955200B6B9C0648D4CB7A2D2092
:1083300060F30503CB72274B5620196B490640D4D6
:108340004FF08011B3F848000968C1F3820464F368
:108350000200A3F84800B3F84800C1F3022464F314
:108360000610A3F84800B3F84800C1F3421161F3C6
:108370000A20A3F84800198841F002011980154924
:1083800057200B6B9B071ED45823136010BD106041
:10839000A8E71060ABE71060B8E7987A00F00F002C
:1083A0000128BAD0987A00F00F000228B5D0987A48
:1083B00000F00F000328B0D0997A0420AEE71060D7
:1083C000B1E71060B9E71060DBE700BFE81E0020EE
:1083D00000800041001C00430B4B9A8860F30402AC
:1083E0009A801A6B5007FCD41A7D42F002021A756B
:1083F000054A1346116B0905FCD493F82E20D207C9
:10840000FBD5B3F840007047001C004310B5504A3C
:10841000504932231360504B0B600B680B624F4B7B
:1084200058696FF34100586158690D2464F317507F
:108430005861586940F4004058615869052464F354
:10844000CE205861586940F4C060586158696FF394
:10845000C7105861586940F004005861586940F0ED
:108460000200586133241869C00761D53C4808658B
:1084700093F830006FF3410083F83000374B342419
:10848000D86B800756D4986B022464F34710986326
:10849000986B072464F31A409863586B2F2464F395
:1084A0000C0058632D4B3520DC6BC4F38004002C8A
:1084B00042D193F8300064F3C71083F8300093F88A
:1084C000300040F0020083F8300024483624C36BAB
:1084D0009B0733D421483724036CDB0730D51F4C6E
:1084E0003820236C9B072DD5086DA36B646BC3F3F9
:1084F0000A43C4F30C0440080133B0FBF3F304FB5C
:1085000003334B60174B186A072464F303001862A7
:1085100039245868400717D44B680B620B6A12491C
:10852000B3FBF1F311498BB10B603A23136010BD1B
:10853000146098E71460A3E71060B5E71460C6E71D
:108540001460C9E71060CCE71460E2E70123EBE7B1
:10855000E81E0020741E0020006CDC0200100040A9
:108560000024F400001C0040C0C62D00701E002036
:108570002C4B222270B51A602B4A23255468C4F371
:108580008B04002C43D100F10805072652F8254042
:1085900066F3030442F82540234C24266268C2F3A4
:1085A0008B02002A35D18000204A00F1804000F57E
:1085B000E0505468B4FBF1F11B4CC9B2418425264C
:1085C0006168C1F38B0131BB54F8256061F30C364F
:1085D000154944F8256026264C68C4F38B04E4B999
:1085E00051F8254044F4807441F825400E4C27266C
:1085F0006168C1F38B0191B95168408CB1FBF0F116
:1086000042F825102821196052F8250070BD1D6020
:10861000B4E71E60C2E71E60D2E71E60DCE71E60A2
:10862000E6E700BFE81E0020001C0040741E00208A
:10863000204B214929221A602A204A68C2F38B0262
:10864000002A2DD1486A62F303001B4A48622B209E
:108650005168C1F38B0129BB516AC0F2010151621B
:1086600015492C204A68C2F38B02EAB9486A62F3C2
:108670000C30114A48622D205168C1F38B01A9B911
:10868000516A41F4807151620B492E204A68C2F34D
:108690008B026AB9094A116D51622F221A60704724
:1086A0001860CAE71860D3E71860DBE71860E3E7F3
:1086B0001860EBE7E81E0020001C0040741E00203C
:1086C0001D4B1E4A00210020C3E900013023136026
:1086D0001B4B19686FF3410119601969C1F340011F
:1086E0000029FAD1174B186861F341001860196925
:1086F000C1F340010029FAD1114B99821969C1F3E4
:1087000000110029FAD10F4B59611969C906FCD42F
:10871000196841F0020119600A490B699807FCD4F5
:10872000074B196841F00201196019698907FCD4E7
:1087300031231360704700BFE01E0020E81E0020B8
:1087400000140042003800402DE90048084B9A7A96
:10875000D2060AD5102207499A72D1E900BC1BF152
:1087600001024CF10003C1E90023BDE8008800BF0D
:1087700000140042E01E002038B5744C74490923EF
:1087800002202360FFF7F4FEFFF752FF714AD3691E
:1087900043F02003D361704BD3F8F820022161F33A
:1087A0000302C3F8F820D3F8F82042F04002C3F8DF
:1087B000F8200D232360694B1A686FF341021A6099
:1087C0000E211A69920700F1B1801A6842F0010285
:1087D0001A60624A0F211369DB0700F1A9805F4B21
:1087E00010211A68D50700F1A58005221A715B4B8C
:1087F00011211A69500700F19F8040F2E7329A83F5
:10880000564B12211A69C2F38012002A40F096805A
:10881000197B012060F301011973D98841F480515B
:10882000D9804F494FF40040C860597A41F0100197
:1088300059724849132323604B6943F480434B61C9
:10884000454BD3F8A400022565F30300C3F8A40048
:10885000D3F8A40040F04000C3F8A400486940F4F5
:1088600000404861D3F8A41065F30301C3F8A410D5
:10887000D3F8A41041F04001C3F8A4101A232360D8
:10888000384B196862F3410119601B211A6992077C
:1088900056D41A6842F001021A60324A1C21136948
:1088A000DB074FD42F4B1D221D6815F001054BD15E
:1088B0001968022262F383011960D98841F020010E
:1088C000D980D98862F30201D9801E23236021490F
:1088D0001F2323608B6943F080038B611E4BD3F809
:1088E000AC1062F30301C3F8AC10D3F8AC2042F033
:1088F0004002C3F8AC201C4B0121C3F8D0111A6A06
:1089000061F38B221A621A6A65F309221A621A6AE3
:10891000562161F306021A6220232360FFF7D0FE7E
:10892000FFF78CFC21232360284638BD216048E7EF
:10893000216050E7216054E721605AE7216061E738
:108940002160A3E72160AAE72260ADE7E81E0020CE
:1089500040420F0000080040001C0040001400428C
:1089600000E100E00038004000E0004100000000AD
:1089700040B1054B1B685843AFF30080AFF3008054
:108980000138FDD1704700BF701E0020F8B50446C5
:108990000D46FFF795FB261845EB0107FFF790FB07
:1089A000B94208BFB042F9D3F8BD0000032813D87C
:1089B000DFE800F002080D130A4A536943F48053BC
:1089C00053617047074A536943F40053F8E7054A77
:1089D000936943F4007393617047024A936943F4C7
:1089E0008063F8E700080040F8B51E4F1E4E0723CD
:1089F00056F820503B600446FFF7D8FF06441B4A58
:108A0000337E203352F823006FF3030042F8230033
:108A100052F8230040F0400042F823002B6843F056
:108A200001032B603846EB69DA07FCD42B68DB07BF
:108A3000FCD40F4A136A5B08B3FBF1F10139C9B2E8
:108A40002973136A297B0234013102EB84045B0829
:108A5000B3FBF1F35365536D636008230360506DFE
:108A6000F8BD00BFE81E002008D30000001C004035
:108A7000741E0020F8B5204F204E052356F82050D4
:108A80003B600446FFF792FF06441D4A337E2033C5
:108A900052F823006FF3030042F8230052F823003A
:108AA00040F0400042F823002B6843F001032B60A4
:108AB0003846EB69DA07FCD42B68DB07FCD4114A93
:108AC000136A5B08B3FBF1F1EB680139C9B261F3DA
:108AD0000703EB60136AE9680234C9B2013102EBA3
:108AE00084045B08B3FBF1F39365936D6360062325
:108AF0000360906DF8BD00BFE81E002008D30000A1
:108B0000001C0040741E0020F8B5204F204E0323A7
:108B100056F820503B600446FFF748FF06441D4AC4
:108B2000337E203352F823006FF3030042F8230012
:108B300052F8230040F0400042F823002B6843F035
:108B400001032B603846EB69DA07FCD42B68DB079E
:108B5000FCD4114A136A5B08B3FBF1F1EB680A39E4
:108B6000C9B261F30703EB60136AE9680234C9B262
:108B70000A3102EB84045B08B3FBF1F3D365D36DD8
:108B8000636004230360D06DF8BD00BFE81E0020C1
:108B900008D30000001C0040741E002010B5074CD4
:108BA0000748012368220021236004F099F9FFF7A8
:108BB0002DFCFFF7E1FD0223236010BDE81E00201D
:108BC000741E002009282DE9F04357D9632857D98E
:108BD000B0F57A7F56D342F20F73984254D9454B81
:108BE000984253D9444B984252D9444B984251D958
:108BF000434B984250D9434A904294BF08220922DD
:108C00004FF00065404B414CDFF81081DFF81091C8
:108C10004FF00A0CAE461646012716F1FF363DD23C
:108C2000B0FBF7F607FB1600002E46D1384EA561C3
:108C30001E601E68002E34D1354E65611E601E68B0
:108C4000002E31D1324EA5611E601E68002E2ED13D
:108C50002F4E65611E601E6866BB2E4E1E601E682C
:108C6000002E40D1013A52B2561CD4D121B12A4A29
:108C70001A601A68002A39D1BDE8F0830022BFE7E4
:108C80000122BDE70222BBE70322B9E70422B7E7CE
:108C90000522B5E70622B3E70722B1E70CFB07F789
:108CA000BBE71E68013EC3E71E68013EC6E71E68BB
:108CB000013EC9E71E68013ECCE7C4F818E0C3F8DE
:108CC00000801F683FB96561C3F800901F6837B91D
:108CD000013EF2D1C1E71F68013F1F60F1E71F6845
:108CE000013F1F60F2E71E68013EB7E71A68013ACC
:108CF000BEE700BF9F8601003F420F007F969800AD
:108D0000FFE0F505FFC99A3B241B002000800041CD
:108D100090D0030060E31600808D5B0040420F009E
:108D200020A1070008B5034C20680121FFF74AFF86
:108D3000FAE700BFE81E0020214B00211960214BFB
:108D40004FF40002C3F88420C3F8982093F8D7208A
:108D500042F0020283F8D72093F8D72042F00402B1
:108D600083F8D72093F8D72042F0010283F8D72068
:108D700093F8BB2061F3071283F8BB20124A5369B2
:108D800043F480635361114B1A7842F001021A7068
:108D90005A68D207FCD480229A611A61DA6942F0DB
:108DA0000052DA611A7842F002021A70074A5368D8
:108DB0009B07FCD4064B4FF400221A60704700BF9B
:108DC000E81E00200080004100080040002800400C
:108DD00000E100E01B4B4FF40022C3F88020BFF3FA
:108DE0004F8FBFF36F8F184B1A786FF341021A70D1
:108DF0005A68C2F34002002AFAD1144B4FF4000122
:108E0000C3F88410C3F8941093F8D71062F34101AB
:108E100083F8D71093F8D71062F3820183F8D71044
:108E200093F8D71062F3000183F8D71093F8BB10C2
:108E300062F3071183F8BB10054B596962F38A216D
:108E40005961704700E100E00028004000800041C7
:108E50000008004010B5294C2949592300202360FF
:108E6000FFF708FE274B93F83420022161F3030239
:108E700083F8342093F8342061F3071283F8342008
:108E800093F8482042F0010283F8482093F84920E3
:108E900042F0010283F849201B4B1A68052161F357
:108EA00084021A601A686FF319621A601A6842F035
:108EB00080021A601A6842F002021A605A202246A2
:108EC000D969890713D4598B012060F3051159839F
:108ED0000D495B20CB695B070BD40B495C204B8BA6
:108EE000C3F30113012B06D15D23136010BD106085
:108EF000E6E71060EEE71060F1E700BFE81E002033
:108F0000A08601000080004100300040084B5A6AF2
:108F100060F30A025A62DA695107FCD41A7ED2075A
:108F2000FCD5034A538B5B07FCD40120704700BF7C
:108F300000300040104B5A8B110607D41A7ED2071E
:108F400004D45A8BC2F30112012A14D05A6842F495
:108F500040325A60084A1346D1694807FCD45A8BFC
:108F60001106FCD41A7ED207FCD4034A538BC3F3F8
:108F70000113012BFAD170470030004038B50D467F
:108F80001446B2B1FFF7C2FF0B4A013C6B1E15FA43
:108F900084F1104613F8014F9462047EE507FCD576
:108FA000448B6407FCD48B42F4D1FFF7C3FF01204C
:108FB00038BD1046FCE700BF0030004010B52F4C14
:108FC0002F495E2301202360FFF79EFD2D4B93F870
:108FD0003820022161F3030283F8382093F8382007
:108FE00061F3071283F8382093F8502042F0010211
:108FF00083F8502093F8512042F0010283F8512069
:10900000214B1A68052161F384021A601A68012154
:1090100061F319621A601A6842F080021A605A6895
:1090200042F480725A60194A4FF4802151609A7D4F
:1090300042F080029A751A6842F002021A605F20BC
:109040002246D969890713D4598B012060F3051191
:1090500059830D496020CB695B070BD40A49612015
:109060004B8BC3F30113012B06D16223136010BD98
:109070001060E6E71060EEE71060F1E7E81E002000
:10908000A0D90800008000410034004000E100E069
:10909000084B5A6A60F30A025A62DA695107FCD433
:1090A0001A7ED207FCD5034A538B5B07FCD4012000
:1090B000704700BF00340040104B5A8B110607D494
:1090C0001A7ED20704D45A8BC2F30112012A14D09B
:1090D0005A6842F440325A60084A1346D169480738
:1090E000FCD45A8B1106FCD41A7ED207FCD4034A56
:1090F000538BC3F30113012BFAD1704700340040A6
:1091000038B50D461446B2B1FFF7C2FF0B4A013C19
:109110006B1E15FA84F1104613F8014F9462047E19
:10912000E507FCD5448B6407FCD48B42F4D1FFF7F0
:10913000C3FF012038BD1046FCE700BF00340040EB
:1091400013B5084B084C1B88ADF8043040F2E1130E
:1091500058430222002301A9205CFFF7D1FF02B08F
:1091600010BD00BF26D30000ED1E002013B5FD2367
:109170008DF8043040F2E1135843054C8DF805108A
:109180000023022201A9205CFFF7BAFF02B010BD44
:10919000ED1E002013B50A438DF80520084A094C3E
:1091A00012788DF8062040F2E1125043002303228A
:1091B00001A9205C8DF80430FFF7A2FF02B010BDBA
:1091C000EB230020ED1E002013B50F238DF8043093
:1091D00040F2E1135843064C8DF805108DF8062037
:1091E0000023032201A9205CFFF78AFF02B010BD13
:1091F000ED1E002010B51F4C1F4A65232360A523D8
:1092000013701E4A13701E4A00201370FFF798FF58
:1092100003210020FFF7AAFF002101220846FFF7E3
:10922000B9FF0120FFF78CFF03210120FFF79EFF0C
:10923000012210460021FFF7ADFF0020FFF780FF5D
:1092400003210020FFF792FF052211460020FFF7BF
:10925000BBFF0120FFF774FF03210120FFF786FF0A
:10926000052211460120FFF7AFFF6623236001208E
:1092700010BD00BFE81E0020EB230020EC230020DF
:10928000EA2300202E4967230B602E4B1A886FF3C8
:1092900041021A801A889207FCD41A8842F001020F
:1092A0001A80284B1A8812F00102FBD12648586315
:1092B00026489863188840F470601880186C62F330
:1092C0004100204A18641346106C8007FCD4106CCF
:1092D00040F0010010641A6C12F00102FBD1186C0E
:1092E00062F31D701864186C62F31B6018641A6CCA
:1092F000022060F315521A641A6C072060F30E22E4
:109300001A641A6C42F040021A64114A4FF000408D
:10931000106093F84D2042F0020283F84D2093F83C
:109320004D2042F0010283F84D201A8842F00202DB
:109330001A80044A13889B07FCD568230B6070478A
:10934000E81E002000A00041101E0020D01D0020BB
:1093500000E100E010B5084C6923421E2360074B72
:10936000504250411A7860F304121A7000F07EFDEA
:109370006A23236010BD00BFE81E0020EE230020FA
:1093800010B50C4C632300202360FFF7E3FF01209E
:109390000021FFF7FBFA084B1A786FF345121A7099
:1093A00000F064FD01200021FFF7F0FA6423236040
:1093B000012010BDE81E0020EE230020104B1A886B
:1093C0006FF34F321A801A886FF30C321A801A88A2
:1093D0006FF3CB221A801A8842F480621A801A88AE
:1093E0006FF309221A801A886FF3C4021A801A8850
:1093F0006FF342021A801A8842F001021A80704705
:10940000101E002008B5FFF7D9FF054B8AB25A801D
:109410000844044A58609A600022DA6008BD00BF20
:10942000101E002028340040094A136C43F0020348
:109430001364084B40F2E1125B885043064A1B0458
:10944000125C43F400531343044A5362704700BF55
:1094500000A00041101E0020ED1E0020003400403E
:1094600010B504460648FE2303700221C52343704D
:10947000FFF7C8FF2046BDE81040FFF7D5BF00BF8B
:10948000281B002010B504460548FD234170022129
:109490000370FFF7B7FF2046BDE81040FFF7C4BFD9
:1094A000281B002010B50446064801230370064B14
:1094B00002211B784370FFF7A5FF2046BDE810404E
:1094C000FFF7B2BF281B0020EB23002038B50B4963
:1094D0000B4B0446C12540F2E11000FB04112A4663
:1094E000184603F063FC002229460270FFF78AFF4A
:1094F0002046BDE83840FFF797BF00BF391F002066
:10950000281B00200E4A38B540F2E11303FB00236C
:109510000C4A0446114603F1180053F8045B42F864
:10952000045B8342F9D11B78137000230B7005484C
:109530001921FFF767FF2046BDE83840FFF774BFE9
:10954000EE1E0020281B002010B5084C64220021CC
:1095500004F1FF0003F0C4FC054A0023137084F8F3
:10956000633184F8643184F8653110BD281B002014
:10957000EC1E0020044B93F8630193F86431C31A86
:1095800058425841704700BF281B0020064B93F8F3
:10959000640193F863316422C01A90FBF2F302FB7A
:1095A0001300C0B2704700BF281B002008B5FFF7AA
:1095B000EDFFC0F16300C0B208BD0000074A92F899
:1095C0006431D118013381F8FF00642093FBF0F17E
:1095D00000FB113382F86431704700BF281B002064
:1095E000054991F863316420013393FBF0F200FBED
:1095F000123381F863317047281B002008B50146FB
:10960000FFF7D4FF88420D4A11D292F86531013339
:10961000DBB2632B82F865310DD9094B4FF0006244
:109620009A61FFF72FFEFFF78FFF012008BD00238F
:1096300082F86531F9E70020F8E700BF281B002019
:109640000080004138B5FFF795FF2B4B10B100208B
:10965000187038BD1A780120002AFAD1274C1870EA
:1096600094F86331234493F8FF30652B0CD1FFF756
:10967000B7FF94F863311C4494F8FF00FFF7F0FE45
:10968000FFF7AEFF0120E4E7662B11D1FFF7A8FF3B
:1096900094F86331234493F8FF50FFF7A1FF94F847
:1096A00063311C44284694F8FF10FFF7EBFEE7E710
:1096B000672B09D1FFF794FF94F863311C4494F8A9
:1096C000FF00FFF703FFDBE7682B09D1FFF788FFF7
:1096D00094F863311C4494F8FF00FFF7E3FECFE7F2
:1096E000692BCDD1FFF77CFF94F863311C4494F8CB
:1096F000FF00FFF707FFC3E7EC1E0020281B002038
:10970000682830B506DC044D00EB40002C182A54C4
:109710006170A37030BD00BFAF22002070B5304B28
:109720001B78DB065AD52F4A1378002BFCD12E4B21
:109730002E4A2F4958685478047098681478047039
:10974000D868947804702C338B4202F10302F1D173
:10975000284E294D3078297888421CD000240720D3
:10976000FFF74CFFA0B16520FFF728FF2046FFF769
:1097700025FF6620FFF722FF2046FFF71FFF03208B
:10978000FFF71CFF6820FFF719FF2046FFF716FFC1
:1097900004B333782B7000240720FFF72FFFA0B10C
:1097A0006520FFF70BFF2046FFF708FF6620FFF755
:1097B00005FF2046FFF702FF0120FFF7FFFE6720AD
:1097C000FFF7FCFE2046FFF7F9FE2CB1BDE8704024
:1097D000FFF738BF0124C2E70124DDE770BD00BFF9
:1097E000EE230020EC1E0020B4010020AF22002058
:1097F000C0130020EB230020EC230020054B10B504
:1098000003F23B14587019709A700333A342F9D1D4
:1098100010BD00BFAF220020034B1A7ED2091CBF2F
:1098200080221A76704700BF0034004008B50C4B08
:1098300093F84E2091070BD5022283F84E20FFF7B4
:109840003BFC084B00221A70BDE80840FFF7FABE47
:1098500093F84E20D20744BF012283F84E2008BD62
:1098600000A00041EC1E002038B52E4B2E4C1A886B
:1098700040F697039A420BD80020FFF76BFD1423A4
:1098800023702A4B00221A70294B01221A7038BD0E
:109890002078012802D901382070F8E707D1FFF7B6
:1098A00059FD244800F0B6FE00232370EFE720485E
:1098B000214B1E4A00781978137878B11F48008828
:1098C000B0F51B6F14D340F6EC15A84201D99942AC
:1098D00006D899420CD300236370D8E79942F9D98E
:1098E000C3F1A5010129D4BFA52302331370F2E708
:1098F000012B15D8124B1B780025012B1570C6D1F2
:1099000063780133DBB2C82B6370C0D9032001F048
:1099100029FB0C4B0C481D70BDE8384000F07ABEA6
:10992000023BE3E7661E00208E1C0020EB23002094
:109930003E24002038D30000EA230020681E0020C7
:10994000612400206224002060D300002DE9F84F3C
:109950002F4B40F2C2320021184603F0C1FAA02278
:1099600002702C49DFF8B0C0BE2280F8E12140F23D
:10997000E1194FF008084FF0010E0A7CCD7C91F8F8
:1099800011B08C7C0F7D013A09FB02F202F14C0A06
:10999000013D82440BEB05135344013C8B600BEB00
:1099A00004135344013F4B600BF1FF330BEB071BD8
:1099B0000AEB0B06CE60D3F1000A93FBF8F602F136
:1099C000010206EB4505024405F101050AF0070A0C
:1099D00003F0070358BFCAF100030EFA03F312F8AD
:1099E00005A05BB243EA0A0A06EB440402F805A0AC
:1099F000013406EB4706155D1D43155501362C3124
:109A0000945D8C4543EA04039355B6D1BDE8F88FC5
:109A1000ED1E0020B4010020C0130020064B0749B2
:109A200000225868027098680270D8682C338B4204
:109A30000270F6D1704700BFB4010020C0130020AF
:109A400010B5074C6B232360FFF780FFFFF7E6FF9D
:109A5000044B00225A701A706C23236010BD00BFA3
:109A6000E81E00208E1C0020F8B500F029F8F8B19F
:109A7000104B1B789B071BD00F4F104D00232C263B
:109A800000F0020006FB037292F828201E2A0CD177
:109A900058B103EB43014A195478E44354704C5DC8
:109AA000E4434C559178C94391700133692BE9D156
:109AB000F8BD00BF241E0020B4010020AF2200200A
:109AC000044B93F90030002BB4BF034B034B1878C1
:109AD000704700BF201E0020382400203C240020B6
