:020000040800F2
:1000000000040020F1010008196D0008196D0008B6
:10001000196D0008196D0008196D0008196D0008A8
:10002000196D0008196D0008196D0008F5730008B6
:10003000196D0008196D0008196D0008196D000888
:10004000196D0008196D0008196D0008196D000878
:10005000196D0008196D0008196D0008196D000868
:10006000196D0008196D0008196D00082583000836
:100070005983000891830008C9830008018400089F
:100080003984000871840008196D0008196D000892
:10009000196D0008196D0008196D0008196D000828
:1000A000196D0008196D0008196D0008196D000818
:1000B000998A0008158D0008298D0008D18800084C
:1000C000DD890008196D0008196D0008196D000818
:1000D000196D0008196D0008196D0008196D0008E8
:1000E000196D0008196D0008196D0008196D0008D8
:1000F000718C0008196D0008196D0008196D000851
:10010000196D0008196D0008196D0008196D0008B7
:10011000196D0008196D0008498C00085D8C0008F5
:10012000A9840008DD840008158500084D850008B5
:1001300085850008196D0008196D0008196D000803
:10014000196D0008196D0008196D0008196D000877
:10015000196D0008196D0008196D0008196D000867
:10016000196D0008196D0008196D0008758D0008DB
:10017000196D0008196D0008196D0008196D000847
:10018000196D0008196D0008196D0008196D000837
:10019000196D0008196D0008196D0008196D000827
:0C01A00045A50008D5010008B1010008C9
:1001B00010B5054C237833B9044B13B10448AFF3A1
:1001C00000800123237010BD58160020000000009D
:1001D0000CBA000808B5034B1BB103490348AFF341
:1001E000008008BD000000005C1600200CBA00086A
:1001F00072B6374880F3098836484EF60851CEF279
:100200000001086040F20000CCF200004EF63471AC
:10021000CEF200010860BFF34F8FBFF36F8F40F243
:100220000000C0F2F0004EF68851CEF200010860E6
:10023000BFF34F8FBFF36F8F4FF00000E1EE100A56
:100240004EF63C71CEF200010860062080F314885F
:10025000BFF36F8F06F03EFD09F045F84FF05530C3
:100260001D491E4A91423CBF41F8040BFAE71C4964
:10027000174A91423CBF41F8040BFAE719491A4A60
:100280001A4B9A423EBF51F8040B42F8040BF8E7B0
:1002900000201749174A91423CBF41F8040BFAE786
:1002A00006F01CFD06F017FD134C144DAC4203DAAA
:1002B00054F8041B8847F9E706F0FCFA104C114D7E
:1002C000AC4203DA54F8041B8847F9E706F004BD92
:1002D000000C0020000000080000002000040020A6
:1002E000000400200CBA0008000C00205416002066
:1002F00058160020CC250020A0010008A801000805
:10030000A8010008AC0100082DE9F04F2DED108A7E
:10031000C1F80CD0C3689D46BDEC108ABDE8F08FD3
:10032000002383F311882846A047002006F050FFE1
:1003300006F0E4FE00DFFEE781F0004102E000BFCE
:1003400083F0004330B54FEA41044FEA430594EA95
:10035000050F08BF90EA020F1FBF54EA000C55EAD0
:10036000020C7FEA645C7FEA655C00F0E2804FEAA1
:100370005454D4EB5555B8BF6D420CDD2C4480EA83
:10038000020281EA030382EA000083EA010180EAB3
:10039000020281EA0303362D88BF30BD11F0004F01
:1003A0004FEA01314FF4801C4CEA113102D0404237
:1003B00061EB410113F0004F4FEA03334CEA133372
:1003C00002D0524263EB430394EA050F00F0A7808A
:1003D000A4F10104D5F1200E0DDB02FA0EFC22FA85
:1003E00005F2801841F1000103FA0EF2801843FA79
:1003F00005F359410EE0A5F120050EF1200E012A6A
:1004000003FA0EFC28BF4CF0020C43FA05F3C018A7
:1004100051EBE37101F0004507D54FF0000EDCF120
:10042000000C7EEB00006EEB0101B1F5801F1BD3C9
:10043000B1F5001F0CD349085FEA30004FEA3C0CCD
:1004400004F101044FEA445212F5800F80F09A80C3
:10045000BCF1004F08BF5FEA500C50F1000041EBC7
:10046000045141EA050130BD5FEA4C0C404141EBCB
:10047000010111F4801FA4F10104E9D191F0000FF2
:1004800004BF01460020B1FA81F308BF2033A3F175
:100490000B03B3F120020CDA0C3208DD02F1140C6C
:1004A000C2F10C0201FA0CF021FA02F10CE002F1A7
:1004B0001402D8BFC2F1200C01FA02F120FA0CFCA0
:1004C000DCBF41EA0C019040E41AA2BF01EB0451E9
:1004D000294330BD6FEA04041F3C1CDA0C340EDCE7
:1004E00004F11404C4F1200220FA04F001FA02F32A
:1004F00040EA030021FA04F345EA030130BDC4F1E8
:100500000C04C4F1200220FA02F001FA04F340EADC
:100510000300294630BD21FA04F0294630BD94F08D
:10052000000F83F4801306BF81F480110134013D74
:100530004EE77FEA645C18BF7FEA655C29D094EAE5
:10054000050F08BF90EA020F05D054EA000C04BF63
:100550001946104630BD91EA030F1EBF002100204E
:1005600030BD5FEA545C05D14000494128BF41F0ED
:10057000004130BD14F580043CBF01F5801130BD51
:1005800001F0004545F0FE4141F470014FF00000DC
:1005900030BD7FEA645C1ABF194610467FEA655C8D
:1005A0001CBF0B46024650EA013406BF52EA03352F
:1005B00091EA030F41F4002130BD00BF90F0000F1D
:1005C00004BF0021704730B54FF4806404F1320459
:1005D0004FF000054FF0000150E700BF90F0000F12
:1005E00004BF0021704730B54FF4806404F1320439
:1005F00010F0004548BF40424FF000013EE700BF09
:1006000042004FEAE2014FEA31014FEA02701FBF98
:1006100012F07F4393F07F4F81F06051704732F0CA
:100620007F4208BF704793F07F4F04BF41F4002121
:10063000704730B54FF4607401F0004521F000417F
:100640001CE700BF50EA010208BF704730B54FF009
:1006500000050AE050EA010208BF704730B511F00A
:10066000004502D5404261EB41014FF4806404F142
:1006700032045FEA915C3FF4D8AE4FF003025FEAC8
:10068000DC0C18BF03325FEADC0C18BF033202EB4C
:10069000DC02C2F1200300FA03FC20FA02F001FAA6
:1006A00003FE40EA0E0021FA02F11444BDE600BF49
:1006B00070B54FF0FF0C4CF4E06C1CEA11541DBFF8
:1006C0001CEA135594EA0C0F95EA0C0F00F0DEF8C3
:1006D0002C4481EA030621EA4C5123EA4C5350EAA8
:1006E000013518BF52EA033541F4801143F48013F9
:1006F00038D0A0FB02CE4FF00005E1FB02E506F08A
:100700000042E0FB03E54FF00006E1FB03569CF0DE
:10071000000F18BF4EF0010EA4F1FF04B6F5007FE4
:1007200064F5407404D25FEA4E0E6D4146EB060656
:1007300042EAC62141EA55514FEAC52040EA5E50DF
:100740004FEACE2EB4F1FD0C88BFBCF5E06F1ED889
:10075000BEF1004F08BF5FEA500E50F1000041EBC0
:10076000045170BD06F0004646EA010140EA02006D
:1007700081EA0301B4EB5C04C2BFD4EB0C0541EA8F
:10078000045170BD41F480114FF0000E013C00F3A4
:10079000AB8014F1360FDEBF002001F0004170BDC8
:1007A000C4F10004203C35DA0C341BDC04F11404E1
:1007B000C4F1200500FA05F320FA04F001FA05F26D
:1007C00040EA020001F0004221F0004110EBD3703A
:1007D00021FA04F642EB06015EEA430E08BF20EA66
:1007E000D37070BDC4F10C04C4F1200500FA04F309
:1007F00020FA05F001FA04F240EA020001F000419B
:1008000010EBD37041F100015EEA430E08BF20EA0D
:10081000D37070BDC4F1200500FA05F24EEA020E55
:1008200020FA04F301FA05F243EA020321FA04F084
:1008300001F0004121FA04F220EA020000EBD3703B
:100840005EEA430E08BF20EAD37070BD94F0000F3B
:100850000FD101F00046400041EB010111F4801F6F
:1008600008BF013CF7D041EA060195F0000F18BF20
:10087000704703F00046520043EB030313F4801F5C
:1008800008BF013DF7D043EA0603704794EA0C0F16
:100890000CEA135518BF95EA0C0F0CD050EA41062C
:1008A00018BF52EA4306D1D181EA030101F00041A9
:1008B0004FF0000070BD50EA410606BF10461946D1
:1008C00052EA430619D094EA0C0F02D150EA0136DD
:1008D00013D195EA0C0F05D152EA03361CBF10461E
:1008E00019460AD181EA030101F0004141F0FE41BD
:1008F00041F470014FF0000070BD41F0FE4141F441
:10090000780170BD70B54FF0FF0C4CF4E06C1CEA40
:1009100011541DBF1CEA135594EA0C0F95EA0C0FF5
:1009200000F0A7F8A4EB050481EA030E52EA0335B0
:100930004FEA013100F088804FEA03334FF08055D1
:1009400045EA131343EA12634FEA022245EA1115FE
:1009500045EA10654FEA00260EF000419D4208BFAF
:10096000964244F1FD0404F5407402D25B084FEA5C
:100970003202B61A65EB03055B084FEA32024FF408
:1009800080104FF4002CB6EB020E75EB030E22BF65
:10099000B61A754640EA0C005B084FEA3202B6EB25
:1009A000020E75EB030E22BFB61A754640EA5C00D4
:1009B0005B084FEA3202B6EB020E75EB030E22BF64
:1009C000B61A754640EA9C005B084FEA3202B6EB65
:1009D000020E75EB030E22BFB61A754640EADC0024
:1009E00055EA060E18D04FEA051545EA16754FEA86
:1009F00006164FEAC30343EA52734FEAC2025FEAA4
:100A00001C1CC0D111F4801F0BD141EA00014FF032
:100A100000004FF0004CB6E711F4801F04BF014303
:100A20000020B4F1FD0C88BFBCF5E06F3FF6AFAE1F
:100A3000B5EB030C04BFB6EB020C5FEA500C50F1AF
:100A4000000041EB045170BD0EF0004E4EEA113132
:100A500014EB5C04C2BFD4EB0C0541EA045170BD39
:100A600041F480114FF0000E013C90E645EA060E7D
:100A70008DE60CEA135594EA0C0F08BF95EA0C0FAB
:100A80003FF43BAF94EA0C0F0AD150EA01347FF4F3
:100A900034AF95EA0C0F7FF425AF104619462CE7CA
:100AA00095EA0C0F06D152EA03353FF4FDAE10462D
:100AB000194622E750EA410618BF52EA43067FF47E
:100AC000C5AE50EA41047FF40DAF52EA43057FF40E
:100AD000EBAE12E74FF0FF3C06E000BF4FF0010C19
:100AE00002E000BF4FF0010C4DF804CD4FEA410C7D
:100AF0007FEA6C5C4FEA430C18BF7FEA6C5C1BD04A
:100B000001B050EA410C0CBF52EA430C91EA030FCA
:100B100002BF90EA020F0020704710F1000F91EA27
:100B2000030F58BF994208BF90422CBFD8176FEAF5
:100B3000E37040F0010070474FEA410C7FEA6C5CC3
:100B400002D150EA013C07D14FEA430C7FEA6C5CCA
:100B5000D6D152EA033CD3D05DF8040B704700BFF6
:100B60008446104662468C461946634600E000BF44
:100B700001B5FFF7B7FF002848BF10F1000F01BD16
:100B80004DF808EDFFF7F4FF0CBF012000205DF8E1
:100B900008FB00BF4DF808EDFFF7EAFF34BF012066
:100BA00000205DF808FB00BF4DF808EDFFF7E0FFFF
:100BB00094BF012000205DF808FB00BF4DF808ED50
:100BC000FFF7CEFF94BF012000205DF808FB00BFB7
:100BD0004DF808EDFFF7C4FF34BF012000205DF899
:100BE00008FB00BF4FEA410C7FEA6C5C02D150EA7F
:100BF000013C0AD14FEA430C7FEA6C5C02D152EA15
:100C0000033C02D14FF0000070474FF001007047E5
:100C10004FEA4102B2F1E04324BFB3F5001CDCF11E
:100C2000FE5C0DD901F0004C4FEAC0024CEA507056
:100C3000B2F1004F40EB830008BF20F00100704785
:100C400011F0804F21D113F13872BCBF01F0004088
:100C5000704741F480114FEA5252C2F11802C2F1BA
:100C6000200C10FA0CF320FA02F018BF40F001003B
:100C70004FEAC1234FEAD32303FA0CFC40EA0C00ED
:100C800023FA02F34FEA4303CCE77FEA625307D12A
:100C900050EA01331EBF4FF0FE4040F44000704761
:100CA00001F0004040F0FE4040F40000704700BFFB
:100CB00080F0004002E000BF81F0004142001FBF11
:100CC0005FEA410392EA030F7FEA226C7FEA236C1A
:100CD0006AD04FEA1262D2EB1363C1BFD21841400F
:100CE00048404140B8BF5B42192B88BF704710F0A5
:100CF000004F40F4000020F07F4018BF404211F048
:100D0000004F41F4000121F07F4118BF494292EAAF
:100D1000030F3FD0A2F1010241FA03FC10EB0C00DB
:100D2000C3F1200301FA03F100F0004302D5494268
:100D300060EB4000B0F5000F13D3B0F1807F06D315
:100D400040084FEA310102F10102FE2A51D2B1F10D
:100D5000004F40EBC25008BF20F0010040EA030002
:100D60007047490040EB000010F4000FA2F10102AF
:100D7000EDD1B0FA80FCACF1080CB2EB0C0200FA39
:100D80000CF0AABF00EBC25052421843BCBFD04087
:100D90001843704792F0000F81F4000106BF80F401
:100DA00000000132013BB5E74FEA41037FEA226CC4
:100DB00018BF7FEA236C21D092EA030F04D092F08F
:100DC000000F08BF0846704790EA010F1CBF0020C3
:100DD000704712F07F4F04D1400028BF40F0004020
:100DE000704712F100723CBF00F50000704700F040
:100DF000004343F0FE4040F4000070477FEA226267
:100E000016BF08467FEA23630146420206BF5FEA37
:100E1000412390EA010F40F4800070474FF0000337
:100E200004E000BF10F0004348BF40425FEA000CFE
:100E300008BF704743F0964301464FF000001CE0A6
:100E400050EA010208BF70474FF000030AE000BFFC
:100E500050EA010208BF704711F0004302D540423A
:100E600061EB41015FEA010C02BF844601460020AC
:100E700043F0B64308BFA3F18053A3F50003BCFAC7
:100E80008CF2083AA3EBC25310DB01FA02FC634474
:100E900000FA02FCC2F12002BCF1004F20FA02F27B
:100EA00043EB020008BF20F00100704702F120026E
:100EB00001FA02FCC2F1200250EA4C0021FA02F2CF
:100EC00043EB020008BF20EADC7070474FF0FF0CD4
:100ED0001CEAD0521EBF1CEAD15392EA0C0F93EACF
:100EE0000C0F6FD01A4480EA010C400218BF5FEA71
:100EF00041211ED04FF0006343EA501043EA5111E4
:100F0000A0FB01310CF00040B1F5000F3EBF4900DD
:100F100041EAD3715B0040EA010062F17F02FD2AE1
:100F20001DD8B3F1004F40EBC25008BF20F00100C4
:100F3000704790F0000F0CF0004C08BF49024CEADB
:100F4000502040EA51207F3AC2BFD2F1FF0340EA6D
:100F5000C250704740F400004FF00003013A5DDCDE
:100F600012F1190FDCBF00F000407047C2F100021F
:100F7000410021FA02F1C2F1200200FA02FC5FEA0C
:100F8000310040F1000053EA4C0308BF20EADC7056
:100F9000704792F0000F00F0004C02BF400010F4C8
:100FA000000F013AF9D040EA0C0093F0000F01F075
:100FB000004C02BF490011F4000F013BF9D041EA97
:100FC0000C018FE70CEAD15392EA0C0F18BF93EA99
:100FD0000C0F0AD030F0004C18BF31F0004CD8D1C3
:100FE00080EA010000F00040704790F0000F17BF4A
:100FF00090F0004F084691F0000F91F0004F14D090
:1010000092EA0C0F01D142020FD193EA0C0F03D1E7
:101010004B0218BF084608D180EA010000F00040EA
:1010200040F0FE4040F40000704740F0FE4040F4C5
:10103000400070474FF0FF0C1CEAD0521EBF1CEA64
:10104000D15392EA0C0F93EA0C0F69D0A2EB030282
:1010500080EA010C49024FEA402037D04FF080531C
:1010600043EA111143EA10130CF000408B4238BFE1
:101070005B0042F17D024FF4000C8B4224BF5B1AEF
:1010800040EA0C00B3EB510F24BFA3EB510340EA3D
:101090005C00B3EB910F24BFA3EB910340EA9C00EB
:1010A000B3EBD10F24BFA3EBD10340EADC001B015B
:1010B00018BF5FEA1C1CE0D1FD2A3FF650AF8B42FF
:1010C00040EBC25008BF20F0010070470CF0004C0C
:1010D0004CEA50207F32C2BFD2F1FF0340EAC25037
:1010E000704740F400004FF00003013A37E792F0F8
:1010F000000F00F0004C02BF400010F4000F013A56
:10110000F9D040EA0C0093F0000F01F0004C02BF50
:10111000490011F4000F013BF9D041EA0C0195E7B9
:101120000CEAD15392EA0C0F08D142027FF47DAF52
:1011300093EA0C0F7FF470AF084676E793EA0C0F42
:1011400004D14B023FF44CAF08466EE730F0004C40
:1011500018BF31F0004CCAD130F000427FF45CAFD0
:1011600031F000437FF43CAF5FE700BF4FF0FF3C3E
:1011700006E000BF4FF0010C02E000BF4FF0010C91
:101180004DF804CD4FEA40024FEA41037FEA226C5A
:1011900018BF7FEA236C11D001B052EA530C18BF7C
:1011A00090EA010F58BFB2EB030088BFC81738BFE1
:1011B0006FEAE17018BF40F0010070477FEA226CCF
:1011C00002D15FEA402C05D17FEA236CE4D15FEACB
:1011D000412CE1D05DF8040B704700BF84460846FF
:1011E0006146FFE70FB5FFF7C9FF002848BF10F1C0
:1011F000000F0FBD4DF808EDFFF7F4FF0CBF012005
:1012000000205DF808FB00BF4DF808EDFFF7EAFF8E
:1012100034BF012000205DF808FB00BF4DF808ED49
:10122000FFF7E0FF94BF012000205DF808FB00BF3E
:101230004DF808EDFFF7D2FF94BF012000205DF8C4
:1012400008FB00BF4DF808EDFFF7C8FF34BF0120D1
:1012500000205DF808FB00BF4FEA4002B2F1FE4FEC
:101260000FD34FF09E03B3EB12620DD94FEA002368
:1012700043F0004310F0004F23FA02F018BF404241
:1012800070474FF00000704712F1610F01D1420228
:1012900005D110F0004008BF6FF0004070474FF0DC
:1012A0000000704742000ED2B2F1FE4F0BD34FF058
:1012B0009E03B3EB126209D44FEA002343F00043CC
:1012C00023FA02F070474FF00000704712F1610FEF
:1012D00001D1420202D14FF0FF3070474FF00000C1
:1012E000704700BF844641EA000313F003036DD149
:1012F000403A41D351F8043B40F8043B51F8043BD9
:1013000040F8043B51F8043B40F8043B51F8043BDF
:1013100040F8043B51F8043B40F8043B51F8043BCF
:1013200040F8043B51F8043B40F8043B51F8043BBF
:1013300040F8043B51F8043B40F8043B51F8043BAF
:1013400040F8043B51F8043B40F8043B51F8043B9F
:1013500040F8043B51F8043B40F8043B51F8043B8F
:1013600040F8043B51F8043B40F8043B51F8043B7F
:1013700040F8043B403ABDD2303211D351F8043B1F
:1013800040F8043B51F8043B40F8043B51F8043B5F
:1013900040F8043B51F8043B40F8043B103AEDD2CE
:1013A0000C3205D351F8043B40F8043B043AF9D21F
:1013B000043208D0D2071CBF11F8013B00F8013BF2
:1013C00001D30B8803806046704700BF082A13D3FF
:1013D0008B078DD010F003038AD0C3F10403D21A17
:1013E000DB071CBF11F8013B00F8013B80D331F84B
:1013F000023B20F8023B7BE7043AD9D3013A11F8CB
:10140000013B00F8013BF9D20B7803704B78437035
:101410008B78837060467047082823D8DFE800F097
:101420002D05070A0F14191E200001207047144BC8
:1014300018787047134B187800F001007047114B73
:101440001878C0F3400070470E4B1878C0F3800046
:1014500070470C4B1878C0F3C00070470A4BEAE79E
:10146000094BEDE70123093803FA00F0074B1B682D
:10147000184214BF0120002070470020704700BFB1
:10148000741600207C1600207516002078160020A7
:1014900070B5294A294C1078FFF7BEFF06465078F0
:1014A000FFF7BAFF05469078FFF7B6FF0146D07800
:1014B000FFF7B2FF22781ABB214B334403EB4503FD
:1014C00003EB81031F4D13F830002B782BB91E4E10
:1014D0003178013101F0030131700133032193FBB5
:1014E000F1F101EB41015B1A18492B700B780133C4
:1014F00003F00F030B70164B196800EB41001860E6
:1015000014490132087802F001022270FFF784FFCB
:1015100002464878FFF780FF04468878FFF77CFF93
:10152000800000EB44000244C878D2B2FFF774FF99
:1015300002EBC000C0B270BD040C00207416002085
:10154000080C002076160020751600207C1600205E
:1015500078160020000C002000F0B2BD00F0BCB8EE
:1015600006230422032100F055B90000A0F5BA407B
:10157000013810B5052852D8DFE800F0030D111F1F
:1015800015458C78BCB1274803F09AFD002000F087
:101590002BF900240FE08C786CB10120F7E78C78F0
:1015A0004CB10220F3E78C78E52014B102F003F986
:1015B000EFE702F0E4F9204610BD8C78002CFAD059
:1015C00001F02CFB00220621174801F037FA042015
:1015D00003F046F8032003F043F8062003F040F838
:1015E000052003F033F803F010FA08B903F09AFA73
:1015F00003F023FA0D4B188060F07F0018701888F4
:1016000003F027FAC5E78C78002CD4D000220621FD
:10161000074801F013FA052003F022F8B9E7012486
:10162000C9E700BF7EA900084C0C00200C20002058
:101630001C0C00200E4B1B789BB10E4B1B68DB066D
:1016400007D50D4A137811B1013313707047013B70
:10165000FBE70A4A138811B1013313807047013B3D
:10166000FBE711B1FA2002F0E7B9F920FBE700BF70
:1016700080160020B0170020180C00201A0C002043
:1016800010B5024610B1012818D010BD0E4C2078BC
:1016900051B118B106210D4801F0D0F9062002F031
:1016A000D5FF01232370F0E720B10A460848062140
:1016B00001F0C4F9062002F0D3FFF2E70029054B40
:1016C00018BF01461970E0E7811600204C0C00207D
:1016D0001C0C00208016002070B5214A214C167881
:1016E00023888AB02546002E34D043BB1E4B01AA66
:1016F00003F1200618685968144603C40833B3423E
:101700002246F7D119889B78A3702180FFF7C0FE8D
:101710000AAB1844154B10F8244C1B78144E1C448B
:101720003078E4B2A0420AD000F0BCFD01F0C2FA69
:10173000204600F0B7FD0F2101F034FB34700D4A54
:101740002B881188013393FBF1F201FB12332B80BC
:101750000AB070BD002BFBD001F060FA2680F7E7DD
:10176000801600207E16002068A60008180C0020B5
:101770007D1600201A0C0020A0F5A2400338012895
:1017800094BF0020012070470120704708B5FFF783
:10179000EDFE08BD13B502AB03E903000E4B1B7849
:1017A000ABB99DF8023000986BB102F0CFFF044650
:1017B0000146009802F084FF0099204602B0BDE87F
:1017C000104000F02FBA02F0A1FF0446F4E70098A1
:1017D00002F0BCFF0099F1E75917002003460068AA
:1017E0009988FFF7D7BF000038B50546084801249F
:1017F00000EBC510AC400022102101F01FF9E0B24F
:1018000003F017F92046BDE8384002F0ECBE00BFF7
:10181000DC0C002010B5012404FA02F204FA01F1F4
:10182000114304FA03F331EA00020CBF1843984352
:1018300010BD08B503F0E9F808B903F073F901F039
:101840007FF901F019FD01F057FEBDE80840FFF7F0
:1018500083BE08B501F0A4FB01F02CFD002001F0CF
:1018600013FEBDE80840FFF779BE704708B5FFF7E3
:10187000FCFF08BD08B5FFF7F9FF08BD7047000081
:1018800010B502F033FB01F04BFB03F08FFA00229E
:1018900004460321094801F0D1F8FFF7EFFF204685
:1018A00003F089FAF92805D901F0B8F9BDE810402C
:1018B00003F088BA642005F090FCF0E75C0E00208D
:1018C00038B50446FFF78AFF21460546FFF75EFF5D
:1018D00008B9002038BD2146284600F0FDFC00284C
:1018E000F7D02146284601F0BDFB0028F1D0214663
:1018F000284601F079FD0028EBD045F615439D42BE
:101900000ED845F602439D422DD2B5F5B84F58D0BA
:1019100045F601439D425AD02046FFF735FFD9E7EF
:1019200045F6DE439D4266D018D845F616439D42E3
:10193000F2D102F08DFFA278AF4B002A00F0538164
:1019400000F0AA00002815BF01220022352029201E
:101950001A7002F04DFF02F0E7FFBAE7A5F5B943B0
:101960007A3B062BD8D8A378002BD5D003F04DF8BE
:1019700008B903F0D7F803F060F8A04C45F60F4320
:101980009D42208000F007816BD845F608439D42B8
:1019900000F0E18041D845F604439D4200F0C68046
:1019A00030D845F602439D4200F0B78045F6034328
:1019B0009D4200F0B780208803F04BF802F096FAC1
:1019C00087E7A378002B84D0FFF75AFF81E7A3783D
:1019D000002B3FF47EAF8A490B78C3F3000282F0FC
:1019E000010262F30003D8074CBF864886480B709B
:1019F00003F066FB6DE7A378002B3FF46AAF03F0BA
:101A000091F866E745F606439D4200F0A08040F25B
:101A10009180237843F0200382E045F60B439D42FA
:101A200000F0A98012D845F609439D4200F0978046
:101A300045F60A439D42BED1237843F00C03237040
:101A400000227248042100F0F9FFB4E745F60D4387
:101A50009D4200F0988040F2928023786FF3C30398
:101A60005EE045F6FA439D4268D02CD845F6124315
:101A70009D4200F098800CD845F610439D4200F03E
:101A80008E8045F611439D4295D123786FF38613DE
:101A900046E045F614439D4200F09D80C0F08780EB
:101AA00045F615439D4286D12378C3F3800282F028
:101AB000010262F3820362F3C303190723704FF03C
:101AC00000027BD5BDE745F6FD439D425FD00CD8B3
:101AD00045F6FB439D4236D045F6FC439D427FF4DC
:101AE0006AAF63786FF300032BE045F6FF439D4236
:101AF00067D038D3B5F5BA4F7FF45DAF6378C3F3E1
:101B0000000282F0010262F3000362F3410363709A
:101B10009B074FF000025BD52AE0237843F00103D6
:101B2000237048E7237843F00203F9E7237843F072
:101B30000403F5E7237843F00803F1E7637843F003
:101B40000103637037E7637843F00203F9E7237812
:101B500043F01003E4E7237843F04003E0E7237801
:101B600043F08003DCE7637843F0030363700022F3
:101B70000421274867E723786FF30003D0E7237831
:101B80006FF34103CCE723786FF38203C8E76378F0
:101B90006FF34103D5E723786FF30413C0E723788D
:101BA0006FF34513BCE723786FF3C713B8E72378C7
:101BB00003F0F7036FF3820323700022022115481C
:101BC00041E7637803F0FD036FF3000363700022C5
:101BD0000221114837E72378C3F3C01282F00102D3
:101BE00062F3C7139CE71B78002B14BF3520292014
:101BF00002F006FEAFE600BF821600200C20002097
:101C0000F7170020B6A90008C7A900088C0C00200F
:101C1000BC0C00207C0C0020AC0C00200020704785
:101C20007047000030225043C1F30723062202FB15
:101C3000030353FA81F3034A32F8130082B002B06F
:101C4000704700BFDEA60008014B33F81000704754
:101C5000DAA9000813B5ADF804100199FFF7E2FF07
:101C600000F056F9B0F5A04F04462FD2B0F5804FE2
:101C700080F0D480E72816D8E0287BD2A72808D89F
:101C8000A5286DD2012875D001D3042872D2002472
:101C900070E0BE2871D9C028F9D3C03880B2FFF7F0
:101CA000D3FF044666E0B0F5005F08D2B0F5807F50
:101CB00003D2F028EBD340F4A044A4B25AE0B0F52C
:101CC000405F80F0A380C0F30B00E8E7B0F5AA4FB7
:101CD0001ED2B0F5A84FC3B280F0BF80B0F5A44FBC
:101CE00008D2B0F5A24FC0F09E804AF2F10040EA5F
:101CF00003243FE0B0F5A64F80F0A58098080124AA
:101D000003F003039C4044EA401444F40C44D4E739
:101D1000B0F5B24F0FD2B0F5B04F80F0A380B0F560
:101D2000AC4FB4D2C0B200F075F9040204F4F85418
:101D300044F400541EE0B0F5B44FC0F09880A0F514
:101D4000C043B3F5005FA2D2C0F3042000F062F9F3
:101D5000E4B2000200F4F85044F40054044309E0F3
:101D600000F0908044F2820244F28303A6280CBF64
:101D700014461C46204602B010BDA82800F08580FD
:101D8000A92800F08580AA2800F08580AB2800F003
:101D90008580AC2800F08580BB2800F08580BC28B9
:101DA00000F08580AD2800F08580B02800F08580A7
:101DB000AE2800F08580AF2800F08580B12800F0C3
:101DC0008580B22800F08580B32800F08580B42893
:101DD00000F08580B52800F08580B62800F0858069
:101DE000B72800F08580B82800F08580B92800F079
:101DF0008580BD2800F08580BE2800F08580BA2847
:101E000044F22A6418BF4FF48844B3E7C3B2020512
:101E10004CBF43F4484443F44044ABE7C0F30B04E5
:101E200044F42044A6E703F0030201249440C0F3E5
:101E3000011044F40C4444EA0024C3F3810344EA4F
:101E400043139CB296E79808012403F003039C40D7
:101E500044EA401444F40A442FE74AF2F40444EA02
:101E6000032487E74AF2F00040EA042425E700F063
:101E70000F0000F0CFF8C4F3031440EA042444F444
:101E800010441AE744F2810474E744F2E24471E733
:101E900044F2E9446EE744F2EA446BE744F2B544A5
:101EA00068E744F2B64465E744F2B34462E744F2BB
:101EB000B4445FE744F2B7445CE744F2CC4459E7EA
:101EC00044F2CD4456E744F2835453E744F28A5433
:101ED00050E744F292544DE744F294544AE744F2F6
:101EE000216447E744F2236444E744F2246441E771
:101EF00044F225643EE744F226643BE744F227645B
:101F000038E744F26F4435E744F2704432E70000AA
:101F1000822825D00CD8312863D004D8292859D05C
:101F20002A2865D0704735284DD0392818D07047F9
:101F3000E32830D004D8E02819D0E22826D0704712
:101F4000E62832D0E72835D0E42832D1304B5A7811
:101F500091072ED51B7813F0100F08BFE72012E071
:101F60002B4B1B7813F0030F18BFE0207047284A53
:101F70001378D90743D4527812F0010F19D013F017
:101F8000100F08BFE32018BF00207047204B1B78BC
:101F900013F0040FF2E71E4A1378590731D4527830
:101FA000D20730D413F0100FEDE7194B1B781A0746
:101FB000D1D47047164A1378190726D4527892075D
:101FC000F0D5E420F5E7124B1B7813F0200F18BF73
:101FD000292070470E4B1B7813F0200F18BF3520B7
:101FE00070470B4B1B7813F0400F18BF2A20704727
:101FF000074B1B7813F0400F18BF31207047392072
:102000007047E2207047E0207047E620704700BF2D
:102010000C200020294B1A78510707D500F0180131
:10202000082927D100F0F70040F00400110707D578
:1020300000F01801182926D100F0E70040F0140044
:102040005B78D90707D500F01801082924D100F0E2
:10205000F70040F00100990707D500F01803182B8E
:1020600023D100F0E70040F01100D30648BF00F094
:10207000E700704700F01401042904BF00F0FB00E2
:1020800040F00800D2E700F01401142904BF00F06A
:10209000EB0040F01800D3E700F01101012904BF64
:1020A00000F0FE0040F00800D5E700F01103112B0E
:1020B00004BF00F0EE0040F01800D6E70C2000202E
:1020C00070470000014B185C704700BF831600206A
:1020D000F8B50E480E4F0F4E0F4D02F0F1FF0024E1
:1020E0002146384602F0ECFF304602F0E9FF285D59
:1020F00002F078FC0146094802F0E2FF013408488A
:1021000002F0DEFF082CEBD1F8BD00BFF4A90008F7
:1021100003AA000879B200088316002008AA000864
:1021200055B1000870B5184E0024012556F824005A
:1021300000F00F01202205FA01F120F00F00013418
:1021400006F01EFB082CF1D1104E0024012556F894
:10215000240000F00F01202205FA01F120F00F0009
:10216000013406F00DFB062CF1D100200849094A84
:1021700003464354835401300828FAD100F06CF828
:10218000FFF757FB70BD00BF10AA0008DCA90008CC
:102190008B160020831600202DE9F74F0025294ECD
:1021A000DFF8B0B02F46AA464FF001085BF8254093
:1021B00016F8013F019324F00F0904F00F0408FA08
:1021C00004F401222146484686F800A006F0D8FA19
:1021D000A2B2A9F81A20032004F0FFFF1A4B002234
:1021E00053F8221021F00F0001F00F01D0F810E099
:1021F00096F900002EFA01F1C9075ABF08FA02F158
:1022000049B2002101320143062A3170E8D120226F
:102210002146484606F0B4FA3378019A01359342D4
:1022200018BF47F00107082DC0D13B462A46074991
:10223000074800F013F8FFF70CFB384603B0BDE881
:10224000F08F00BF8A160020DCA90008831600204A
:102250008B16002010AA000870470000F8B506464B
:102260000F4615460D4C2BB10123237002F09EFD45
:102270000B4B188023782BB1094B188802F09BFD7B
:10228000052808D8F8BDF25CFA5401339D42FADC07
:1022900000232370F6E70023F8E700BF9316002021
:1022A0009416002008B54538FEF798F90022084B2F
:1022B000FEF728FB02460B4600204FF0804107F056
:1022C0001BF80022034BFEF7F3F9FEF7A1FC08BD53
:1022D0000000284000807B4008B545F61D43984229
:1022E00005D18B7873B300F0DBFD002008BD45F607
:1022F0001E43984204D18B7823B300F0DFFDF4E74E
:1023000045F61F43984206D18B78DBB100F0C0FD43
:102310000028F2D1E7E745F62A43984209D18B78A5
:1023200083B100F0DBFD00220421074800F086FBAA
:10233000DBE745F62B43984204D18B7813B100F0CC
:10234000D3FDF0E70120D1E7740E002008B5FFF7B8
:10235000A9FF0F21BDE8084000F024BD08B5FFF734
:10236000A1FFBDE8084000F0A5BC00F057BC7047D5
:10237000084B186801301860074B8B420BBF074BA6
:10238000074919680B680BBF89189B1819600B6007
:10239000704700BFE41600203CAA0008DC160020AD
:1023A000E01600202DE9F04FBC4B87B01A7803935C
:1023B000002A00F01781BA4B1C68002C9A4640F3A3
:1023C0001181012CDFF824B3B64D4FF0000800F066
:1023D000A0804146DBF80000FEF70CFF002800F06B
:1023E0002D82B14B023C1B7855F82460AF4C002B7A
:1023F00000F02282276841463846FEF7FBFE00289F
:1024000040F0D28131463846FEF7FEFE002800F04B
:10241000CB813146A648FEF70DFEA649FEF70AFE1F
:102420004FF07C51FEF752FDFEF7EAF802460B46EC
:1024300000204FF0804106F05FFF02460B46384611
:10244000CDE90423FEF7DCF8CDE900013046FEF7C4
:10245000D7F8DDE90423FEF72BF902460B46DDE948
:102460000001FEF797FB002800F09E81D4F8009051
:1024700091484946FEF7DEFD8E49FEF7DBFD4FF041
:102480007C51FEF723FDFEF7BBF802460B46002009
:102490004FF0804106F030FF06460F464846FEF7F3
:1024A000AFF832463B46FEF703F9FEF7B1FB20607A
:1024B000206882490B884FF6FF7293421CBF01339C
:1024C0000B8000F017FD7E490646FEF79DFE00B129
:1024D0007C4E7D4C236803EB830303EB8303304680
:1024E0009F00FEF7DFFEBFB280B2B84206D0774948
:1024F0003046FEF7EBFCFEF7D5FE2060744805F091
:1025000008FA2146724805F0E4F90221704805F006
:10251000F2F9DBF80060DAF8007000213046FEF7CF
:1025200091FE002800F08C81012FDFF8C49125DD99
:10253000DFF8C0A1D9F80030DAF800B093FBF7F467
:1025400007FB14344FF07E51C9F800405846FEF79F
:10255000B5FB3146CAF8000055F82400FEF76AFDC5
:1025600001465846FEF76EFE40B1013494FBF7F386
:1025700007FB1344C9F80040CAF80080D9F80030BE
:1025800055F823004D490B884FF6FF7293421CBF4C
:1025900001330B8000F0AEFC49490646FEF734FEDD
:1025A00000B1484E4B4D2B6803EB830303EB8303D1
:1025B00030469C00FEF776FEA4B280B2A04206D060
:1025C00042493046FEF782FCFEF76CFE2860424826
:1025D00005F09FF92946404805F07BF902213E4865
:1025E00005F089F93D4F3B78002B00F0D4803C4E3C
:1025F000DFF8E080346800212046FEF723FE002843
:102600003AD02E4A13884FF6FF718B4218BF013320
:10261000204618BF138000F06DFCD8F8003003EBA3
:10262000830303EB83039C000546FEF73BFEA4B245
:1026300080B2A04220D02549234C2846FEF746FC14
:10264000FEF730FE0546C8F80000234805F061F9A2
:102650002049214805F03DF902211F4805F04BF9BA
:102660001B48256005F055F92146194805F031F958
:102670000221174805F03FF91A4C1B4D2088013004
:1026800080B22080FEF7CEFB4FF082418146286861
:10269000FEF71CFCD8F800302EE000BFEC1600203E
:1026A000F81600209C160020940E0020C016002072
:1026B0000000DCC3000040410000DC439A1600200B
:1026C0000024F441F628F441A80E00200000C8427E
:1026D000AC240020980E00209C240020ED16002041
:1026E000C4160020CC160020C8160020F0160020CA
:1026F000F4160020E816002003EB830303EB8303AA
:102700009B009BB20146A046002B00F04381AA4BE0
:102710001B78002B40F03E814FF07E51FEF7CCFA43
:1027200049464FF00104FEF779FD00B90446E4B2D2
:10273000002C30D0A14BA2491A880988013292B2EC
:1027400091421A8006D89F4A1478002C00F0288104
:1027500000221A809C4A1C88D2F80090964A117870
:10276000002940F0438101211170621E92B21A804B
:1027700059F8324009EBC20320469968FEF73AFD4A
:102780004FF07E53002800F01581002232602B604C
:102790000023A8F800308D4B1B7813F0010302BF13
:1027A000039A3B70137002E1276800213846FEF758
:1027B00021FD002839D1DAF80030023B384655F8BF
:1027C00023603146FEF73EFD78B331468048FEF780
:1027D00031FC8049FEF72EFC4FF07C51FEF776FB72
:1027E000FDF70EFF02460B4600204FF0804106F039
:1027F00083FD02460B463846CDE90423FDF700FF72
:10280000CDE900013046FDF7FBFEDDE90423FDF7CD
:102810004FFF02460B46DDE90001FEF7D9F920B172
:10282000D4F800906C48494624E6DAF80030023BC0
:1028300055F8233023603BE6266039E6404638E60B
:102840007B1E664C55F823B0654B1B78002B00F0BF
:102850009E80266800213046FEF7CCFC002851D12E
:1028600059463046FEF7D0FC00284BD059465A480E
:10287000FEF7E0FB5749FEF7DDFB4FF07C51FEF71A
:1028800025FBFDF7BDFE02460B4600204FF08041C0
:1028900006F032FD804630468946FDF7B1FE064619
:1028A00058460F46FDF7ACFE42464B46FDF700FF8B
:1028B00002460B4630463946FEF76CF910B32568E0
:1028C00043482946FEF7B6FB4249FEF7B3FB4FF0FB
:1028D0007C51FEF7FBFAFDF793FE02460B46002003
:1028E0004FF0804106F008FD06460F462846FDF7EA
:1028F00087FE32463B46FDF7DBFEFEF789F9206096
:1029000020683FE6266800213046FEF773FC002869
:1029100036D1DAF80030013B304655F823B059463D
:10292000FEF790FC60B359462948FEF783FB29491E
:10293000FEF780FB4FF07C51FEF7C8FAFDF760FE12
:1029400002460B4600204FF0804106F0D5FC804641
:1029500030468946FDF754FE064658460F46FDF7B9
:102960004FFE42464B46FDF7A3FE02460B4630465D
:102970003946FEF72DF918B1256817482946A1E711
:10298000DAF80030013B55F823302360B8E7C4F88B
:1029900000B0B5E748464FF00104FEF749FCC4E635
:1029A000104804F0B6FF104804F0B3FF3C7007B0C5
:1029B000BDE8F08F3460EAE6CE16002098160020BD
:1029C000D0160020D8160020D4160020961600201D
:1029D0000000DC43000040410000DCC3BC160020C6
:1029E000940E00209C240020AC24002000231370AF
:1029F0000C4A138059F8343033600B4B1878FEF7CB
:102A00000DFA0A49FEF716FB09EBC40406464FF01F
:102A10007A516068FEF75AFA01463046FEF756FAD8
:102A20002860B5E69A160020C80E00200000C842B3
:102A3000014804F0BDB900BFECAB00082C4B1B787B
:102A400070B504460E4615460BB900F079F8294BCF
:102A50001B78DB074BD5284B1B780BB100F0DEF859
:102A6000264B01221A70264B1C60264B1E80264BDB
:102A70001D70264B00221A60254B226800251D8000
:102A8000244B1A60244B1878FEF7C8F92349FEF747
:102A9000D1FA4FF07A5106466068FEF717FA014600
:102AA0003046FEF713FA1E4B1E4918601E4B1F4896
:102AB0001D8004F00EFF02211C4804F01CFF1C487E
:102AC00004F027FF1B491A4804F003FF02211848AD
:102AD00004F011FF184804F01CFF1849164804F0D0
:102AE000F8FE02211448BDE8704004F004BF70BD38
:102AF0009716002096160020EC160020ED160020F8
:102B0000D4160020D0160020D8160020E816002089
:102B100098160020C4160020C80E00200000C842ED
:102B2000C8160020B80E0020CC160020BC240020BF
:102B30009C240020980E0020AC240020A80E002029
:102B400038B5274C2278002A48D101F05EFF08B939
:102B500001F0E8FF01F089FF224D032228701021C7
:102B60004FF0904005F00CFE032220214FF09040E2
:102B700005F006FE1C491D4804F087FE1C491D484F
:102B800004F083FE1C491D4804F0A3FE02211B48EB
:102B900004F0B1FE1A491B4804F09BFE02211948BB
:102BA00004F0A9FE6423184A1849104804F07BFE7B
:102BB0006423174A17490F4804F075FE0123237058
:102BC0002B78DB0706D5002205211348BDE83840E5
:102BD000FFF734BFBDE8384000F020B838BD00BF73
:102BE000971600209616002030AA0008A82300207F
:102BF00036AA0008D4230020980E00209C24002030
:102C0000A80E0020AC2400203CAA0008CCAB000891
:102C100004AB0008DCAB0008D00E0020174B1B787B
:102C2000DB0710B502D5164802F04AFA154B1B789F
:102C30000BB9FFF785FF144B144800241C6004F007
:102C400068FE134804F065FE124804F062FE124B61
:102C500012491C70124B1C70124B00221A60124B4E
:102C60001A60124B1C602346114C184644F823206E
:102C700041F823000133082BF8D110BDF7170020CD
:102C800017AC000897160020F81600209C2400209E
:102C9000AC240020BC240020ED16002000170020EA
:102CA000EC160020BC160020C0160020FC160020E8
:102CB0009C160020F8B52C4B1B78DB07074605D582
:102CC000FEF7CAFA0146294802F0FAF9284E33788D
:102CD000002B39D0274B1B780BB9FFF731FF264D5E
:102CE0000724394655F82400FEF784FA002836D028
:102CF000224A0021002042F8240045F82410A400B4
:102D00002B1914441E4A93421FD11E4B1A68013AD4
:102D100048BF00221A601C681B4B1A68A242A4BF5D
:102D200000221A6084B9194804F0F3FD184804F031
:102D3000F0FD184804F0EDFD174A347000231360CD
:102D4000164A1360164B1C60F8BD53F8045F43F835
:102D5000045C54F8045F196044E90150D3E714F1AE
:102D6000FF34BED2D1E700BFF71700202CAC00081B
:102D7000EC160020971600209C160020001700205B
:102D8000B8160020F8160020F41600209C2400201D
:102D9000AC240020BC240020BC160020C01600205B
:102DA000FC1600202A4B1B78DA0770B506460D4644
:102DB00006D5FEF751FA2A460146264802F080F968
:102DC000254B1B780BB9FFF7BBFE244B1B78DB07A9
:102DD0003CD5234C2368072B38DC224B1B780BB1E6
:102DE000FFF71CFF204B01221A70204B00221A8093
:102DF00000213046FEF726FA40B123681C4A42F80B
:102E000023601C4A42F82350013323601A491B48AF
:102E100004F05FFD0221194804F06DFD184804F02C
:102E200078FD1849164804F054FD0221144804F0B6
:102E300062FD154804F06DFD1449134804F049FD86
:102E400002211148BDE8704004F055BD70BD00BFBF
:102E5000F7170020F8AB0008971600209616002000
:102E6000F8160020ED160020EC1600209A1600201F
:102E70009C16002000170020B80E0020BC24002063
:102E80009C240020980E0020AC240020A80E0020D6
:102E9000024B187800F00100704700BF9616002022
:102EA00008B5054B187840F00100187001F0E0FDFE
:102EB000BDE80840FFF75BBA9616002008B5FFF79B
:102EC000ADFE054B18786FF300001870C0B2BDE876
:102ED000084001F0CDBD00BF96160020014B002236
:102EE0001A70704720170020014B00221A7070479B
:102EF00020170020064B1B7843B9064A1370064B77
:102F00004FF07C521A60054B00221A60704700BFD8
:102F100020170020940E0020CC0E0020F016002078
:102F2000024B1B780BB1FFF720BA70472217002025
:102F300008B5FEF721FC08BD08B5FFF7F1FF044B0B
:102F4000044800221A700821BDE80840FFF776BD4A
:102F5000221700201C100020034B044800220821E7
:102F60001A70FFF76BBD00BF21170020F80E00207C
:102F700010B5FFF7D5FF084A08481378013303F06E
:102F800003031370282404FB030000220521BDE87D
:102F90001040FFF753BD00BF780F00207C0F0020CA
:102FA000F8B5174B1B788BB1164C208840B901F04F
:102FB000FDFE2080144C154E237843B15A1E08E0C4
:102FC00001F0F9FE124B1B888342F0D3F8BD327832
:102FD000013A104D10492878CF5C10B1885CFFF79A
:102FE000BDF92B7813B13846FFF7B0F92378317863
:102FF000013393FBF1F201FB12332370E6E700BFCC
:103000003417002038170020351700203317002010
:10301000A010002022170020231700207047000076
:1030200008B5054B054801221A7008210022FFF758
:1030300005FDFFF7F3FF08BD2217002060100020F8
:103040007047000008B5054B054801221A70082199
:103050000022FFF7F3FCFFF7F3FF08BD2117002064
:10306000380F00202DE9F04145F6264398428AB0FA
:10307000054606D18B78002B3ED0FFF7D1FF00200C
:1030800053E045F62743984205D18B78002B33D087
:10309000FFF752FFF3E745F62843984206D1654B08
:1030A0008A781B7842B3002BF2D1E6E745F62C4331
:1030B000984204D18B78FBB1FFF7C4FFDFE745F6F8
:1030C0002D43984204D18B78B3B1FFF745FFD6E783
:1030D00045F62E43984206D18B786BB1564B1B7840
:1030E000002BF2D1E8E745F62943984204D18B78CA
:1030F00013B1FFF73DFFC2E74E4B1A7822B94E4B92
:103100001B78002B00F094808E78002E3DD0E02DAF
:103110000ED1FFF705FF494B01221A70484B0020E2
:103120001870484B1870484B18700AB0BDE8F08111
:10313000E22D0BD1FFF7F4FE404B1A7812B1404A52
:1031400001211170002018703E4BEDE7E32D0FD1E7
:103150003B4B1B78CBB1FFF7E3FE384B00201870D8
:10316000384B01221A70394B1870394B1880DCE744
:10317000522D04D1374A13880A3B13807FE7512D23
:1031800003D1344A13880A33F7E74B783248097879
:10319000062404FB030313F801C0304B1C78304BAA
:1031A0001B6824341C442F4B1B78E4B2BBB9644425
:1031B000E4B2002E36D012B12046FFF7C7F81F4BFD
:1031C0001B782BB1204A28491378CC540133137053
:1031D0002846FFF7ADFE80F00100C0B2A5E7234B03
:1031E00001AF03F1200818685968BE46AEE8030035
:1031F000083343457746F6D11988AEF800109B781E
:103200008EF802300C21BCFBF1F303EB430001FB11
:1032100013C30AA951FA83F304EB800413F8243C86
:103220001C44C5E7002AD3D02046FFF797F8CFE724
:1032300001207AE7221700202117002037170020ED
:1032400036170020341700203317002035170020D0
:1032500038170020A0100020AEA60008A210002001
:103260005C100020780F0020231700208BA6000898
:1032700008B5FEF7DFF908BD10B50C4C20224FF45D
:103280008051204605F07CFA20224FF40051204660
:1032900005F076FA226923691B0BC2F3003203F0B2
:1032A00002031343024A137010BD00BF000400481C
:1032B0003A170020184B1A691B6910B51B0BC2F393
:1032C000003203F002031343144A154C117843EA09
:1032D0008103DBB21370134A03F00F03D35C22782F
:1032E00013445BB2032B237003DD00210846FFF774
:1032F000BFFF94F90030033303DA01210020FFF708
:10330000B7FF94F900305A4202F0030203F00303BE
:1033100058BF5342237010BD000400483A170020E4
:103320003B17002044AC0008F8B5154682781F46CC
:103330000C462B4B92B1197001F038FD294B1880C7
:1033400004F12003DBB2072B49D804F00704012065
:10335000A040C0B2BDE8F84000F07EBB1E788E42AF
:103360002ED1204B188801F026FDC72828D8AE4260
:1033700005F1200415D006F12003DBB2072B06D897
:1033800006F007060120B040C0B200F06EFBE3B2C9
:10339000072B1FD805F0070301209840C0B200F0AA
:1033A0005BFB3846E4B200F047FB072C17D805F06A
:1033B00007050120A840C0B2BDE8F84000F055BBA9
:1033C00004F12003DBB2072B09D804F00704012025
:1033D000A040F0E73846BDE8F84000F02DBBF8BD4E
:1033E0003C1700203E17002008B545F6F34203467F
:1033F0009342084626D012D845F6D84293421DD0B3
:1034000045F6D94293422DD045F6D74293420FD18B
:10341000E12226231146FFF787FF002008BD45F66D
:10342000F542934216D011D345F6F642934215D099
:103430008078D0B10E4B00221A70EFE72723E522E7
:10344000E521E8E72623E122E021E4E72723E5223E
:10345000E421E0E72623E122E221DCE72723E5223D
:10346000E621D8E728230122EAE70120D6E700BFBA
:103470003C17002008B5FEF703F908BD704708B5F2
:10348000FFF7FCFF08BD00002DE9F047174EDFF8FD
:1034900064900024804625462246374659F8241079
:1034A00021F00F0301F00F011B69CB40DB4303F058
:1034B0000103D9B2A3401D430D4BA15514F803C01D
:1034C0008C45E0B29A4602D1B8F1000F02D0FFF766
:1034D000D1FF01220134042CE0D112B12846FFF7BC
:1034E000CEFF3B68CAF80030BDE8F08740170020E7
:1034F0004417002054AC000870B50B4E0024012581
:1035000056F8240000F00F01202205FA01F120F006
:103510000F00013405F034F9042CF1D10120BDE88D
:103520007040FFF7B1BF00BF54AC0008014B1860FA
:10353000704700BF48170020024B186808B10368A5
:103540001847704748170020F8B5194B1B68054607
:10355000002B2BD0174A127842B1174A92F900205B
:10356000002ABFBF0278427005220270134C5B68CC
:10357000284698472378580718D5D90702D5104808
:1035800001F09EFD0F4F00262378DA0703D5A95DD1
:10359000384601F095FD0136082EF5D12378DB077A
:1035A00004D50948BDE8F84001F08ABDF8BD00BF68
:1035B00048170020041200200C200020F7170020DC
:1035C00064AC000876AC000855B10008034B1B68DA
:1035D0001BB1022101709B681847704748170020F3
:1035E000054B1988814205D01880044B1B680BB12C
:1035F000DB681847704700BF4E17002048170020AF
:10360000054B1988814205D01880044B1B680BB10B
:103610001B691847704700BF4C170020481700204F
:103620007047704708B5FFF7FCFF08BD704708B545
:10363000FFF7FCFF08BD08B5FFF7F2FFFFF7F2FF49
:1036400008BD0120704708B501F07CFBFEF76AFD5C
:1036500001F0D4FEFFF7EBFF08BD000038B50E4CBB
:1036600023780546580711D5D90702D50B4801F034
:1036700027FD2378DA0703D52946094801F020FD04
:103680002378DB0702D5074801F01AFD2846BDE87C
:103690003840FEF7EFB800BFF71700207CAC0008F9
:1036A00003AA000855B100082DE9FF47FEF774FD95
:1036B000FFF7C7FF00284DD0314EDFF8CC90002433
:1036C00037465FFA84F84046FEF7FCFCA55D85426C
:1036D00082463CD099F80030980701D5FEF7F8FCF7
:1036E00085EA0A050023EDB245FA03F1C907DAB20B
:1036F0002AD501259D401AEA050F14BF0123002396
:103700008DF800208DF802308DF8018001F04EFB1D
:1037100040F001006B46ADF8040093E8030000F0B0
:1037200035F83B5D6B403B55164C02F04DF9FFF709
:1037300003FF2378834220D0FFF7FEFE207004B001
:10374000BDE8F047FFF78ABF0133062BCCD1013427
:10375000082CB6D14FF6FF73ADF8083000238DF872
:103760000A3001F023FB40F00100ADF80C0004AB7F
:1037700013E9030000F00AF8D6E704B0BDE8F087CB
:103780005117002050170020F717002084B06B4617
:1037900083E803000022ADF80E2093E8030004AB99
:1037A0000290ADF80C1013E9030004B000F046BE1F
:1037B000008800F0EDBF10B50446002800F0DE8060
:1037C000822814D1FFF7B8FE810700F1D780392095
:1037D00001F00EF801F0A8F842F2107003F0FDFCC1
:1037E000392001F00DF8BDE8104001F09DB88328A4
:1037F0000FD1FFF7A1FEC20700F1C080532000F0F7
:10380000F7FF01F091F842F2107003F0E6FC53204C
:10381000E7E784280FD1FFF78FFE430700F1AE8062
:10382000472000F0E5FF01F07FF842F2107003F04E
:10383000D4FC4720D5E7031FDBB2A02B08D802F049
:103840007FFC002840F09A80204600F0D1FFCAE7B4
:1038500000F12003DBB2072B07D800F0070401209A
:10386000A040C0B200F0FAFFBDE700F15B03DBB29D
:10387000022B0BD8A52807D0A6280CBF82208320B6
:10388000BDE81040FFF7ACBE8120F9E700F1580316
:10389000DBB2162B6AD8A82832D0A92832D0AA28A1
:1038A00032D0AB2832D0AC2832D0BB2832D0BC28A2
:1038B00032D0AD2832D0B02832D0AE2832D0AF28A6
:1038C00032D0B12833D0B22834D0B32835D0B42880
:1038D00036D0B52837D0B62838D0B72839D0B82850
:1038E0003AD0B9283BD0BD283CD0BE283CD0BA281D
:1038F00040F22A2018BF0020BDE81040FFF780BE2C
:10390000E220F9E7E920F7E7EA20F5E7B520F3E759
:10391000B620F1E7B320EFE7B420EDE7B720EBE7FF
:10392000CC20E9E7CD20E7E740F28310E4E74FF44D
:10393000C570E1E74FF4C970DEE74FF4CA70DBE70A
:1039400040F22120D8E740F22320D5E74FF4097058
:10395000D2E740F22520CFE740F22620CCE740F224
:103960002720C9E76F20C7E77020C5E7EF2805D9F2
:1039700001F0CAFEBDE8104001F0C2BF10BD08B59D
:10398000002858D082280FD1FFF7D6FD810752D5E5
:10399000392000F02DFF00F0C7FF392000F030FF84
:1039A000BDE8084000F0C0BF83280AD1FFF7C4FD7E
:1039B000C20740D5532000F01BFF00F0B5FF532095
:1039C000ECE784280AD1FFF7B7FD430733D547203A
:1039D00000F00EFF00F0A8FF4720DFE7021FD2B281
:1039E000A02ADBD900F12002D2B2072A07D800F0C2
:1039F000070301209840C0B200F038FFD0E700F183
:103A00005B02D2B2022A04D80020BDE80840FFF7CA
:103A1000E7BD00F15802D2B2162A04D80020BDE852
:103A20000840FFF7EDBDEF2805D901F0E1FEBDE844
:103A3000084001F065BF08BD10B50446FFF7BBFEA6
:103A4000392C0CBF4FF4FA50012003F0C6FB20467E
:103A5000BDE81040FFF793BF08B528B100F0FEFEA7
:103A6000BDE8084000F060BF08BD08B528B100F00F
:103A7000FDFEBDE8084000F057BF08BD2DE9F04746
:103A800090F80690857807460C464FEA19190DB153
:103A900000F00AFF00F0D2FE804670B11DB304F1C1
:103AA0002003DBB2072B1ED9022000F083FF00F0B9
:103AB000C5FE80F001005FFA80F8C4F303360F2ED4
:103AC00040D8DFE816F0130013005A005A00AB008C
:103AD000C4003F003F00F800500162016201C301D1
:103AE0003F003F00CC014FF00008E6E7C4F3072396
:103AF000C4F3032613F0F00F18BF3601E4B295B1FA
:103B000056B104F12003DBB2072B304600D93CB993
:103B100000F0A4FE00F008FF2046FFF74CFE11E085
:103B200000F0B2FEF6E72046FFF729FF56B104F198
:103B30002003DBB2072B304600D9DCB900F096FE3B
:103B400000F0F2FEB8F1000F00F0908100F06EFE80
:103B500010F0010040F08A81B87000F05FFE00F0C4
:103B600075FD384600F086F900F058FEBDE8F047D4
:103B700000F076BD00F090FEE2E7C4F3072303F007
:103B8000F003C4F30326202BE4B218BF360164B15E
:103B9000012C2CD0ADB3B9F1000F2CD0BB79D907D3
:103BA000BAD56FF30713BB7125E09DB1B9F1000FD2
:103BB00006D100F095FE3043C0B2FFF74DFFC1E7DC
:103BC000B9F1010FF5D100F08BFE3043C0B200F027
:103BD00093FEB7E7B9F1000F05D100F099FE30462A
:103BE000FFF743FFAEE7B9F1010FABD0F5E725B121
:103BF000B9F1050FA6D83046DFE7B9F1040FA1D817
:103C0000EDE7B9F1000FEAD0392C03D14FF4FA50A7
:103C100003F0E3FA2046FFF7B2FE93E7C4F38123F3
:103C20002BB1012B0BD0083E032E61D98AE725B1B9
:103C3000C4F30900FFF7D4FC84E72846FAE725B16E
:103C4000C4F30900FFF7DCFC7CE72846FAE7E0B2A2
:103C5000CDB1F5280DD0F62810D0F42804D1844A2F
:103C6000136843F00103136001F04EFD01F048FEBC
:103C700068E77F4A136843F00203F4E77C4A13685D
:103C800043F00403EFE7F5280BD0F6280ED0F42814
:103C900004D1774A136823F00103136001F0A8FDF3
:103CA000E4E7734A136823F00203F6E7704A1368E7
:103CB00023F00403F1E714F4407F27D1C5B9E206ED
:103CC000C4F3421048BF0F254FEA800048BF85402B
:103CD00004F00F03C4F3812448BFED438340022C5A
:103CE00045EA03000CD00ED8012C06D000F086FC6B
:103CF000FFF722FCFDF7BEFD24E700F077FCF7E7B5
:103D000000F084FCF4E700F06EFCF1E7C4F301225C
:103D1000D3B2EDB102F00103002BE9D0C4F342109D
:103D2000830004F00F0000FA03F214F010001CBF2F
:103D30000F209840C4F3812418BFC043022C40EAEE
:103D400002000AD00CD8012C04D000F0A7FCCFE769
:103D50005B08E1E700F09AFCCAE700F0A7FCC7E7C0
:103D600000F060FCC4E7E6B2C4F3032435B120469A
:103D700000F06CFC3046FFF76FFEB9E73046FFF706
:103D800074FE204600F06CFCB2E75FFA84FAAAF1F8
:103D9000F003042B3DD8DFE803F00310161D2600C6
:103DA00045B1B9F1040F3FF63EAFC4F3042000F073
:103DB00063FC38E7B9F1050FF5E7C4F3042035B12A
:103DC00000F044FC2FE7C4F30420002DF8D000F0ED
:103DD00047FC28E725B1C4F3042000F032FC22E7B9
:103DE00000F02CFC1FE74DB1C4F30424204600F082
:103DF0002DFC0321204600F0C3FD14E7012000F054
:103E0000D9FDB9F1010F7FF60EAF022000F0D2FD0F
:103E100009E74DB1B9F1000F03D05046FFF7CBFCD5
:103E200001E7C4F30420CBE7B9F1000F0BD0BAF1DE
:103E3000390F0CBF4FF4FA50012003F0CEF9504671
:103E4000FFF79DFDEFE6C4F30420C0E7C4F30322AF
:103E5000E1B23846FDF7E2FE00F05CFB72E6C4F327
:103E60000322E1B23846FDF7DBFE6BE6BDE8F087E2
:103E70005C17002037B583880288ADF8042004461B
:103E8000C3B1BDF804204FF6FF739A4212D0FDF77C
:103E900017FD78B12188A07800F086FC054600F077
:103EA0000DFC00F09FFB2946204603B0BDE83040E2
:103EB000FFF7E4BD03B030BD08B500F0F5FC00F03D
:103EC00009FD00F031FD01F0FDFD01F019FD0020BC
:103ED000FFF786FB0020BDE80840FFF791BB08B55F
:103EE00000F096FCBDE80840FFF7E6BF08B500F01B
:103EF000C5FCBDE80840FFF7F2BFC0F303330E3343
:103F000003F00F020D2A0CD80123934013F4105F25
:103F1000C1B217D140F20330184004D113F010039E
:103F20000BD100207047F02902D003D8E729F8D838
:103F300001207047F429F4D1FAE7E729F8D9F129EB
:103F4000F6D07047C0F3C020704707B5ADF8040045
:103F5000019800F01DFC03B05DF804EBFFF7CDBF46
:103F600082B002AB03E9030002B0704782B002AB3B
:103F700003E9030002B0704770B5094B094E1C7885
:103F8000094D3378A34200D170BD05EBC40355F849
:103F9000340059680134FFF7E9FF04F00704F0E743
:103FA000A9170020A817002068170020024B1868E6
:103FB0005968FFF7DBBF00BF60170020284A9379DC
:103FC00013F0F00F2DE9F3410CD1937853B1254B49
:103FD000DFF898C01978244D4FF6FF769CF8003032
:103FE0008B4202D102B0BDE8F0819388002B33D020
:103FF000177892F801E08DF804708DF805E0BDF8AF
:104000000400B04228D0C8002C1894F80180F04574
:1040100022D115F831E0BE451ED1A778E7B9A488B2
:10402000A3428ABFF31AE31A1B19C72BCCBF002384
:1040300001238BB19379012161F3071393712B183D
:1040400007489A7961F307129A71FFF713FF02B0DC
:10405000BDE8F041FFF790BF013101F00701BDE776
:1040600060170020A917002068170020A81700205B
:104070002DE9F047A54C05468EB0A7880068218839
:1040800008900DF1200C2A786B7895F80280B5F82D
:104090000490ADF8041094F800E06078002F00F070
:1040A0003D818EB24FF6FF718E4200F03781A678C7
:1040B000002E00F033814F458ABFCF1BA9EB0707C5
:1040C0004F44C72FA179CCBF0027012701F0F00A88
:1040D000002F00F0C980BAF1000F7BD18DF80900E4
:1040E0008DF808E0BDF808C04FF6FF7084454646DD
:1040F00018D08DF820208DF821302088BDF820C000
:1041000084450FD176B9012363F30711A171FFF73D
:104110004DFF7E48FFF7AEFEA379AB7130460EB07F
:10412000BDE8F087B9F1000F08D1B8F1000FF5D064
:10413000A37943F00103A3710026EFE78DF81C205B
:104140008DF81D30BDF81C004FF6FF718842ECD091
:10415000B8F1000FECD16E486E4990F800C00978B4
:104160006D4861450FD18DF820208DF821300898D9
:1041700000F00EFBC0F30332C3B2032A1DD8DFE800
:1041800002F01313212100EBC10494F801E09E45D5
:1041900006D110F831E0964502D1A478002CBDD1AB
:1041A000013101F00701DCE710F4706F01D0002B42
:1041B000B4D02033DBB2072BB0D92846FFF75AFE24
:1041C0003E46ABE710F4706FF3D0AA7912F0F00F0F
:1041D000EFD1A3E78DF80D008DF80CE0BDF80C6071
:1041E0004FF6FF70864216D08DF820208DF82130D2
:1041F0002088BDF8206086420DD1B8F1000F0AD1A9
:10420000A9712846FFF736FE2B6823606B68636050
:10421000FFF7CCFED4E78DF820208DF821300898E8
:10422000FFF793FEE0B1B8F1000F19D0A3791F2B6F
:104230000CD92288ADF8282000228DF82A20ADF86C
:104240002C908DF82E300AA8FFF714FE2B682360FF
:104250006B686360FFF7B2FEFFF7A8FE01265DE71B
:104260002846FFF707FEF9E7BAF1000F13D18DF8E2
:1042700020208DF821308DF82280ADF824909CE824
:104280000300FFF76DFE2148FFF7F4FD276067602C
:10429000FFF78CFE50E78DF811008DF810E0BDF8A7
:1042A00010704FF6FF70874214D08DF820208DF8E3
:1042B00021302088BDF8207087420BD1B8F1000F63
:1042C00008D1A9712846FFF7D5FDC4F80080C4F8CD
:1042D000048023E78DF820208DF821300898FFF71F
:1042E00034FE0028BCD0B8F1000FB9D0A3791F2B41
:1042F000ACD92288ADF8302000228DF83220ADF8FC
:1043000034908DF836300CA89EE700BF601700206F
:10431000A8170020A917002068170020002F72D0CE
:104320008DF814E08DF81500BDF814104FF6FF76E7
:10433000B14268D0A178002965D14F4539D8A9EBA1
:104340000707C72FCCBF00260126002E4CD04646BB
:10435000002E85D08DF818E08DF81900BDF81800F2
:104360004FF6FF7188422DD08DF820208DF8213036
:104370002188BDF82000884224D1A379DA071CD413
:1043800013F0F00F19D003F0F002F02A1CBFC3F3B2
:1043900003120132AB711CBF62F30713AB712846E5
:1043A000FFF768FD2B6823606B686360FFF7FEFD15
:1043B000B4E6F61B4E44C72EC4E72B6823606B6837
:1043C0006360ABE68DF820208DF821300898FFF768
:1043D000BCFD00287FF43AAFA379284643F00103DF
:1043E000A371FFF747FD99E68DF82280ADF8249080
:1043F0008DF820208DF821309CE80300FFF7B0FDF8
:1044000026606660D2E7B8F1000F3FF429AF8DF85F
:1044100020208DF821300898FFF797FD06460028E8
:104420003FF41EAF2B6823606B6803486360FFF79F
:10443000BFF9FFF7C3FDB9E760170020F0B587B0FB
:104440006C4684E803002046FFF712FE2D4E2E4DE9
:10445000074688B1BDF80430BDF80020ADF808204B
:1044600043B192B24FF6FF739A4203D094E803002F
:10447000FFF77CFD254C40E094E8030004AB83E8A3
:104480000300BDF80420BDF81010ADF80C10002A90
:10449000F0D089B24FF6FF729142EBD03478297890
:1044A000621C02F007028A420BD0184F327003CB15
:1044B00007EBC40C47F83400CCF80410FFF75CFDA0
:1044C000D8E7FFF713FD124B37702F701F605F6046
:1044D00007B0F0BD04EBC000FFF7CAFD0028F7D01D
:1044E0002B7804EBC30254F833005168FFF73EFD0C
:1044F0002B78013303F007032B702878337883423D
:10450000E8D1E5E7A8170020A917002068170020C8
:1045100060170020F8B5034660B100250126187821
:10452000732803F1010406D8042827D201280ED0ED
:10453000022826D0F8BD75283CD031D3A0F18403E1
:104540006F2BF7D800F07F00FFF719FA0EE09C1CE4
:104550005B7803F12002D2B2072A0ED803F00703DA
:104560009840C0B200F0A6F900F0DEF92F46013FF6
:10457000FFB2FF2F21D12346D1E71846FFF71BF9E1
:10458000F4E758789C1C00F12003DBB2072BDBD842
:1045900000F0070006FA00F0C0B200F093F9E3E77C
:1045A0005F789C1C013FFFB2FF2FDFD0642002F038
:1045B00014FEF7E79C1C5D78D8E7642002F00DFE3E
:1045C000D5E7704708B5FFF7FCFF08BD08B5FFF752
:1045D000F9FF034B1860BDE80840FFF76DBC00BF52
:1045E000AC1700207047FFF7F1BF0000024B1B68BB
:1045F0001843FFF7EBBF00BFAC170020024B1B684E
:104600001840FFF7E3BF00BFAC170020024B1B6848
:104610005840FFF7DBBF00BFAC17002008B5FCF720
:104620009FFF08BD08B5FFF7F9FF034B1860BDE811
:104630000840FFF741BC00BFB01700200020FFF783
:10464000F1BF012303FA00F0FFF7ECBF012303FAE7
:1046500000F0024B1B681843FFF7E4BFB0170020BF
:10466000012303FA00F0034B1B6823EA0000FFF765
:10467000D9BF00BFB0170020012303FA00F0024B9E
:104680001B685840FFF7CEBFB0170020024B1B68D5
:104690001843FFF7C7BF00BFB0170020024B1B68CD
:1046A0001840FFF7BFBF00BFB0170020024B1B68C8
:1046B0005840FFF7B7BF00BFB01700207047000099
:1046C000C0F3072303EB430300EB430303F0FF03B3
:1046D00037B503F0070201209040DB080A4A03EBDC
:1046E0008303C0B21344002413F8015F21FA04F2DB
:1046F00042F300026A40024001346A40052C1A70FD
:10470000F2D103B030BD00BFB3170020C0F30723C0
:1047100003EB430313B500EB430000F0FF0000F090
:1047200007040949C00800EB80000022014410463C
:104730008B5CE34003F00103934001321843052AE8
:10474000C0B2F5D102B010BDB41700200E4B73B546
:104750001E680E4BADF804001B681F241E4326FA8A
:1047600004F3DB07E5B206D414F1FF34F7D20025D9
:10477000284602B070BD01992846FDF76BFA80B259
:104780000128F1D0F4E700BFB0170020AC170020DB
:1047900007B5ADF804000198FFF7D8FF019903B001
:1047A0005DF804EBFDF756BA13B5104BADF80410E5
:1047B0001B782BB1019802B0BDE81040FFF7E8BFAD
:1047C00070B10198FFF7C2FF044601460198FFF758
:1047D00077FF0199204602B0BDE81040FDF73ABAD4
:1047E0000198FFF793FF0446F3E700BF5917002035
:1047F000024B0146186800F00DBA00BFA41000205B
:10480000024B0146186800F01DBA00BFA41000203A
:10481000014B186800F02EBAA4100020024B93F947
:104820000000C0F3C7007047F3170020024B187850
:1048300000F00700704700BFF3170020034B187803
:1048400010F0070018BF0120704700BFF3170020C9
:10485000014B1878704700BFF5170020024A137803
:1048600018431070704700BFF5170020024A1378F4
:1048700023EA000010707047F5170020014B00225A
:104880001A707047F5170020024A13781843107009
:10489000704700BFF6170020024A137823EA000091
:1048A00010707047F6170020014B00221A707047F5
:1048B000F6170020024A137818431070704700BFA3
:1048C000F2170020024A137823EA000010707047A4
:1048D000F2170020014B00221A707047F2170020D7
:1048E000014B1878704700BFF4170020704708B5D7
:1048F000FFF7FCFF08BD000008B5044B19788142A2
:1049000002D01870FFF7F3FF08BD00BFF4170020B6
:1049100008B5044B1A781AB100201870FFF7E7FFAA
:1049200008BD00BFF417002010B50D4B0D491B78D2
:1049300009780D4C0B430D49206809780B430C494D
:104940000370097831B10B43037000F0EDF808B142
:10495000FFF7DEFF2068BDE81040FEF7F5BD00BFA1
:10496000F5170020F6170020A4100020F2170020F1
:10497000F4170020704708B5FFF7FCFF08BD0000E2
:1049800010B5064C41EAC0012170FFF75FFE94F9B3
:104990000000C0F3C700FFF7EEFF10BDF3170020C3
:1049A00008B5034B00201870FFF7E5FF08BD00BFF6
:1049B000F317002008B50A4A92F9003023EA0000F4
:1049C00040B2107042070AD1DBB2834207D0C0F375
:1049D000C700FFF745FEBDE80840FFF7E1BF08BD8F
:1049E000F3170020030943EA0010C0B283008010CF
:1049F00000F0330003F0CC03034358005B1003F0D6
:104A0000550300F0AA001843704708B5002000F0D5
:104A1000D8FB4FF6EC63C31A5842584108BD022038
:104A200000F0C4BB0146022000F0C8BB032000F028
:104A3000BDBB0146032000F0C1BB10B5042000F04F
:104A4000B5FB0446212000F0B1FB44EA002080B20F
:104A500010BD10B5C1B20446042000F0AFFB210A1E
:104A60002120BDE8104000F0A9BB072000F09EBB4C
:104A70000146072000F0A2BB01460F2000F0C3BB97
:104A80000146132000F0BFBB0020FFF7F9BF08B5B7
:104A90000020FFF7F1FFFFF7F7FF08BD10B500F0AA
:104AA0002BFB4FF6EC61002000F0ABFB0021022055
:104AB00000F084FB00210320002400F07FFB184B52
:104AC000214604201C6000F079FB2146212000F0E3
:104AD00075FB2146052000F071FB2146062000F001
:104AE0006DFBFF21072000F069FB2146082000F044
:104AF0008AFB21460D2000F061FB2146182000F0C2
:104B000082FB2146172000F059FB21461C2000F0B3
:104B10007AFB2146202000F051FBFFF7B8FF10BDC3
:104B2000AC170020FFF7BABF0C4B1B78821C5BB19F
:104B30000B4B93F90030002BACBF06231E2313440C
:104B400000209A4202D170470623F8E712F8011BB1
:104B50000029F6D00130C0B2F3E700BF04120020F4
:104B60000C20002030B54FF0FF33851C002215F8D3
:104B7000014B8C420ED0B3F1FF3F02D1002C08BF95
:104B800013460132D4B2062C62B2F0D15A1C01D0C5
:104B90001844817030BD10B5831C0022083013F812
:104BA000014B8C4208BF03F8012C8342F7D110BDA2
:104BB000CA081D2A08D8104401F0070301219940B2
:104BC0008378194381707047034B1B78DB0702D54C
:104BD000024800F075BA7047F71700208FAC000844
:104BE000CA081D2A09D8104401F0070301229A407F
:104BF000837823EA020383707047044B1B78DB073A
:104C000002D5034800F05CBA704700BFF7170020D8
:104C1000ADAC000810B4094C247803460A463CB1F8
:104C2000074C94F90040002C02DA10BCFFF7C0BF1B
:104C30001146184610BCFFF795BF00BF04120020B4
:104C40000C20002010B4094C247803460A463CB1DD
:104C5000074C94F90040002C02DA10BCFFF7C0BFEB
:104C60001146184610BCFFF796BF00BF0412002083
:104C70000C200020094A1278831C4AB1084A92F994
:104C80000020002A04DA1E220021184605F010BC7C
:104C90000022C0F802209A80704700BF0412002052
:104CA0000C200020704708B5FFF7FCFF08BD08B5D1
:104CB000FFF7F9FF40F2A460BDE8084002F08DBAAA
:104CC0007047704710B5FFF7FBFFFDF765FAFFF778
:104CD000F8FF0024E0B2FDF7F5F918B90134082C0B
:104CE000F8D110BD0120FCE7704708B5FFF7FCFFC5
:104CF00008BD08B5FFF7C2FDFFF7D6FDFFF788FD39
:104D000000F0E0FE0020FEF76BFC0020FEF778FCD0
:104D1000FFF7EBFF08BD0000202383F311884FF05D
:104D20008043596A002383F31188034A1160034AC0
:104D30001360034A13607047FC170020001800201E
:104D4000F8170020FFF7E8BFF0B5202383F31188A0
:104D50004FF080435C6A002383F311880F4D104E9F
:104D60002B683268DFF840C0346023449B1A4FF44C
:104D70007A7707FB03F10B4ADCF8000001F5C33139
:104D80009F31B1FBF2F14A43084402F2E732B2FB31
:104D9000F7F29B1ACCF800002B60F0BD0018002041
:104DA000FC170020A0860100F817002008B5FFF7C7
:104DB000CBFF80B208BD10B50446FFF7C5FF001B4E
:104DC00080B210BD074B084A1A60BFF34F8F0749E6
:104DD000074BCA6802F4E0621343CB60BFF34F8F06
:104DE00000BFFDE7FC9F0020EFBEADDE00ED00E060
:104DF0000400FA0580B50B4A0B4B52F8041C99428B
:104E000000AF0DD1002342F8043C83F31488074B14
:104E10001B6883F3088862B6054B1B689847FEE75A
:104E200080BD00BF00A00020EFBEADDE00D8FF1F98
:104E300004D8FF1FF0B50124B0FBF4F58D4203D276
:104E400000271CB91C70F0BD4C43F5E7B0FBF4F62D
:104E500004FB1600B4FBF1F42FB9002E03DC002C88
:104E6000EFD1302505E0092EFBDD002A14BF3725E0
:104E7000572535441D7001370133E2E7F0B50124B1
:104E8000B0FBF4F58D4203D200271CB91C70F0BDB5
:104E90004C43F5E7B0FBF4F604FB1600B4FBF1F469
:104EA0002FB9002E03DC002CEFD1302505E0092EB0
:104EB000FBDD002A14BF3725572535441D70013707
:104EC0000133E2E72DE9F041069D002B06460F462F
:104ED00014BF4FF030084FF020082B4613F8011B89
:104EE00049B91446002C08DD41463046B847013C1C
:104EF000F8E7013AF2E7002AFBDC15F8011B09B9D3
:104F0000BDE8F0813046B847F7E72DE9F04F89B0AA
:104F100081468A4615461C4605AF29786E1C19B392
:104F2000252902D04846D0477AE06A78302A08BF5F
:104F3000AA78A2F1300319BFAE1C4FF0000BEE1C93
:104F40004FF0010B092B4FF0000815D96C2A77D1CF
:104F50003278632A06F101055CD022D8252A6CD06C
:104F6000582A3AD0002AD8D109B0BDE8F08F0A22D9
:104F700002FB083816F8012BA2F13003D9B2092937
:104F8000F5D9A2F16103052B04D8A2F157030A2B2E
:104F9000EDDDDBE7A2F14103052BD7D8A2F1370302
:104FA000F5E7732A3ED014D8642AB6D120680028C9
:104FB00004F1040620DB3B4600220A21FFF73AFFFA
:104FC000344600975B46424651464846FFF77AFF13
:104FD000A3E7752A0AD0782A9FD1A2F1580042424D
:104FE00004F104063B464241102103E0261D3B46E6
:104FF00000220A212068E1E72D238DF81430404279
:105000000DF11503D8E72D238DF8143040420DF132
:10501000150328E02E4621784846251DD0472C460A
:1050200035467AE72E4623680093424600235146D0
:105030004846251DFFF746FFF1E72E46252171E77B
:10504000632AE8D006D8252AF8D0582A16D0002A94
:105050008AD0E5E7732AE6D00CD8642AE0D120682C
:105060000028D0DB3B4600220A210434FFF706FF6C
:105070003546A6E7752A0DD0782AD1D1A2F158017C
:105080004A424A412068251D3B461021FFF7F6FEA3
:105090002C46EDE7231D039320683B4600220A219E
:1050A000FFF7ECFE3546039C8BE70000024B1960CE
:1050B000024B1860704700BF041800200818002039
:1050C0000FB407B5074908480968006804AB53F8EE
:1050D000042B0193FFF719FF03B05DF804EB04B054
:1050E000704700BF041800200818002008B500F021
:1050F00047F940F6FF7008BD08B5074800F0F8F81A
:10510000064800F0F5F8064800F0F2F80548BDE85A
:10511000084000F0EDB800BF00E0030800E8030815
:1051200000F0030800F80308B0F5805F2DE9F041B6
:10513000884602D30020BDE8F081460006F10065F4
:1051400005F578354FF6FF722B889A424FEAA02476
:1051500004D1284600F0EEF880B2ECE7E402124FEA
:1051600004F1006404F578344FF4006221463846B7
:10517000FCF7B8F82B789845DCD040F2FE7333404A
:10518000204607F8038000F0B3F80025795D61F050
:10519000FF014B1C03D089B2601900F0CBF8023537
:1051A000B5F5006FF2D1D7E70C18002080B24000AF
:1051B00000F1006000F578300078704780B2FFF7AA
:1051C000B3BF83B25B0003F1006303F578331A7851
:1051D000431C9BB25B0003F1006303F5783318783E
:1051E00042EA0020704738B584B20D462046C9B265
:1051F000FFF79AFF601C290A80B2BDE83840FFF72C
:1052000093BFFFF7F0BF80B2F8B5471CBFB24300B1
:105210007A0003F1006302F1006203F5783302F5CE
:105220007832861CB6B20C46197892F800C072002B
:1052300002F1006202F57832C51CADB213786A0043
:1052400002F1006202F578321B04127843EA0C2363
:105250000B4343EA0263A34212D0E1B2FFF764FFBB
:10526000C4F307213846FFF75FFFC4F30741304618
:10527000FFF75AFF210E2846BDE8F840FFF754BF5C
:10528000F8BD00000B4BDA68D2070CD4DA6851077E
:105290000BD4DA68D2060AD4DB6813F0010F14BF0E
:1052A000042005207047012070470220704703202A
:1052B000704700BF0020024073B50446FFF7E2FFCD
:1052C0000025FF2601280FD114B9062002B070BDB9
:1052D00001950196019B1BB9FFF7D4FF013CF1E753
:1052E000019B013B0193F5E7002C08BF0620EDE789
:1052F00038B5054640F6FF70FFF7DEFF052815D1EB
:105300000B4C236943F0020323616561236943F079
:105310004003236140F6FF70FFF7CEFF06281EBF53
:10532000236923F0020323613423E36038BD00BF07
:1053300000200240104B00F178429A4270B50546B9
:105340000E4616D81F20FFF7B7FF052810D10B4CCB
:10535000236943F0010323611F202E80FFF7ACFF78
:1053600006281EBF236923F0010323613423E36071
:1053700070BD0720FCE700BFFEFF070000200240D1
:10538000034B044A5A6002F188325A60704700BFEA
:1053900000200240230167452DE9F341002507461F
:1053A000EEB23046FCF78EFE0024804648FA04F246
:1053B000D207E3B209D40134062CF7D10135082D08
:1053C000EED1002002B0BDE8F0818DF804308DF8F8
:1053D000056001990020FCF725FC8742EBD10120F4
:1053E000F0E710B504462C20FFF7D6FF20B1204689
:1053F000BDE81040FFF7D0BF10BD000010B5FFF7AB
:1054000004FB08B9FFF78EFB8348FFF759FE6524BC
:10541000013C14F0FF0440F0D2808048FFF750FEBA
:105420002920FFF7DEFF002840F0F4802A20FFF754
:10543000D8FF08B1FFF776FB0520FFF7D2FF08B1D0
:10544000FFF7C0FCFFF7EBFA754C20700720FFF761
:10545000C8FF68B11B20FFF7C4FF002800F0B6802A
:105460002378C3F3400282F0010262F34103237008
:1054700020786C4CFFF7D6FAFFF7DFFA2080E020A7
:10548000FFF7AFFF38B12378C3F3000282F00102C7
:1054900062F3000323703920FFF7A3FF38B12378AC
:1054A000C3F3400282F0010262F341032370E22061
:1054B000FFF797FF38B12378C3F3800282F001022F
:1054C00062F382032370E620FFF78BFF38B1237865
:1054D000C3F3C00282F0010262F3C3032370E3202E
:1054E000FFF77FFF38B12378C3F3001282F0010287
:1054F00062F3041323703520FFF773FF38B123786C
:10550000C3F3401282F0010262F34513237031208D
:10551000FFF767FF38B12378C3F3801282F00102EE
:1055200062F3861323701120FFF75BFF38B12378F5
:10553000C3F3C01282F0010262F3C7132370208804
:10554000FFF787FA2720FFF74CFF04461E20FFF7DE
:1055500048FF10B144F00204E4B21F20FFF741FFFE
:1055600010B144F00404E4B22020FFF73AFF10B178
:1055700044F00804E4B22120FFF733FF10B144F0F7
:105580001004E4B22220FFF72CFF10B144F02004F5
:10559000E4B22320FFF725FF10B144F04004E4B249
:1055A0002420FFF71EFF80B364F07F04E4B220469E
:1055B000FFF73FFA2046BDE81040FFF714B8FCF7AC
:1055C000EBFD4FF47A7001F008FE21E70E20FFF7A3
:1055D00008FF38B12378C3F3800282F0010262F33E
:1055E000820344E71020FFF7FCFE237830B1C3F3B9
:1055F000C00282F0010262F3C30338E7C3F3000282
:1056000082F0010262F3000331E7002CCFD1FFF7F3
:105610000DFAD0E710BD00BFCBAC0008E0AC00082D
:10562000F71700200C200020194B1B78D90709D54B
:10563000184B187800EB800080087F2823D820B30F
:10564000C0B270479A0705D5124B187800EB80005E
:105650004008F2E75B0704D50E4B187800EB80009A
:10566000EBE70D4B1B7863B10C4A0A4912780878B6
:10567000934200EB80003EBF584390FBF2F080B2B3
:10568000DBE70520DCE77F2070470120704700BF83
:1056900016200020AA10002017200020AB100020A8
:1056A000154B1B78D90705D5144B1878800800B323
:1056B000C0B270479A0703D5104B18784008F6E738
:1056C0005B0705D50D4B18787F28F0D97F207047F0
:1056D0000B4B1B785BB10B4A084912780878934250
:1056E00036BF10FB03F080B290FBF2F0ECE7012034
:1056F000DEE70120704700BF16200020AC1000201C
:1057000017200020AD100020F02808B505D1FFF7C4
:105710008BFF4042344BD87008BDF12802D1FFF70F
:1057200083FFF7E7F22805D1FFF77EFF40422E4BBB
:105730009870F1E7F32802D1FFF776FFF7E7F92831
:1057400004D1FFF7ADFF284B1871E5E7FA2803D124
:10575000FFF7A6FF4042F6E7FB2805D1FFF7A0FFC1
:105760004042214B5871D7E7FC2802D1FFF798FF40
:10577000F7E7F42805D11C4A537843F0010353702E
:10578000CAE7F52804D1184A537843F00203F6E734
:10579000F62804D1144A537843F00403EFE7F728BE
:1057A00004D1114A537843F00803E8E7F82804D1FC
:1057B0000D4A537843F01003E1E7FD2805D10B4A69
:1057C000137843F001031370A6E7FE2804D1074ABB
:1057D000137843F00203F6E7FF289DD1034A1378BC
:1057E00043F00403EFE700BF102000201620002044
:1057F000F028404B14D193F90320002A01DA00224B
:10580000DA7093F9022052B993F903203AB993F967
:10581000042022B993F905300BB9374A1370704749
:10582000F12804D193F90320002AE8DCE9E7F22803
:1058300093F9022004D1002AE3DA00229A70E0E70B
:10584000F32802D1002AF8DCDBE7F92806D193F926
:105850000420002AD5DD00221A71D2E7FA2804D1EB
:1058600093F90420002ACCDAF5E7FB2806D193F956
:105870000520002AC5DA00225A71C2E7FC2804D1AB
:1058800093F90520002AF6DCBBE7F42804D15A7806
:1058900022F001025A70B4E7F52803D15A7822F0B9
:1058A0000202F7E7F62803D15A7822F00402F1E762
:1058B000F72803D15A7822F00802EBE7F82803D141
:1058C0005A7822F01002E5E7FD2805D10B490A7845
:1058D00022F001020A7094E7FE2804D107490A78F1
:1058E00022F00202F6E7FF288BD104490A7822F061
:1058F0000402EFE7102000201720002016200020CF
:10590000234B1B781B0710B53AD5224C2248FFF7D2
:10591000D7FB61782148FFF7D3FB2148FFF7D0FB85
:1059200094F902101F48FFF7CBFB1F48FFF7C8FB95
:1059300094F903101B48FFF7C3FB1B48FFF7C0FB9C
:1059400094F904101748FFF7BBFB1748FFF7B8FBA3
:1059500094F905101348FFF7B3FB1448FFF7B0FBA9
:10596000134B14481978FFF7ABFB1348FFF7A8FB5C
:10597000124B10481978FFF7A3FB1148FFF7A0FB63
:105980000448FDF723FEFFF711FA0E4B188010BDF7
:10599000F717002010200020E7AC000803AA000839
:1059A0000AAD000814AC0008DEAC00080CAD00081D
:1059B000172000200FAD000812AD000816200020AF
:1059C00054B100080E200020F8B5394B1888FFF7B5
:1059D000F2F938490A78A2B1374B1B7898420FDBAD
:1059E000364C94F9023094F9037094F9046094F9F8
:1059F000055063B9002F58D1002E56D1002D54D137
:105A0000F8BD2F4B1B7803EB83035B00E6E7FF2A0F
:105A100001D001320A70002B02DDFFF705FEA070F5
:105A200094F90230002B03DAFFF7FEFD4042A0702C
:105A3000002F02DDFFF7F8FDE07094F90330002B32
:105A400003DAFFF7F1FD4042E07094F9022072B1F1
:105A500094F9031059B1B5235A43121203FB01F311
:105A600008BF01221B1208BF0123A270E370002EA1
:105A700002DDFFF715FE207194F90430002B03DAE4
:105A8000FFF70EFE40422071002D02DDFFF708FEF9
:105A9000607194F90530002B03DAFFF701FE4042F4
:105AA0006071BDE8F840FFF72BBFFF2AB1D1BFE717
:105AB0000E20002017200020A91000201020002018
:105AC000A8100020044A002313609380034A137037
:105AD000034A1370704700BF1020002017200020D9
