:100000000C944F030C9496030C9496030C94960353
:100010000C9496030C9496030C9496030C949603FC
:100020000C9496030C9496030C9454240C9418246A
:100030000C94F1270C9496030C9496030C9496035D
:100040000C9496030C9496030C9496030C949603CC
:100050000C9496030C94CB270C9496030C94960363
:100060000C9496030C9496030C9496030C949603AC
:100070000C9496030C9496030C9496030C9496039C
:100080000C941A280C9496030C9496030C949603E3
:100090000C9496030C9496030C9496030C9496037C
:1000A0000C9496030C9496030C94960307634236C3
:1000B000B79BD8A71A39685618AEBAAB558C1D3CF9
:1000C000B7CC5763BD6DEDFD753EF6177231BF00BD
:1000D0000000803F08000000BE922449123EABAAF7
:1000E000AA2ABECDCCCC4C3E00000080BEABAAAA52
:1000F000AA3E00000000BF000000803F000000009A
:1001000000084178D3BB4387D1133D190E3CC3BDD2
:100110004282AD2B3E68EC8276BED98FE1A93E4C7F
:1001200080EFFFBE01C4FF7F3F00000000000631EA
:10013000FF0974A1010975150026FF0095207508B7
:1001400081020976150026FF00952075089102C0EE
:1001500005010980A10185031A81002A8300160187
:1001600000260300950175108100C0050C0901A14E
:100170000185041A01002A9C02160100269C0295A2
:100180000175108100C005010906A101050719E0EC
:1001900029E715002501950875018102950175086B
:1001A00081010507190029FF150026FF0095067536
:1001B0000881000508190129059505750191029529
:1001C0000175039101C0617564696F2073746F706C
:1001D00020616C6C206E6F74657300617564696F6B
:1001E0002073746F70206E6F746520667265713D48
:1001F00025640035001E001F00200021002200237E
:100200000024002500260027002A002B0014001AD5
:10021000000800150017001C0018000C0012001345
:10022000003100290004001600070009000A000B35
:10023000000D000E000F0033003400E1001D001B14
:1002400000060019000500110010003600370052AA
:10025000002800065DE000E200E300045D2C002CB5
:1002600000055D3800500051004F0035001E001F92
:100270000020002100220023002400250026002762
:10028000002A002B0014001A00090013000A000DB8
:10029000000F0018001C0033004C0029000400155A
:1002A000001600170007000B00110008000C0012D8
:1002B000003400E1001D001B000600190005000EBF
:1002C0000010003600370038002800065DE000E22C
:1002D00000E300045D2C002C00055D50005100522D
:1002E000004F0035001E001F0020002100220023C7
:1002F0000024002500260027002A002B00340036A9
:1003000000370013001C0009000A00060015000F4A
:10031000004C00290004001200080018000C00071F
:10032000000B001700110016003800E10033001424
:10033000000D000E001B00050010001A0019001D22
:10034000002800065DE000E200E300045D2C002CC4
:1003500000055D5000510052004F0035021E021F83
:100360000220022102220223022402250226022761
:10037000022A0035021E021F02200221022202234D
:1003800002240225022F0230024C004C003A003BAE
:10039000003C003D003E003F002D022E022F0030A9
:1003A000003102010040004100420043004400458A
:1003B00000320236023702A90001000100010001EB
:1003C00000010001000100010001000100AB00AAD2
:1003D00000AE0035001E001F002000210022022375
:1003E0000024002500260227022A0035001E001FD7
:1003F000002000210022002300240025002F0230CD
:10040000024C004C003A003B003C003D003E003FE7
:10041000002D002E002F003000310001004000416F
:10042000004200430044004500320036023702A972
:1004300000010001000100010001000100010001B4
:100440000001000100AB00AA00AE003A003B003CF6
:10045000003D003E003F0040004100420043004498
:100460000045000100005C015C0100010001000189
:100470000000000000010001004C00010001002903
:100480005C1D5C1E5C135C0A5C015D025D035D012A
:1004900000010001002B5C2A5C265C275C2C5C2D93
:1004A0005C010001000100010001000100010001E8
:1004B0000001000100010001000100010001000134
:1004C00000010044454255473A2064697361626CFB
:1004D00065642E0A0044454255473A20656E6162C4
:1004E0006C65642E0A006261636B6C6967687420D6
:1004F000696E6372656173653A2025750A006261F1
:10050000636B6C69676874206465637265617365A9
:100510003A2025750A006261636B6C696768742014
:1005200064697361626C650A006261636B6C696720
:10053000687420656E61626C650A006261636B6C51
:100540006967687420746F67676C653A2025750A5F
:10055000000A002530325820006B6579626F6172A5
:10056000645F7265706F72743A20006261636B6CD5
:100570006967687420737465703A2025750A000AEB
:10058000002530313662003A200025303258000A0A
:10059000722F6320303132333435363738394142A7
:1005A000434445460A000A0025303258006B6579FD
:1005B000626F6172645F7365745F6C65643A20009A
:1005C0005B735D004B6579626F6172642073746167
:1005D00072742E0A005B435D005B445D005B535DFB
:1005E000005B575D005B525D0009025B0003010088
:1005F000A0FA090400000103010100092111010012
:10060000012240000705810308000A0904010001D6
:1006100003000000092111010001223600070582B4
:100620000320000A0904020002030000000921114E
:1006300001000122220007058303200001070503B2
:10064000032000011201100100000008EDFE6160AE
:1006500002000102030104033000000010035000F7
:10066000720065006F006E006900630000000A03FD
:100670004F004C004B004200000004030904617568
:1006800064696F20706C6179206E6F74652066728A
:1006900065713D256420766F6C3D25640000112452
:1006A0001FBECFEFDAE0DEBFCDBF04B603FE27C02A
:1006B0008091DD069091DE06A091DF06B091E00604
:1006C0008730904BA740B04BD1F41092DD061092CA
:1006D000DE061092DF061092E00614BE84B7877F14
:1006E00084BF0FB6F894A8958091600088618093CC
:1006F0006000109260000FBEE0E0F8E3099526E08C
:10070000A2EAB5E001C01D92AD3DB207E1F715E0E8
:10071000A0E0B1E0E8E1F1E602C005900D92A23A56
:10072000B107D9F70E9489250C948A300C940000F7
:10073000FF93EF93E091A205F091A305309709F0A4
:100740000995EF91FF910895FC018591803011F09A
:10075000EFDFFBCF0895FF27E0E230E247FF0CC058
:10076000419597FF09C0EDE2609570958095909551
:10077000611D711D811D911D27FF02C0219530E370
:1007800050E2AA27660F771F881F991FAA1FA41778
:1007900010F0A41B63955A95A9F7AA3008F0A95F39
:1007A000A05DAF93F395611571058105910541F742
:1007B000ED3211F4EF93F395F21718F43F93F3959C
:1007C000FBCF8F91B5DFFA95E1F70895E991F991A3
:1007D0008591803021F0853219F0AADFF9CF089594
:1007E00020E0E89455915532C1F3503311F46894E8
:1007F00055915A3348F4505390F3220F022E220F92
:10080000220F200D250FF4CF0EF421958991999197
:10081000533619F3533729F1533559F1BC01882761
:100820009927E8945C3621F48991999168945591BF
:10083000543639F446EF7EF077FF0DC08FEF9FEF0F
:100840000AC055374AE039F0583540E121F05236B8
:1008500042E009F00895FF93EF937DDFEF91FF9160
:10086000B7CFFF93EF93FC0181918030B9F360DF44
:10087000FBCFFF93EF9368DFF1CFDF93CF93CDB73B
:10088000DEB72596A3DFCF91DF910895E8EDF0E084
:1008900080818E7F80831092E2001092DA001092A5
:1008A000E100A0EEB0E08C9181608C9380818F7725
:1008B000808319BCA7EDB0E08C918E7F8C938081F2
:1008C0008F7E80831092730608952091E40030910A
:1008D000E50085E69091EC0090FF06C09091E8005D
:1008E00090FF06C080E008959091E80092FDFACF55
:1008F00090918106992391F0953091F09091EB00C1
:1009000095FD10C04091E4005091E5002417350793
:1009100009F381509A01F1F684E0089582E0089588
:1009200083E0089581E00895EF92FF920F931F9363
:10093000CF937C018B010E946504C82F811117C0E1
:100940008091E80085FD0BC08091E8008E77809350
:10095000E8000E946504882399F3C82F08C0F701B6
:1009600081917F018093F1000150110949F78C2F8B
:10097000CF911F910F91FF90EF9008958091830682
:1009800087FF13C08091E80082FF06C08091E800D5
:100990008B778093E80004C0809181068111F2CFAB
:1009A0000895809181068823D9F38091E80080FF23
:1009B000F8CF8091E8008E77ECCF982F9093E900E4
:1009C000242F762F50E0891731F07091EC002091A0
:1009D000ED005091F00021FD07C09F5F973071F747
:1009E0008093E90081E008953091EB003E7F3093E1
:1009F000EB003091ED003D7F3093ED003091EB0046
:100A000031603093EB007093EC002093ED00509335
:100A1000F0002091EE0027FDE0CF80E00895CF9216
:100A2000DF92EF92FF920F931F93CF93DF93C8ED66
:100A3000D0E088818F7E8883E7EDF0E0808181605F
:100A4000808384E082BF81E08093730688818E7FFB
:100A5000888302EE10E0F80110821092DA0081EE35
:100A6000C82ED12CF601108288818F7788838881E7
:100A70008068888388818F7D888319BC1092810665
:100A8000109282061092800610927F0690EEE92E58
:100A9000F12CF70180818B7F80838881816088833E
:100AA00042E060E080E00E94DD04F60180818E7FFC
:100AB0008083F80180818160808380818860808369
:100AC000F70180818E7F8083888180618883DF91B8
:100AD000CF911F910F91FF90EF90DF90CF900895ED
:100AE000FC018091890690918A0686179707A0F0ED
:100AF0006115710529F49091E8009E779093E800C4
:100B000090E06115710551F4911108C08091E800E1
:100B100082FF35C080E00895BC01F2CF809181064C
:100B20008823C9F18530C9F18091E80083FD31C087
:100B30008091E80082FDEACF8091E80080FFE1CF5C
:100B40002091F3008091F200322F282F611571055A
:100B500019F02830310558F091E02830310509F0BE
:100B600090E02091E8002E772093E800CACF819191
:100B70008093F100615071092F5F3F4FE7CF809163
:100B80008106882341F0853041F08091E80083FFA1
:100B9000BDCF81E0089582E0089583E0089508952F
:100BA000809176060895CF92DF92EF92FF920F9395
:100BB0001F932FB7F89440914606509147066091D5
:100BC0004806709149062FBF6A017B01EE24FF247D
:100BD0008C0130E020E0C016D106E206F30650F0AA
:100BE000481B590BCA011F910F91FF90EF90DF90A6
:100BF000CF90089541505109F3CF2FB7F8948091C9
:100C0000460690914706A0914806B09149062FBF2D
:100C10000895829590E09C01220F331F220F331F0D
:100C20002C7C95958795959587958373282B30E037
:100C3000C901880F991F8A7A359527952575822BCA
:100C40000895809141068111109241060895E4EAC9
:100C5000F5E09281891301C01282319695E0EA3A5B
:100C6000F907B9F70895A6EAB5E0EFEF90E02D9106
:100C7000821751F0EF3F19F4211101C0E92F9F5F56
:100C80009630A9F7EF3F09F408950E2E000CFF0BE4
:100C9000EC55FA4F828308952CE0929F800D112429
:100CA000982F977086958695869525E0829FA0015E
:100CB000112470E060E080E0FA01E60FF71FEA5EC1
:100CC000F94F208130E0092E02C0369527950A940D
:100CD000E2F721703327062E01C0220F0A94EAF7AB
:100CE000822B6F5F7F4F6530710531F708952CE0DF
:100CF000929F800D1124982F977071E001C0770F9B
:100D00009A95EAF786958695869525E0829FC0019B
:100D1000112450E040E0A62FB0E0FC01E40FF51FE5
:100D2000EA5EF94F60819D01042E02C03695279539
:100D30000A94E2F72170219526272723262720836E
:100D40004F5F5F4F4530510541F70895809115067B
:100D50009091E405981301C008958F5F8770FACFD2
:100D60002091C0053091C1052817390771F0909383
:100D7000C1058093C005E0915906F0915A0630975D
:100D800021F00084F185E02D099408952091BE059D
:100D90003091BF052817390771F09093BF058093F4
:100DA000BE05E0915906F0915A06309721F0068071
:100DB000F781E02D09940895E0915906F0915A06C3
:100DC000309721F00190F081E02D099480E00895A2
:100DD0009091570692FF06C0282F28712830F9F409
:100DE000877F846093FF06C0282F28712831F1F493
:100DF000877E84612091580620FF06C0382F387105
:100E00003830D9F4877F816021FF06C0282F2871F0
:100E10002831D1F4877E816194FD877E0895282F43
:100E200024712430F9F68B7F8860DCCF282F247161
:100E3000243101F78B7E8861DDCF382F317131305D
:100E400019F78E7F8860E0CF282F2171213121F79B
:100E50008E7E8861E1CFCF93DF93972F70E02CE0F7
:100E6000929F600D711D1124FB014CE3849FE00DE6
:100E7000F11D1124EE0FFF1FED50FE4FC591D491CF
:100E8000CE01C238D105B1F1E0F5C133D10509F485
:100E900098C048F5C932D10509F48CC0CA32D105D1
:100EA00009F496C0C11551E5D50708F0C8C0C115B1
:100EB00020E5D20708F0F9C1C83ED10508F0A1C06D
:100EC000C13ED10560F5C83AD10508F088C0C53AE1
:100ED000D10508F043C1C130D10509F108F443C080
:100EE0002497E8F440C0C533D10509F45CC0C93388
:100EF000D105C1F620915706237089F080EE90E06D
:100F00000EC0C33ED10591F168F4C03ED105F9F0A1
:100F1000C23ED10539F62091570622FD20C0DF914F
:100F2000CF910895C63ED10561F1C73ED10581F14B
:100F3000C43ED10509F0B6CF2091580621FFEFCF6E
:100F40008091570684FD0FC087EE90E0E8CF209196
:100F5000570620FDF5C13091580630FFE0CF83EEF3
:100F600090E024FFDCCF90E080E0D9CF20915706BD
:100F700022FDE9C13091580630FDC0CF24FDF3CFEA
:100F8000CECF2091570623FFCACF24FDECCFDCCF74
:100F90002091570623FDDAC13091580631FFEECF7C
:100FA00084EE90E0BCCF2091570625FFB8CF89E2B0
:100FB00090E0B5CF2091570625FFB1CF85E390E0B3
:100FC000AECF2091570626FFAACF8AE290E0A7CFA6
:100FD0002091570626FFA3CF81E390E0A0CFCF3B1F
:100FE000D10508F4CAC0FE01E05CF109E032F10568
:100FF00008F0B9CFEE0FFF1FEA53FE4F8591949191
:101000008ECFC11540E3D40788F4C11550E2D5074F
:1010100008F040C1C03FD10508F4A5CFCF3FD105AE
:1010200011F008F07CCFCE01906579CFC11580E436
:10103000D80708F432C1CE019F70906A70CFC115F5
:1010400099E5D907E0F5C11528E5D20708F06AC18E
:10105000C11544E5D407F8F4C11553E5D50708F0E8
:1010600047C1C11582E5D80708F43DC19E01237030
:10107000332741E050E002C0440F551F2A95E2F7A4
:101080008C2F8695869520E2829FC0011124842BA7
:10109000952B9C6844CFC11595E5D90708F43DC14F
:1010A000C11526E5D20708F05ECF8C2F0E94E80616
:1010B00090E0982F882788279F71906230CF80E03A
:1010C00091EDCD3B4CE5D40709F429CFF8F4CB3BA7
:1010D0008CE5D80709F42BC108F02CC1C1152AE50D
:1010E000D20708F040CF8C2F8F700E94E8069E0137
:1010F00094E0369527959A95E1F72F7030E0322FDE
:1011000022273069A901482BCA0109CF80E093ED5D
:10111000C03C4CE5D40709F402CF60F4CE3B8CE52B
:10112000D80709F40AC1CF3BDC4509F01CCF80E0A9
:1011300092EDF5CECE0190568115904208F013CF76
:101140008D2F8F710E94E806482F50E0542F4427BE
:1011500044275F71CE0199279062C2C081E890E474
:10116000C53AD10509F4DBCE83E890E4C63AD1054F
:1011700009F0D5CE82E890E4D2CE82EE94E4C83A6B
:10118000D10509F4CCCE89EE94E4C93AD10509F42D
:10119000C6CE8AEE94E4CA3AD10509F4C0CE85EBF6
:1011A00094E4CB3AD10509F4BACE86EB94E4CC3A78
:1011B000D10509F4B4CE83EB94E4CB3BD10509F41B
:1011C000AECE84EB94E4CC3BD10509F4A8CE87EBFA
:1011D00094E4CD3AD10509F4A2CE8CEC94E4C03B62
:1011E000D10509F49CCE8DEC94E4CE3AD10509F4F6
:1011F00096CE83E895E4CF3AD10509F490CE8AE8FB
:1012000095E4C13BD10509F48ACE82E995E4C23B5D
:10121000D10509F484CE84E995E4C33BD10509F4F2
:101220007ECE81E296E4C43BD10509F478CE83E218
:1012300096E4C53BD10509F472CE84E296E4C63B40
:10124000D10509F46CCE85E296E4C73BD10509F4DB
:1012500066CE86E296E4C83BD10509F460CE87E20B
:1012600096E4C93BD10509F45ACE8FE694E4CD3B10
:10127000D10509F454CE80E794E4CE3BD10509F4BE
:101280004ECE8AE296E4CA3BD10509F448CE80E00E
:1012900094E445CEFE01FF70ADCECE019927D3FF79
:1012A00002C0986C3CCE906C3ACE9E01F4E036952C
:1012B0002795FA95E1F723703C2F337081E090E099
:1012C00002C0880F991F3A95E2F79C68AC01522B37
:1012D0008C2F86958695837020E2829FC001112411
:1012E000842B952B1CCE9C2F8827816F906A17CE5C
:1012F0009E012370332741E050E002C0440F551F88
:101300002A95E2F78C2F8695869520E2829FC00170
:101310001124842B952B9A6802CE9C2F8827846FEA
:10132000906AFDCD9C2F8827806F906AF8CD80E071
:1013300094EDF5CD80E095EDF2CD80E090EDEFCD30
:1013400089E390E0ECCD82EE90E0E9CD86EE90E08E
:10135000E6CDBF92CF92DF92EF92FF920F931F9351
:10136000CF93DF938C01C090D906D090DA06E0903D
:10137000DB06F090DC068091420690914306A09136
:101380004406B0914506C82AD92AEA2AFB2ACFE1A9
:10139000D0E0BC2ED701C6010C2E04C0B695A7958F
:1013A000979587950A94D2F780FD0EC0219788F70C
:1013B000B12C8B2DDF91CF911F910F91FF90EF906A
:1013C000DF90CF90BF900895B8018C2F0E942B071B
:1013D000019761F3EECFCF93DF93EC010E94A9094F
:1013E000BE01DF91CF910C942B070E94EB09292FAE
:1013F0002F70E92FE295EF70E250EE30E0F4F0E06C
:10140000EC5FF54F0C946C2B120A120A1B0A1B0A94
:101410001D0A1B0A1B0A1B0A120A120A220A1B0AAD
:101420001B0A220A803F19F020F4883E20F481E054
:101430000895843FE1F380E00895883EC0F3813F42
:10144000D1F7F5CF822F8695869586950895CF9210
:10145000DF92EF92FF92843028F5811124C09091A1
:101460008000977F90938000282F30E0AFEFBFEF90
:101470000E94642C23E030E040E050E00E94422CC7
:10148000C9012C3764E1360790F469E070E00E94EE
:10149000442B70938D0060938C00FF90EF90DF9051
:1014A000CF90089583E0909180009860DBCF2A5020
:1014B000374D4F4F5F4F942F832F722F662725EFA5
:1014C00038E241E050E00E94422C69017A01CA01F1
:1014D000B9010E94282B9B01AC01C701B6010E94F3
:1014E000282B672F782F892F99276115710521E007
:1014F0008207910571F66FEF7FEFCBCF0F931F93AC
:10150000CF93DF938091740690914006892B909140
:101510003F06892B8093A40590914106992369F099
:10152000892B8093A405E6EAF5E097E080E09150EE
:1015300009F03FC081110E942106E0915906F09107
:101540005A063097E1F10280F381E02D84EA95E0BC
:1015500009958091BF0682FF32C080FF04C089E5F3
:1015600095E00E94A403D0E0C0E003E515E080917F
:10157000BF0680FF0EC0FE01EC55FA4F80811F921E
:101580008F931F930F930E943D040F900F900F9025
:101590000F902196C830D10551F78091BF0680FF8A
:1015A0000EC081E595E0DF91CF911F910F910C94D2
:1015B000A4032191222309F4BACF8F5FB8CFDF9122
:1015C000CF911F910F9108951092400610923F06FF
:1015D0000E947E0A90E080E00E94C60690E080E0D3
:1015E0000C94B0066093D9067093DA068093DB06FC
:1015F0009093DC060C94E40A0F931F936091D90634
:101600007091DA068091DB069091DC068B019C01DB
:1016100008711127222733270831110521053105CB
:1016200029F460621F910F910C94F20A6F7DFACF3A
:101630000F931F9341E050E060E070E004C0440F5E
:10164000551F661F771F8A95D2F7CB01BA016095A7
:101650007095809590950091D9061091DA062091A9
:10166000DB063091DC0660237123822393231F91D4
:101670000F910C94F20A90913E06809589238093F5
:101680003E06282F277071F4282F082E000C330BEC
:101690009217130639F08595859585950E94180B4C
:1016A00010923E0608950F931F9341E050E060E0D2
:1016B00070E004C0440F551F661F771F8A95D2F74C
:1016C0008091D9069091DA06A091DB06B091DC06F4
:1016D0008A019B01082B192B2A2B3B2BC901B8012E
:1016E0001F910F910C94F20A609342067093430687
:1016F00080934406909345060C94E40A882341F0B5
:101700008095909174068923809374060C947E0AC8
:101710000895882339F090917406892B809374067C
:101720000C947E0A0895882309F452C0823871F41B
:101730000E94DC0681FF4CC089E30E9433060E94B0
:101740007E0A89E30E9427060C947E0A833859F4A6
:101750000E94DC0680FF3CC083E50E9433060E94A5
:101760007E0A83E5EFCF843859F40E94DC0682FFBD
:101770002FC087E40E9433060E947E0A87E4E2CFEE
:101780009CEF980F913AF0F290E2980F983088F41D
:10179000877021E030E0A90102C0440F551F8A95EF
:1017A000E2F7CA01809590917406892380937406AC
:1017B000CBCF9BE5980F933020F490E080E00C9421
:1017C000C606885A873120F490E080E00C94B00679
:1017D0000895CF9384E090E00E94CE2BC82F81E241
:1017E00090E00E94CE2B982F8C2FCF9108959FB719
:1017F000F894109271069FBF90918106943009F081
:1018000049C02091E9002F709091EC0090FD30C00C
:1018100090E0922B23E02093E9002091EB0020FF41
:1018200036C02091EE0027FF32C020914C062223C3
:1018300021F02091E80025FF2AC010924C0626E0F6
:101840003091E80035FF16C08093F1008091E800E8
:1018500085FD29C08091E80080FFFCCF8091E800E1
:101860008E778093E8009F709093E90080E0089560
:1018700090E8CFCF30918106343049F43091EB00BD
:1018800035FD05C0215041F481E080934C069F70E6
:101890009093E9008FEF0895EFE9FFE03197F1F7BA
:1018A00000C00000CDCF8FB7F89421E020937106DF
:1018B0008FBFD9CFCF93DF9300D01F92CDB7DEB7C4
:1018C0009C0190914B06911129C080918106843032
:1018D00049F584E089833B832A8382E08093E90091
:1018E0008FEF9091E800815095FD06C095ED9A9597
:1018F000F1F700008111F5CF8091E80085FF12C05B
:1019000050E040E063E070E0CE0101960E94940454
:101910008091E8008E778093E80004C09230C9F28D
:101920009430B9F20F900F900F90DF91CF910895FE
:10193000CF93DF9300D01F92CDB7DEB72091810601
:10194000243031F523E02983805891099B838A83D1
:1019500082E08093E9008FEF9091E800815095FD3F
:1019600006C095ED9A95F1F700008111F5CF8091B1
:10197000E80085FF0DC050E040E063E070E0CE017C
:1019800001960E9494048091E8008E778093E8008D
:101990000F900F900F90DF91CF910895CF93DF9329
:1019A000EC0180914B06811107C080918106843043
:1019B00029F0DF91CF9108958230C9F781E08093BB
:1019C000E9008FEF9091E800815095FD06C095EDFC
:1019D0009A95F1F700008111F5CF8091E80085FF1D
:1019E000E8CF50E040E068E070E0CE010E9494044F
:1019F0008091E8008E778093E80088E0FE01A7E7F9
:101A0000B6E001900D928A95E1F7D3CF81E0809303
:101A1000E00080E28093D8001092C9008FE19EE43C
:101A20000197F1F700C0000087E090EBDC018093A4
:101A3000DD069093DE06A093DF06B093E00688E112
:101A40009CE00FB6F894A895809360000FBE909329
:101A50006000FFCF882309F402C18238B9F40E94E4
:101A6000DC0681FDFCC089E30E9433060E947E0AE9
:101A70002FEF81EE94E0215080409040E1F700C0CC
:101A8000000089E30E9427060C947E0A8338A1F4A3
:101A90000E94DC0680FDE3C083E50E9433060E94BD
:101AA0007E0A2FEF81EE94E0215080409040E1F7D4
:101AB00000C0000083E5E6CF8438A1F40E94DC0674
:101AC00082FDCDC087E40E9433060E947E0A2FEF7C
:101AD00081EE94E0215080409040E1F700C000008A
:101AE00087E4D0CF9CEF980F913A18F40E94330608
:101AF000CBCF90E2980F983068F4877021E030E007
:101B000001C0220F8A95EAF780917406822B809398
:101B10007406BACF9BE5980F933070F4853A31F094
:101B2000863A39F083E890E00C94C60681E890E0AC
:101B3000FBCF82E890E0F8CF98E5980F973108F056
:101B40008EC0883A09F446C0893A09F446C08A3AF8
:101B500009F446C08B3A09F446C08C3A09F446C0F1
:101B60008B3B09F446C08C3B09F446C08D3A09F41E
:101B700046C0803B09F446C08E3A09F446C08F3A0D
:101B800009F446C0813B09F446C0823B09F446C0D3
:101B9000833B09F446C0843B09F446C0853B09F405
:101BA00046C0863B09F446C0873B09F446C0883BE3
:101BB00009F446C0893B09F446C08D3B09F446C090
:101BC0008E3B09F446C08A3B09F446C090E080E0B1
:101BD0000C94B00682EE90E0FBCF89EE90E0F8CF57
:101BE0008AEE90E0F5CF85EB90E0F2CF86EB90E0C7
:101BF000EFCF83EB90E0ECCF84EB90E0E9CF87EB85
:101C000090E0E6CF8CEC90E0E3CF8DEC90E0E0CF7D
:101C100083E891E0DDCF8AE891E0DACF82E991E0D4
:101C2000D7CF84E991E0D4CF81E292E0D1CF83E2B3
:101C300092E0CECF84E292E0CBCF85E292E0C8CFB3
:101C400086E292E0C5CF87E292E0C2CF8FE690E0D5
:101C5000BFCF80E790E0BCCF8AE292E0B9CF089591
:101C60000F931F93CF93DF93C62FD42F022FFC0126
:101C700082818823A1F06093DC050E94FD0590938A
:101C8000BD058093BC05C77081E001C0880FCA956F
:101C9000EAF7DF91CF911F910F910C94890B10916E
:101CA000DC05161338C08091BC059091BD050E94DB
:101CB000D305883C910578F5C0E2CD0F1D17B9F02A
:101CC00080E2810F883040F4177081E001C0880FF6
:101CD0001A95EAF70E947E0BC83020F581E09D2F0F
:101CE000977001C0880F9A95EAF70E94890B802FA0
:101CF0000E942A0D802F0E94930BC830E8F4D77001
:101D000081E001C0880FDA95EAF7DF91CF911F914A
:101D10000F910C947E0BC77081E001C0880FCA95AB
:101D2000EAF7F3CF802F0E942A0D802FDF91CF9109
:101D30001F910F910C94930BDF91CF911F910F91F5
:101D40000895982F990F990F990F80914A068770DF
:101D5000892B80934A06887F91E009F490E0609196
:101D60004A0690FB60F960934A0686E090E00E9484
:101D7000DC2B80914A068695869586950C94270AD9
:101D800090914A06892F8695869586958F5F8F71EB
:101D90009770843090F5880F880F880F892B809377
:101DA0004A0680914A06887F91E009F490E06091AC
:101DB0004A0690FB60F960934A0686E090E00E9434
:101DC000DC2B8091BF0680FF11C080914A0686956A
:101DD000869586951F928F938BE695E09F938F93C0
:101DE0000E943D040F900F900F900F9080914A0633
:101DF0008695869586950C94270A90934A06D1CFAE
:101E000090E080E00E94D62B21E08C3E9E4F09F0AE
:101E100020E0822F08956CEE7EEF90E080E00E943B
:101E2000FA2B60E082E090E00E94DC2B60E083E02F
:101E300090E00E94DC2B1092420610924306109212
:101E400044061092450660E084E090E00E94DC2B9E
:101E500060E081E290E00E94DC2B60E085E090E0B1
:101E60000E94DC2B60E086E090E00E94DC2B6FEFAC
:101E700087E090E00E94DC2B40E050E0BA0188E06F
:101E800090E00E94EE2B60E08DE090E00E94DC2B61
:101E900040E050E0BA0188E190E00E94EE2B60E063
:101EA00087E190E00E94DC2B40E050E0BA018CE139
:101EB00090E00E94EE2B60E080E290E00E94DC2B3C
:101EC00040E050E0BA018FE090E00E94EE2B40E04D
:101ED00050E0BA0183E190E00C94EE2B0E94000FD9
:101EE000811102C00E940B0F86E090E00E94CE2B71
:101EF00080934A06803220F08770886180934A067A
:101F000080914A0680FF05C08695869586950C943B
:101F1000270A80E0FCCF0E94000F811102C00E94BE
:101F20000B0F87E090E00E94CE2B8093D706809124
:101F3000D806811129C03E9A809171008D7F8093CF
:101F4000710082E0809390008AE18093910081EC9F
:101F500091E1909397008093960023EA3BE04EE84E
:101F600055E46091C4027091C5028091C6029091BF
:101F7000C7020E94A62E0E945E2D70939900609366
:101F8000980081E08093D8068091D70680FF06C034
:101F900064E070E084E892E00C94AD100895CF9274
:101FA000DF92EF92FF920F931F93CF93DF936B011A
:101FB0007C018091BF0680FF0FC0C7010E94572D92
:101FC0007F936F938BED91E09F938F930E943D04DD
:101FD0000F900F900F900F908091D606882309F4F0
:101FE0005AC08091D806811102C00E948B0F0BE964
:101FF00016E0C7E0D0E0A7019601F801648D758D69
:10200000868D978D0E94E02C81115FC0FE01EE0F3E
:10201000FF1FEE0FFF1FE556F94F1082118212824B
:102020001382CC0FDD1FC557D94F1982188286E065
:10203000E73BF807C9F58091BD069091BE06019770
:1020400097FD4BC09093BE068093BD068091BD0660
:102050009091BE062091B6053091B7052817390733
:1020600024F01092B7051092B605892BA1F4809147
:1020700071008D7F80937100809190008F738093A9
:1020800090001092B2051092B3051092B405109210
:10209000B5051092D606DF91CF911F910F91FF9059
:1020A000EF90DF90CF90089584819581A681B781CC
:1020B00081939193A193B193108211821282138222
:1020C0008A819B8189939993B0CF219704501109FC
:1020D000CF3FDC0709F08FCFAECF1092BE06109233
:1020E000BD06B4CF8091BF0680FF08C086EC91E0AA
:1020F0009F938F930E943D040F900F908091D8067C
:10210000811102C00E948B0F1092BE061092BD0674
:10211000809171008D7F80937100809190008F730A
:10212000809390001092D5061092D6061092B205B8
:102130001092B3051092B4051092B505EBE9F6E0E4
:10214000ABE8B6E011921192119211921D921D927C
:1021500086E0EB3BF807B1F708950F931F93CF93F9
:10216000DF93EC018B018091D806811102C00E949F
:102170008B0F8091D70680FF4FC0809171008D7FBB
:10218000809371008091D60681110E94721081E0C7
:102190008093D506D093D406C093D3061093D2066D
:1021A0000093D1061092D0061092CC061092CD0664
:1021B0001092CE061092CF061092CB061092CA064D
:1021C00088819981AA81BB818093C6069093C706B6
:1021D000A093C806B093C90620E030E040E85EE373
:1021E0006C817D818E819F810E94A62E6093C206A4
:1021F0007093C3068093C4069093C5061092C106DF
:102200001092C0068091710082608093710080916D
:102210009000806880939000DF91CF911F910F9183
:10222000089581E08093DA0568E070E089E493E046
:102230000C94AD1081E08093DB0568E070E089ECE0
:1022400092E00C94AD106091D70661606093D70660
:1022500087E090E00E94DC2B62E070E084EA92E08C
:102260000C94AD10CF93DF93C82F20E8829FC0015C
:10227000112460E170E08C5F9E4F0E94AD1061E020
:1022800070E0CB0102C0880F991FCA95E2F7EC01FC
:10229000682F83E090E00E94DC2BBE0190E080E09C
:1022A000DF91CF910C94740BCF92DF92EF92FF925B
:1022B0006B017C018091BF0680FF14C01F928FE0EC
:1022C0008F93C7010E94572D7F936F938EE796E0FF
:1022D0009F938F930E943D040F900F900F900F904B
:1022E0000F900F908091D806811102C00E948B0F31
:1022F0008091D70680FF48C08091BD069091BE06B0
:1023000008970CF041C0809171008D7F809371001F
:102310008091D50681110E94721081E08093D606CB
:102320001092BC061092BB0620E030E0A901C70164
:10233000B6010E94A12E1816ECF48091BD06909172
:10234000BE06FC01EE0FFF1FEE0FFF1FE556F94F13
:10235000C082D182E282F382FC01EE0FFF1FE557BB
:10236000F94F2FE030E03183208301969093BE0631
:102370008093BD068091710082608093710080918E
:102380009000806880939000FF90EF90DF90CF9056
:1023900008958091DB0581110C94721008950E94BC
:1023A000C9111092DB0568E070E089E093E00C94BD
:1023B000AD1062E070E084EB92E00E94AD102FEF70
:1023C00081EE94E0215080409040E1F700C0000091
:1023D0000E9472106091D7066E7F6093D70687E0E7
:1023E00090E00C94DC2BE6EAF5E086E0DF011D923C
:1023F0008A95E9F70C94E40A1F93CF93DF93CDB746
:10240000DEB7AA970FB6F894DEBF0FBECDBFE3E8E4
:10241000F6E08091F100819386E0EB38F807C9F788
:1024200080918406833009F47CC008F5813009F47A
:1024300053C0823009F4BFC08091E80083FFF9C027
:1024400080918306909184069A3008F0F2C0E92FBB
:10245000F0E0E35DFD4E0C946C2BEC12121319139B
:10246000121319137013921319139C14A9148A30A0
:1024700009F490C08B3009F471C08930E9F680917D
:1024800083068132C9F6809187069091880602976B
:1024900098F68091E800877F8093E8008091E800BB
:1024A00082FF3AC08091F3009091F200892798272B
:1024B0008927029729F48091F1008B7F813021F4E4
:1024C0008091F100809376068091E8008B7780936D
:1024D000E8000E94BE04B0CF80918306813A09F0E3
:1024E000ABCF8091E800877F8093E80080918706DA
:1024F00090918806892B61F060E090E080E070E0C8
:102500000E9470058091E8008B778093E80094CF5B
:1025100068E087E796E0F3CF809181068111BECF16
:102520008BCF80918306813A09F086CF8091870610
:1025300090918806892B09F07FCF8091E800877FF2
:102540008093E8008091E80080FFFCCF80910E0529
:102550008093F1008091E8008E77B9CF8091830657
:10256000813209F069CF8091870690918806892B86
:1025700009F062CF8091E800877F8093E8000E9495
:10258000BE048091850680930E05109274060E9409
:10259000F31152CF80918306813209F04DCF8091A3
:1025A000E800877F8093E8000E94BE048091860641
:1025B0008093750641CF80918306813A09F03CCF24
:1025C0008091E800877F8093E8008091E80080FF99
:1025D000FCCF80917506BCCF803889F0823849F5F0
:1025E000809187068F70873020F58093E900809175
:1025F000EB0085FB882780F91092E90006C08091E6
:102600007F0690918006911182609091E800977FFB
:102610009093E8008093F1001092F1008091E8001F
:102620008E772DC0282F2D7F21F48823D1F0823082
:1026300059F18091E80083FF0AC08091E800877F0C
:102640008093E8008091EB0080628093EB00AA9673
:102650000FB6F894DEBF0FBECDBFDF91CF911F91B3
:10266000089580918506813021F7933009F080E04C
:10267000809380061092E9008091E800877F809324
:10268000E8000E94BE04D5CF809185068111F2CF6B
:10269000809187068F702FEF280F263050F6809399
:1026A000E9002091EB0020FFE5CF933031F48091D9
:1026B000EB0080628093EB00DDCF9091EB009061A6
:1026C0009093EB0021E030E001C0220F8A95EAF7F9
:1026D0002093EA001092EA008091EB008860EACF34
:1026E0008111A7CF109185061F778091E300807834
:1026F000812B8093E3008091E800877F8093E8003E
:102700000E94BE048091E80080FFFCCF8091E3002E
:1027100080688093E30083E0111101C082E0809320
:10272000810687CF8058823008F083CF20918506BC
:10273000309186062C3DA3E03A07A1F583E08A8319
:102740008AE289834FB7F894DE01139620E03EE0D9
:1027500051E2E32FF0E050935700E49120FF03C0D3
:10276000E295EF703F5FEF708E2F90E0EA30C0F09F
:10277000C7968D939D932F5F243159F74FBF80915A
:10278000E800877F8093E8006AE270E0CE0101965E
:102790000E9470058091E8008B778093E80049CF14
:1027A000C096E7CF8091870690918806432F5527E2
:1027B0004330510509F44FC078F54130510509F413
:1027C00045C08BE590E0E9EEF5E04230510509F0B7
:1027D00030CF2091E800277F2093E80020918906E0
:1027E00030918A068217930708F49C0140E0211576
:1027F000310509F06EC041116CC08091E80082FD86
:10280000C9CF80918106882329F2853019F2809101
:10281000E80083FFF2CFBECF4132510509F44AC030
:102820004232510509F005CF8330910508F001CF00
:10283000FC01EE0FFF1FEA56FA4F0190F081E02DE8
:102840008D569A4FDC018C9190E020C082E190E09F
:10285000E4E4F6E0BECF332721303105D9F078F03B
:1028600022303105F9F02330310509F0E2CEE6E5FA
:10287000F6E0E4918E2F90E0E6E5F6E007C0EAE7A7
:10288000F6E0E4918E2F90E0EAE7F6E0009709F495
:10289000D0CE9FCFEEE6F6E0E4918E2F90E0EEE60C
:1028A000F6E0F4CFECE5F6E0E4918E2F90E0ECE575
:1028B000F6E0ECCF8330910508F0BBCE880F991F6E
:1028C000FC01E456FA4F0190F081E02D89E090E0A0
:1028D00080CF80918106882309F45CCF853009F48C
:1028E00059CF8091E80083FD55CF8091E80082FDAB
:1028F00084CF8091E80080FF7ACF8091F30090919F
:10290000F2008927982789272115310519F0883089
:10291000910550F041E0089709F040E08091E8000F
:102920008E778093E80063CF44914093F100319615
:10293000215031090196E8CF803809F07ACE809194
:10294000E800877F8093E800809182068093F10001
:1029500065CE81116ECE10918506123008F069CED9
:102960008091E800877F8093E800109382060E94A0
:10297000BE04112399F084E08093810642E061EC6B
:1029800081E00E94DD0442E261EC82E00E94DD040D
:1029900042E261EC83E00E94DD044BCE8091E300D3
:1029A00087FDE9CF81E0E8CF8554990BBC01990FF1
:1029B000880B990B0E948F2D20E030E040E451E419
:1029C0000E94E52C9B01AC0160E070E080E090E4A7
:1029D0000E94132F20E030E04CED53E40E94A62E1D
:1029E00008950E94D4140C9454118F929F92AF9228
:1029F000BF92CF92DF92EF92FF920F931F93CF93EC
:102A0000DF93CDB7DEB7A8970FB6F894DEBF0FBE41
:102A1000CDBF7C01DC011C911196DC9011971396BF
:102A20008D919C91892B41F0BFEFDB1203C081E0B7
:102A30001F3F19F080E001C081E0E82FE170CE2E49
:102A400080FD73C085E0F701DE01949601900D9240
:102A50008A95E1F7D70112962C918CA19DA1222392
:102A600009F449C00E94A909082F682F8CA19DA1D3
:102A70000E947706E12FF0E0BCE0DB9EE00DF11D47
:102A800011242CE3029FE00DF11D1124EE0FFF1F16
:102A9000ED50FE4F0591149103304DE5140709F4F4
:102AA00077C068F501309DE5190709F451C002307F
:102AB000ADE51A0709F466C00D312CE5120709F0DF
:102AC0009BC0D70112968C91882309F49BC1A896CC
:102AD0000FB6F894DEBF0FBECDBFDF91CF911F912F
:102AE0000F91FF90EF90DF90CF90BF90AF909F90AD
:102AF0008F900C9423110E944C06082FBBCF0530F9
:102B0000BDE51B0709F46AC008F449C00630FDE5BD
:102B10001F0791F6F7018281882309F468C085EECA
:102B20000E942A0D0E94C00E7698A8960FB6F894BF
:102B3000DEBF0FBECDBFDF91CF911F910F91FF90F0
:102B4000EF90DF90CF90BF90AF909F908F900895BF
:102B5000D70112968C91882341F380E0A8960FB696
:102B6000F894DEBF0FBECDBFDF91CF911F910F91C3
:102B7000FF90EF90DF90CF90BF90AF909F908F909D
:102B80000C943211F7018281882379F281E0E6CF3B
:102B9000D70112968C91882341F282E0DFCFF701B2
:102BA0008281882321F083E00E94530B03C083E0DD
:102BB0000E94180BA8960FB6F894DEBF0FBECDBFCB
:102BC000DF91CF911F910F91FF90EF90DF90CF9009
:102BD000BF90AF909F908F900C94FC0AD7011296F3
:102BE0008C91882311F084E0DFCF84E0E1CF85EE83
:102BF0000E94930B769A99CF0E31BCE51B07C9F45E
:102C0000F7018281882309F4FDC0A8960FB6F894D5
:102C1000DEBF0FBECDBFDF91CF911F910F91FF900F
:102C2000EF90DF90CF90BF90AF909F908F900C94DB
:102C3000D9110F31FCE51F0759F4D70112968C9179
:102C4000882309F4DFC08091D70680FDDECF3FCF17
:102C50000A32BCE51B0729F5F7018281882309F4B4
:102C6000D1C08091C20590E001968770992780932A
:102C7000C20564E070E089E893E0A8960FB6F89486
:102C8000DEBF0FBECDBFDF91CF911F910F91FF909F
:102C9000EF90DF90CF90BF90AF909F908F900C946B
:102CA000AD100B32FCE51F0759F4D70112968C9139
:102CB000882309F4A7C08091C20590E00796D5CF7C
:102CC0000632BCE51B07C9F4F7018281882309F4A9
:102CD00099C0A8960FB6F894DEBF0FBECDBFDF91A6
:102CE000CF911F910F91FF90EF90DF90CF90BF9009
:102CF000AF909F908F900C941A110732FCE51F073C
:102D0000D1F4D70112968C91882309F47BC0A89640
:102D10000FB6F894DEBF0FBECDBFDF91CF911F91EC
:102D20000F91FF90EF90DF90CF90BF90AF909F906A
:102D30008F900C94CF110832BCE51B0751F4F701BA
:102D40008281882309F45EC08091DB058111DFCF89
:102D5000C0CF0C32FCE51F07D1F4D70112968C913D
:102D6000882309F44FC0A8960FB6F894DEBF0FBEB3
:102D7000CDBFDF91CF911F910F91FF90EF90DF902A
:102D8000CF90BF90AF909F908F900C9411110D3207
:102D9000BCE51B0759F4F7018281882399F1109251
:102DA000DA0568E070E089EA93E067CF0E32FCE56F
:102DB0001F0751F4D70112968C91882319F1809145
:102DC000DA058111ECCFCFCF0932BCE51B07D1F476
:102DD000F70182818823B1F00E94C91120918904F2
:102DE00030E02F5F3F4F237033272093890448E260
:102DF000429FC001439F900D112465E070E0875110
:102E00009C4F3BCF2091DB05211105C08091DA0555
:102E1000882309F4F9C0D70112963C91332309F4B1
:102E20004AC0003E110561F40E94C91181E08093FF
:102E3000D9051092D8051092D7051092D60575CEF7
:102E4000023E110571F40E94C9118091D9058823B1
:102E500019F081E08093D8051092D9051092D7051A
:102E600064CE033E110591F48091D805882319F1B1
:102E70000E94C9111092D90581E08093D705109264
:102E8000D5051092D4051092D3054FCE80918A04B7
:102E900090918B040A970235110541F00135110517
:102EA00051F480918A0490918B040A9690938B043C
:102EB00080938A043ACE8091890481110EC0F70173
:102EC000418185E090E0841B9109D080F0E1DF0E24
:102ED0004CE0849FD00C112412C0813009F05DC0F9
:102EE000D70111964C91119785E090E0841B9109D0
:102EF000D82EDD0CDD0CD80E8C918D5CD80E3323D2
:102F000009F479C0222319F08D2D0E94F1148091CB
:102F1000D905882351F08091D605E82FF0E0ED53D4
:102F2000FA4FD0828F5F8093D6050115110509F005
:102F3000FCCDD70112968C91882309F494C5109288
:102F4000DC050631BCE51B0709F44EC208F0A7C03A
:102F50000130FCE51F0709F413C108F0BAC00115E0
:102F60001C4509F074C5109274060E94F3110E946A
:102F7000C9110E94FD058C0163E070E08CE894E0CB
:102F80000E94AD10C8010E94D3058A3F910508F444
:102F9000F0C00E9472100E94060D823059F4F701B1
:102FA000418185E090E0841B9109D080F3E3DF0E3E
:102FB00047E08FCF4CE0D42E833009F0A0CF83E2DE
:102FC000EFE0F5E0DE01119601900D928A95E1F7B0
:102FD000D701EC91EC0FFD2FF11D11964C9185E07E
:102FE00090E0841B9109D084BCE08B9FD00C11240D
:102FF000E9E0DE0E84CF222309F497CF8D2D0E94C5
:10300000D4140E94CF0F91CF033FFCE51F07C1F1FD
:1030100088F4083D4CE5140779F1093D8CE5180763
:10302000D9F1073D9CE5190709F083CF26E241EE6F
:1030300061EE0DC0053FACE51A0751F128F127E21A
:1030400045EE66EE063FECE51E0709F072CFC701BC
:10305000A8960FB6F894DEBF0FBECDBFDF91CF911B
:103060001F910F91FF90EF90DF90CF90BF90AF90A6
:103070009F908F900C94300E27E245EE65EEE7CFDF
:1030800026E241EE60EEE3CF27E245EE64EEDFCFCD
:1030900026E241EE62EEDBCF28E241E0EFCF0E3DCB
:1030A0009CE5190709F48FC068F40C3DBCE51B07CB
:1030B00009F49DC00D3D1C4509F0C9C482E0809310
:1030C0004B0633CD98012A5F3C452730310508F087
:1030D000BEC4882309F4D8C40E94000F811102C025
:1030E0000E940B0F0E94E90B90935806809357069D
:1030F0000F309CE5190709F44EC108F0B7C008303D
:10310000BCE51B0709F428C108F087C00430FCE5C2
:103110001F0709F415C108F06DC002304CE5140713
:1031200009F406C103301C4509F406C16091570635
:103130001091580684E090E00E94DC2B612F81E220
:1031400090E00E94DC2B10927406A8960FB6F894BB
:10315000DEBF0FBECDBFDF91CF911F910F91FF90CA
:10316000EF90DF90CF90BF90AF909F908F900C9496
:10317000F3118FE99FE00197F1F700C0000002CF43
:103180009091BF06892F8E7F90FF81608093BF064C
:1031900080FF16C085ED94E0A8960FB6F894DEBFC8
:1031A0000FBECDBFDF91CF911F910F91FF90EF9098
:1031B000DF90CF90BF90AF909F908F900C94A4031E
:1031C00083EC94E0E9CFA8960FB6F894DEBF0FBE6B
:1031D000CDBFDF91CF911F910F91FF90EF90DF90C6
:1031E000CF90BF90AF909F908F900C940B0F109248
:1031F0004B069BCC80915706806106309CE51907F1
:1032000009F44CC080915706886007301C4508F4CB
:1032100045C080915706806241C00B30BCE51B075A
:1032200009F4ADC0B0F40930FCE51F0709F498C0FB
:103230000A301C4509F07ACF809157068860846077
:103240008093570664E070E084EE94E00E94AD1035
:103250006DCF809157068B7F0D304CE51407F1F050
:1032600008F491C080915706877F18C00A3F9CE5FB
:10327000190709F469C080F50231BCE51B0709F4A0
:1032800092C078F40031FCE51F0709F488C08091F2
:1032900057068F7B01311C4509F048CF80935706B4
:1032A00045CF04314CE5140709F497C008F47FC0FA
:1032B00005311C4509F03ACF8091570682FB9927CA
:1032C00090F921E0922790FB82F990FB83F980939B
:1032D000570683FF72C0B6CF0D3FACE51A0709F45D
:1032E00056C070F40B3FECE51E0791F18091580633
:1032F0008E7F0C3F1C4509F019CF8093580616CFDE
:103300000F3F2CE5120709F45DC070F101151D4552
:1033100009F00CCF80915806982F909591708E7F70
:10332000892B90FB81F98093580681FF51C022C000
:10333000809157068160B2CF809157068260AECFF0
:10334000809157068460AACF809158068160D5CFBE
:10335000809158068260D1CF8091570680649ECFBD
:103360008091570680689ACF80915806826081606C
:103370008093580664E070E084EC94E067CF80911D
:1033800057068E7F8BCF809157068D7F87CF809198
:1033900058068D7FB2CF809157068F7E7FCF809168
:1033A00057068F7D7BCF809157068F7777CF80919F
:1033B0005706877F8B7F8093570662E070E084EB2F
:1033C00094E044CF809158068D7F8E7F809358067D
:1033D00062E070E084EA94E039CF90915706892F3B
:1033E00097FB87F980585ACF809174068A7A91E0CA
:1033F00009F490E09093DD058823B9F085E30E94FD
:103400003306A8960FB6F894DEBF0FBECDBFDF918E
:10341000CF911F910F91FF90EF90DF90CF90BF90D1
:10342000AF909F908F900C947E0A89E2E8CF8091B4
:10343000DD05882321F085E30E942706E2CF89E29B
:10344000FBCF212F2F70B22E107F19F0B29490EF86
:10345000B922802FDD20C9F0BB2069F090E2900FE7
:10346000983010F001110BC080917406B82AB09208
:1034700074060E947E0A802F0E942A0D17C0809138
:103480004006B82AB0924006F4CF0E94930BBB20AE
:1034900069F0B094005E083010F0911031C0809156
:1034A0007406B822B09274060E947E0ACC2009F4F9
:1034B0003CCB80913E0680FD38CBF701128285958A
:1034C000859585950E94530BC7010E94F514809144
:1034D0003E06859585958595A8960FB6F894DEBF2E
:1034E0000FBECDBFDF91CF911F910F91FF90EF9055
:1034F000DF90CF90BF90AF909F908F900C94180B5F
:1035000080914006B822B0924006CECF412F4F7036
:10351000A42E107F103219F0A29480EFA8229920D7
:1035200089F091E0991679F1DD20D1F1BB2089F184
:10353000D70115968C91159780FF9DCF8F701596AA
:103540008C9327C0DD2091F0909141068A2D892B24
:10355000B11003C00E94890BA9CFA1E0BA12FACF23
:10356000891709F4A3CF80934106A0CFB11006C0FC
:103570000E9421068A2D0E947E0B98CFB1E0BB16D7
:1035800009F494CFF5CFDD2031F0E5E0EB1508F438
:103590008DCF8A2DDFCFF4E0FB1508F487CFEACF7B
:1035A000BB2041F3093349F4BFEFE7EEF3E0B1503C
:1035B000E040F040E1F700C00000802F0E94930B34
:1035C00075CF812F86958695837041F0813079F093
:1035D00088EF8A0D843008F069CF5DC0C801937010
:1035E000D11002C090E080E00E94C6065FCFC80103
:1035F0009370D11002C090E080E00E94B00656CFD8
:10360000812F837009F068C0D11045C0802F82954A
:1036100086958770880F880F602F6F70862E912C8B
:10362000B12CA12C082E04C0880C991CAA1CBB1C10
:103630000A94D2F740E050E0BA0104FF0FC04FE017
:1036400050E060E070E004C0440F551F661F771F14
:103650008A95D2F74095509560957095812F869503
:1036600086958370823029F1E8F40091420610912A
:1036700043062091440630914506813079F048296F
:1036800059296A297B29CB01BA016023712382233E
:1036900093230E94740B0E94DC0608CF802A912A93
:1036A000A22AB32ACB01BA01682979298A299B2940
:1036B000F0CF482959296A297B29009142061091A7
:1036C00043062091440630914506CB01BA0160279C
:1036D000712782279327DDCF8695DD2011F0812F7A
:1036E00081708823C1F2802F829586958770880F1C
:1036F000880F602F6F70862E912CB12CA12C082E74
:1037000004C0880C991CAA1CBB1C0A94D2F740E088
:1037100050E0BA0104FF0FC04FE050E060E070E0FD
:1037200004C0440F551F661F771F8A95D2F7409536
:10373000509560957095812F86958695837082301F
:1037400019F1D8F40091D9061091DA062091DB0620
:103750003091DC06813069F0482959296A297B2992
:10376000CB01BA0160237123822393230E94F20AC2
:1037700092CF802A912AA22AB32ACB01BA016829C2
:1037800079298A299B29F2CF482959296A297B2935
:103790000091D9061091DA062091DB063091DC0603
:1037A000CB01BA016027712782279327DFCF1F70D3
:1037B000DD2039F0812F0E94530B802F0E94890B4E
:1037C0006ACF802F0E947E0B812F0E94180B63CF3F
:1037D000802F22EF921609F457C0291588F040EF88
:1037E000941629F191EF991609F447C0DD2009F4E8
:1037F00072C0BB2009F46CC0802F0E942A0DE8CE55
:10380000A3EF9A1609F447C0B4EF9B12EFCFDD2067
:1038100009F453C01F71812F0E94530B28E0129F9F
:10382000C0011124836080933E06812F2AC0DD20D1
:10383000F9F0E4E0EB1508F4CBCE1F7161E070E025
:1038400080E090E004C0660F771F881F991F1A95CB
:10385000D2F70091D9061091DA062091DB0630915B
:10386000DC0660277127822793270E94F20AB0CED8
:10387000F5E0FB1508F4ACCEE0CF812F8F71DD2091
:1038800039F00E94530BA4CE812F8F71DD20C9F334
:103890000E94180B9DCE60E070E0CB01DD2029F383
:1038A0001F7161E070E080E090E004C0660F771F58
:1038B000881F991F1A95D2F7D8CF81E00E943B0B41
:1038C00041E04B1508F084CE82E00E943B0B80CE95
:1038D000812F8F71D6CFBB2079F0893349F48FEFD8
:1038E00097EEA3E081509040A040E1F700C00000B7
:1038F000802F0E94930B6CCE812F8F71C9CFD11076
:10390000D5CD1F70123009F46AC048F5112399F122
:10391000113009F05DCE80914A06982F987F89F08A
:10392000885080934A06887F91E009F490E0609186
:103930004A0690FB60F960934A0686E090E00E9498
:10394000DC2B8091BF0680FF44C080914A0686959B
:10395000869586951F928F938EEF94E032C0143037
:1039600009F473C008F46EC080E0153009F030CE61
:103970000E94A10E9BCD80914A06982F9695969510
:103980009695933040F49F5F990F990F990F877028
:10399000892B80934A0660914A06616060934A06CB
:1039A00086E090E00E94DC2B8091BF0680FF11C072
:1039B00080914A068695869586951F928F9386EE0E
:1039C00094E09F938F930E943D040F900F900F906F
:1039D0000F9080914A0686958695869530C0109105
:1039E0004A0611708091BF0680FFA8C01F921F93E6
:1039F0008BE395E09F938F930E943D040F900F906F
:103A00000F900F90112309F49BC080914A0680FF0C
:103A10004DCD60914A066E7F60934A0686E090E045
:103A20000E94DC2B8091BF0680FF08C086E195E0F4
:103A30009F938F930E943D040F900F9080E00E940F
:103A4000270A34CD0E94C00E31CD83E091CFD7013B
:103A50000D911C91C8010E94A909D82E682FC80198
:103A60000E94770618C00631BCE51B0709F4DFCCBD
:103A700008F050C00130FCE51F0709F456C820F4D7
:103A800001151C4509F451C8D7010D911C91C801BD
:103A90000E944C06D82EB8018D2D0E942B078C0158
:103AA000982EF701B580B2943FE0B322D280D110B6
:103AB0001092400680913E06877081F0DD2069F00B
:103AC00080E2800F883050F082E00E943B0B8091B2
:103AD0003E068770CC24C3948111C12CA12EA294E0
:103AE0002FE0A222FDE0FA1508F4E0CCEA2DF0E088
:103AF000E458F24E0C946C2B211A211A861A861A5D
:103B0000E11A561A561A561A001BD71BE81BE81B57
:103B1000561A7F1C0E3D8CE5180711F40C94951570
:103B200008F0B2CF0C3DACE51A0711F40C949515D2
:103B30000D3D1C4511F40C949515A6CF111169CFBC
:103B400080914A0680FDB2CC816080934A06813024
:103B500019F489E080934A0660914A0686E090E075
:103B60000E94DC2B8091BF0680FF33CF89E295E075
:103B70009F938F930E943D040F900F902ACF1F9325
:103B8000CF93DF938091E305807FD1F48091E005AE
:103B90008823B1F080911506D091E405B091DE053F
:103BA000C091DF054091E1055091E205A1E0BF3FE2
:103BB00009F0A0E0BA016095709516E0D81304C032
:103BC000DF91CF911F91089521E04115510521F01A
:103BD0002A2FCF3F09F020E090E020FD38C0189F49
:103BE000F001199FF00D1124EB51FA4F21812C1394
:103BF0002EC020812B132BC02281211128C02381AC
:103C000034812417350700F1241B350B283C31057E
:103C1000F0F42091E3052F7020612093E30526E066
:103C2000289FF001299FF00D1124E651FA4F808161
:103C30008F70806180838EED95E00E94F514DF9196
:103C4000CF911F910C94A606260F371FDFCF019648
:103C50008770B4CFAF92BF92CF92DF92EF92FF9274
:103C60000F931F93CF93DF93CDB7DEB761970FB656
:103C7000F894DEBF0FBECDBF8C0185E0F801DE01F8
:103C80001D9601900D928A95E1F7D8013C9111960D
:103C90002C9111971296EC905091DE056091DF0502
:103CA0008091E1059091E20541E0009731F06F3F8E
:103CB00019F441E05F3F09F040E0B42FB170BB2E32
:103CC00040FD5EC1F801C380D480A090E005AA2029
:103CD00009F40EC1C816D906C0F1D601A81BB90B4C
:103CE000CD01FF24F394883C910508F0F12C8091DC
:103CF000E305982F907FFF2009F4BCC0911185C087
:103D0000FE2C621327C0531325C0E11023C08F700F
:103D100080618093E3058EED95E00E94F51480911B
:103D2000E305F80185838F2D61960FB6F894DEBF09
:103D30000FBECDBFDF91CF911F910F91FF90EF90FC
:103D4000DF90CF90BF90AF900895809590958C0DA7
:103D50009D1DC7CF81E0CD2831F02F3F19F481E0C0
:103D60003F3F09F080E080FD24C081E08E25F82FE0
:103D7000F170DF2E80FF3FC0809115064091E40571
:103D800056E0841318C03D872E878D859E850E943E
:103D9000EB09292F22952F70223008F1243030F5BD
:103DA0009F7009F1D80115969C91907FE1F4FB2C4E
:103DB000BACF80E0DCCF90E0589FF001599FF00D22
:103DC0001124EB51FA4F6181261306C0608136132E
:103DD00003C06281E6120FC001968770D2CF9F7038
:103DE00011F0882321F3805E883008F3C8010E9417
:103DF000F514BD2CDCCFEE2009F495CF8091E305BE
:103E000081608093E305F12C8ECF621306C05313BB
:103E100004C0F801EE2009F495C03D872E878D85FA
:103E20009E850E94F509882309F1EE20F9F0809122
:103E3000E305803270F02091DE053091DF05388790
:103E40002F831986DB86CA868C87CE0107960E944F
:103E5000F51486E0F801AEEDB5E001900D928A957B
:103E6000E1F70E94BF1DFF24F3945DCFC8010E94BB
:103E7000F514F9CF91110CC08EED95E00E94F51468
:103E800086E0EEEDF5E0DF011D928A95E9F74BCF74
:103E9000621312C0531310C0E1100EC0F8018583E5
:103EA000C8010E94F514EEEDF5E086E0DF011D92F9
:103EB0008A95E9F7FA2C37CF3D872E878D859E8529
:103EC0000E94F509882391F2EE2081F28091E305AA
:103ED000803208F4BECF2091DE053091DF053A83B1
:103EE00029831B82DD82CC828E83CE010196AFCFE7
:103EF000C816D90640F0C81AD90AB8ECCB16D104B6
:103F000048F0F12CBDCF809590958C0D9D1D883C7F
:103F10009105B8F7FE2CEE2009F4A8CF62131FC05C
:103F200053131DC08091E30580FD10C0982F907F32
:103F300069F0F8018583903F31F0982F907F905F72
:103F40008F70892B8583C8010E94F51486E0F801E3
:103F5000AEEDB5E001900D928A95E1F7E4CE3D8794
:103F60002E878D859E850E94F509811172CF8091E3
:103F7000E30581608093E305C8010E94F514D3CE68
:103F8000EE2009F473CF3D872E878D859E850E9494
:103F9000F509F82E882309F469CF86E0F801AEED23
:103FA000B5E001900D928A95E1F78091DE05909140
:103FB000DF050E94EB090E94BF1DB5CE1F93CF9372
:103FC000DF93CDB7DEB767970FB6F894DEBF0FBEAD
:103FD000CDBF4B8B5C8B6D8B7E8B8F8B1A8A198A36
:103FE00085E0FE017396DE011D9601900D928A9583
:103FF000E1F786E0FE013D96DE01179601900D92F5
:104000008A95E1F7CE0107960E942A1E811137C0DA
:1040100086E0FE013796DE01119601900D928A9599
:10402000E1F79F8188852A853B85232B39F08F3FD7
:1040300019F481E09F3F19F080E001C081E080FD2C
:104040001EC02091E40530E0C901019687709927D0
:10405000409115064817190659F196E0929FD00134
:10406000939FB00D1124AB51BA4FFE0131960190D0
:104070000D929A95E1F78093E4050E94A60616E05A
:10408000809115069091E405891709F1819FC0017F
:1040900011248B519A4F0E942A1E8823C1F08091CF
:1040A000150690E001968770992780931506E8CF52
:1040B000109274060E94F3111092E40510921506F6
:1040C00086E0EEEDF5E0DF011D928A95E9F767964F
:1040D0000FB6F894DEBF0FBECDBFDF91CF911F9119
:1040E00008955F926F927F928F929F92AF92BF924C
:1040F000CF92DF92EF92FF920F931F93CF93DF93B4
:10410000ADE4B6E042E855E097E8892E95E0992EB7
:10411000512CEE24E394F12CAD90BC9011971196A4
:104120001C921E92EA018991AE01E82FE295EF7090
:10413000F0E091A18F70B70101C0660F8A95EAF790
:10414000892F862B81A382A1662E6094862182A36B
:10415000D0EADA95F1F787E8C82E85E0D82E30E06E
:1041600020E0E60179906E01872D82958F7090E0B6
:10417000EC0188A10D911C91119790E0D72DDF7073
:1041800002C095958795DA95E2F780FD80C0C7015A
:10419000022E02C0880F991F0A94E2F7082B192BF0
:1041A00011961C930E932F5F3F4F2C303105C9F6AB
:1041B00081A1D62DD823D1A382A1682B62A381E04F
:1041C0002D913C9111972A153B0509F480E0582A5E
:1041D00012968416950609F09FCF552049F081E08C
:1041E0008093AE050E94FD059093AD058093AC05CC
:1041F0008091AE05882391F18091AC059091AD0539
:104200000E94D305069750F180914D0690914E067D
:1042100090935D0680935C0680914F0690915006C6
:1042200090935F0680935E068091510690915206AE
:104230009093610680936006809153069091540696
:10424000909363068093620680915506909156067E
:1042500090936506809364061092AE058091D70511
:10426000882309F18091D3059091D405009791F4AA
:104270000E94FD059093D4058093D3058091D505C8
:10428000282F30E0882361F1C90101972DC090E00B
:1042900080E084CF0E94D30520918A0430918B0462
:1042A0002817390728F38091AF059091B005892B25
:1042B00031F00E9472101092B0051092AF05852D5A
:1042C000DF91CF911F910F91FF90EF90DF90CF90F2
:1042D000BF90AF909F908F907F906F905F90089568
:1042E0008091D6058150990B2D533A4FF901D08119
:1042F0002091DB05222341F08D539A4FFC018081F0
:104300000E94D4140E94CF0F8091DB05882319F0FE
:104310008D2F0E94F1148091D50590E00196609157
:10432000D60570E00E94582B8093D505BCCF8F92A4
:104330009F92AF92BF92CF92DF92EF92FF92CF9374
:10434000DF936B017C01C091BB06D091BC06BE011E
:1043500090E080E00E948D2D4B015C01A701960149
:1043600060E070E08CE594E40E94E52C9B01AC01D8
:10437000C501B4010E94A62E0E945E2D9B01E09112
:10438000C205E83018F5F0E0E853FE4D0C946C2BB4
:10439000D021F3210C221523E6215D238E23CC238B
:1043A0001092C80280E090E0A0E0BFE38093C402D6
:1043B0009093C502A093C602B093C7021092B805AD
:1043C0001092B9051092BA051092BB05C701B6014B
:1043D000DF91CF91FF90EF90DF90CF90BF90AF90A3
:1043E0009F908F9008951092C8021092B805109275
:1043F000B9051092BA051092BB056A50710980E0A8
:1044000090E0A0E8BEE36F3B710508F405C180E0D1
:1044100090E0A0E0BEE300C11092C8021092B8057F
:104420001092B9051092BA051092BB0520E030E059
:1044300040EA52E4C701B6010E94E02C87FDC6CFD6
:1044400020E030E040E253E4C701B6010E94E02CD6
:1044500087FF3AC00E94BE2B68E270E00E94582B92
:10446000BC01645C7F4F072E000C880B990B0E94E7
:104470008F2D6B017C018091BB069091BC068B3027
:10448000910508F4C5C08531910508F046C065E185
:1044900070E0681B790B90E080E00E948D2D20E099
:1044A00030E040E05FE30E94A62E20E030E040E2F2
:1044B00051E40E94E52C6093C4027093C50280937E
:1044C000C6029093C70282CF20E030E040EA53E476
:1044D000C701B6010E94E02C87FF28C00E94BE2BB6
:1044E00068EE73E00E94582BBC0168517C4F072E88
:1044F000000C880B990B0E948F2D6B017C01809121
:10450000BB069091BC068630910508F481C065E138
:1045100070E08531910508F46AC01092C4021092CF
:10452000C5021092C6021092C70250CF20E030E0C0
:1045300040E254E4C701B6010E94E02C87FF2FC07F
:104540000E94BE2B60ED77E00E94582BBC0168549E
:10455000744F072E000C880B990B0E948F2D6B0156
:104560007C018091BB069091BC068031910508F4D6
:104570004FC08531910588F665E170E0681B790BC5
:1045800090E080E00E948D2D20E030E040E05FE38D
:104590000E94A62E20E030E040EA50E48ACF20E0DE
:1045A00030E040EA54E4C701B6010E94E02C87FFE6
:1045B0000DCF0E94BE2B60ED77E00E94582BBC010E
:1045C0006854744F072E000C880B990B0E948F2D96
:1045D0006B017C018091BB069091BC0684329105F1
:1045E000B8F08333910508F098CF63E370E0681B5F
:1045F000790B90E080E00E948D2D20E030E040E0DB
:104600005FE30E94A62E20E030E040E751E451CF66
:1046100080E090E0A0E0BFE38093C4029093C502E5
:10462000A093C602B093C702D1CE41E04093C80226
:104630001092B8051092B9051092BA051092BB05F8
:104640006431710540F46A30710560F120E030E0BA
:1046500040E05FE32BC0693C710508F05ECF90E05D
:1046600080E00E948D2D20E030E040EA51E40E947D
:10467000732C20E030E044E353E40E94E52C9B01DE
:10468000AC010E94A62E20E030E040E05EE30E94F4
:10469000A62E9B01AC0160E070E080E09EE30E94EA
:1046A000732C09CF20E030E040E85EE3C701B6019B
:1046B0000E94A62E6B017C01AACE21E02093C802A5
:1046C0001092B8051092B9051092BA051092BB0568
:1046D0004AE0469F9001479F300D1124C90168EBC5
:1046E0007BE00E94442BBC016C5D754077FF03C0EA
:1046F000719561957109072E000C880B990B0E942A
:104700008F2D2EE333EC4EE259E30E94A62E20E0DB
:1047100030E040EC5EE30E94742CCDCE81E08093CB
:10472000C8021092B8051092B9051092BA051092FD
:10473000BB05CE0183709927892B09F1BE016170F9
:10474000772790E080E00E948D2D20E030E040E06F
:104750005EE30E94A62E20E030E040E45FE30E948A
:10476000742C6093C4027093C5028093C602909328
:10477000C702C770DD27CD2B09F028CECECE80E052
:1047800090E0A0E0BFE38093C4029093C502A093A1
:10479000C602B093C702EDCF41E04093C802109229
:1047A000B8051092B9051092BA051092BB05812C7C
:1047B000912CA12C9FE3B92E8092C4029092C50245
:1047C000A092C602B092C7022739310508F4FECD87
:1047D00090E080E00E948D2D20E030E047E153E43E
:1047E0000E94732C20E030E04AE754E40E94E52C5C
:1047F00020E030E048E452E40E94A62E20E030E0C1
:1048000040EA51E40E94D52D0E94572D660F771F74
:10481000660F771F6E5C7A4FFB01208131814281E8
:104820005381C701B6010E94A62E6B017C01CECD3B
:104830001F920F920FB60F9211242F933F934F9315
:104840005F936F937F938F939F93AF93BF93CF9318
:10485000EF93FF93C091E900CF708091EC0010922C
:10486000E9008091F000877F8093F00078940E94A7
:10487000FC111092E9008091F00088608093F000B4
:10488000C093E900FF91EF91CF91BF91AF919F91BC
:104890008F917F916F915F914F913F912F910F90E9
:1048A0000FBE0F901F9018951F920F920FB60F9288
:1048B00011242F933F934F935F936F937F938F9325
:1048C0009F93AF93BF93EF93FF938091E10082FF9B
:1048D00015C08091E20082FF11C08091E1008B7FC2
:1048E0008093E100209172062F5F822F62E30E9485
:1048F000382B992309F4C4C0209372068091DA0002
:1049000080FF28C08091D80080FF24C08091DA0009
:104910008E7F8093DA008091D90080FFE8C080E12B
:1049200089BD82E189BD09B400FEFDCF81E080939D
:10493000810685ED95E00E94A403809173068111A4
:1049400009C00E9446040E940F058091E200846025
:104950008093E2008091E10080FF1BC08091E20023
:1049600080FF17C08091E2008E7F8093E2008091EB
:10497000E20080618093E2008091D80080628093A1
:10498000D80019BC85E0809381068DED95E00E94EA
:10499000A4038091E10084FF33C08091E20084FF92
:1049A0002FC080E189BD82E189BD09B400FEFDCF41
:1049B0008091D8008F7D8093D8008091E1008F7E18
:1049C0008093E1008091E2008F7E8093E2008091ED
:1049D000E20081608093E20080918206882309F4DE
:1049E00090C084E08093810681EE95E00E94A4034C
:1049F000109274060E94F3110E946E0F0E94DC0652
:104A00008091E10083FF2BC08091E20083FF27C0EB
:104A10008091E100877F8093E10082E080938106AE
:104A2000109282068091E1008E7F8093E100809158
:104A3000E2008E7F8093E2008091E20080618093AB
:104A4000E20042E060E080E00E94DD048091F0003E
:104A500088608093F00085EE95E00E94A403FF91AA
:104A6000EF91BF91AF919F918F917F916F915F91E6
:104A70004F913F912F910F900FBE0F901F9018955F
:104A80001092720680917106882309F437CF8091C5
:104A900081068430B9F49091E9009F708091EC0018
:104AA00080FD13C080E0892B93E09093E900909102
:104AB000EB0090FF04C09091EE0097FD0AC08F704C
:104AC0008093E9001092710619CF80E8ECCF109224
:104AD000F1009091E80095FDFACF9091E80090FFE9
:104AE000EECF9091E8009E779093E800E8CF19BC54
:104AF0001092810689ED95E00E94A403109273063E
:104B000029CF8091E30087FD02C081E06BCF83E075
:104B100069CFCF93DF93CDB7DEB72E970FB6F8945A
:104B2000DEBF0FBECDBF84B7877F84BF0FB6F894BA
:104B3000A895809160008861809360001092600069
:104B40000FBE80E8809361001092610085B7806895
:104B500085BF85B7806885BF0E9446040E940F0507
:104B60008091E20084608093E20087EF9BE0909365
:104B7000A3058093A205789480918106882399F0FB
:104B80001091E9001F708091EC0080FD88C080E0EA
:104B9000182B1092E9008091E80083FD0E94FC111F
:104BA0001F701093E90082E084BD93E095BD9AEFF9
:104BB00097BD80936E00A2E8B5E061E070E08D9152
:104BC000E82FE295EF70F0E041A18F709B0101C0EA
:104BD000220F8A95EAF7922F9095942391A382A1B0
:104BE000822B82A325E0A738B20749F7A7E8B5E0F2
:104BF00061E070E08D91E82FE295EF70F0E041A167
:104C00008F709B0101C0220F8A95EAF7922F909531
:104C1000942391A382A1822B82A335E0A339B30709
:104C200049F710924E0610924D0610925D061092B2
:104C30005C061092500610924F0610925F0610927A
:104C40005E06109252061092510610926106109262
:104C5000600610925406109253061092630610924A
:104C60006206109256061092550610926506109232
:104C700064060E9471208FE39CE90197F1F700C060
:104C800000000E94712080915C0680FF0AC06FEFD7
:104C90007FEF90E080E00E94FA2B0E94060D80E8F2
:104CA00077CF0E94000F811102C00E940B0F279A3C
:104CB0002F988AE08093800089E1809381008FEFB4
:104CC0009FEF90938700809386000E946E0F0E9452
:104CD0008B0F6E9A769A0E94000F811102C00E947B
:104CE0000B0F82E090E00E94CE2B8093BF060E94C3
:104CF000E90B909358068093570683E090E00E945A
:104D0000CE2B682F70E090E080E00E94740B0E9430
:104D10006E0F84E095E090935A068093590684ECD8
:104D200095E00E94A40344244394512C66246A9481
:104D300080918106853009F4BBC00E94712087E60E
:104D400096E09E878D87ECE5F6E0FC87EB8710E028
:104D500000E0302EEB85FC85E190F190FC87EB873D
:104D6000ED85FE85A190B190FE87ED87AE14BF045E
:104D700009F4E5C08091BF0681FF3AC08FE895E055
:104D80000E94A4039CE5892E96E0992ED12CC12C7B
:104D9000DF92CF922AE835E03F932F930E943D04A3
:104DA00087E895E00E94A403F40180812180F2E06D
:104DB0008F0E911C0E940906782E822D0E940906F2
:104DC0007F928F9321E835E03F932F930E943D041B
:104DD0008FE795E00E94A4039FEFC91AD90A0FB686
:104DE000F894DEBF0FBECDBFF5E0CF16D10481F63B
:104DF00090E080E0AE24BF246201082E02C0CC0CFB
:104E0000DD1C0A94E2F795012C213D21232B09F4A6
:104E100091C089833A82EC20FD2081E0EF2809F4DB
:104E200080E08B830E94FD058160782F9D838C83B9
:104E300049815A816B818D810E94DE1F000F111FF5
:104E4000F801E959F94F80819181C826D926D1828C
:104E5000C0820E94DC0690916606891709F468CF2B
:104E60000E94DC06182F809366068091BF0682FFA1
:104E70005FCF80FF04C08DEA95E00E94A40380917B
:104E8000BF0680FF0CC01F921F9328EA35E03F93B6
:104E90002F930E943D040F900F900F900F908091E0
:104EA000BF0680FF45CF86EA95E00E94A40340CF6D
:104EB00080EC95E00E94A40380918106843039F152
:104EC00010925B0680E4E8E1F0E00FB6F894A89554
:104ED000E09360000FBE8093600080E00E94270A8C
:104EE00083B7817F846083BF83B7816083BF7894F9
:104EF000889583B78E7F83BF0FB6F894A89580916D
:104F00006000886180936000109260000FBE809105
:104F10008006882309F40CCF0E947120ECE5F6E0AE
:104F200081919191892B09F526E636E02E173F07EE
:104F3000B9F7FECE01968C30910509F05DCF0F5F79
:104F40001F4F0530110509F004CF6E826F8218865D
:104F50000E94FD058160782F9A8789874E815F8145
:104F600068858A850E94DE1F74CF90E199BDE2E1D9
:104F7000E9BD09B400FEFDCF8091D8008F7D8093FC
:104F8000D8008091E00082608093E0008091E00092
:104F900081FDFCCFCDCE78941F920F920FB60F9269
:104FA00011248F939F93AF93BF9380914606909166
:104FB0004706A0914806B09149060196A11DB11D72
:104FC0008093460690934706A0934806B0934906FF
:104FD000BF91AF919F918F910F900FBE0F901F9037
:104FE00018951F920F920FB60F9211248F939F93D3
:104FF000AF93BF9380915B06811113C080914606E9
:1050000090914706A0914806B09149064196A11D8E
:10501000B11D8093460690934706A0934806B0932F
:105020004906BF91AF919F918F910F900FBE0F9046
:105030001F9018951F920F920FB60F9211244F9246
:105040005F926F927F928F929F92AF92BF92CF9218
:10505000DF92EF92FF922F933F934F935F936F9363
:105060007F938F939F93AF93BF93EF93FF93809121
:10507000D606882309F4CAC0E090BD06F090BE06AB
:105080001E141F040CF0C2C04090B8055090B90522
:105090006090BA057090BB0520E030E0A901C30123
:1050A000B2010E94A12E18160CF0A0C121E0E21658
:1050B000F10409F452C08091B6059091B705B7018B
:1050C0000E94582B6C019093B7058093B605809091
:1050D000CC069090CD06A090CE06B090CF0620E0F2
:1050E00030E040E85FE3C501B4010E94742C609396
:1050F000CC067093CD068093CE069093CF06F60132
:10510000EE0FFF1FEE0FFF1FE556F94FA3019201AF
:1051100060817181828193810E94E52C20E030E0E2
:1051200040E05EE30E94A62E9B01AC01C501B401E4
:105130000E94A12E18168CF4C6010196B7010E9498
:10514000582B9093B7058093B6051092CC06109219
:10515000CD061092CE061092CF06E091B605F091E2
:10516000B705EE0FFF1FEE0FFF1FE556F94F6081E9
:105170007181828193812091BB063091BC062F3FC3
:10518000320731F02F5F3F4F3093BC062093BB06B0
:105190000E9497216B017C0120E034E244EF51E44E
:1051A0000E94E02C87FF08C056EFC52E58E2D52E8E
:1051B00054EFE52E51E4F52E20E030E040E051E4DC
:1051C000C701B6010E94A62E9B01AC0160E074E20B
:1051D00084E79BE40E94E52C6B017C010E945E2D1C
:1051E00070939700609396002091C4023091C5029D
:1051F0004091C6025091C702C701B6010E94A62E77
:105200000E945E2D70939900609398008091D5065E
:10521000882309F4C1C1C090C606D090C706E090AB
:10522000C806F090C90620E030E0A901C701B60128
:105230000E94A12E18160CF09EC18091BB06909181
:10524000BC068F3F980729F001969093BC06809387
:10525000BB06C701B6010E94972120E030E040E084
:1052600051E40E94A62E9B01AC0160E074E284E749
:105270009BE40E94E52C6B017C010E945E2D7093E3
:105280009700609396002091C4023091C50240912E
:10529000C6025091C702C701B6010E94A62E0E9405
:1052A0005E2D70939900609398006091C006709194
:1052B000C1066F5F7F4F7093C1066093C006E09098
:1052C0009600F090970090E080E00E948D2D4B01B9
:1052D0005C014090C2065090C3066090C406709076
:1052E000C506EF2809F450C18091B10581114CC168
:1052F000609196007091970090E080E00E948D2D63
:105300009B01AC01C301B2010E94E52C20E03FEFFC
:105310004FE757E40E94A62E20E030E040E85FE32C
:105320000E94732CA50194010E94E02C18160CF425
:1053300033C18091CA069091CB0601969093CB061B
:105340008093CA062091D1063091D2068217930726
:1053500048F08091D006882309F427C11092CB062B
:105360001092CA06E091D306F091D4068091CA0645
:105370009091CB069C0143E0220F331F4A95E1F741
:10538000E20FF31F20813181428153816091B10589
:1053900061113DC161E06093B10501979093CB0627
:1053A0008093CA063897C080D180E280F380C7011D
:1053B000B6010E94E02C811121C11092C606109204
:1053C000C7061092C8061092C90680E090E0A0E8D7
:1053D000BFE38093C2069093C306A093C406B09324
:1053E000C5061092C1061092C006D6C0F701EE0F96
:1053F000FF1FEE0FFF1FE956F94F80809180A280BA
:10540000B3808091C802882309F4ACC0C090B20573
:10541000D090B305E090B405F090B50520E030E001
:10542000A901C701B6010E94E02C882309F49AC0A3
:10543000A5019401C701B6010E94E02C87FF5BC063
:10544000A501940160E070E08CED93EC0E94E52CE6
:1054500020E030E040E451E40E94E52C20E030E020
:1054600040E05FE30E94A62E9B01AC0160E070E08B
:1054700080E090E40E94132FA50194010E94A62EC3
:105480009B01AC01C701B6010E94E02C87FF33C02D
:10549000A701960160E070E08CED93E40E94E52C9A
:1054A00020E030E040E451E40E94E52C20E030E0D0
:1054B00040E05FE30E94A62E9B01AC0160E070E03B
:1054C00080E090E40E94132F9B01AC01C701B6015C
:1054D0000E94A62E6093B2057093B3058093B40525
:1054E0009093B5056091B2057091B3058091B405B4
:1054F0009091B50540CEA5019401C701B6010E9467
:10550000A12E18167CF5A501940160E070E08CEDE9
:1055100093E40E94E52C20E030E040E451E40E9456
:10552000E52C20E030E040E05FE30E94A62E9B01E6
:10553000AC0160E070E080E090E40E94132FA501D0
:1055400094010E94A62E9B01AC01C701B6010E94E6
:10555000A12E18163CF4A701960160E070E08CEDD6
:1055600093EC9CCF8092B2059092B305A092B405C3
:10557000B092B505B7CF1092970010929600109296
:1055800099001092980091CEA3019201C501B40137
:105590000E94A12E87FFCDCE8091D70680FD11C03D
:1055A0001092D5061092D6060CC0809171008D7FA6
:1055B00080937100809190008F738093900010927F
:1055C000D506FF91EF91BF91AF919F918F917F9100
:1055D0006F915F914F913F912F91FF90EF90DF90EE
:1055E000CF90BF90AF909F908F907F906F905F9083
:1055F0004F900F900FBE0F901F901895C092C60647
:10560000D092C706E092C806F092C906DECE10928C
:10561000B1051092BC061092BB062093C6063093CB
:10562000C7064093C8065093C90620E030E040E822
:105630005EE364817581868197810E94A62E6093C6
:10564000C2067093C3068093C4069093C506C9CE64
:10565000DB018F939F930E942F2CBF91AF91A29F4C
:10566000800D911DA39F900DB29F900D1124089560
:10567000991B79E004C0991F961708F0961B881FA4
:105680007A95C9F780950895AA1BBB1B51E107C005
:10569000AA1FBB1FA617B70710F0A61BB70B881FC2
:1056A000991F5A95A9F780959095BC01CD01089551
:1056B00097FB072E16F4009407D077FD09D00E94BF
:1056C000442B07FC05D03EF4909581959F4F08959B
:1056D000709561957F4F0895EE0FFF1F0590F4912F
:1056E000E02D09948F929F92AF92BF92CF92DF925A
:1056F000EF92FF92CF93DF93EC01688179818A81E9
:105700009B81611571058105910521F464E279EDB4
:105710008BE597E02DE133EF41E050E00E94102C43
:1057200049015A019B01AC01A7EAB1E40E942F2C68
:105730006B017C01ACEEB4EFA50194010E943D2CFD
:10574000DC01CB018C0D9D1DAE1DBF1DB7FF03C03D
:105750000197A109B04888839983AA83BB839F7767
:10576000DF91CF91FF90EF90DF90CF90BF90AF90FF
:105770009F908F9008950E94722B089580E091E091
:105780000E94722B0895B0E0A0E0809300019093F6
:105790000101A0930201B09303010895F999FECF8E
:1057A00092BD81BDF89A992780B50895A8E1B0E02F
:1057B00042E050E00C94022C262FF999FECF92BDC6
:1057C00081BDF89A019700B4021639F01FBA20BDC6
:1057D0000FB6F894FA9AF99A0FBE08950396272FF8
:1057E0000E94DD2B0E94DC2B252F0E94DD2B242F15
:1057F0000C94DD2B0196272F0E94DD2B0C94DC2BC3
:10580000DC01CB01FC01F999FECF06C0F2BDE1BD80
:10581000F89A319600B40D9241505040B8F708956F
:10582000052E97FB1EF400940E94272C57FD07D0ED
:105830000E94422C07FC03D04EF40C94272C509568
:105840004095309521953F4F4F4F5F4F089590956C
:105850008095709561957F4F8F4F9F4F08950E945F
:10586000642CA59F900DB49F900DA49F800D911D59
:1058700011240895B7FF0C942F2C0E942F2C821B0B
:10588000930B0895A1E21A2EAA1BBB1BFD010DC0AC
:10589000AA1FBB1FEE1FFF1FA217B307E407F507E0
:1058A00020F0A21BB30BE40BF50B661F771F881FBC
:1058B000991F1A9469F760957095809590959B0152
:1058C000AC01BD01CF010895A29FB001B39FC001FB
:1058D000A39F700D811D1124911DB29F700D811D1C
:1058E0001124911D08955058BB27AA270E948B2C84
:1058F0000C94672E0E94592E38F00E94602E20F0E2
:1059000039F49F3F19F426F40C94562E0EF4E095CA
:10591000E7FB0C94422EE92F0E94782E58F3BA1719
:10592000620773078407950720F079F4A6F50C94B5
:105930009A2E0EF4E0950B2EBA2FA02D0B01B90173
:1059400090010C01CA01A0011124FF27591B99F0F5
:10595000593F50F4503E68F11A16F040A22F232F01
:10596000342F4427585FF3CF469537952795A79551
:10597000F0405395C9F77EF41F16BA0B620B730BF8
:10598000840BBAF09150A1F0FF0FBB1F661F771F69
:10599000881FC2F70EC0BA0F621F731F841F48F41E
:1059A000879577956795B795F7959E3F08F0B0CFA7
:1059B0009395880F08F09927EE0F9795879508958E
:1059C0000E941E2E08F481E008950E94F92C0C9488
:1059D000672E0E94602E58F00E94592E40F029F444
:1059E0005F3F29F00C94422E51110C949B2E0C9485
:1059F000562E0E94782E68F39923B1F3552391F324
:105A0000951B550BBB27AA2762177307840738F02D
:105A10009F5F5F4F220F331F441FAA1FA9F335D08A
:105A20000E2E3AF0E0E832D091505040E695001C3E
:105A3000CAF72BD0FE2F29D0660F771F881FBB1FF8
:105A4000261737074807AB07B0E809F0BB0B802DD6
:105A5000BF01FF2793585F4F3AF09E3F510578F002
:105A60000C94422E0C949B2E5F3FE4F3983ED4F3AB
:105A7000869577956795B795F7959F5FC9F7880FD6
:105A8000911D9695879597F90895E1E0660F771F28
:105A9000881FBB1F621773078407BA0720F0621BB9
:105AA000730B840BBA0BEE1F88F7E09508950E94E4
:105AB0005E2D6894B1110C949B2E08950E94802E47
:105AC00088F09F5798F0B92F9927B751B0F0E1F0BF
:105AD000660F771F881F991F1AF0BA95C9F714C06F
